{
	"data": {
		"bytecode": {
			"linkReferences": {},
			"object": "6080604052348015600e575f5ffd5b50604051610846380380610846833981016040819052602b916088565b5f80546001600160a01b03199081166001600160a01b039687161790915560018054821694861694909417909355600280549093169190931617905560035560c9565b80516001600160a01b03811681146083575f5ffd5b919050565b5f5f5f5f60808587031215609a575f5ffd5b60a185606e565b935060ad60208601606e565b925060b960408601606e565b6060959095015193969295505050565b610770806100d65f395ff3fe608060405234801561000f575f5ffd5b50600436106100a6575f3560e01c806347ccca021161006e57806347ccca021461013957806370a0823114610163578063a694fc3a14610182578063be040fb014610195578063f7c618c11461019d578063fb75b2c7146101b0575f5ffd5b806310098ad5146100aa578063150b7a02146100d05780632ce9aead146100fc5780632d6a1fa61461011b5780632e1a7d4d14610124575b5f5ffd5b6100bd6100b83660046105ac565b6101c3565b6040519081526020015b60405180910390f35b6100e36100de3660046105cc565b610259565b6040516001600160e01b031990911681526020016100c7565b6100bd61010a3660046105ac565b60066020525f908152604090205481565b6100bd60035481565b610137610132366004610661565b6102da565b005b5f5461014b906001600160a01b031681565b6040516001600160a01b0390911681526020016100c7565b6100bd6101713660046105ac565b60056020525f908152604090205481565b610137610190366004610661565b610409565b61013761047e565b60015461014b906001600160a01b031681565b60025461014b906001600160a01b031681565b6001600160a01b0381165f9081526006602052604081205481906101e7904261068c565b6003546001600160a01b0385165f90815260056020526040812054929350916201518091906102179085906106a5565b61022191906106a5565b61022b91906106bc565b6001600160a01b0385165f908152600760205260409020549091506102519082906106db565b949350505050565b5f84610264816101c3565b6001600160a01b038281165f90815260076020908152604080832094909455600681528382204290558882526004815283822080546001600160a01b031916938b16938417905591815260059091529081208054916102c2836106ee565b90915550630a85bd0160e11b98975050505050505050565b336102e4816101c3565b6001600160a01b038281165f90815260076020908152604080832094909455600681528382204290558582526004905291909120541633146103645760405162461bcd60e51b81526020600482015260146024820152732a37b5b2b71034b9903737ba1039ba30b5b2b21760611b60448201526064015b60405180910390fd5b5f82815260046020908152604080832080546001600160a01b03191690553383526005909152812080549161039883610706565b90915550505f8054604080516323b872dd60e01b81523060048201523360248201526044810186905290516001600160a01b03909216926323b872dd9260648084019382900301818387803b1580156103ef575f5ffd5b505af1158015610401573d5f5f3e3d5ffd5b505050505050565b5f546001600160a01b03166342842e0e336040516001600160e01b031960e084901b1681526001600160a01b039091166004820152306024820152604481018490526064015f604051808303815f87803b158015610465575f5ffd5b505af1158015610477573d5f5f3e3d5ffd5b5050505050565b33610488816101c3565b6001600160a01b0382165f9081526007602081815260408084209490945560068152838320429055338352522054806104f75760405162461bcd60e51b81526020600482015260116024820152704e6f7468696e6720746f2072656465656d60781b604482015260640161035b565b335f81815260076020908152604080832083905560015460025482516323b872dd60e01b81526001600160a01b03918216600482015260248101969096526044860187905291519116936323b872dd93606480830194939283900301908290875af1158015610568573d5f5f3e3d5ffd5b505050506040513d601f19601f8201168201806040525081019061058c919061071b565b505050565b80356001600160a01b03811681146105a7575f5ffd5b919050565b5f602082840312156105bc575f5ffd5b6105c582610591565b9392505050565b5f5f5f5f5f608086880312156105e0575f5ffd5b6105e986610591565b94506105f760208701610591565b935060408601359250606086013567ffffffffffffffff811115610619575f5ffd5b8601601f81018813610629575f5ffd5b803567ffffffffffffffff81111561063f575f5ffd5b886020828401011115610650575f5ffd5b959894975092955050506020019190565b5f60208284031215610671575f5ffd5b5035919050565b634e487b7160e01b5f52601160045260245ffd5b8181038181111561069f5761069f610678565b92915050565b808202811582820484141761069f5761069f610678565b5f826106d657634e487b7160e01b5f52601260045260245ffd5b500490565b8082018082111561069f5761069f610678565b5f600182016106ff576106ff610678565b5060010190565b5f8161071457610714610678565b505f190190565b5f6020828403121561072b575f5ffd5b815180151581146105c5575f5ffdfea2646970667358221220f110e4b4f082c754c2397783ac698a064cdee6c32be957f81cf45f7db40b006464736f6c634300081b0033",
			"opcodes": "PUSH1 0x80 PUSH1 0x40 MSTORE CALLVALUE DUP1 ISZERO PUSH1 0xE JUMPI PUSH0 PUSH0 REVERT JUMPDEST POP PUSH1 0x40 MLOAD PUSH2 0x846 CODESIZE SUB DUP1 PUSH2 0x846 DUP4 CODECOPY DUP2 ADD PUSH1 0x40 DUP2 SWAP1 MSTORE PUSH1 0x2B SWAP2 PUSH1 0x88 JUMP JUMPDEST PUSH0 DUP1 SLOAD PUSH1 0x1 PUSH1 0x1 PUSH1 0xA0 SHL SUB NOT SWAP1 DUP2 AND PUSH1 0x1 PUSH1 0x1 PUSH1 0xA0 SHL SUB SWAP7 DUP8 AND OR SWAP1 SWAP2 SSTORE PUSH1 0x1 DUP1 SLOAD DUP3 AND SWAP5 DUP7 AND SWAP5 SWAP1 SWAP5 OR SWAP1 SWAP4 SSTORE PUSH1 0x2 DUP1 SLOAD SWAP1 SWAP4 AND SWAP2 SWAP1 SWAP4 AND OR SWAP1 SSTORE PUSH1 0x3 SSTORE PUSH1 0xC9 JUMP JUMPDEST DUP1 MLOAD PUSH1 0x1 PUSH1 0x1 PUSH1 0xA0 SHL SUB DUP2 AND DUP2 EQ PUSH1 0x83 JUMPI PUSH0 PUSH0 REVERT JUMPDEST SWAP2 SWAP1 POP JUMP JUMPDEST PUSH0 PUSH0 PUSH0 PUSH0 PUSH1 0x80 DUP6 DUP8 SUB SLT ISZERO PUSH1 0x9A JUMPI PUSH0 PUSH0 REVERT JUMPDEST PUSH1 0xA1 DUP6 PUSH1 0x6E JUMP JUMPDEST SWAP4 POP PUSH1 0xAD PUSH1 0x20 DUP7 ADD PUSH1 0x6E JUMP JUMPDEST SWAP3 POP PUSH1 0xB9 PUSH1 0x40 DUP7 ADD PUSH1 0x6E JUMP JUMPDEST PUSH1 0x60 SWAP6 SWAP1 SWAP6 ADD MLOAD SWAP4 SWAP7 SWAP3 SWAP6 POP POP POP JUMP JUMPDEST PUSH2 0x770 DUP1 PUSH2 0xD6 PUSH0 CODECOPY PUSH0 RETURN INVALID PUSH1 0x80 PUSH1 0x40 MSTORE CALLVALUE DUP1 ISZERO PUSH2 0xF JUMPI PUSH0 PUSH0 REVERT JUMPDEST POP PUSH1 0x4 CALLDATASIZE LT PUSH2 0xA6 JUMPI PUSH0 CALLDATALOAD PUSH1 0xE0 SHR DUP1 PUSH4 0x47CCCA02 GT PUSH2 0x6E JUMPI DUP1 PUSH4 0x47CCCA02 EQ PUSH2 0x139 JUMPI DUP1 PUSH4 0x70A08231 EQ PUSH2 0x163 JUMPI DUP1 PUSH4 0xA694FC3A EQ PUSH2 0x182 JUMPI DUP1 PUSH4 0xBE040FB0 EQ PUSH2 0x195 JUMPI DUP1 PUSH4 0xF7C618C1 EQ PUSH2 0x19D JUMPI DUP1 PUSH4 0xFB75B2C7 EQ PUSH2 0x1B0 JUMPI PUSH0 PUSH0 REVERT JUMPDEST DUP1 PUSH4 0x10098AD5 EQ PUSH2 0xAA JUMPI DUP1 PUSH4 0x150B7A02 EQ PUSH2 0xD0 JUMPI DUP1 PUSH4 0x2CE9AEAD EQ PUSH2 0xFC JUMPI DUP1 PUSH4 0x2D6A1FA6 EQ PUSH2 0x11B JUMPI DUP1 PUSH4 0x2E1A7D4D EQ PUSH2 0x124 JUMPI JUMPDEST PUSH0 PUSH0 REVERT JUMPDEST PUSH2 0xBD PUSH2 0xB8 CALLDATASIZE PUSH1 0x4 PUSH2 0x5AC JUMP JUMPDEST PUSH2 0x1C3 JUMP JUMPDEST PUSH1 0x40 MLOAD SWAP1 DUP2 MSTORE PUSH1 0x20 ADD JUMPDEST PUSH1 0x40 MLOAD DUP1 SWAP2 SUB SWAP1 RETURN JUMPDEST PUSH2 0xE3 PUSH2 0xDE CALLDATASIZE PUSH1 0x4 PUSH2 0x5CC JUMP JUMPDEST PUSH2 0x259 JUMP JUMPDEST PUSH1 0x40 MLOAD PUSH1 0x1 PUSH1 0x1 PUSH1 0xE0 SHL SUB NOT SWAP1 SWAP2 AND DUP2 MSTORE PUSH1 0x20 ADD PUSH2 0xC7 JUMP JUMPDEST PUSH2 0xBD PUSH2 0x10A CALLDATASIZE PUSH1 0x4 PUSH2 0x5AC JUMP JUMPDEST PUSH1 0x6 PUSH1 0x20 MSTORE PUSH0 SWAP1 DUP2 MSTORE PUSH1 0x40 SWAP1 KECCAK256 SLOAD DUP2 JUMP JUMPDEST PUSH2 0xBD PUSH1 0x3 SLOAD DUP2 JUMP JUMPDEST PUSH2 0x137 PUSH2 0x132 CALLDATASIZE PUSH1 0x4 PUSH2 0x661 JUMP JUMPDEST PUSH2 0x2DA JUMP JUMPDEST STOP JUMPDEST PUSH0 SLOAD PUSH2 0x14B SWAP1 PUSH1 0x1 PUSH1 0x1 PUSH1 0xA0 SHL SUB AND DUP2 JUMP JUMPDEST PUSH1 0x40 MLOAD PUSH1 0x1 PUSH1 0x1 PUSH1 0xA0 SHL SUB SWAP1 SWAP2 AND DUP2 MSTORE PUSH1 0x20 ADD PUSH2 0xC7 JUMP JUMPDEST PUSH2 0xBD PUSH2 0x171 CALLDATASIZE PUSH1 0x4 PUSH2 0x5AC JUMP JUMPDEST PUSH1 0x5 PUSH1 0x20 MSTORE PUSH0 SWAP1 DUP2 MSTORE PUSH1 0x40 SWAP1 KECCAK256 SLOAD DUP2 JUMP JUMPDEST PUSH2 0x137 PUSH2 0x190 CALLDATASIZE PUSH1 0x4 PUSH2 0x661 JUMP JUMPDEST PUSH2 0x409 JUMP JUMPDEST PUSH2 0x137 PUSH2 0x47E JUMP JUMPDEST PUSH1 0x1 SLOAD PUSH2 0x14B SWAP1 PUSH1 0x1 PUSH1 0x1 PUSH1 0xA0 SHL SUB AND DUP2 JUMP JUMPDEST PUSH1 0x2 SLOAD PUSH2 0x14B SWAP1 PUSH1 0x1 PUSH1 0x1 PUSH1 0xA0 SHL SUB AND DUP2 JUMP JUMPDEST PUSH1 0x1 PUSH1 0x1 PUSH1 0xA0 SHL SUB DUP2 AND PUSH0 SWAP1 DUP2 MSTORE PUSH1 0x6 PUSH1 0x20 MSTORE PUSH1 0x40 DUP2 KECCAK256 SLOAD DUP2 SWAP1 PUSH2 0x1E7 SWAP1 TIMESTAMP PUSH2 0x68C JUMP JUMPDEST PUSH1 0x3 SLOAD PUSH1 0x1 PUSH1 0x1 PUSH1 0xA0 SHL SUB DUP6 AND PUSH0 SWAP1 DUP2 MSTORE PUSH1 0x5 PUSH1 0x20 MSTORE PUSH1 0x40 DUP2 KECCAK256 SLOAD SWAP3 SWAP4 POP SWAP2 PUSH3 0x15180 SWAP2 SWAP1 PUSH2 0x217 SWAP1 DUP6 SWAP1 PUSH2 0x6A5 JUMP JUMPDEST PUSH2 0x221 SWAP2 SWAP1 PUSH2 0x6A5 JUMP JUMPDEST PUSH2 0x22B SWAP2 SWAP1 PUSH2 0x6BC JUMP JUMPDEST PUSH1 0x1 PUSH1 0x1 PUSH1 0xA0 SHL SUB DUP6 AND PUSH0 SWAP1 DUP2 MSTORE PUSH1 0x7 PUSH1 0x20 MSTORE PUSH1 0x40 SWAP1 KECCAK256 SLOAD SWAP1 SWAP2 POP PUSH2 0x251 SWAP1 DUP3 SWAP1 PUSH2 0x6DB JUMP JUMPDEST SWAP5 SWAP4 POP POP POP POP JUMP JUMPDEST PUSH0 DUP5 PUSH2 0x264 DUP2 PUSH2 0x1C3 JUMP JUMPDEST PUSH1 0x1 PUSH1 0x1 PUSH1 0xA0 SHL SUB DUP3 DUP2 AND PUSH0 SWAP1 DUP2 MSTORE PUSH1 0x7 PUSH1 0x20 SWAP1 DUP2 MSTORE PUSH1 0x40 DUP1 DUP4 KECCAK256 SWAP5 SWAP1 SWAP5 SSTORE PUSH1 0x6 DUP2 MSTORE DUP4 DUP3 KECCAK256 TIMESTAMP SWAP1 SSTORE DUP9 DUP3 MSTORE PUSH1 0x4 DUP2 MSTORE DUP4 DUP3 KECCAK256 DUP1 SLOAD PUSH1 0x1 PUSH1 0x1 PUSH1 0xA0 SHL SUB NOT AND SWAP4 DUP12 AND SWAP4 DUP5 OR SWAP1 SSTORE SWAP2 DUP2 MSTORE PUSH1 0x5 SWAP1 SWAP2 MSTORE SWAP1 DUP2 KECCAK256 DUP1 SLOAD SWAP2 PUSH2 0x2C2 DUP4 PUSH2 0x6EE JUMP JUMPDEST SWAP1 SWAP2 SSTORE POP PUSH4 0xA85BD01 PUSH1 0xE1 SHL SWAP9 SWAP8 POP POP POP POP POP POP POP POP JUMP JUMPDEST CALLER PUSH2 0x2E4 DUP2 PUSH2 0x1C3 JUMP JUMPDEST PUSH1 0x1 PUSH1 0x1 PUSH1 0xA0 SHL SUB DUP3 DUP2 AND PUSH0 SWAP1 DUP2 MSTORE PUSH1 0x7 PUSH1 0x20 SWAP1 DUP2 MSTORE PUSH1 0x40 DUP1 DUP4 KECCAK256 SWAP5 SWAP1 SWAP5 SSTORE PUSH1 0x6 DUP2 MSTORE DUP4 DUP3 KECCAK256 TIMESTAMP SWAP1 SSTORE DUP6 DUP3 MSTORE PUSH1 0x4 SWAP1 MSTORE SWAP2 SWAP1 SWAP2 KECCAK256 SLOAD AND CALLER EQ PUSH2 0x364 JUMPI PUSH1 0x40 MLOAD PUSH3 0x461BCD PUSH1 0xE5 SHL DUP2 MSTORE PUSH1 0x20 PUSH1 0x4 DUP3 ADD MSTORE PUSH1 0x14 PUSH1 0x24 DUP3 ADD MSTORE PUSH20 0x2A37B5B2B71034B9903737BA1039BA30B5B2B217 PUSH1 0x61 SHL PUSH1 0x44 DUP3 ADD MSTORE PUSH1 0x64 ADD JUMPDEST PUSH1 0x40 MLOAD DUP1 SWAP2 SUB SWAP1 REVERT JUMPDEST PUSH0 DUP3 DUP2 MSTORE PUSH1 0x4 PUSH1 0x20 SWAP1 DUP2 MSTORE PUSH1 0x40 DUP1 DUP4 KECCAK256 DUP1 SLOAD PUSH1 0x1 PUSH1 0x1 PUSH1 0xA0 SHL SUB NOT AND SWAP1 SSTORE CALLER DUP4 MSTORE PUSH1 0x5 SWAP1 SWAP2 MSTORE DUP2 KECCAK256 DUP1 SLOAD SWAP2 PUSH2 0x398 DUP4 PUSH2 0x706 JUMP JUMPDEST SWAP1 SWAP2 SSTORE POP POP PUSH0 DUP1 SLOAD PUSH1 0x40 DUP1 MLOAD PUSH4 0x23B872DD PUSH1 0xE0 SHL DUP2 MSTORE ADDRESS PUSH1 0x4 DUP3 ADD MSTORE CALLER PUSH1 0x24 DUP3 ADD MSTORE PUSH1 0x44 DUP2 ADD DUP7 SWAP1 MSTORE SWAP1 MLOAD PUSH1 0x1 PUSH1 0x1 PUSH1 0xA0 SHL SUB SWAP1 SWAP3 AND SWAP3 PUSH4 0x23B872DD SWAP3 PUSH1 0x64 DUP1 DUP5 ADD SWAP4 DUP3 SWAP1 SUB ADD DUP2 DUP4 DUP8 DUP1 EXTCODESIZE ISZERO DUP1 ISZERO PUSH2 0x3EF JUMPI PUSH0 PUSH0 REVERT JUMPDEST POP GAS CALL ISZERO DUP1 ISZERO PUSH2 0x401 JUMPI RETURNDATASIZE PUSH0 PUSH0 RETURNDATACOPY RETURNDATASIZE PUSH0 REVERT JUMPDEST POP POP POP POP POP POP JUMP JUMPDEST PUSH0 SLOAD PUSH1 0x1 PUSH1 0x1 PUSH1 0xA0 SHL SUB AND PUSH4 0x42842E0E CALLER PUSH1 0x40 MLOAD PUSH1 0x1 PUSH1 0x1 PUSH1 0xE0 SHL SUB NOT PUSH1 0xE0 DUP5 SWAP1 SHL AND DUP2 MSTORE PUSH1 0x1 PUSH1 0x1 PUSH1 0xA0 SHL SUB SWAP1 SWAP2 AND PUSH1 0x4 DUP3 ADD MSTORE ADDRESS PUSH1 0x24 DUP3 ADD MSTORE PUSH1 0x44 DUP2 ADD DUP5 SWAP1 MSTORE PUSH1 0x64 ADD PUSH0 PUSH1 0x40 MLOAD DUP1 DUP4 SUB DUP2 PUSH0 DUP8 DUP1 EXTCODESIZE ISZERO DUP1 ISZERO PUSH2 0x465 JUMPI PUSH0 PUSH0 REVERT JUMPDEST POP GAS CALL ISZERO DUP1 ISZERO PUSH2 0x477 JUMPI RETURNDATASIZE PUSH0 PUSH0 RETURNDATACOPY RETURNDATASIZE PUSH0 REVERT JUMPDEST POP POP POP POP POP JUMP JUMPDEST CALLER PUSH2 0x488 DUP2 PUSH2 0x1C3 JUMP JUMPDEST PUSH1 0x1 PUSH1 0x1 PUSH1 0xA0 SHL SUB DUP3 AND PUSH0 SWAP1 DUP2 MSTORE PUSH1 0x7 PUSH1 0x20 DUP2 DUP2 MSTORE PUSH1 0x40 DUP1 DUP5 KECCAK256 SWAP5 SWAP1 SWAP5 SSTORE PUSH1 0x6 DUP2 MSTORE DUP4 DUP4 KECCAK256 TIMESTAMP SWAP1 SSTORE CALLER DUP4 MSTORE MSTORE KECCAK256 SLOAD DUP1 PUSH2 0x4F7 JUMPI PUSH1 0x40 MLOAD PUSH3 0x461BCD PUSH1 0xE5 SHL DUP2 MSTORE PUSH1 0x20 PUSH1 0x4 DUP3 ADD MSTORE PUSH1 0x11 PUSH1 0x24 DUP3 ADD MSTORE PUSH17 0x4E6F7468696E6720746F2072656465656D PUSH1 0x78 SHL PUSH1 0x44 DUP3 ADD MSTORE PUSH1 0x64 ADD PUSH2 0x35B JUMP JUMPDEST CALLER PUSH0 DUP2 DUP2 MSTORE PUSH1 0x7 PUSH1 0x20 SWAP1 DUP2 MSTORE PUSH1 0x40 DUP1 DUP4 KECCAK256 DUP4 SWAP1 SSTORE PUSH1 0x1 SLOAD PUSH1 0x2 SLOAD DUP3 MLOAD PUSH4 0x23B872DD PUSH1 0xE0 SHL DUP2 MSTORE PUSH1 0x1 PUSH1 0x1 PUSH1 0xA0 SHL SUB SWAP2 DUP3 AND PUSH1 0x4 DUP3 ADD MSTORE PUSH1 0x24 DUP2 ADD SWAP7 SWAP1 SWAP7 MSTORE PUSH1 0x44 DUP7 ADD DUP8 SWAP1 MSTORE SWAP2 MLOAD SWAP2 AND SWAP4 PUSH4 0x23B872DD SWAP4 PUSH1 0x64 DUP1 DUP4 ADD SWAP5 SWAP4 SWAP3 DUP4 SWAP1 SUB ADD SWAP1 DUP3 SWAP1 DUP8 GAS CALL ISZERO DUP1 ISZERO PUSH2 0x568 JUMPI RETURNDATASIZE PUSH0 PUSH0 RETURNDATACOPY RETURNDATASIZE PUSH0 REVERT JUMPDEST POP POP POP POP PUSH1 0x40 MLOAD RETURNDATASIZE PUSH1 0x1F NOT PUSH1 0x1F DUP3 ADD AND DUP3 ADD DUP1 PUSH1 0x40 MSTORE POP DUP2 ADD SWAP1 PUSH2 0x58C SWAP2 SWAP1 PUSH2 0x71B JUMP JUMPDEST POP POP POP JUMP JUMPDEST DUP1 CALLDATALOAD PUSH1 0x1 PUSH1 0x1 PUSH1 0xA0 SHL SUB DUP2 AND DUP2 EQ PUSH2 0x5A7 JUMPI PUSH0 PUSH0 REVERT JUMPDEST SWAP2 SWAP1 POP JUMP JUMPDEST PUSH0 PUSH1 0x20 DUP3 DUP5 SUB SLT ISZERO PUSH2 0x5BC JUMPI PUSH0 PUSH0 REVERT JUMPDEST PUSH2 0x5C5 DUP3 PUSH2 0x591 JUMP JUMPDEST SWAP4 SWAP3 POP POP POP JUMP JUMPDEST PUSH0 PUSH0 PUSH0 PUSH0 PUSH0 PUSH1 0x80 DUP7 DUP9 SUB SLT ISZERO PUSH2 0x5E0 JUMPI PUSH0 PUSH0 REVERT JUMPDEST PUSH2 0x5E9 DUP7 PUSH2 0x591 JUMP JUMPDEST SWAP5 POP PUSH2 0x5F7 PUSH1 0x20 DUP8 ADD PUSH2 0x591 JUMP JUMPDEST SWAP4 POP PUSH1 0x40 DUP7 ADD CALLDATALOAD SWAP3 POP PUSH1 0x60 DUP7 ADD CALLDATALOAD PUSH8 0xFFFFFFFFFFFFFFFF DUP2 GT ISZERO PUSH2 0x619 JUMPI PUSH0 PUSH0 REVERT JUMPDEST DUP7 ADD PUSH1 0x1F DUP2 ADD DUP9 SGT PUSH2 0x629 JUMPI PUSH0 PUSH0 REVERT JUMPDEST DUP1 CALLDATALOAD PUSH8 0xFFFFFFFFFFFFFFFF DUP2 GT ISZERO PUSH2 0x63F JUMPI PUSH0 PUSH0 REVERT JUMPDEST DUP9 PUSH1 0x20 DUP3 DUP5 ADD ADD GT ISZERO PUSH2 0x650 JUMPI PUSH0 PUSH0 REVERT JUMPDEST SWAP6 SWAP9 SWAP5 SWAP8 POP SWAP3 SWAP6 POP POP POP PUSH1 0x20 ADD SWAP2 SWAP1 JUMP JUMPDEST PUSH0 PUSH1 0x20 DUP3 DUP5 SUB SLT ISZERO PUSH2 0x671 JUMPI PUSH0 PUSH0 REVERT JUMPDEST POP CALLDATALOAD SWAP2 SWAP1 POP JUMP JUMPDEST PUSH4 0x4E487B71 PUSH1 0xE0 SHL PUSH0 MSTORE PUSH1 0x11 PUSH1 0x4 MSTORE PUSH1 0x24 PUSH0 REVERT JUMPDEST DUP2 DUP2 SUB DUP2 DUP2 GT ISZERO PUSH2 0x69F JUMPI PUSH2 0x69F PUSH2 0x678 JUMP JUMPDEST SWAP3 SWAP2 POP POP JUMP JUMPDEST DUP1 DUP3 MUL DUP2 ISZERO DUP3 DUP3 DIV DUP5 EQ OR PUSH2 0x69F JUMPI PUSH2 0x69F PUSH2 0x678 JUMP JUMPDEST PUSH0 DUP3 PUSH2 0x6D6 JUMPI PUSH4 0x4E487B71 PUSH1 0xE0 SHL PUSH0 MSTORE PUSH1 0x12 PUSH1 0x4 MSTORE PUSH1 0x24 PUSH0 REVERT JUMPDEST POP DIV SWAP1 JUMP JUMPDEST DUP1 DUP3 ADD DUP1 DUP3 GT ISZERO PUSH2 0x69F JUMPI PUSH2 0x69F PUSH2 0x678 JUMP JUMPDEST PUSH0 PUSH1 0x1 DUP3 ADD PUSH2 0x6FF JUMPI PUSH2 0x6FF PUSH2 0x678 JUMP JUMPDEST POP PUSH1 0x1 ADD SWAP1 JUMP JUMPDEST PUSH0 DUP2 PUSH2 0x714 JUMPI PUSH2 0x714 PUSH2 0x678 JUMP JUMPDEST POP PUSH0 NOT ADD SWAP1 JUMP JUMPDEST PUSH0 PUSH1 0x20 DUP3 DUP5 SUB SLT ISZERO PUSH2 0x72B JUMPI PUSH0 PUSH0 REVERT JUMPDEST DUP2 MLOAD DUP1 ISZERO ISZERO DUP2 EQ PUSH2 0x5C5 JUMPI PUSH0 PUSH0 REVERT INVALID LOG2 PUSH5 0x6970667358 0x22 SLT KECCAK256 CALL LT 0xE4 0xB4 CREATE DUP3 0xC7 SLOAD 0xC2 CODECOPY PUSH24 0x83AC698A064CDEE6C32BE957F81CF45F7DB40B006464736F PUSH13 0x634300081B0033000000000000 "
		},
		"gasEstimates": {
			"creation": {
				"codeDepositCost": "380800",
				"executionCost": "infinite",
				"totalCost": "infinite"
			},
			"external": {
				"available(address)": "infinite",
				"balanceOf(address)": "2527",
				"lastUpdateTime(address)": "2550",
				"nft()": "2335",
				"onERC721Received(address,address,uint256,bytes)": "infinite",
				"redeem()": "infinite",
				"rewardPerTokenPerDay()": "2350",
				"rewardToken()": "2424",
				"rewardWallet()": "2446",
				"stake(uint256)": "infinite",
				"withdraw(uint256)": "infinite"
			}
		},
		"methodIdentifiers": {
			"available(address)": "10098ad5",
			"balanceOf(address)": "70a08231",
			"lastUpdateTime(address)": "2ce9aead",
			"nft()": "47ccca02",
			"onERC721Received(address,address,uint256,bytes)": "150b7a02",
			"redeem()": "be040fb0",
			"rewardPerTokenPerDay()": "2d6a1fa6",
			"rewardToken()": "f7c618c1",
			"rewardWallet()": "fb75b2c7",
			"stake(uint256)": "a694fc3a",
			"withdraw(uint256)": "2e1a7d4d"
		}
	},
	"abi": [
		{
			"inputs": [
				{
					"internalType": "address",
					"name": "nftAddress",
					"type": "address"
				},
				{
					"internalType": "address",
					"name": "rewardTokenAddress",
					"type": "address"
				},
				{
					"internalType": "address",
					"name": "rewardWalletAddress",
					"type": "address"
				},
				{
					"internalType": "uint256",
					"name": "rewardRate",
					"type": "uint256"
				}
			],
			"stateMutability": "nonpayable",
			"type": "constructor"
		},
		{
			"inputs": [
				{
					"internalType": "address",
					"name": "account",
					"type": "address"
				}
			],
			"name": "available",
			"outputs": [
				{
					"internalType": "uint256",
					"name": "",
					"type": "uint256"
				}
			],
			"stateMutability": "view",
			"type": "function"
		},
		{
			"inputs": [
				{
					"internalType": "address",
					"name": "",
					"type": "address"
				}
			],
			"name": "balanceOf",
			"outputs": [
				{
					"internalType": "uint256",
					"name": "",
					"type": "uint256"
				}
			],
			"stateMutability": "view",
			"type": "function"
		},
		{
			"inputs": [
				{
					"internalType": "address",
					"name": "",
					"type": "address"
				}
			],
			"name": "lastUpdateTime",
			"outputs": [
				{
					"internalType": "uint256",
					"name": "",
					"type": "uint256"
				}
			],
			"stateMutability": "view",
			"type": "function"
		},
		{
			"inputs": [],
			"name": "nft",
			"outputs": [
				{
					"internalType": "contract IERC721",
					"name": "",
					"type": "address"
				}
			],
			"stateMutability": "view",
			"type": "function"
		},
		{
			"inputs": [
				{
					"internalType": "address",
					"name": "",
					"type": "address"
				},
				{
					"internalType": "address",
					"name": "from",
					"type": "address"
				},
				{
					"internalType": "uint256",
					"name": "tokenId",
					"type": "uint256"
				},
				{
					"internalType": "bytes",
					"name": "",
					"type": "bytes"
				}
			],
			"name": "onERC721Received",
			"outputs": [
				{
					"internalType": "bytes4",
					"name": "",
					"type": "bytes4"
				}
			],
			"stateMutability": "nonpayable",
			"type": "function"
		},
		{
			"inputs": [],
			"name": "redeem",
			"outputs": [],
			"stateMutability": "nonpayable",
			"type": "function"
		},
		{
			"inputs": [],
			"name": "rewardPerTokenPerDay",
			"outputs": [
				{
					"internalType": "uint256",
					"name": "",
					"type": "uint256"
				}
			],
			"stateMutability": "view",
			"type": "function"
		},
		{
			"inputs": [],
			"name": "rewardToken",
			"outputs": [
				{
					"internalType": "contract IERC20",
					"name": "",
					"type": "address"
				}
			],
			"stateMutability": "view",
			"type": "function"
		},
		{
			"inputs": [],
			"name": "rewardWallet",
			"outputs": [
				{
					"internalType": "address",
					"name": "",
					"type": "address"
				}
			],
			"stateMutability": "view",
			"type": "function"
		},
		{
			"inputs": [
				{
					"internalType": "uint256",
					"name": "tokenId",
					"type": "uint256"
				}
			],
			"name": "stake",
			"outputs": [],
			"stateMutability": "nonpayable",
			"type": "function"
		},
		{
			"inputs": [
				{
					"internalType": "uint256",
					"name": "tokenId",
					"type": "uint256"
				}
			],
			"name": "withdraw",
			"outputs": [],
			"stateMutability": "nonpayable",
			"type": "function"
		}
	]
}