{
	"data": {
		"bytecode": {
			"linkReferences": {},
			"object": "6080604052348015600e575f5ffd5b506117c98061001c5f395ff3fe608060405234801561000f575f5ffd5b50600436106100fb575f3560e01c8063685ee3e811610093578063aba69cf811610063578063aba69cf814610216578063ed4b878e14610229578063f956cf941461023c578063fa352c001461025c575f5ffd5b8063685ee3e8146101bd5780636f007d87146101d057806390c9a2d0146101f05780639c395bc214610203575f5ffd5b806336137872116100ce578063361378721461016f57806349c95d29146101775780634fc692821461018a578063537a5c3d146101aa575f5ffd5b806301ffc9a7146100ff5780631221156b146101275780631b61f67514610147578063219044b01461015a575b5f5ffd5b61011261010d36600461133c565b61026f565b60405190151581526020015b60405180910390f35b61013a61013536600461137e565b6102a5565b60405161011e91906113b8565b61013a610155366004611403565b6102bc565b61016d610168366004611403565b6102cb565b005b61016d6102d8565b61016d61018536600461142b565b61032d565b61019d610198366004611403565b6103a2565b60405161011e919061147f565b61016d6101b8366004611510565b6105d5565b61016d6101cb36600461155a565b610653565b6101e36101de366004611403565b6106be565b60405161011e919061158b565b6101126101fe3660046115e9565b610830565b610112610211366004611620565b6108da565b610112610224366004611648565b61095f565b61013a610237366004611620565b610a12565b61024f61024a366004611403565b610a28565b60405161011e9190611690565b61016d61026a366004611403565b610b82565b5f6001600160e01b03198216630596d3d560e01b148061029f57506301ffc9a760e01b6001600160e01b03198316145b92915050565b60606102b48460038585610b8c565b949350505050565b606061029f8260015f5f610b8c565b6102d53382610e01565b50565b335f90815260016020526040812080549091906102f4906116f3565b909155506040513381527f32d74befd0b842e19694e3e3af46263e18bcce41352c8b600ff0002b49edf6629060200160405180910390a1565b5f610339338585610e7e565b905061034b848284600233885f610eef565b604080513381526001600160a01b038681166020830152851681830152831515606082015290517f8d6b2f5255b8d815cc368855b2251146e003bf4e2fcccaec66145fff5c174b4f9181900360800190a150505050565b6001600160a01b0381165f9081526003602052604081206060916103c5826110cb565b90505f8167ffffffffffffffff8111156103e1576103e161170b565b60405190808252806020026020018201604052801561043857816020015b6040805160a0810182525f808252602080830182905292820181905260608201819052608082015282525f199092019101816103ff5790505b5093505f5b828110156105ba575f61045085836110d4565b5f81815260046020526040808220815160a0810190925280549394509192909190829060ff1660038111156104875761048761146b565b60038111156104985761049861146b565b815281546001600160a01b036101009091048116602080840191909152600180850154831660408501526002850154909216606084015260039093015460809092019190915290820151825192935091905f908260038111156104fd576104fd61146b565b0361051b5761050c838c6110df565b8503610516575060015b61057a565b600282600381111561052f5761052f61146b565b036105435761050c838c8660600151610e7e565b60038260038111156105575761055761146b565b0361057a57610570838c8660600151876080015161114c565b850361057a575060015b80156105aa57838a8861058c816116f3565b99508151811061059e5761059e61171f565b60200260200101819052505b856001019550505050505061043d565b50808211156105cd578351818303900384525b505050919050565b5f6105e23386868661114c565b90506105f48582846003338989610eef565b604080513381526001600160a01b03878116602083015286168183015260608101859052831515608082015290517fe89c6ba1e8957285aed22618f52aa1dcb9d5bb64e1533d8b55136c72fcf5aa5d9181900360a00190a15050505050565b5f61065e33846110df565b90506106708382846001335f5f610eef565b604080513381526001600160a01b03851660208201528315158183015290517f58781eab4a0743ab1c285a238be846a235f06cdb5b968030573a635e5f8c92fa9181900360600190a1505050565b6001600160a01b0381165f908152602081815260408083206001835281842054845290915281206060916106f1826110cb565b90505f8167ffffffffffffffff81111561070d5761070d61170b565b60405190808252806020026020018201604052801561075657816020015b604080516060810182525f80825260208083018290529282015282525f1990920191018161072b5790505b5093505f5b828110156105ba575f61076e85836110d4565b5f8181526004602052604090209091506003815460ff1660038111156107965761079661146b565b03610826576001810154600282015460038301546107c4928b926001600160a01b039182169291169061114c565b8203610826576040805160608101825260028301546001600160a01b03908116825260038401546020830152600184015416918101919091528785610808816116f3565b96508151811061081a5761081a61171f565b60200260200101819052505b505060010161075b565b6001600160a01b038281165f81815260016020908152604080832054600283528184208987168086529084528285205483518086019290925281840187905296881660608201526080810182905260a0808201979097528251808203909701875260c00182528551958301959095209383528282528083209483529390529182206108bb90826111ba565b6108ce576108c985856108da565b6108d1565b60015b95945050505050565b6001600160a01b038181165f818152600160209081526040808320546002835281842095881680855295835281842054825180850197909752868301869052606087018290526080808801919091528251808803909101815260a090960182528551958301959095209383528282528083209483529390529182206102b490826111ba565b6001600160a01b038084165f90815260016020908152604080832054600283528184209489168452938252808320549051929384936109a9938a938a938a938a9391929101611733565b60408051601f1981840301815291815281516020928301206001600160a01b0388165f9081528084528281206001855283822054825290935291209091506109f190826111ba565b610a0557610a00868686610830565b610a08565b60015b9695505050505050565b6060610a21836002845f610b8c565b9392505050565b6001600160a01b0381165f90815260208181526040808320600183528184205484529091528120606091610a5b826110cb565b90505f8167ffffffffffffffff811115610a7757610a7761170b565b604051908082528060200260200182016040528015610abb57816020015b604080518082019091525f8082526020820152815260200190600190039081610a955790505b5093505f5b828110156105ba575f610ad385836110d4565b5f8181526004602052604090209091506002815460ff166003811115610afb57610afb61146b565b03610b785760018101546002820154610b22918a916001600160a01b039182169116610e7e565b8203610b78576040805180820190915260028201546001600160a01b03908116825260018301541660208201528785610b5a816116f3565b965081518110610b6c57610b6c61171f565b60200260200101819052505b5050600101610ac0565b6102d58133610e01565b6001600160a01b0384165f90815260208181526040808320600183528184205484529091528120606091610bbf826110cb565b90505f8167ffffffffffffffff811115610bdb57610bdb61170b565b604051908082528060200260200182016040528015610c04578160200160208202803683370190505b5093505f5b82811015610de3575f610c1c85836110d4565b5f818152600460205260409020909150896003811115610c3e57610c3e61146b565b815460ff166003811115610c5457610c5461146b565b03610dd95760018a6003811115610c6d57610c6d61146b565b03610ce2576001810154610c8b908c906001600160a01b03166110df565b8203610cdd5760018101546001600160a01b03168785610caa816116f3565b965081518110610cbc57610cbc61171f565b60200260200101906001600160a01b031690816001600160a01b0316815250505b610dd9565b60028a6003811115610cf657610cf661146b565b03610d2c5760028101546001600160a01b03808b16911603610cdd576001810154610c8b908c906001600160a01b03168b610e7e565b60038a6003811115610d4057610d4061146b565b03610dd95760028101546001600160a01b038a81169116148015610d675750878160030154145b15610dd9576001810154610d87908c906001600160a01b03168b8b61114c565b8203610dd95760018101546001600160a01b03168785610da6816116f3565b965081518110610db857610db861171f565b60200260200101906001600160a01b031690816001600160a01b0316815250505b5050600101610c09565b5080821115610df6578351818303900384525b505050949350505050565b6001600160a01b038082165f90815260026020908152604080832093861683529290529081208054909190610e35906116f3565b90915550604080516001600160a01b03831681523360208201527f3e34a3ee53064fb79c0ee57448f03774a627a9270b0c41286efb7d8e32dcde93910160405180910390a15050565b6001600160a01b039283165f8181526001602090815260408083205460028352818420968816808552968352928190205481518084019790975286820194909452939095166060850152608084015260a0808401919091528151808403909101815260c09092019052805191012090565b841561102e576001600160a01b0383165f90815260208181526040808320600183528184205484529091529020610f2690876111d1565b506001600160a01b0387165f908152600360205260409020610f4890876111d1565b506040518060a00160405280856003811115610f6657610f6661146b565b81526001600160a01b038086166020808401919091528a8216604080850191909152918616606084015260809092018490525f8981526004909252902081518154829060ff19166001836003811115610fc157610fc161146b565b0217905550602082015181546001600160a01b0391821661010002610100600160a81b031990911617825560408301516001830180549183166001600160a01b031992831617905560608401516002840180549190931691161790556080909101516003909101556110c2565b6001600160a01b0383165f9081526020818152604080832060018352818420548452909152902061105f90876111dc565b506001600160a01b0387165f90815260036020526040902061108190876111dc565b505f86815260046020526040812080546001600160a81b03191681556001810180546001600160a01b03199081169091556002820180549091169055600301555b50505050505050565b5f61029f825490565b5f610a2183836111e7565b6001600160a01b039182165f81815260016020908152604080832054600283528184209590961680845294825291829020548251808301959095528483019390935260608401949094526080808401929092528051808403909201825260a0909201909152805191012090565b6001600160a01b038085165f9081526001602090815260408083205460028352818420948816845293825280832054905192939290916111989188918a91899189918891889101611733565b6040516020818303038152906040528051906020012092505050949350505050565b5f8181526001830160205260408120541515610a21565b5f610a21838361120d565b5f610a218383611259565b5f825f0182815481106111fc576111fc61171f565b905f5260205f200154905092915050565b5f81815260018301602052604081205461125257508154600181810184555f84815260208082209093018490558454848252828601909352604090209190915561029f565b505f61029f565b5f8181526001830160205260408120548015611333575f61127b60018361176c565b85549091505f9061128e9060019061176c565b90508181146112ed575f865f0182815481106112ac576112ac61171f565b905f5260205f200154905080875f0184815481106112cc576112cc61171f565b5f918252602080832090910192909255918252600188019052604090208390555b85548690806112fe576112fe61177f565b600190038181905f5260205f20015f90559055856001015f8681526020019081526020015f205f90556001935050505061029f565b5f91505061029f565b5f6020828403121561134c575f5ffd5b81356001600160e01b031981168114610a21575f5ffd5b80356001600160a01b0381168114611379575f5ffd5b919050565b5f5f5f60608486031215611390575f5ffd5b61139984611363565b92506113a760208501611363565b929592945050506040919091013590565b602080825282518282018190525f918401906040840190835b818110156113f85783516001600160a01b03168352602093840193909201916001016113d1565b509095945050505050565b5f60208284031215611413575f5ffd5b610a2182611363565b80358015158114611379575f5ffd5b5f5f5f6060848603121561143d575f5ffd5b61144684611363565b925061145460208501611363565b91506114626040850161141c565b90509250925092565b634e487b7160e01b5f52602160045260245ffd5b602080825282518282018190525f918401906040840190835b818110156113f85783518051600481106114c057634e487b7160e01b5f52602160045260245ffd5b84526020818101516001600160a01b03908116828701526040808401518216908701526060808401519091169086015260809182015191850191909152939093019260a090920191600101611498565b5f5f5f5f60808587031215611523575f5ffd5b61152c85611363565b935061153a60208601611363565b92506040850135915061154f6060860161141c565b905092959194509250565b5f5f6040838503121561156b575f5ffd5b61157483611363565b91506115826020840161141c565b90509250929050565b602080825282518282018190525f918401906040840190835b818110156113f857835180516001600160a01b0390811685526020808301518187015260409283015190911691850191909152909301926060909201916001016115a4565b5f5f5f606084860312156115fb575f5ffd5b61160484611363565b925061161260208501611363565b915061146260408501611363565b5f5f60408385031215611631575f5ffd5b61163a83611363565b915061158260208401611363565b5f5f5f5f6080858703121561165b575f5ffd5b61166485611363565b935061167260208601611363565b925061168060408601611363565b9396929550929360600135925050565b602080825282518282018190525f918401906040840190835b818110156113f857835180516001600160a01b0390811685526020918201511681850152909301926040909201916001016116a9565b634e487b7160e01b5f52601160045260245ffd5b5f60018201611704576117046116df565b5060010190565b634e487b7160e01b5f52604160045260245ffd5b634e487b7160e01b5f52603260045260245ffd5b6001600160a01b03968716815294861660208601529290941660408401526060830152608082019290925260a081019190915260c00190565b8181038181111561029f5761029f6116df565b634e487b7160e01b5f52603160045260245ffdfea26469706673582212209e4b5ace470d3b3f81ccaa3d9a9597956cb043225ee95ebf65d5c3122dfd431c64736f6c634300081b0033",
			"opcodes": "PUSH1 0x80 PUSH1 0x40 MSTORE CALLVALUE DUP1 ISZERO PUSH1 0xE JUMPI PUSH0 PUSH0 REVERT JUMPDEST POP PUSH2 0x17C9 DUP1 PUSH2 0x1C PUSH0 CODECOPY PUSH0 RETURN INVALID PUSH1 0x80 PUSH1 0x40 MSTORE CALLVALUE DUP1 ISZERO PUSH2 0xF JUMPI PUSH0 PUSH0 REVERT JUMPDEST POP PUSH1 0x4 CALLDATASIZE LT PUSH2 0xFB JUMPI PUSH0 CALLDATALOAD PUSH1 0xE0 SHR DUP1 PUSH4 0x685EE3E8 GT PUSH2 0x93 JUMPI DUP1 PUSH4 0xABA69CF8 GT PUSH2 0x63 JUMPI DUP1 PUSH4 0xABA69CF8 EQ PUSH2 0x216 JUMPI DUP1 PUSH4 0xED4B878E EQ PUSH2 0x229 JUMPI DUP1 PUSH4 0xF956CF94 EQ PUSH2 0x23C JUMPI DUP1 PUSH4 0xFA352C00 EQ PUSH2 0x25C JUMPI PUSH0 PUSH0 REVERT JUMPDEST DUP1 PUSH4 0x685EE3E8 EQ PUSH2 0x1BD JUMPI DUP1 PUSH4 0x6F007D87 EQ PUSH2 0x1D0 JUMPI DUP1 PUSH4 0x90C9A2D0 EQ PUSH2 0x1F0 JUMPI DUP1 PUSH4 0x9C395BC2 EQ PUSH2 0x203 JUMPI PUSH0 PUSH0 REVERT JUMPDEST DUP1 PUSH4 0x36137872 GT PUSH2 0xCE JUMPI DUP1 PUSH4 0x36137872 EQ PUSH2 0x16F JUMPI DUP1 PUSH4 0x49C95D29 EQ PUSH2 0x177 JUMPI DUP1 PUSH4 0x4FC69282 EQ PUSH2 0x18A JUMPI DUP1 PUSH4 0x537A5C3D EQ PUSH2 0x1AA JUMPI PUSH0 PUSH0 REVERT JUMPDEST DUP1 PUSH4 0x1FFC9A7 EQ PUSH2 0xFF JUMPI DUP1 PUSH4 0x1221156B EQ PUSH2 0x127 JUMPI DUP1 PUSH4 0x1B61F675 EQ PUSH2 0x147 JUMPI DUP1 PUSH4 0x219044B0 EQ PUSH2 0x15A JUMPI JUMPDEST PUSH0 PUSH0 REVERT JUMPDEST PUSH2 0x112 PUSH2 0x10D CALLDATASIZE PUSH1 0x4 PUSH2 0x133C JUMP JUMPDEST PUSH2 0x26F JUMP JUMPDEST PUSH1 0x40 MLOAD SWAP1 ISZERO ISZERO DUP2 MSTORE PUSH1 0x20 ADD JUMPDEST PUSH1 0x40 MLOAD DUP1 SWAP2 SUB SWAP1 RETURN JUMPDEST PUSH2 0x13A PUSH2 0x135 CALLDATASIZE PUSH1 0x4 PUSH2 0x137E JUMP JUMPDEST PUSH2 0x2A5 JUMP JUMPDEST PUSH1 0x40 MLOAD PUSH2 0x11E SWAP2 SWAP1 PUSH2 0x13B8 JUMP JUMPDEST PUSH2 0x13A PUSH2 0x155 CALLDATASIZE PUSH1 0x4 PUSH2 0x1403 JUMP JUMPDEST PUSH2 0x2BC JUMP JUMPDEST PUSH2 0x16D PUSH2 0x168 CALLDATASIZE PUSH1 0x4 PUSH2 0x1403 JUMP JUMPDEST PUSH2 0x2CB JUMP JUMPDEST STOP JUMPDEST PUSH2 0x16D PUSH2 0x2D8 JUMP JUMPDEST PUSH2 0x16D PUSH2 0x185 CALLDATASIZE PUSH1 0x4 PUSH2 0x142B JUMP JUMPDEST PUSH2 0x32D JUMP JUMPDEST PUSH2 0x19D PUSH2 0x198 CALLDATASIZE PUSH1 0x4 PUSH2 0x1403 JUMP JUMPDEST PUSH2 0x3A2 JUMP JUMPDEST PUSH1 0x40 MLOAD PUSH2 0x11E SWAP2 SWAP1 PUSH2 0x147F JUMP JUMPDEST PUSH2 0x16D PUSH2 0x1B8 CALLDATASIZE PUSH1 0x4 PUSH2 0x1510 JUMP JUMPDEST PUSH2 0x5D5 JUMP JUMPDEST PUSH2 0x16D PUSH2 0x1CB CALLDATASIZE PUSH1 0x4 PUSH2 0x155A JUMP JUMPDEST PUSH2 0x653 JUMP JUMPDEST PUSH2 0x1E3 PUSH2 0x1DE CALLDATASIZE PUSH1 0x4 PUSH2 0x1403 JUMP JUMPDEST PUSH2 0x6BE JUMP JUMPDEST PUSH1 0x40 MLOAD PUSH2 0x11E SWAP2 SWAP1 PUSH2 0x158B JUMP JUMPDEST PUSH2 0x112 PUSH2 0x1FE CALLDATASIZE PUSH1 0x4 PUSH2 0x15E9 JUMP JUMPDEST PUSH2 0x830 JUMP JUMPDEST PUSH2 0x112 PUSH2 0x211 CALLDATASIZE PUSH1 0x4 PUSH2 0x1620 JUMP JUMPDEST PUSH2 0x8DA JUMP JUMPDEST PUSH2 0x112 PUSH2 0x224 CALLDATASIZE PUSH1 0x4 PUSH2 0x1648 JUMP JUMPDEST PUSH2 0x95F JUMP JUMPDEST PUSH2 0x13A PUSH2 0x237 CALLDATASIZE PUSH1 0x4 PUSH2 0x1620 JUMP JUMPDEST PUSH2 0xA12 JUMP JUMPDEST PUSH2 0x24F PUSH2 0x24A CALLDATASIZE PUSH1 0x4 PUSH2 0x1403 JUMP JUMPDEST PUSH2 0xA28 JUMP JUMPDEST PUSH1 0x40 MLOAD PUSH2 0x11E SWAP2 SWAP1 PUSH2 0x1690 JUMP JUMPDEST PUSH2 0x16D PUSH2 0x26A CALLDATASIZE PUSH1 0x4 PUSH2 0x1403 JUMP JUMPDEST PUSH2 0xB82 JUMP JUMPDEST PUSH0 PUSH1 0x1 PUSH1 0x1 PUSH1 0xE0 SHL SUB NOT DUP3 AND PUSH4 0x596D3D5 PUSH1 0xE0 SHL EQ DUP1 PUSH2 0x29F JUMPI POP PUSH4 0x1FFC9A7 PUSH1 0xE0 SHL PUSH1 0x1 PUSH1 0x1 PUSH1 0xE0 SHL SUB NOT DUP4 AND EQ JUMPDEST SWAP3 SWAP2 POP POP JUMP JUMPDEST PUSH1 0x60 PUSH2 0x2B4 DUP5 PUSH1 0x3 DUP6 DUP6 PUSH2 0xB8C JUMP JUMPDEST SWAP5 SWAP4 POP POP POP POP JUMP JUMPDEST PUSH1 0x60 PUSH2 0x29F DUP3 PUSH1 0x1 PUSH0 PUSH0 PUSH2 0xB8C JUMP JUMPDEST PUSH2 0x2D5 CALLER DUP3 PUSH2 0xE01 JUMP JUMPDEST POP JUMP JUMPDEST CALLER PUSH0 SWAP1 DUP2 MSTORE PUSH1 0x1 PUSH1 0x20 MSTORE PUSH1 0x40 DUP2 KECCAK256 DUP1 SLOAD SWAP1 SWAP2 SWAP1 PUSH2 0x2F4 SWAP1 PUSH2 0x16F3 JUMP JUMPDEST SWAP1 SWAP2 SSTORE POP PUSH1 0x40 MLOAD CALLER DUP2 MSTORE PUSH32 0x32D74BEFD0B842E19694E3E3AF46263E18BCCE41352C8B600FF0002B49EDF662 SWAP1 PUSH1 0x20 ADD PUSH1 0x40 MLOAD DUP1 SWAP2 SUB SWAP1 LOG1 JUMP JUMPDEST PUSH0 PUSH2 0x339 CALLER DUP6 DUP6 PUSH2 0xE7E JUMP JUMPDEST SWAP1 POP PUSH2 0x34B DUP5 DUP3 DUP5 PUSH1 0x2 CALLER DUP9 PUSH0 PUSH2 0xEEF JUMP JUMPDEST PUSH1 0x40 DUP1 MLOAD CALLER DUP2 MSTORE PUSH1 0x1 PUSH1 0x1 PUSH1 0xA0 SHL SUB DUP7 DUP2 AND PUSH1 0x20 DUP4 ADD MSTORE DUP6 AND DUP2 DUP4 ADD MSTORE DUP4 ISZERO ISZERO PUSH1 0x60 DUP3 ADD MSTORE SWAP1 MLOAD PUSH32 0x8D6B2F5255B8D815CC368855B2251146E003BF4E2FCCCAEC66145FFF5C174B4F SWAP2 DUP2 SWAP1 SUB PUSH1 0x80 ADD SWAP1 LOG1 POP POP POP POP JUMP JUMPDEST PUSH1 0x1 PUSH1 0x1 PUSH1 0xA0 SHL SUB DUP2 AND PUSH0 SWAP1 DUP2 MSTORE PUSH1 0x3 PUSH1 0x20 MSTORE PUSH1 0x40 DUP2 KECCAK256 PUSH1 0x60 SWAP2 PUSH2 0x3C5 DUP3 PUSH2 0x10CB JUMP JUMPDEST SWAP1 POP PUSH0 DUP2 PUSH8 0xFFFFFFFFFFFFFFFF DUP2 GT ISZERO PUSH2 0x3E1 JUMPI PUSH2 0x3E1 PUSH2 0x170B JUMP JUMPDEST PUSH1 0x40 MLOAD SWAP1 DUP1 DUP3 MSTORE DUP1 PUSH1 0x20 MUL PUSH1 0x20 ADD DUP3 ADD PUSH1 0x40 MSTORE DUP1 ISZERO PUSH2 0x438 JUMPI DUP2 PUSH1 0x20 ADD JUMPDEST PUSH1 0x40 DUP1 MLOAD PUSH1 0xA0 DUP2 ADD DUP3 MSTORE PUSH0 DUP1 DUP3 MSTORE PUSH1 0x20 DUP1 DUP4 ADD DUP3 SWAP1 MSTORE SWAP3 DUP3 ADD DUP2 SWAP1 MSTORE PUSH1 0x60 DUP3 ADD DUP2 SWAP1 MSTORE PUSH1 0x80 DUP3 ADD MSTORE DUP3 MSTORE PUSH0 NOT SWAP1 SWAP3 ADD SWAP2 ADD DUP2 PUSH2 0x3FF JUMPI SWAP1 POP JUMPDEST POP SWAP4 POP PUSH0 JUMPDEST DUP3 DUP2 LT ISZERO PUSH2 0x5BA JUMPI PUSH0 PUSH2 0x450 DUP6 DUP4 PUSH2 0x10D4 JUMP JUMPDEST PUSH0 DUP2 DUP2 MSTORE PUSH1 0x4 PUSH1 0x20 MSTORE PUSH1 0x40 DUP1 DUP3 KECCAK256 DUP2 MLOAD PUSH1 0xA0 DUP2 ADD SWAP1 SWAP3 MSTORE DUP1 SLOAD SWAP4 SWAP5 POP SWAP2 SWAP3 SWAP1 SWAP2 SWAP1 DUP3 SWAP1 PUSH1 0xFF AND PUSH1 0x3 DUP2 GT ISZERO PUSH2 0x487 JUMPI PUSH2 0x487 PUSH2 0x146B JUMP JUMPDEST PUSH1 0x3 DUP2 GT ISZERO PUSH2 0x498 JUMPI PUSH2 0x498 PUSH2 0x146B JUMP JUMPDEST DUP2 MSTORE DUP2 SLOAD PUSH1 0x1 PUSH1 0x1 PUSH1 0xA0 SHL SUB PUSH2 0x100 SWAP1 SWAP2 DIV DUP2 AND PUSH1 0x20 DUP1 DUP5 ADD SWAP2 SWAP1 SWAP2 MSTORE PUSH1 0x1 DUP1 DUP6 ADD SLOAD DUP4 AND PUSH1 0x40 DUP6 ADD MSTORE PUSH1 0x2 DUP6 ADD SLOAD SWAP1 SWAP3 AND PUSH1 0x60 DUP5 ADD MSTORE PUSH1 0x3 SWAP1 SWAP4 ADD SLOAD PUSH1 0x80 SWAP1 SWAP3 ADD SWAP2 SWAP1 SWAP2 MSTORE SWAP1 DUP3 ADD MLOAD DUP3 MLOAD SWAP3 SWAP4 POP SWAP2 SWAP1 PUSH0 SWAP1 DUP3 PUSH1 0x3 DUP2 GT ISZERO PUSH2 0x4FD JUMPI PUSH2 0x4FD PUSH2 0x146B JUMP JUMPDEST SUB PUSH2 0x51B JUMPI PUSH2 0x50C DUP4 DUP13 PUSH2 0x10DF JUMP JUMPDEST DUP6 SUB PUSH2 0x516 JUMPI POP PUSH1 0x1 JUMPDEST PUSH2 0x57A JUMP JUMPDEST PUSH1 0x2 DUP3 PUSH1 0x3 DUP2 GT ISZERO PUSH2 0x52F JUMPI PUSH2 0x52F PUSH2 0x146B JUMP JUMPDEST SUB PUSH2 0x543 JUMPI PUSH2 0x50C DUP4 DUP13 DUP7 PUSH1 0x60 ADD MLOAD PUSH2 0xE7E JUMP JUMPDEST PUSH1 0x3 DUP3 PUSH1 0x3 DUP2 GT ISZERO PUSH2 0x557 JUMPI PUSH2 0x557 PUSH2 0x146B JUMP JUMPDEST SUB PUSH2 0x57A JUMPI PUSH2 0x570 DUP4 DUP13 DUP7 PUSH1 0x60 ADD MLOAD DUP8 PUSH1 0x80 ADD MLOAD PUSH2 0x114C JUMP JUMPDEST DUP6 SUB PUSH2 0x57A JUMPI POP PUSH1 0x1 JUMPDEST DUP1 ISZERO PUSH2 0x5AA JUMPI DUP4 DUP11 DUP9 PUSH2 0x58C DUP2 PUSH2 0x16F3 JUMP JUMPDEST SWAP10 POP DUP2 MLOAD DUP2 LT PUSH2 0x59E JUMPI PUSH2 0x59E PUSH2 0x171F JUMP JUMPDEST PUSH1 0x20 MUL PUSH1 0x20 ADD ADD DUP2 SWAP1 MSTORE POP JUMPDEST DUP6 PUSH1 0x1 ADD SWAP6 POP POP POP POP POP POP PUSH2 0x43D JUMP JUMPDEST POP DUP1 DUP3 GT ISZERO PUSH2 0x5CD JUMPI DUP4 MLOAD DUP2 DUP4 SUB SWAP1 SUB DUP5 MSTORE JUMPDEST POP POP POP SWAP2 SWAP1 POP JUMP JUMPDEST PUSH0 PUSH2 0x5E2 CALLER DUP7 DUP7 DUP7 PUSH2 0x114C JUMP JUMPDEST SWAP1 POP PUSH2 0x5F4 DUP6 DUP3 DUP5 PUSH1 0x3 CALLER DUP10 DUP10 PUSH2 0xEEF JUMP JUMPDEST PUSH1 0x40 DUP1 MLOAD CALLER DUP2 MSTORE PUSH1 0x1 PUSH1 0x1 PUSH1 0xA0 SHL SUB DUP8 DUP2 AND PUSH1 0x20 DUP4 ADD MSTORE DUP7 AND DUP2 DUP4 ADD MSTORE PUSH1 0x60 DUP2 ADD DUP6 SWAP1 MSTORE DUP4 ISZERO ISZERO PUSH1 0x80 DUP3 ADD MSTORE SWAP1 MLOAD PUSH32 0xE89C6BA1E8957285AED22618F52AA1DCB9D5BB64E1533D8B55136C72FCF5AA5D SWAP2 DUP2 SWAP1 SUB PUSH1 0xA0 ADD SWAP1 LOG1 POP POP POP POP POP JUMP JUMPDEST PUSH0 PUSH2 0x65E CALLER DUP5 PUSH2 0x10DF JUMP JUMPDEST SWAP1 POP PUSH2 0x670 DUP4 DUP3 DUP5 PUSH1 0x1 CALLER PUSH0 PUSH0 PUSH2 0xEEF JUMP JUMPDEST PUSH1 0x40 DUP1 MLOAD CALLER DUP2 MSTORE PUSH1 0x1 PUSH1 0x1 PUSH1 0xA0 SHL SUB DUP6 AND PUSH1 0x20 DUP3 ADD MSTORE DUP4 ISZERO ISZERO DUP2 DUP4 ADD MSTORE SWAP1 MLOAD PUSH32 0x58781EAB4A0743AB1C285A238BE846A235F06CDB5B968030573A635E5F8C92FA SWAP2 DUP2 SWAP1 SUB PUSH1 0x60 ADD SWAP1 LOG1 POP POP POP JUMP JUMPDEST PUSH1 0x1 PUSH1 0x1 PUSH1 0xA0 SHL SUB DUP2 AND PUSH0 SWAP1 DUP2 MSTORE PUSH1 0x20 DUP2 DUP2 MSTORE PUSH1 0x40 DUP1 DUP4 KECCAK256 PUSH1 0x1 DUP4 MSTORE DUP2 DUP5 KECCAK256 SLOAD DUP5 MSTORE SWAP1 SWAP2 MSTORE DUP2 KECCAK256 PUSH1 0x60 SWAP2 PUSH2 0x6F1 DUP3 PUSH2 0x10CB JUMP JUMPDEST SWAP1 POP PUSH0 DUP2 PUSH8 0xFFFFFFFFFFFFFFFF DUP2 GT ISZERO PUSH2 0x70D JUMPI PUSH2 0x70D PUSH2 0x170B JUMP JUMPDEST PUSH1 0x40 MLOAD SWAP1 DUP1 DUP3 MSTORE DUP1 PUSH1 0x20 MUL PUSH1 0x20 ADD DUP3 ADD PUSH1 0x40 MSTORE DUP1 ISZERO PUSH2 0x756 JUMPI DUP2 PUSH1 0x20 ADD JUMPDEST PUSH1 0x40 DUP1 MLOAD PUSH1 0x60 DUP2 ADD DUP3 MSTORE PUSH0 DUP1 DUP3 MSTORE PUSH1 0x20 DUP1 DUP4 ADD DUP3 SWAP1 MSTORE SWAP3 DUP3 ADD MSTORE DUP3 MSTORE PUSH0 NOT SWAP1 SWAP3 ADD SWAP2 ADD DUP2 PUSH2 0x72B JUMPI SWAP1 POP JUMPDEST POP SWAP4 POP PUSH0 JUMPDEST DUP3 DUP2 LT ISZERO PUSH2 0x5BA JUMPI PUSH0 PUSH2 0x76E DUP6 DUP4 PUSH2 0x10D4 JUMP JUMPDEST PUSH0 DUP2 DUP2 MSTORE PUSH1 0x4 PUSH1 0x20 MSTORE PUSH1 0x40 SWAP1 KECCAK256 SWAP1 SWAP2 POP PUSH1 0x3 DUP2 SLOAD PUSH1 0xFF AND PUSH1 0x3 DUP2 GT ISZERO PUSH2 0x796 JUMPI PUSH2 0x796 PUSH2 0x146B JUMP JUMPDEST SUB PUSH2 0x826 JUMPI PUSH1 0x1 DUP2 ADD SLOAD PUSH1 0x2 DUP3 ADD SLOAD PUSH1 0x3 DUP4 ADD SLOAD PUSH2 0x7C4 SWAP3 DUP12 SWAP3 PUSH1 0x1 PUSH1 0x1 PUSH1 0xA0 SHL SUB SWAP2 DUP3 AND SWAP3 SWAP2 AND SWAP1 PUSH2 0x114C JUMP JUMPDEST DUP3 SUB PUSH2 0x826 JUMPI PUSH1 0x40 DUP1 MLOAD PUSH1 0x60 DUP2 ADD DUP3 MSTORE PUSH1 0x2 DUP4 ADD SLOAD PUSH1 0x1 PUSH1 0x1 PUSH1 0xA0 SHL SUB SWAP1 DUP2 AND DUP3 MSTORE PUSH1 0x3 DUP5 ADD SLOAD PUSH1 0x20 DUP4 ADD MSTORE PUSH1 0x1 DUP5 ADD SLOAD AND SWAP2 DUP2 ADD SWAP2 SWAP1 SWAP2 MSTORE DUP8 DUP6 PUSH2 0x808 DUP2 PUSH2 0x16F3 JUMP JUMPDEST SWAP7 POP DUP2 MLOAD DUP2 LT PUSH2 0x81A JUMPI PUSH2 0x81A PUSH2 0x171F JUMP JUMPDEST PUSH1 0x20 MUL PUSH1 0x20 ADD ADD DUP2 SWAP1 MSTORE POP JUMPDEST POP POP PUSH1 0x1 ADD PUSH2 0x75B JUMP JUMPDEST PUSH1 0x1 PUSH1 0x1 PUSH1 0xA0 SHL SUB DUP3 DUP2 AND PUSH0 DUP2 DUP2 MSTORE PUSH1 0x1 PUSH1 0x20 SWAP1 DUP2 MSTORE PUSH1 0x40 DUP1 DUP4 KECCAK256 SLOAD PUSH1 0x2 DUP4 MSTORE DUP2 DUP5 KECCAK256 DUP10 DUP8 AND DUP1 DUP7 MSTORE SWAP1 DUP5 MSTORE DUP3 DUP6 KECCAK256 SLOAD DUP4 MLOAD DUP1 DUP7 ADD SWAP3 SWAP1 SWAP3 MSTORE DUP2 DUP5 ADD DUP8 SWAP1 MSTORE SWAP7 DUP9 AND PUSH1 0x60 DUP3 ADD MSTORE PUSH1 0x80 DUP2 ADD DUP3 SWAP1 MSTORE PUSH1 0xA0 DUP1 DUP3 ADD SWAP8 SWAP1 SWAP8 MSTORE DUP3 MLOAD DUP1 DUP3 SUB SWAP1 SWAP8 ADD DUP8 MSTORE PUSH1 0xC0 ADD DUP3 MSTORE DUP6 MLOAD SWAP6 DUP4 ADD SWAP6 SWAP1 SWAP6 KECCAK256 SWAP4 DUP4 MSTORE DUP3 DUP3 MSTORE DUP1 DUP4 KECCAK256 SWAP5 DUP4 MSTORE SWAP4 SWAP1 MSTORE SWAP2 DUP3 KECCAK256 PUSH2 0x8BB SWAP1 DUP3 PUSH2 0x11BA JUMP JUMPDEST PUSH2 0x8CE JUMPI PUSH2 0x8C9 DUP6 DUP6 PUSH2 0x8DA JUMP JUMPDEST PUSH2 0x8D1 JUMP JUMPDEST PUSH1 0x1 JUMPDEST SWAP6 SWAP5 POP POP POP POP POP JUMP JUMPDEST PUSH1 0x1 PUSH1 0x1 PUSH1 0xA0 SHL SUB DUP2 DUP2 AND PUSH0 DUP2 DUP2 MSTORE PUSH1 0x1 PUSH1 0x20 SWAP1 DUP2 MSTORE PUSH1 0x40 DUP1 DUP4 KECCAK256 SLOAD PUSH1 0x2 DUP4 MSTORE DUP2 DUP5 KECCAK256 SWAP6 DUP9 AND DUP1 DUP6 MSTORE SWAP6 DUP4 MSTORE DUP2 DUP5 KECCAK256 SLOAD DUP3 MLOAD DUP1 DUP6 ADD SWAP8 SWAP1 SWAP8 MSTORE DUP7 DUP4 ADD DUP7 SWAP1 MSTORE PUSH1 0x60 DUP8 ADD DUP3 SWAP1 MSTORE PUSH1 0x80 DUP1 DUP9 ADD SWAP2 SWAP1 SWAP2 MSTORE DUP3 MLOAD DUP1 DUP9 SUB SWAP1 SWAP2 ADD DUP2 MSTORE PUSH1 0xA0 SWAP1 SWAP7 ADD DUP3 MSTORE DUP6 MLOAD SWAP6 DUP4 ADD SWAP6 SWAP1 SWAP6 KECCAK256 SWAP4 DUP4 MSTORE DUP3 DUP3 MSTORE DUP1 DUP4 KECCAK256 SWAP5 DUP4 MSTORE SWAP4 SWAP1 MSTORE SWAP2 DUP3 KECCAK256 PUSH2 0x2B4 SWAP1 DUP3 PUSH2 0x11BA JUMP JUMPDEST PUSH1 0x1 PUSH1 0x1 PUSH1 0xA0 SHL SUB DUP1 DUP5 AND PUSH0 SWAP1 DUP2 MSTORE PUSH1 0x1 PUSH1 0x20 SWAP1 DUP2 MSTORE PUSH1 0x40 DUP1 DUP4 KECCAK256 SLOAD PUSH1 0x2 DUP4 MSTORE DUP2 DUP5 KECCAK256 SWAP5 DUP10 AND DUP5 MSTORE SWAP4 DUP3 MSTORE DUP1 DUP4 KECCAK256 SLOAD SWAP1 MLOAD SWAP3 SWAP4 DUP5 SWAP4 PUSH2 0x9A9 SWAP4 DUP11 SWAP4 DUP11 SWAP4 DUP11 SWAP4 DUP11 SWAP4 SWAP2 SWAP3 SWAP2 ADD PUSH2 0x1733 JUMP JUMPDEST PUSH1 0x40 DUP1 MLOAD PUSH1 0x1F NOT DUP2 DUP5 SUB ADD DUP2 MSTORE SWAP2 DUP2 MSTORE DUP2 MLOAD PUSH1 0x20 SWAP3 DUP4 ADD KECCAK256 PUSH1 0x1 PUSH1 0x1 PUSH1 0xA0 SHL SUB DUP9 AND PUSH0 SWAP1 DUP2 MSTORE DUP1 DUP5 MSTORE DUP3 DUP2 KECCAK256 PUSH1 0x1 DUP6 MSTORE DUP4 DUP3 KECCAK256 SLOAD DUP3 MSTORE SWAP1 SWAP4 MSTORE SWAP2 KECCAK256 SWAP1 SWAP2 POP PUSH2 0x9F1 SWAP1 DUP3 PUSH2 0x11BA JUMP JUMPDEST PUSH2 0xA05 JUMPI PUSH2 0xA00 DUP7 DUP7 DUP7 PUSH2 0x830 JUMP JUMPDEST PUSH2 0xA08 JUMP JUMPDEST PUSH1 0x1 JUMPDEST SWAP7 SWAP6 POP POP POP POP POP POP JUMP JUMPDEST PUSH1 0x60 PUSH2 0xA21 DUP4 PUSH1 0x2 DUP5 PUSH0 PUSH2 0xB8C JUMP JUMPDEST SWAP4 SWAP3 POP POP POP JUMP JUMPDEST PUSH1 0x1 PUSH1 0x1 PUSH1 0xA0 SHL SUB DUP2 AND PUSH0 SWAP1 DUP2 MSTORE PUSH1 0x20 DUP2 DUP2 MSTORE PUSH1 0x40 DUP1 DUP4 KECCAK256 PUSH1 0x1 DUP4 MSTORE DUP2 DUP5 KECCAK256 SLOAD DUP5 MSTORE SWAP1 SWAP2 MSTORE DUP2 KECCAK256 PUSH1 0x60 SWAP2 PUSH2 0xA5B DUP3 PUSH2 0x10CB JUMP JUMPDEST SWAP1 POP PUSH0 DUP2 PUSH8 0xFFFFFFFFFFFFFFFF DUP2 GT ISZERO PUSH2 0xA77 JUMPI PUSH2 0xA77 PUSH2 0x170B JUMP JUMPDEST PUSH1 0x40 MLOAD SWAP1 DUP1 DUP3 MSTORE DUP1 PUSH1 0x20 MUL PUSH1 0x20 ADD DUP3 ADD PUSH1 0x40 MSTORE DUP1 ISZERO PUSH2 0xABB JUMPI DUP2 PUSH1 0x20 ADD JUMPDEST PUSH1 0x40 DUP1 MLOAD DUP1 DUP3 ADD SWAP1 SWAP2 MSTORE PUSH0 DUP1 DUP3 MSTORE PUSH1 0x20 DUP3 ADD MSTORE DUP2 MSTORE PUSH1 0x20 ADD SWAP1 PUSH1 0x1 SWAP1 SUB SWAP1 DUP2 PUSH2 0xA95 JUMPI SWAP1 POP JUMPDEST POP SWAP4 POP PUSH0 JUMPDEST DUP3 DUP2 LT ISZERO PUSH2 0x5BA JUMPI PUSH0 PUSH2 0xAD3 DUP6 DUP4 PUSH2 0x10D4 JUMP JUMPDEST PUSH0 DUP2 DUP2 MSTORE PUSH1 0x4 PUSH1 0x20 MSTORE PUSH1 0x40 SWAP1 KECCAK256 SWAP1 SWAP2 POP PUSH1 0x2 DUP2 SLOAD PUSH1 0xFF AND PUSH1 0x3 DUP2 GT ISZERO PUSH2 0xAFB JUMPI PUSH2 0xAFB PUSH2 0x146B JUMP JUMPDEST SUB PUSH2 0xB78 JUMPI PUSH1 0x1 DUP2 ADD SLOAD PUSH1 0x2 DUP3 ADD SLOAD PUSH2 0xB22 SWAP2 DUP11 SWAP2 PUSH1 0x1 PUSH1 0x1 PUSH1 0xA0 SHL SUB SWAP2 DUP3 AND SWAP2 AND PUSH2 0xE7E JUMP JUMPDEST DUP3 SUB PUSH2 0xB78 JUMPI PUSH1 0x40 DUP1 MLOAD DUP1 DUP3 ADD SWAP1 SWAP2 MSTORE PUSH1 0x2 DUP3 ADD SLOAD PUSH1 0x1 PUSH1 0x1 PUSH1 0xA0 SHL SUB SWAP1 DUP2 AND DUP3 MSTORE PUSH1 0x1 DUP4 ADD SLOAD AND PUSH1 0x20 DUP3 ADD MSTORE DUP8 DUP6 PUSH2 0xB5A DUP2 PUSH2 0x16F3 JUMP JUMPDEST SWAP7 POP DUP2 MLOAD DUP2 LT PUSH2 0xB6C JUMPI PUSH2 0xB6C PUSH2 0x171F JUMP JUMPDEST PUSH1 0x20 MUL PUSH1 0x20 ADD ADD DUP2 SWAP1 MSTORE POP JUMPDEST POP POP PUSH1 0x1 ADD PUSH2 0xAC0 JUMP JUMPDEST PUSH2 0x2D5 DUP2 CALLER PUSH2 0xE01 JUMP JUMPDEST PUSH1 0x1 PUSH1 0x1 PUSH1 0xA0 SHL SUB DUP5 AND PUSH0 SWAP1 DUP2 MSTORE PUSH1 0x20 DUP2 DUP2 MSTORE PUSH1 0x40 DUP1 DUP4 KECCAK256 PUSH1 0x1 DUP4 MSTORE DUP2 DUP5 KECCAK256 SLOAD DUP5 MSTORE SWAP1 SWAP2 MSTORE DUP2 KECCAK256 PUSH1 0x60 SWAP2 PUSH2 0xBBF DUP3 PUSH2 0x10CB JUMP JUMPDEST SWAP1 POP PUSH0 DUP2 PUSH8 0xFFFFFFFFFFFFFFFF DUP2 GT ISZERO PUSH2 0xBDB JUMPI PUSH2 0xBDB PUSH2 0x170B JUMP JUMPDEST PUSH1 0x40 MLOAD SWAP1 DUP1 DUP3 MSTORE DUP1 PUSH1 0x20 MUL PUSH1 0x20 ADD DUP3 ADD PUSH1 0x40 MSTORE DUP1 ISZERO PUSH2 0xC04 JUMPI DUP2 PUSH1 0x20 ADD PUSH1 0x20 DUP3 MUL DUP1 CALLDATASIZE DUP4 CALLDATACOPY ADD SWAP1 POP JUMPDEST POP SWAP4 POP PUSH0 JUMPDEST DUP3 DUP2 LT ISZERO PUSH2 0xDE3 JUMPI PUSH0 PUSH2 0xC1C DUP6 DUP4 PUSH2 0x10D4 JUMP JUMPDEST PUSH0 DUP2 DUP2 MSTORE PUSH1 0x4 PUSH1 0x20 MSTORE PUSH1 0x40 SWAP1 KECCAK256 SWAP1 SWAP2 POP DUP10 PUSH1 0x3 DUP2 GT ISZERO PUSH2 0xC3E JUMPI PUSH2 0xC3E PUSH2 0x146B JUMP JUMPDEST DUP2 SLOAD PUSH1 0xFF AND PUSH1 0x3 DUP2 GT ISZERO PUSH2 0xC54 JUMPI PUSH2 0xC54 PUSH2 0x146B JUMP JUMPDEST SUB PUSH2 0xDD9 JUMPI PUSH1 0x1 DUP11 PUSH1 0x3 DUP2 GT ISZERO PUSH2 0xC6D JUMPI PUSH2 0xC6D PUSH2 0x146B JUMP JUMPDEST SUB PUSH2 0xCE2 JUMPI PUSH1 0x1 DUP2 ADD SLOAD PUSH2 0xC8B SWAP1 DUP13 SWAP1 PUSH1 0x1 PUSH1 0x1 PUSH1 0xA0 SHL SUB AND PUSH2 0x10DF JUMP JUMPDEST DUP3 SUB PUSH2 0xCDD JUMPI PUSH1 0x1 DUP2 ADD SLOAD PUSH1 0x1 PUSH1 0x1 PUSH1 0xA0 SHL SUB AND DUP8 DUP6 PUSH2 0xCAA DUP2 PUSH2 0x16F3 JUMP JUMPDEST SWAP7 POP DUP2 MLOAD DUP2 LT PUSH2 0xCBC JUMPI PUSH2 0xCBC PUSH2 0x171F JUMP JUMPDEST PUSH1 0x20 MUL PUSH1 0x20 ADD ADD SWAP1 PUSH1 0x1 PUSH1 0x1 PUSH1 0xA0 SHL SUB AND SWAP1 DUP2 PUSH1 0x1 PUSH1 0x1 PUSH1 0xA0 SHL SUB AND DUP2 MSTORE POP POP JUMPDEST PUSH2 0xDD9 JUMP JUMPDEST PUSH1 0x2 DUP11 PUSH1 0x3 DUP2 GT ISZERO PUSH2 0xCF6 JUMPI PUSH2 0xCF6 PUSH2 0x146B JUMP JUMPDEST SUB PUSH2 0xD2C JUMPI PUSH1 0x2 DUP2 ADD SLOAD PUSH1 0x1 PUSH1 0x1 PUSH1 0xA0 SHL SUB DUP1 DUP12 AND SWAP2 AND SUB PUSH2 0xCDD JUMPI PUSH1 0x1 DUP2 ADD SLOAD PUSH2 0xC8B SWAP1 DUP13 SWAP1 PUSH1 0x1 PUSH1 0x1 PUSH1 0xA0 SHL SUB AND DUP12 PUSH2 0xE7E JUMP JUMPDEST PUSH1 0x3 DUP11 PUSH1 0x3 DUP2 GT ISZERO PUSH2 0xD40 JUMPI PUSH2 0xD40 PUSH2 0x146B JUMP JUMPDEST SUB PUSH2 0xDD9 JUMPI PUSH1 0x2 DUP2 ADD SLOAD PUSH1 0x1 PUSH1 0x1 PUSH1 0xA0 SHL SUB DUP11 DUP2 AND SWAP2 AND EQ DUP1 ISZERO PUSH2 0xD67 JUMPI POP DUP8 DUP2 PUSH1 0x3 ADD SLOAD EQ JUMPDEST ISZERO PUSH2 0xDD9 JUMPI PUSH1 0x1 DUP2 ADD SLOAD PUSH2 0xD87 SWAP1 DUP13 SWAP1 PUSH1 0x1 PUSH1 0x1 PUSH1 0xA0 SHL SUB AND DUP12 DUP12 PUSH2 0x114C JUMP JUMPDEST DUP3 SUB PUSH2 0xDD9 JUMPI PUSH1 0x1 DUP2 ADD SLOAD PUSH1 0x1 PUSH1 0x1 PUSH1 0xA0 SHL SUB AND DUP8 DUP6 PUSH2 0xDA6 DUP2 PUSH2 0x16F3 JUMP JUMPDEST SWAP7 POP DUP2 MLOAD DUP2 LT PUSH2 0xDB8 JUMPI PUSH2 0xDB8 PUSH2 0x171F JUMP JUMPDEST PUSH1 0x20 MUL PUSH1 0x20 ADD ADD SWAP1 PUSH1 0x1 PUSH1 0x1 PUSH1 0xA0 SHL SUB AND SWAP1 DUP2 PUSH1 0x1 PUSH1 0x1 PUSH1 0xA0 SHL SUB AND DUP2 MSTORE POP POP JUMPDEST POP POP PUSH1 0x1 ADD PUSH2 0xC09 JUMP JUMPDEST POP DUP1 DUP3 GT ISZERO PUSH2 0xDF6 JUMPI DUP4 MLOAD DUP2 DUP4 SUB SWAP1 SUB DUP5 MSTORE JUMPDEST POP POP POP SWAP5 SWAP4 POP POP POP POP JUMP JUMPDEST PUSH1 0x1 PUSH1 0x1 PUSH1 0xA0 SHL SUB DUP1 DUP3 AND PUSH0 SWAP1 DUP2 MSTORE PUSH1 0x2 PUSH1 0x20 SWAP1 DUP2 MSTORE PUSH1 0x40 DUP1 DUP4 KECCAK256 SWAP4 DUP7 AND DUP4 MSTORE SWAP3 SWAP1 MSTORE SWAP1 DUP2 KECCAK256 DUP1 SLOAD SWAP1 SWAP2 SWAP1 PUSH2 0xE35 SWAP1 PUSH2 0x16F3 JUMP JUMPDEST SWAP1 SWAP2 SSTORE POP PUSH1 0x40 DUP1 MLOAD PUSH1 0x1 PUSH1 0x1 PUSH1 0xA0 SHL SUB DUP4 AND DUP2 MSTORE CALLER PUSH1 0x20 DUP3 ADD MSTORE PUSH32 0x3E34A3EE53064FB79C0EE57448F03774A627A9270B0C41286EFB7D8E32DCDE93 SWAP2 ADD PUSH1 0x40 MLOAD DUP1 SWAP2 SUB SWAP1 LOG1 POP POP JUMP JUMPDEST PUSH1 0x1 PUSH1 0x1 PUSH1 0xA0 SHL SUB SWAP3 DUP4 AND PUSH0 DUP2 DUP2 MSTORE PUSH1 0x1 PUSH1 0x20 SWAP1 DUP2 MSTORE PUSH1 0x40 DUP1 DUP4 KECCAK256 SLOAD PUSH1 0x2 DUP4 MSTORE DUP2 DUP5 KECCAK256 SWAP7 DUP9 AND DUP1 DUP6 MSTORE SWAP7 DUP4 MSTORE SWAP3 DUP2 SWAP1 KECCAK256 SLOAD DUP2 MLOAD DUP1 DUP5 ADD SWAP8 SWAP1 SWAP8 MSTORE DUP7 DUP3 ADD SWAP5 SWAP1 SWAP5 MSTORE SWAP4 SWAP1 SWAP6 AND PUSH1 0x60 DUP6 ADD MSTORE PUSH1 0x80 DUP5 ADD MSTORE PUSH1 0xA0 DUP1 DUP5 ADD SWAP2 SWAP1 SWAP2 MSTORE DUP2 MLOAD DUP1 DUP5 SUB SWAP1 SWAP2 ADD DUP2 MSTORE PUSH1 0xC0 SWAP1 SWAP3 ADD SWAP1 MSTORE DUP1 MLOAD SWAP2 ADD KECCAK256 SWAP1 JUMP JUMPDEST DUP5 ISZERO PUSH2 0x102E JUMPI PUSH1 0x1 PUSH1 0x1 PUSH1 0xA0 SHL SUB DUP4 AND PUSH0 SWAP1 DUP2 MSTORE PUSH1 0x20 DUP2 DUP2 MSTORE PUSH1 0x40 DUP1 DUP4 KECCAK256 PUSH1 0x1 DUP4 MSTORE DUP2 DUP5 KECCAK256 SLOAD DUP5 MSTORE SWAP1 SWAP2 MSTORE SWAP1 KECCAK256 PUSH2 0xF26 SWAP1 DUP8 PUSH2 0x11D1 JUMP JUMPDEST POP PUSH1 0x1 PUSH1 0x1 PUSH1 0xA0 SHL SUB DUP8 AND PUSH0 SWAP1 DUP2 MSTORE PUSH1 0x3 PUSH1 0x20 MSTORE PUSH1 0x40 SWAP1 KECCAK256 PUSH2 0xF48 SWAP1 DUP8 PUSH2 0x11D1 JUMP JUMPDEST POP PUSH1 0x40 MLOAD DUP1 PUSH1 0xA0 ADD PUSH1 0x40 MSTORE DUP1 DUP6 PUSH1 0x3 DUP2 GT ISZERO PUSH2 0xF66 JUMPI PUSH2 0xF66 PUSH2 0x146B JUMP JUMPDEST DUP2 MSTORE PUSH1 0x1 PUSH1 0x1 PUSH1 0xA0 SHL SUB DUP1 DUP7 AND PUSH1 0x20 DUP1 DUP5 ADD SWAP2 SWAP1 SWAP2 MSTORE DUP11 DUP3 AND PUSH1 0x40 DUP1 DUP6 ADD SWAP2 SWAP1 SWAP2 MSTORE SWAP2 DUP7 AND PUSH1 0x60 DUP5 ADD MSTORE PUSH1 0x80 SWAP1 SWAP3 ADD DUP5 SWAP1 MSTORE PUSH0 DUP10 DUP2 MSTORE PUSH1 0x4 SWAP1 SWAP3 MSTORE SWAP1 KECCAK256 DUP2 MLOAD DUP2 SLOAD DUP3 SWAP1 PUSH1 0xFF NOT AND PUSH1 0x1 DUP4 PUSH1 0x3 DUP2 GT ISZERO PUSH2 0xFC1 JUMPI PUSH2 0xFC1 PUSH2 0x146B JUMP JUMPDEST MUL OR SWAP1 SSTORE POP PUSH1 0x20 DUP3 ADD MLOAD DUP2 SLOAD PUSH1 0x1 PUSH1 0x1 PUSH1 0xA0 SHL SUB SWAP2 DUP3 AND PUSH2 0x100 MUL PUSH2 0x100 PUSH1 0x1 PUSH1 0xA8 SHL SUB NOT SWAP1 SWAP2 AND OR DUP3 SSTORE PUSH1 0x40 DUP4 ADD MLOAD PUSH1 0x1 DUP4 ADD DUP1 SLOAD SWAP2 DUP4 AND PUSH1 0x1 PUSH1 0x1 PUSH1 0xA0 SHL SUB NOT SWAP3 DUP4 AND OR SWAP1 SSTORE PUSH1 0x60 DUP5 ADD MLOAD PUSH1 0x2 DUP5 ADD DUP1 SLOAD SWAP2 SWAP1 SWAP4 AND SWAP2 AND OR SWAP1 SSTORE PUSH1 0x80 SWAP1 SWAP2 ADD MLOAD PUSH1 0x3 SWAP1 SWAP2 ADD SSTORE PUSH2 0x10C2 JUMP JUMPDEST PUSH1 0x1 PUSH1 0x1 PUSH1 0xA0 SHL SUB DUP4 AND PUSH0 SWAP1 DUP2 MSTORE PUSH1 0x20 DUP2 DUP2 MSTORE PUSH1 0x40 DUP1 DUP4 KECCAK256 PUSH1 0x1 DUP4 MSTORE DUP2 DUP5 KECCAK256 SLOAD DUP5 MSTORE SWAP1 SWAP2 MSTORE SWAP1 KECCAK256 PUSH2 0x105F SWAP1 DUP8 PUSH2 0x11DC JUMP JUMPDEST POP PUSH1 0x1 PUSH1 0x1 PUSH1 0xA0 SHL SUB DUP8 AND PUSH0 SWAP1 DUP2 MSTORE PUSH1 0x3 PUSH1 0x20 MSTORE PUSH1 0x40 SWAP1 KECCAK256 PUSH2 0x1081 SWAP1 DUP8 PUSH2 0x11DC JUMP JUMPDEST POP PUSH0 DUP7 DUP2 MSTORE PUSH1 0x4 PUSH1 0x20 MSTORE PUSH1 0x40 DUP2 KECCAK256 DUP1 SLOAD PUSH1 0x1 PUSH1 0x1 PUSH1 0xA8 SHL SUB NOT AND DUP2 SSTORE PUSH1 0x1 DUP2 ADD DUP1 SLOAD PUSH1 0x1 PUSH1 0x1 PUSH1 0xA0 SHL SUB NOT SWAP1 DUP2 AND SWAP1 SWAP2 SSTORE PUSH1 0x2 DUP3 ADD DUP1 SLOAD SWAP1 SWAP2 AND SWAP1 SSTORE PUSH1 0x3 ADD SSTORE JUMPDEST POP POP POP POP POP POP POP JUMP JUMPDEST PUSH0 PUSH2 0x29F DUP3 SLOAD SWAP1 JUMP JUMPDEST PUSH0 PUSH2 0xA21 DUP4 DUP4 PUSH2 0x11E7 JUMP JUMPDEST PUSH1 0x1 PUSH1 0x1 PUSH1 0xA0 SHL SUB SWAP2 DUP3 AND PUSH0 DUP2 DUP2 MSTORE PUSH1 0x1 PUSH1 0x20 SWAP1 DUP2 MSTORE PUSH1 0x40 DUP1 DUP4 KECCAK256 SLOAD PUSH1 0x2 DUP4 MSTORE DUP2 DUP5 KECCAK256 SWAP6 SWAP1 SWAP7 AND DUP1 DUP5 MSTORE SWAP5 DUP3 MSTORE SWAP2 DUP3 SWAP1 KECCAK256 SLOAD DUP3 MLOAD DUP1 DUP4 ADD SWAP6 SWAP1 SWAP6 MSTORE DUP5 DUP4 ADD SWAP4 SWAP1 SWAP4 MSTORE PUSH1 0x60 DUP5 ADD SWAP5 SWAP1 SWAP5 MSTORE PUSH1 0x80 DUP1 DUP5 ADD SWAP3 SWAP1 SWAP3 MSTORE DUP1 MLOAD DUP1 DUP5 SUB SWAP1 SWAP3 ADD DUP3 MSTORE PUSH1 0xA0 SWAP1 SWAP3 ADD SWAP1 SWAP2 MSTORE DUP1 MLOAD SWAP2 ADD KECCAK256 SWAP1 JUMP JUMPDEST PUSH1 0x1 PUSH1 0x1 PUSH1 0xA0 SHL SUB DUP1 DUP6 AND PUSH0 SWAP1 DUP2 MSTORE PUSH1 0x1 PUSH1 0x20 SWAP1 DUP2 MSTORE PUSH1 0x40 DUP1 DUP4 KECCAK256 SLOAD PUSH1 0x2 DUP4 MSTORE DUP2 DUP5 KECCAK256 SWAP5 DUP9 AND DUP5 MSTORE SWAP4 DUP3 MSTORE DUP1 DUP4 KECCAK256 SLOAD SWAP1 MLOAD SWAP3 SWAP4 SWAP3 SWAP1 SWAP2 PUSH2 0x1198 SWAP2 DUP9 SWAP2 DUP11 SWAP2 DUP10 SWAP2 DUP10 SWAP2 DUP9 SWAP2 DUP9 SWAP2 ADD PUSH2 0x1733 JUMP JUMPDEST PUSH1 0x40 MLOAD PUSH1 0x20 DUP2 DUP4 SUB SUB DUP2 MSTORE SWAP1 PUSH1 0x40 MSTORE DUP1 MLOAD SWAP1 PUSH1 0x20 ADD KECCAK256 SWAP3 POP POP POP SWAP5 SWAP4 POP POP POP POP JUMP JUMPDEST PUSH0 DUP2 DUP2 MSTORE PUSH1 0x1 DUP4 ADD PUSH1 0x20 MSTORE PUSH1 0x40 DUP2 KECCAK256 SLOAD ISZERO ISZERO PUSH2 0xA21 JUMP JUMPDEST PUSH0 PUSH2 0xA21 DUP4 DUP4 PUSH2 0x120D JUMP JUMPDEST PUSH0 PUSH2 0xA21 DUP4 DUP4 PUSH2 0x1259 JUMP JUMPDEST PUSH0 DUP3 PUSH0 ADD DUP3 DUP2 SLOAD DUP2 LT PUSH2 0x11FC JUMPI PUSH2 0x11FC PUSH2 0x171F JUMP JUMPDEST SWAP1 PUSH0 MSTORE PUSH1 0x20 PUSH0 KECCAK256 ADD SLOAD SWAP1 POP SWAP3 SWAP2 POP POP JUMP JUMPDEST PUSH0 DUP2 DUP2 MSTORE PUSH1 0x1 DUP4 ADD PUSH1 0x20 MSTORE PUSH1 0x40 DUP2 KECCAK256 SLOAD PUSH2 0x1252 JUMPI POP DUP2 SLOAD PUSH1 0x1 DUP2 DUP2 ADD DUP5 SSTORE PUSH0 DUP5 DUP2 MSTORE PUSH1 0x20 DUP1 DUP3 KECCAK256 SWAP1 SWAP4 ADD DUP5 SWAP1 SSTORE DUP5 SLOAD DUP5 DUP3 MSTORE DUP3 DUP7 ADD SWAP1 SWAP4 MSTORE PUSH1 0x40 SWAP1 KECCAK256 SWAP2 SWAP1 SWAP2 SSTORE PUSH2 0x29F JUMP JUMPDEST POP PUSH0 PUSH2 0x29F JUMP JUMPDEST PUSH0 DUP2 DUP2 MSTORE PUSH1 0x1 DUP4 ADD PUSH1 0x20 MSTORE PUSH1 0x40 DUP2 KECCAK256 SLOAD DUP1 ISZERO PUSH2 0x1333 JUMPI PUSH0 PUSH2 0x127B PUSH1 0x1 DUP4 PUSH2 0x176C JUMP JUMPDEST DUP6 SLOAD SWAP1 SWAP2 POP PUSH0 SWAP1 PUSH2 0x128E SWAP1 PUSH1 0x1 SWAP1 PUSH2 0x176C JUMP JUMPDEST SWAP1 POP DUP2 DUP2 EQ PUSH2 0x12ED JUMPI PUSH0 DUP7 PUSH0 ADD DUP3 DUP2 SLOAD DUP2 LT PUSH2 0x12AC JUMPI PUSH2 0x12AC PUSH2 0x171F JUMP JUMPDEST SWAP1 PUSH0 MSTORE PUSH1 0x20 PUSH0 KECCAK256 ADD SLOAD SWAP1 POP DUP1 DUP8 PUSH0 ADD DUP5 DUP2 SLOAD DUP2 LT PUSH2 0x12CC JUMPI PUSH2 0x12CC PUSH2 0x171F JUMP JUMPDEST PUSH0 SWAP2 DUP3 MSTORE PUSH1 0x20 DUP1 DUP4 KECCAK256 SWAP1 SWAP2 ADD SWAP3 SWAP1 SWAP3 SSTORE SWAP2 DUP3 MSTORE PUSH1 0x1 DUP9 ADD SWAP1 MSTORE PUSH1 0x40 SWAP1 KECCAK256 DUP4 SWAP1 SSTORE JUMPDEST DUP6 SLOAD DUP7 SWAP1 DUP1 PUSH2 0x12FE JUMPI PUSH2 0x12FE PUSH2 0x177F JUMP JUMPDEST PUSH1 0x1 SWAP1 SUB DUP2 DUP2 SWAP1 PUSH0 MSTORE PUSH1 0x20 PUSH0 KECCAK256 ADD PUSH0 SWAP1 SSTORE SWAP1 SSTORE DUP6 PUSH1 0x1 ADD PUSH0 DUP7 DUP2 MSTORE PUSH1 0x20 ADD SWAP1 DUP2 MSTORE PUSH1 0x20 ADD PUSH0 KECCAK256 PUSH0 SWAP1 SSTORE PUSH1 0x1 SWAP4 POP POP POP POP PUSH2 0x29F JUMP JUMPDEST PUSH0 SWAP2 POP POP PUSH2 0x29F JUMP JUMPDEST PUSH0 PUSH1 0x20 DUP3 DUP5 SUB SLT ISZERO PUSH2 0x134C JUMPI PUSH0 PUSH0 REVERT JUMPDEST DUP2 CALLDATALOAD PUSH1 0x1 PUSH1 0x1 PUSH1 0xE0 SHL SUB NOT DUP2 AND DUP2 EQ PUSH2 0xA21 JUMPI PUSH0 PUSH0 REVERT JUMPDEST DUP1 CALLDATALOAD PUSH1 0x1 PUSH1 0x1 PUSH1 0xA0 SHL SUB DUP2 AND DUP2 EQ PUSH2 0x1379 JUMPI PUSH0 PUSH0 REVERT JUMPDEST SWAP2 SWAP1 POP JUMP JUMPDEST PUSH0 PUSH0 PUSH0 PUSH1 0x60 DUP5 DUP7 SUB SLT ISZERO PUSH2 0x1390 JUMPI PUSH0 PUSH0 REVERT JUMPDEST PUSH2 0x1399 DUP5 PUSH2 0x1363 JUMP JUMPDEST SWAP3 POP PUSH2 0x13A7 PUSH1 0x20 DUP6 ADD PUSH2 0x1363 JUMP JUMPDEST SWAP3 SWAP6 SWAP3 SWAP5 POP POP POP PUSH1 0x40 SWAP2 SWAP1 SWAP2 ADD CALLDATALOAD SWAP1 JUMP JUMPDEST PUSH1 0x20 DUP1 DUP3 MSTORE DUP3 MLOAD DUP3 DUP3 ADD DUP2 SWAP1 MSTORE PUSH0 SWAP2 DUP5 ADD SWAP1 PUSH1 0x40 DUP5 ADD SWAP1 DUP4 JUMPDEST DUP2 DUP2 LT ISZERO PUSH2 0x13F8 JUMPI DUP4 MLOAD PUSH1 0x1 PUSH1 0x1 PUSH1 0xA0 SHL SUB AND DUP4 MSTORE PUSH1 0x20 SWAP4 DUP5 ADD SWAP4 SWAP1 SWAP3 ADD SWAP2 PUSH1 0x1 ADD PUSH2 0x13D1 JUMP JUMPDEST POP SWAP1 SWAP6 SWAP5 POP POP POP POP POP JUMP JUMPDEST PUSH0 PUSH1 0x20 DUP3 DUP5 SUB SLT ISZERO PUSH2 0x1413 JUMPI PUSH0 PUSH0 REVERT JUMPDEST PUSH2 0xA21 DUP3 PUSH2 0x1363 JUMP JUMPDEST DUP1 CALLDATALOAD DUP1 ISZERO ISZERO DUP2 EQ PUSH2 0x1379 JUMPI PUSH0 PUSH0 REVERT JUMPDEST PUSH0 PUSH0 PUSH0 PUSH1 0x60 DUP5 DUP7 SUB SLT ISZERO PUSH2 0x143D JUMPI PUSH0 PUSH0 REVERT JUMPDEST PUSH2 0x1446 DUP5 PUSH2 0x1363 JUMP JUMPDEST SWAP3 POP PUSH2 0x1454 PUSH1 0x20 DUP6 ADD PUSH2 0x1363 JUMP JUMPDEST SWAP2 POP PUSH2 0x1462 PUSH1 0x40 DUP6 ADD PUSH2 0x141C JUMP JUMPDEST SWAP1 POP SWAP3 POP SWAP3 POP SWAP3 JUMP JUMPDEST PUSH4 0x4E487B71 PUSH1 0xE0 SHL PUSH0 MSTORE PUSH1 0x21 PUSH1 0x4 MSTORE PUSH1 0x24 PUSH0 REVERT JUMPDEST PUSH1 0x20 DUP1 DUP3 MSTORE DUP3 MLOAD DUP3 DUP3 ADD DUP2 SWAP1 MSTORE PUSH0 SWAP2 DUP5 ADD SWAP1 PUSH1 0x40 DUP5 ADD SWAP1 DUP4 JUMPDEST DUP2 DUP2 LT ISZERO PUSH2 0x13F8 JUMPI DUP4 MLOAD DUP1 MLOAD PUSH1 0x4 DUP2 LT PUSH2 0x14C0 JUMPI PUSH4 0x4E487B71 PUSH1 0xE0 SHL PUSH0 MSTORE PUSH1 0x21 PUSH1 0x4 MSTORE PUSH1 0x24 PUSH0 REVERT JUMPDEST DUP5 MSTORE PUSH1 0x20 DUP2 DUP2 ADD MLOAD PUSH1 0x1 PUSH1 0x1 PUSH1 0xA0 SHL SUB SWAP1 DUP2 AND DUP3 DUP8 ADD MSTORE PUSH1 0x40 DUP1 DUP5 ADD MLOAD DUP3 AND SWAP1 DUP8 ADD MSTORE PUSH1 0x60 DUP1 DUP5 ADD MLOAD SWAP1 SWAP2 AND SWAP1 DUP7 ADD MSTORE PUSH1 0x80 SWAP2 DUP3 ADD MLOAD SWAP2 DUP6 ADD SWAP2 SWAP1 SWAP2 MSTORE SWAP4 SWAP1 SWAP4 ADD SWAP3 PUSH1 0xA0 SWAP1 SWAP3 ADD SWAP2 PUSH1 0x1 ADD PUSH2 0x1498 JUMP JUMPDEST PUSH0 PUSH0 PUSH0 PUSH0 PUSH1 0x80 DUP6 DUP8 SUB SLT ISZERO PUSH2 0x1523 JUMPI PUSH0 PUSH0 REVERT JUMPDEST PUSH2 0x152C DUP6 PUSH2 0x1363 JUMP JUMPDEST SWAP4 POP PUSH2 0x153A PUSH1 0x20 DUP7 ADD PUSH2 0x1363 JUMP JUMPDEST SWAP3 POP PUSH1 0x40 DUP6 ADD CALLDATALOAD SWAP2 POP PUSH2 0x154F PUSH1 0x60 DUP7 ADD PUSH2 0x141C JUMP JUMPDEST SWAP1 POP SWAP3 SWAP6 SWAP2 SWAP5 POP SWAP3 POP JUMP JUMPDEST PUSH0 PUSH0 PUSH1 0x40 DUP4 DUP6 SUB SLT ISZERO PUSH2 0x156B JUMPI PUSH0 PUSH0 REVERT JUMPDEST PUSH2 0x1574 DUP4 PUSH2 0x1363 JUMP JUMPDEST SWAP2 POP PUSH2 0x1582 PUSH1 0x20 DUP5 ADD PUSH2 0x141C JUMP JUMPDEST SWAP1 POP SWAP3 POP SWAP3 SWAP1 POP JUMP JUMPDEST PUSH1 0x20 DUP1 DUP3 MSTORE DUP3 MLOAD DUP3 DUP3 ADD DUP2 SWAP1 MSTORE PUSH0 SWAP2 DUP5 ADD SWAP1 PUSH1 0x40 DUP5 ADD SWAP1 DUP4 JUMPDEST DUP2 DUP2 LT ISZERO PUSH2 0x13F8 JUMPI DUP4 MLOAD DUP1 MLOAD PUSH1 0x1 PUSH1 0x1 PUSH1 0xA0 SHL SUB SWAP1 DUP2 AND DUP6 MSTORE PUSH1 0x20 DUP1 DUP4 ADD MLOAD DUP2 DUP8 ADD MSTORE PUSH1 0x40 SWAP3 DUP4 ADD MLOAD SWAP1 SWAP2 AND SWAP2 DUP6 ADD SWAP2 SWAP1 SWAP2 MSTORE SWAP1 SWAP4 ADD SWAP3 PUSH1 0x60 SWAP1 SWAP3 ADD SWAP2 PUSH1 0x1 ADD PUSH2 0x15A4 JUMP JUMPDEST PUSH0 PUSH0 PUSH0 PUSH1 0x60 DUP5 DUP7 SUB SLT ISZERO PUSH2 0x15FB JUMPI PUSH0 PUSH0 REVERT JUMPDEST PUSH2 0x1604 DUP5 PUSH2 0x1363 JUMP JUMPDEST SWAP3 POP PUSH2 0x1612 PUSH1 0x20 DUP6 ADD PUSH2 0x1363 JUMP JUMPDEST SWAP2 POP PUSH2 0x1462 PUSH1 0x40 DUP6 ADD PUSH2 0x1363 JUMP JUMPDEST PUSH0 PUSH0 PUSH1 0x40 DUP4 DUP6 SUB SLT ISZERO PUSH2 0x1631 JUMPI PUSH0 PUSH0 REVERT JUMPDEST PUSH2 0x163A DUP4 PUSH2 0x1363 JUMP JUMPDEST SWAP2 POP PUSH2 0x1582 PUSH1 0x20 DUP5 ADD PUSH2 0x1363 JUMP JUMPDEST PUSH0 PUSH0 PUSH0 PUSH0 PUSH1 0x80 DUP6 DUP8 SUB SLT ISZERO PUSH2 0x165B JUMPI PUSH0 PUSH0 REVERT JUMPDEST PUSH2 0x1664 DUP6 PUSH2 0x1363 JUMP JUMPDEST SWAP4 POP PUSH2 0x1672 PUSH1 0x20 DUP7 ADD PUSH2 0x1363 JUMP JUMPDEST SWAP3 POP PUSH2 0x1680 PUSH1 0x40 DUP7 ADD PUSH2 0x1363 JUMP JUMPDEST SWAP4 SWAP7 SWAP3 SWAP6 POP SWAP3 SWAP4 PUSH1 0x60 ADD CALLDATALOAD SWAP3 POP POP JUMP JUMPDEST PUSH1 0x20 DUP1 DUP3 MSTORE DUP3 MLOAD DUP3 DUP3 ADD DUP2 SWAP1 MSTORE PUSH0 SWAP2 DUP5 ADD SWAP1 PUSH1 0x40 DUP5 ADD SWAP1 DUP4 JUMPDEST DUP2 DUP2 LT ISZERO PUSH2 0x13F8 JUMPI DUP4 MLOAD DUP1 MLOAD PUSH1 0x1 PUSH1 0x1 PUSH1 0xA0 SHL SUB SWAP1 DUP2 AND DUP6 MSTORE PUSH1 0x20 SWAP2 DUP3 ADD MLOAD AND DUP2 DUP6 ADD MSTORE SWAP1 SWAP4 ADD SWAP3 PUSH1 0x40 SWAP1 SWAP3 ADD SWAP2 PUSH1 0x1 ADD PUSH2 0x16A9 JUMP JUMPDEST PUSH4 0x4E487B71 PUSH1 0xE0 SHL PUSH0 MSTORE PUSH1 0x11 PUSH1 0x4 MSTORE PUSH1 0x24 PUSH0 REVERT JUMPDEST PUSH0 PUSH1 0x1 DUP3 ADD PUSH2 0x1704 JUMPI PUSH2 0x1704 PUSH2 0x16DF JUMP JUMPDEST POP PUSH1 0x1 ADD SWAP1 JUMP JUMPDEST PUSH4 0x4E487B71 PUSH1 0xE0 SHL PUSH0 MSTORE PUSH1 0x41 PUSH1 0x4 MSTORE PUSH1 0x24 PUSH0 REVERT JUMPDEST PUSH4 0x4E487B71 PUSH1 0xE0 SHL PUSH0 MSTORE PUSH1 0x32 PUSH1 0x4 MSTORE PUSH1 0x24 PUSH0 REVERT JUMPDEST PUSH1 0x1 PUSH1 0x1 PUSH1 0xA0 SHL SUB SWAP7 DUP8 AND DUP2 MSTORE SWAP5 DUP7 AND PUSH1 0x20 DUP7 ADD MSTORE SWAP3 SWAP1 SWAP5 AND PUSH1 0x40 DUP5 ADD MSTORE PUSH1 0x60 DUP4 ADD MSTORE PUSH1 0x80 DUP3 ADD SWAP3 SWAP1 SWAP3 MSTORE PUSH1 0xA0 DUP2 ADD SWAP2 SWAP1 SWAP2 MSTORE PUSH1 0xC0 ADD SWAP1 JUMP JUMPDEST DUP2 DUP2 SUB DUP2 DUP2 GT ISZERO PUSH2 0x29F JUMPI PUSH2 0x29F PUSH2 0x16DF JUMP JUMPDEST PUSH4 0x4E487B71 PUSH1 0xE0 SHL PUSH0 MSTORE PUSH1 0x31 PUSH1 0x4 MSTORE PUSH1 0x24 PUSH0 REVERT INVALID LOG2 PUSH5 0x6970667358 0x22 SLT KECCAK256 SWAP15 0x4B GAS 0xCE SELFBALANCE 0xD EXTCODESIZE EXTCODEHASH DUP2 0xCC 0xAA RETURNDATASIZE SWAP11 SWAP6 SWAP8 SWAP6 PUSH13 0xB043225EE95EBF65D5C3122DFD NUMBER SHR PUSH5 0x736F6C6343 STOP ADDMOD SHL STOP CALLER "
		},
		"gasEstimates": {
			"creation": {
				"codeDepositCost": "1217800",
				"executionCost": "1266",
				"totalCost": "1219066"
			},
			"external": {
				"checkDelegateForAll(address,address)": "infinite",
				"checkDelegateForContract(address,address,address)": "infinite",
				"checkDelegateForToken(address,address,address,uint256)": "infinite",
				"delegateForAll(address,bool)": "infinite",
				"delegateForContract(address,address,bool)": "infinite",
				"delegateForToken(address,address,uint256,bool)": "infinite",
				"getContractLevelDelegations(address)": "infinite",
				"getDelegatesForAll(address)": "infinite",
				"getDelegatesForContract(address,address)": "infinite",
				"getDelegatesForToken(address,address,uint256)": "infinite",
				"getDelegationsByDelegate(address)": "infinite",
				"getTokenLevelDelegations(address)": "infinite",
				"revokeAllDelegates()": "25575",
				"revokeDelegate(address)": "26227",
				"revokeSelf(address)": "26229",
				"supportsInterface(bytes4)": "447"
			},
			"internal": {
				"_computeAllDelegationHash(address,address)": "infinite",
				"_computeContractDelegationHash(address,address,address)": "infinite",
				"_computeTokenDelegationHash(address,address,address,uint256)": "infinite",
				"_getDelegatesForLevel(address,enum IDelegationRegistry.DelegationType,address,uint256)": "infinite",
				"_revokeDelegate(address,address)": "infinite",
				"_setDelegationValues(address,bytes32,bool,enum IDelegationRegistry.DelegationType,address,address,uint256)": "infinite"
			}
		},
		"methodIdentifiers": {
			"checkDelegateForAll(address,address)": "9c395bc2",
			"checkDelegateForContract(address,address,address)": "90c9a2d0",
			"checkDelegateForToken(address,address,address,uint256)": "aba69cf8",
			"delegateForAll(address,bool)": "685ee3e8",
			"delegateForContract(address,address,bool)": "49c95d29",
			"delegateForToken(address,address,uint256,bool)": "537a5c3d",
			"getContractLevelDelegations(address)": "f956cf94",
			"getDelegatesForAll(address)": "1b61f675",
			"getDelegatesForContract(address,address)": "ed4b878e",
			"getDelegatesForToken(address,address,uint256)": "1221156b",
			"getDelegationsByDelegate(address)": "4fc69282",
			"getTokenLevelDelegations(address)": "6f007d87",
			"revokeAllDelegates()": "36137872",
			"revokeDelegate(address)": "fa352c00",
			"revokeSelf(address)": "219044b0",
			"supportsInterface(bytes4)": "01ffc9a7"
		}
	},
	"abi": [
		{
			"anonymous": false,
			"inputs": [
				{
					"indexed": false,
					"internalType": "address",
					"name": "vault",
					"type": "address"
				},
				{
					"indexed": false,
					"internalType": "address",
					"name": "delegate",
					"type": "address"
				},
				{
					"indexed": false,
					"internalType": "bool",
					"name": "value",
					"type": "bool"
				}
			],
			"name": "DelegateForAll",
			"type": "event"
		},
		{
			"anonymous": false,
			"inputs": [
				{
					"indexed": false,
					"internalType": "address",
					"name": "vault",
					"type": "address"
				},
				{
					"indexed": false,
					"internalType": "address",
					"name": "delegate",
					"type": "address"
				},
				{
					"indexed": false,
					"internalType": "address",
					"name": "contract_",
					"type": "address"
				},
				{
					"indexed": false,
					"internalType": "bool",
					"name": "value",
					"type": "bool"
				}
			],
			"name": "DelegateForContract",
			"type": "event"
		},
		{
			"anonymous": false,
			"inputs": [
				{
					"indexed": false,
					"internalType": "address",
					"name": "vault",
					"type": "address"
				},
				{
					"indexed": false,
					"internalType": "address",
					"name": "delegate",
					"type": "address"
				},
				{
					"indexed": false,
					"internalType": "address",
					"name": "contract_",
					"type": "address"
				},
				{
					"indexed": false,
					"internalType": "uint256",
					"name": "tokenId",
					"type": "uint256"
				},
				{
					"indexed": false,
					"internalType": "bool",
					"name": "value",
					"type": "bool"
				}
			],
			"name": "DelegateForToken",
			"type": "event"
		},
		{
			"anonymous": false,
			"inputs": [
				{
					"indexed": false,
					"internalType": "address",
					"name": "vault",
					"type": "address"
				}
			],
			"name": "RevokeAllDelegates",
			"type": "event"
		},
		{
			"anonymous": false,
			"inputs": [
				{
					"indexed": false,
					"internalType": "address",
					"name": "vault",
					"type": "address"
				},
				{
					"indexed": false,
					"internalType": "address",
					"name": "delegate",
					"type": "address"
				}
			],
			"name": "RevokeDelegate",
			"type": "event"
		},
		{
			"inputs": [
				{
					"internalType": "address",
					"name": "delegate",
					"type": "address"
				},
				{
					"internalType": "address",
					"name": "vault",
					"type": "address"
				}
			],
			"name": "checkDelegateForAll",
			"outputs": [
				{
					"internalType": "bool",
					"name": "",
					"type": "bool"
				}
			],
			"stateMutability": "view",
			"type": "function"
		},
		{
			"inputs": [
				{
					"internalType": "address",
					"name": "delegate",
					"type": "address"
				},
				{
					"internalType": "address",
					"name": "vault",
					"type": "address"
				},
				{
					"internalType": "address",
					"name": "contract_",
					"type": "address"
				}
			],
			"name": "checkDelegateForContract",
			"outputs": [
				{
					"internalType": "bool",
					"name": "",
					"type": "bool"
				}
			],
			"stateMutability": "view",
			"type": "function"
		},
		{
			"inputs": [
				{
					"internalType": "address",
					"name": "delegate",
					"type": "address"
				},
				{
					"internalType": "address",
					"name": "vault",
					"type": "address"
				},
				{
					"internalType": "address",
					"name": "contract_",
					"type": "address"
				},
				{
					"internalType": "uint256",
					"name": "tokenId",
					"type": "uint256"
				}
			],
			"name": "checkDelegateForToken",
			"outputs": [
				{
					"internalType": "bool",
					"name": "",
					"type": "bool"
				}
			],
			"stateMutability": "view",
			"type": "function"
		},
		{
			"inputs": [
				{
					"internalType": "address",
					"name": "delegate",
					"type": "address"
				},
				{
					"internalType": "bool",
					"name": "value",
					"type": "bool"
				}
			],
			"name": "delegateForAll",
			"outputs": [],
			"stateMutability": "nonpayable",
			"type": "function"
		},
		{
			"inputs": [
				{
					"internalType": "address",
					"name": "delegate",
					"type": "address"
				},
				{
					"internalType": "address",
					"name": "contract_",
					"type": "address"
				},
				{
					"internalType": "bool",
					"name": "value",
					"type": "bool"
				}
			],
			"name": "delegateForContract",
			"outputs": [],
			"stateMutability": "nonpayable",
			"type": "function"
		},
		{
			"inputs": [
				{
					"internalType": "address",
					"name": "delegate",
					"type": "address"
				},
				{
					"internalType": "address",
					"name": "contract_",
					"type": "address"
				},
				{
					"internalType": "uint256",
					"name": "tokenId",
					"type": "uint256"
				},
				{
					"internalType": "bool",
					"name": "value",
					"type": "bool"
				}
			],
			"name": "delegateForToken",
			"outputs": [],
			"stateMutability": "nonpayable",
			"type": "function"
		},
		{
			"inputs": [
				{
					"internalType": "address",
					"name": "vault",
					"type": "address"
				}
			],
			"name": "getContractLevelDelegations",
			"outputs": [
				{
					"components": [
						{
							"internalType": "address",
							"name": "contract_",
							"type": "address"
						},
						{
							"internalType": "address",
							"name": "delegate",
							"type": "address"
						}
					],
					"internalType": "struct IDelegationRegistry.ContractDelegation[]",
					"name": "contractDelegations",
					"type": "tuple[]"
				}
			],
			"stateMutability": "view",
			"type": "function"
		},
		{
			"inputs": [
				{
					"internalType": "address",
					"name": "vault",
					"type": "address"
				}
			],
			"name": "getDelegatesForAll",
			"outputs": [
				{
					"internalType": "address[]",
					"name": "delegates",
					"type": "address[]"
				}
			],
			"stateMutability": "view",
			"type": "function"
		},
		{
			"inputs": [
				{
					"internalType": "address",
					"name": "vault",
					"type": "address"
				},
				{
					"internalType": "address",
					"name": "contract_",
					"type": "address"
				}
			],
			"name": "getDelegatesForContract",
			"outputs": [
				{
					"internalType": "address[]",
					"name": "delegates",
					"type": "address[]"
				}
			],
			"stateMutability": "view",
			"type": "function"
		},
		{
			"inputs": [
				{
					"internalType": "address",
					"name": "vault",
					"type": "address"
				},
				{
					"internalType": "address",
					"name": "contract_",
					"type": "address"
				},
				{
					"internalType": "uint256",
					"name": "tokenId",
					"type": "uint256"
				}
			],
			"name": "getDelegatesForToken",
			"outputs": [
				{
					"internalType": "address[]",
					"name": "delegates",
					"type": "address[]"
				}
			],
			"stateMutability": "view",
			"type": "function"
		},
		{
			"inputs": [
				{
					"internalType": "address",
					"name": "delegate",
					"type": "address"
				}
			],
			"name": "getDelegationsByDelegate",
			"outputs": [
				{
					"components": [
						{
							"internalType": "enum IDelegationRegistry.DelegationType",
							"name": "type_",
							"type": "uint8"
						},
						{
							"internalType": "address",
							"name": "vault",
							"type": "address"
						},
						{
							"internalType": "address",
							"name": "delegate",
							"type": "address"
						},
						{
							"internalType": "address",
							"name": "contract_",
							"type": "address"
						},
						{
							"internalType": "uint256",
							"name": "tokenId",
							"type": "uint256"
						}
					],
					"internalType": "struct IDelegationRegistry.DelegationInfo[]",
					"name": "info",
					"type": "tuple[]"
				}
			],
			"stateMutability": "view",
			"type": "function"
		},
		{
			"inputs": [
				{
					"internalType": "address",
					"name": "vault",
					"type": "address"
				}
			],
			"name": "getTokenLevelDelegations",
			"outputs": [
				{
					"components": [
						{
							"internalType": "address",
							"name": "contract_",
							"type": "address"
						},
						{
							"internalType": "uint256",
							"name": "tokenId",
							"type": "uint256"
						},
						{
							"internalType": "address",
							"name": "delegate",
							"type": "address"
						}
					],
					"internalType": "struct IDelegationRegistry.TokenDelegation[]",
					"name": "tokenDelegations",
					"type": "tuple[]"
				}
			],
			"stateMutability": "view",
			"type": "function"
		},
		{
			"inputs": [],
			"name": "revokeAllDelegates",
			"outputs": [],
			"stateMutability": "nonpayable",
			"type": "function"
		},
		{
			"inputs": [
				{
					"internalType": "address",
					"name": "delegate",
					"type": "address"
				}
			],
			"name": "revokeDelegate",
			"outputs": [],
			"stateMutability": "nonpayable",
			"type": "function"
		},
		{
			"inputs": [
				{
					"internalType": "address",
					"name": "vault",
					"type": "address"
				}
			],
			"name": "revokeSelf",
			"outputs": [],
			"stateMutability": "nonpayable",
			"type": "function"
		},
		{
			"inputs": [
				{
					"internalType": "bytes4",
					"name": "interfaceId",
					"type": "bytes4"
				}
			],
			"name": "supportsInterface",
			"outputs": [
				{
					"internalType": "bool",
					"name": "",
					"type": "bool"
				}
			],
			"stateMutability": "view",
			"type": "function"
		}
	]
}