{
	"Delegate(copy)(copy)//contracts/DelegationRegistry.sol": {
		"DelegationRegistry": {
			"abi": [
				{
					"anonymous": false,
					"inputs": [
						{
							"indexed": false,
							"internalType": "address",
							"name": "vault",
							"type": "address"
						},
						{
							"indexed": false,
							"internalType": "address",
							"name": "delegate",
							"type": "address"
						},
						{
							"indexed": false,
							"internalType": "bool",
							"name": "value",
							"type": "bool"
						}
					],
					"name": "DelegateForAll",
					"type": "event"
				},
				{
					"anonymous": false,
					"inputs": [
						{
							"indexed": false,
							"internalType": "address",
							"name": "vault",
							"type": "address"
						},
						{
							"indexed": false,
							"internalType": "address",
							"name": "delegate",
							"type": "address"
						},
						{
							"indexed": false,
							"internalType": "address",
							"name": "contract_",
							"type": "address"
						},
						{
							"indexed": false,
							"internalType": "bool",
							"name": "value",
							"type": "bool"
						}
					],
					"name": "DelegateForContract",
					"type": "event"
				},
				{
					"anonymous": false,
					"inputs": [
						{
							"indexed": false,
							"internalType": "address",
							"name": "vault",
							"type": "address"
						},
						{
							"indexed": false,
							"internalType": "address",
							"name": "delegate",
							"type": "address"
						},
						{
							"indexed": false,
							"internalType": "address",
							"name": "contract_",
							"type": "address"
						},
						{
							"indexed": false,
							"internalType": "uint256",
							"name": "tokenId",
							"type": "uint256"
						},
						{
							"indexed": false,
							"internalType": "bool",
							"name": "value",
							"type": "bool"
						}
					],
					"name": "DelegateForToken",
					"type": "event"
				},
				{
					"anonymous": false,
					"inputs": [
						{
							"indexed": false,
							"internalType": "address",
							"name": "vault",
							"type": "address"
						}
					],
					"name": "RevokeAllDelegates",
					"type": "event"
				},
				{
					"anonymous": false,
					"inputs": [
						{
							"indexed": false,
							"internalType": "address",
							"name": "vault",
							"type": "address"
						},
						{
							"indexed": false,
							"internalType": "address",
							"name": "delegate",
							"type": "address"
						}
					],
					"name": "RevokeDelegate",
					"type": "event"
				},
				{
					"inputs": [
						{
							"internalType": "address",
							"name": "delegate",
							"type": "address"
						},
						{
							"internalType": "address",
							"name": "vault",
							"type": "address"
						}
					],
					"name": "checkDelegateForAll",
					"outputs": [
						{
							"internalType": "bool",
							"name": "",
							"type": "bool"
						}
					],
					"stateMutability": "view",
					"type": "function"
				},
				{
					"inputs": [
						{
							"internalType": "address",
							"name": "delegate",
							"type": "address"
						},
						{
							"internalType": "address",
							"name": "vault",
							"type": "address"
						},
						{
							"internalType": "address",
							"name": "contract_",
							"type": "address"
						}
					],
					"name": "checkDelegateForContract",
					"outputs": [
						{
							"internalType": "bool",
							"name": "",
							"type": "bool"
						}
					],
					"stateMutability": "view",
					"type": "function"
				},
				{
					"inputs": [
						{
							"internalType": "address",
							"name": "delegate",
							"type": "address"
						},
						{
							"internalType": "address",
							"name": "vault",
							"type": "address"
						},
						{
							"internalType": "address",
							"name": "contract_",
							"type": "address"
						},
						{
							"internalType": "uint256",
							"name": "tokenId",
							"type": "uint256"
						}
					],
					"name": "checkDelegateForToken",
					"outputs": [
						{
							"internalType": "bool",
							"name": "",
							"type": "bool"
						}
					],
					"stateMutability": "view",
					"type": "function"
				},
				{
					"inputs": [
						{
							"internalType": "address",
							"name": "delegate",
							"type": "address"
						},
						{
							"internalType": "bool",
							"name": "value",
							"type": "bool"
						}
					],
					"name": "delegateForAll",
					"outputs": [],
					"stateMutability": "nonpayable",
					"type": "function"
				},
				{
					"inputs": [
						{
							"internalType": "address",
							"name": "delegate",
							"type": "address"
						},
						{
							"internalType": "address",
							"name": "contract_",
							"type": "address"
						},
						{
							"internalType": "bool",
							"name": "value",
							"type": "bool"
						}
					],
					"name": "delegateForContract",
					"outputs": [],
					"stateMutability": "nonpayable",
					"type": "function"
				},
				{
					"inputs": [
						{
							"internalType": "address",
							"name": "delegate",
							"type": "address"
						},
						{
							"internalType": "address",
							"name": "contract_",
							"type": "address"
						},
						{
							"internalType": "uint256",
							"name": "tokenId",
							"type": "uint256"
						},
						{
							"internalType": "bool",
							"name": "value",
							"type": "bool"
						}
					],
					"name": "delegateForToken",
					"outputs": [],
					"stateMutability": "nonpayable",
					"type": "function"
				},
				{
					"inputs": [
						{
							"internalType": "address",
							"name": "vault",
							"type": "address"
						}
					],
					"name": "getContractLevelDelegations",
					"outputs": [
						{
							"components": [
								{
									"internalType": "address",
									"name": "contract_",
									"type": "address"
								},
								{
									"internalType": "address",
									"name": "delegate",
									"type": "address"
								}
							],
							"internalType": "struct IDelegationRegistry.ContractDelegation[]",
							"name": "contractDelegations",
							"type": "tuple[]"
						}
					],
					"stateMutability": "view",
					"type": "function"
				},
				{
					"inputs": [
						{
							"internalType": "address",
							"name": "vault",
							"type": "address"
						}
					],
					"name": "getDelegatesForAll",
					"outputs": [
						{
							"internalType": "address[]",
							"name": "delegates",
							"type": "address[]"
						}
					],
					"stateMutability": "view",
					"type": "function"
				},
				{
					"inputs": [
						{
							"internalType": "address",
							"name": "vault",
							"type": "address"
						},
						{
							"internalType": "address",
							"name": "contract_",
							"type": "address"
						}
					],
					"name": "getDelegatesForContract",
					"outputs": [
						{
							"internalType": "address[]",
							"name": "delegates",
							"type": "address[]"
						}
					],
					"stateMutability": "view",
					"type": "function"
				},
				{
					"inputs": [
						{
							"internalType": "address",
							"name": "vault",
							"type": "address"
						},
						{
							"internalType": "address",
							"name": "contract_",
							"type": "address"
						},
						{
							"internalType": "uint256",
							"name": "tokenId",
							"type": "uint256"
						}
					],
					"name": "getDelegatesForToken",
					"outputs": [
						{
							"internalType": "address[]",
							"name": "delegates",
							"type": "address[]"
						}
					],
					"stateMutability": "view",
					"type": "function"
				},
				{
					"inputs": [
						{
							"internalType": "address",
							"name": "delegate",
							"type": "address"
						}
					],
					"name": "getDelegationsByDelegate",
					"outputs": [
						{
							"components": [
								{
									"internalType": "enum IDelegationRegistry.DelegationType",
									"name": "type_",
									"type": "uint8"
								},
								{
									"internalType": "address",
									"name": "vault",
									"type": "address"
								},
								{
									"internalType": "address",
									"name": "delegate",
									"type": "address"
								},
								{
									"internalType": "address",
									"name": "contract_",
									"type": "address"
								},
								{
									"internalType": "uint256",
									"name": "tokenId",
									"type": "uint256"
								}
							],
							"internalType": "struct IDelegationRegistry.DelegationInfo[]",
							"name": "info",
							"type": "tuple[]"
						}
					],
					"stateMutability": "view",
					"type": "function"
				},
				{
					"inputs": [
						{
							"internalType": "address",
							"name": "vault",
							"type": "address"
						}
					],
					"name": "getTokenLevelDelegations",
					"outputs": [
						{
							"components": [
								{
									"internalType": "address",
									"name": "contract_",
									"type": "address"
								},
								{
									"internalType": "uint256",
									"name": "tokenId",
									"type": "uint256"
								},
								{
									"internalType": "address",
									"name": "delegate",
									"type": "address"
								}
							],
							"internalType": "struct IDelegationRegistry.TokenDelegation[]",
							"name": "tokenDelegations",
							"type": "tuple[]"
						}
					],
					"stateMutability": "view",
					"type": "function"
				},
				{
					"inputs": [],
					"name": "revokeAllDelegates",
					"outputs": [],
					"stateMutability": "nonpayable",
					"type": "function"
				},
				{
					"inputs": [
						{
							"internalType": "address",
							"name": "delegate",
							"type": "address"
						}
					],
					"name": "revokeDelegate",
					"outputs": [],
					"stateMutability": "nonpayable",
					"type": "function"
				},
				{
					"inputs": [
						{
							"internalType": "address",
							"name": "vault",
							"type": "address"
						}
					],
					"name": "revokeSelf",
					"outputs": [],
					"stateMutability": "nonpayable",
					"type": "function"
				},
				{
					"inputs": [
						{
							"internalType": "bytes4",
							"name": "interfaceId",
							"type": "bytes4"
						}
					],
					"name": "supportsInterface",
					"outputs": [
						{
							"internalType": "bool",
							"name": "",
							"type": "bool"
						}
					],
					"stateMutability": "view",
					"type": "function"
				}
			],
			"devdoc": {
				"custom:coauthor": "foobar (0xfoobar)wwchung (manifoldxyz)purplehat (artblocks)ryley-o (artblocks)andy8052 (tessera)punk6529 (open metaverse)loopify (loopiverse)emiliano (nftrentals)arran (proof)james (collabland)john (gnosis safe)0xrusowsky",
				"custom:version": "1.0",
				"details": "See EIP-5639, new project launches can read previous cold wallet -> hot wallet delegations from here and integrate those permissions into their flow.",
				"kind": "dev",
				"methods": {
					"checkDelegateForAll(address,address)": {
						"params": {
							"delegate": "The hotwallet to act on your behalf",
							"vault": "The cold wallet who issued the delegation"
						}
					},
					"checkDelegateForContract(address,address,address)": {
						"params": {
							"contract_": "The address for the contract you're delegating",
							"delegate": "The hotwallet to act on your behalf",
							"vault": "The cold wallet who issued the delegation"
						}
					},
					"checkDelegateForToken(address,address,address,uint256)": {
						"params": {
							"contract_": "The address for the contract you're delegating",
							"delegate": "The hotwallet to act on your behalf",
							"tokenId": "The token id for the token you're delegating",
							"vault": "The cold wallet who issued the delegation"
						}
					},
					"delegateForAll(address,bool)": {
						"params": {
							"delegate": "The hotwallet to act on your behalf",
							"value": "Whether to enable or disable delegation for this address, true for setting and false for revoking"
						}
					},
					"delegateForContract(address,address,bool)": {
						"params": {
							"contract_": "The address for the contract you're delegating",
							"delegate": "The hotwallet to act on your behalf",
							"value": "Whether to enable or disable delegation for this address, true for setting and false for revoking"
						}
					},
					"delegateForToken(address,address,uint256,bool)": {
						"params": {
							"contract_": "The address for the contract you're delegating",
							"delegate": "The hotwallet to act on your behalf",
							"tokenId": "The token id for the token you're delegating",
							"value": "Whether to enable or disable delegation for this address, true for setting and false for revoking"
						}
					},
					"getContractLevelDelegations(address)": {
						"params": {
							"vault": "The cold wallet who issued the delegations"
						},
						"returns": {
							"contractDelegations": "Array of ContractDelegation structs"
						}
					},
					"getDelegatesForAll(address)": {
						"params": {
							"vault": "The cold wallet who issued the delegation"
						},
						"returns": {
							"delegates": "addresses Array of wallet-level delegates for a given vault"
						}
					},
					"getDelegatesForContract(address,address)": {
						"params": {
							"contract_": "The address for the contract you're delegating",
							"vault": "The cold wallet who issued the delegation"
						},
						"returns": {
							"delegates": "addresses Array of contract-level delegates for a given vault and contract"
						}
					},
					"getDelegatesForToken(address,address,uint256)": {
						"params": {
							"contract_": "The address for the contract holding the token",
							"tokenId": "The token id for the token you're delegating",
							"vault": "The cold wallet who issued the delegation"
						},
						"returns": {
							"delegates": "addresses Array of contract-level delegates for a given vault's token"
						}
					},
					"getDelegationsByDelegate(address)": {
						"params": {
							"delegate": "The delegate that you would like to retrieve delegations for"
						},
						"returns": {
							"info": "Array of DelegationInfo structs"
						}
					},
					"getTokenLevelDelegations(address)": {
						"params": {
							"vault": "The cold wallet who issued the delegations"
						},
						"returns": {
							"tokenDelegations": "Array of TokenDelegation structs"
						}
					},
					"revokeDelegate(address)": {
						"params": {
							"delegate": "The hotwallet to revoke"
						}
					},
					"revokeSelf(address)": {
						"params": {
							"vault": "The vault which delegated to the msg.sender, and should be removed"
						}
					},
					"supportsInterface(bytes4)": {
						"details": "See {IERC165-supportsInterface}."
					}
				},
				"stateVariables": {
					"delegationHashes": {
						"details": "delegate -> delegationHashes"
					},
					"delegationInfo": {
						"details": "delegationHash -> DelegateInfo"
					},
					"delegations": {
						"details": "vault -> vaultVersion -> delegationHash"
					}
				},
				"title": "DelegationRegistry",
				"version": 1
			},
			"evm": {
				"assembly": "    /* \"Delegate(copy)(copy)//contracts/DelegationRegistry.sol\":2357:22671  contract DelegationRegistry is IDelegationRegistry, ERC165 {... */\n  mstore(0x40, 0x80)\n  callvalue\n  dup1\n  iszero\n  tag_1\n  jumpi\n  revert(0x00, 0x00)\ntag_1:\n  pop\n  dataSize(sub_0)\n  dup1\n  dataOffset(sub_0)\n  0x00\n  codecopy\n  0x00\n  return\nstop\n\nsub_0: assembly {\n        /* \"Delegate(copy)(copy)//contracts/DelegationRegistry.sol\":2357:22671  contract DelegationRegistry is IDelegationRegistry, ERC165 {... */\n      mstore(0x40, 0x80)\n      callvalue\n      dup1\n      iszero\n      tag_1\n      jumpi\n      revert(0x00, 0x00)\n    tag_1:\n      pop\n      jumpi(tag_2, lt(calldatasize, 0x04))\n      shr(0xe0, calldataload(0x00))\n      dup1\n      0x685ee3e8\n      gt\n      tag_19\n      jumpi\n      dup1\n      0xaba69cf8\n      gt\n      tag_20\n      jumpi\n      dup1\n      0xaba69cf8\n      eq\n      tag_15\n      jumpi\n      dup1\n      0xed4b878e\n      eq\n      tag_16\n      jumpi\n      dup1\n      0xf956cf94\n      eq\n      tag_17\n      jumpi\n      dup1\n      0xfa352c00\n      eq\n      tag_18\n      jumpi\n      revert(0x00, 0x00)\n    tag_20:\n      dup1\n      0x685ee3e8\n      eq\n      tag_11\n      jumpi\n      dup1\n      0x6f007d87\n      eq\n      tag_12\n      jumpi\n      dup1\n      0x90c9a2d0\n      eq\n      tag_13\n      jumpi\n      dup1\n      0x9c395bc2\n      eq\n      tag_14\n      jumpi\n      revert(0x00, 0x00)\n    tag_19:\n      dup1\n      0x36137872\n      gt\n      tag_21\n      jumpi\n      dup1\n      0x36137872\n      eq\n      tag_7\n      jumpi\n      dup1\n      0x49c95d29\n      eq\n      tag_8\n      jumpi\n      dup1\n      0x4fc69282\n      eq\n      tag_9\n      jumpi\n      dup1\n      0x537a5c3d\n      eq\n      tag_10\n      jumpi\n      revert(0x00, 0x00)\n    tag_21:\n      dup1\n      0x01ffc9a7\n      eq\n      tag_3\n      jumpi\n      dup1\n      0x1221156b\n      eq\n      tag_4\n      jumpi\n      dup1\n      0x1b61f675\n      eq\n      tag_5\n      jumpi\n      dup1\n      0x219044b0\n      eq\n      tag_6\n      jumpi\n    tag_2:\n      revert(0x00, 0x00)\n        /* \"Delegate(copy)(copy)//contracts/DelegationRegistry.sol\":3561:3814  function supportsInterface(... */\n    tag_3:\n      tag_22\n      tag_23\n      calldatasize\n      0x04\n      tag_24\n      jump\t// in\n    tag_23:\n      tag_25\n      jump\t// in\n    tag_22:\n      mload(0x40)\n        /* \"#utility.yul\":470:484   */\n      swap1\n      iszero\n        /* \"#utility.yul\":463:485   */\n      iszero\n        /* \"#utility.yul\":445:486   */\n      dup2\n      mstore\n        /* \"#utility.yul\":433:435   */\n      0x20\n        /* \"#utility.yul\":418:436   */\n      add\n        /* \"Delegate(copy)(copy)//contracts/DelegationRegistry.sol\":3561:3814  function supportsInterface(... */\n    tag_26:\n      mload(0x40)\n      dup1\n      swap2\n      sub\n      swap1\n      return\n        /* \"Delegate(copy)(copy)//contracts/DelegationRegistry.sol\":13033:13408  function getDelegatesForToken(... */\n    tag_4:\n      tag_28\n      tag_29\n      calldatasize\n      0x04\n      tag_30\n      jump\t// in\n    tag_29:\n      tag_31\n      jump\t// in\n    tag_28:\n      mload(0x40)\n      tag_26\n      swap2\n      swap1\n      tag_33\n      jump\t// in\n        /* \"Delegate(copy)(copy)//contracts/DelegationRegistry.sol\":12256:12561  function getDelegatesForAll(... */\n    tag_5:\n      tag_28\n      tag_35\n      calldatasize\n      0x04\n      tag_36\n      jump\t// in\n    tag_35:\n      tag_37\n      jump\t// in\n        /* \"Delegate(copy)(copy)//contracts/DelegationRegistry.sol\":9148:9252  function revokeSelf(address vault) external override {... */\n    tag_6:\n      tag_39\n      tag_40\n      calldatasize\n      0x04\n      tag_36\n      jump\t// in\n    tag_40:\n      tag_41\n      jump\t// in\n    tag_39:\n      stop\n        /* \"Delegate(copy)(copy)//contracts/DelegationRegistry.sol\":8756:8912  function revokeAllDelegates() external override {... */\n    tag_7:\n      tag_39\n      tag_43\n      jump\t// in\n        /* \"Delegate(copy)(copy)//contracts/DelegationRegistry.sol\":4488:5145  function delegateForContract(... */\n    tag_8:\n      tag_39\n      tag_45\n      calldatasize\n      0x04\n      tag_46\n      jump\t// in\n    tag_45:\n      tag_47\n      jump\t// in\n        /* \"Delegate(copy)(copy)//contracts/DelegationRegistry.sol\":9706:12195  function getDelegationsByDelegate(... */\n    tag_9:\n      tag_48\n      tag_49\n      calldatasize\n      0x04\n      tag_36\n      jump\t// in\n    tag_49:\n      tag_50\n      jump\t// in\n    tag_48:\n      mload(0x40)\n      tag_26\n      swap2\n      swap1\n      tag_52\n      jump\t// in\n        /* \"Delegate(copy)(copy)//contracts/DelegationRegistry.sol\":5206:5924  function delegateForToken(... */\n    tag_10:\n      tag_39\n      tag_54\n      calldatasize\n      0x04\n      tag_55\n      jump\t// in\n    tag_54:\n      tag_56\n      jump\t// in\n        /* \"Delegate(copy)(copy)//contracts/DelegationRegistry.sol\":3930:4427  function delegateForAll(address delegate, bool value) external override {... */\n    tag_11:\n      tag_39\n      tag_58\n      calldatasize\n      0x04\n      tag_59\n      jump\t// in\n    tag_58:\n      tag_60\n      jump\t// in\n        /* \"Delegate(copy)(copy)//contracts/DelegationRegistry.sol\":18869:20829  function getTokenLevelDelegations(... */\n    tag_12:\n      tag_61\n      tag_62\n      calldatasize\n      0x04\n      tag_36\n      jump\t// in\n    tag_62:\n      tag_63\n      jump\t// in\n    tag_61:\n      mload(0x40)\n      tag_26\n      swap2\n      swap1\n      tag_65\n      jump\t// in\n        /* \"Delegate(copy)(copy)//contracts/DelegationRegistry.sol\":21383:21964  function checkDelegateForContract(... */\n    tag_13:\n      tag_22\n      tag_67\n      calldatasize\n      0x04\n      tag_68\n      jump\t// in\n    tag_67:\n      tag_69\n      jump\t// in\n        /* \"Delegate(copy)(copy)//contracts/DelegationRegistry.sol\":20890:21322  function checkDelegateForAll(... */\n    tag_14:\n      tag_22\n      tag_72\n      calldatasize\n      0x04\n      tag_73\n      jump\t// in\n    tag_72:\n      tag_74\n      jump\t// in\n        /* \"Delegate(copy)(copy)//contracts/DelegationRegistry.sol\":22025:22669  function checkDelegateForToken(... */\n    tag_15:\n      tag_22\n      tag_77\n      calldatasize\n      0x04\n      tag_78\n      jump\t// in\n    tag_77:\n      tag_79\n      jump\t// in\n        /* \"Delegate(copy)(copy)//contracts/DelegationRegistry.sol\":12622:12972  function getDelegatesForContract(... */\n    tag_16:\n      tag_28\n      tag_82\n      calldatasize\n      0x04\n      tag_73\n      jump\t// in\n    tag_82:\n      tag_83\n      jump\t// in\n        /* \"Delegate(copy)(copy)//contracts/DelegationRegistry.sol\":16846:18808  function getContractLevelDelegations(... */\n    tag_17:\n      tag_85\n      tag_86\n      calldatasize\n      0x04\n      tag_36\n      jump\t// in\n    tag_86:\n      tag_87\n      jump\t// in\n    tag_85:\n      mload(0x40)\n      tag_26\n      swap2\n      swap1\n      tag_89\n      jump\t// in\n        /* \"Delegate(copy)(copy)//contracts/DelegationRegistry.sol\":8973:9087  function revokeDelegate(address delegate) external override {... */\n    tag_18:\n      tag_39\n      tag_91\n      calldatasize\n      0x04\n      tag_36\n      jump\t// in\n    tag_91:\n      tag_92\n      jump\t// in\n        /* \"Delegate(copy)(copy)//contracts/DelegationRegistry.sol\":3561:3814  function supportsInterface(... */\n    tag_25:\n        /* \"Delegate(copy)(copy)//contracts/DelegationRegistry.sol\":3668:3672  bool */\n      0x00\n      not(sub(shl(0xe0, 0x01), 0x01))\n        /* \"Delegate(copy)(copy)//contracts/DelegationRegistry.sol\":3703:3755  interfaceId == type(IDelegationRegistry).interfaceId */\n      dup3\n      and\n      shl(0xe0, 0x0596d3d5)\n      eq\n      dup1\n        /* \"Delegate(copy)(copy)//contracts/DelegationRegistry.sol\":3703:3807  interfaceId == type(IDelegationRegistry).interfaceId ||... */\n      tag_95\n      jumpi\n      pop\n      shl(0xe0, 0x01ffc9a7)\n      not(sub(shl(0xe0, 0x01), 0x01))\n        /* \"Delegate/@openzeppelin/contracts/utils/introspection/ERC165.sol\":2206:2246  interfaceId == type(IERC165).interfaceId */\n      dup4\n      and\n      eq\n        /* \"Delegate(copy)(copy)//contracts/DelegationRegistry.sol\":3771:3807  super.supportsInterface(interfaceId) */\n    tag_95:\n        /* \"Delegate(copy)(copy)//contracts/DelegationRegistry.sol\":3684:3807  return... */\n      swap3\n        /* \"Delegate(copy)(copy)//contracts/DelegationRegistry.sol\":3561:3814  function supportsInterface(... */\n      swap2\n      pop\n      pop\n      jump\t// out\n        /* \"Delegate(copy)(copy)//contracts/DelegationRegistry.sol\":13033:13408  function getDelegatesForToken(... */\n    tag_31:\n        /* \"Delegate(copy)(copy)//contracts/DelegationRegistry.sol\":13176:13202  address[] memory delegates */\n      0x60\n        /* \"Delegate(copy)(copy)//contracts/DelegationRegistry.sol\":13233:13401  _getDelegatesForLevel(... */\n      tag_98\n        /* \"Delegate(copy)(copy)//contracts/DelegationRegistry.sol\":13272:13277  vault */\n      dup5\n        /* \"Delegate(copy)(copy)//contracts/DelegationRegistry.sol\":13295:13335  IDelegationRegistry.DelegationType.TOKEN */\n      0x03\n        /* \"Delegate(copy)(copy)//contracts/DelegationRegistry.sol\":13353:13362  contract_ */\n      dup6\n        /* \"Delegate(copy)(copy)//contracts/DelegationRegistry.sol\":13380:13387  tokenId */\n      dup6\n        /* \"Delegate(copy)(copy)//contracts/DelegationRegistry.sol\":13233:13254  _getDelegatesForLevel */\n      tag_99\n        /* \"Delegate(copy)(copy)//contracts/DelegationRegistry.sol\":13233:13401  _getDelegatesForLevel(... */\n      jump\t// in\n    tag_98:\n        /* \"Delegate(copy)(copy)//contracts/DelegationRegistry.sol\":13214:13401  return... */\n      swap5\n        /* \"Delegate(copy)(copy)//contracts/DelegationRegistry.sol\":13033:13408  function getDelegatesForToken(... */\n      swap4\n      pop\n      pop\n      pop\n      pop\n      jump\t// out\n        /* \"Delegate(copy)(copy)//contracts/DelegationRegistry.sol\":12256:12561  function getDelegatesForAll(... */\n    tag_37:\n        /* \"Delegate(copy)(copy)//contracts/DelegationRegistry.sol\":12336:12362  address[] memory delegates */\n      0x60\n        /* \"Delegate(copy)(copy)//contracts/DelegationRegistry.sol\":12393:12554  _getDelegatesForLevel(... */\n      tag_95\n        /* \"Delegate(copy)(copy)//contracts/DelegationRegistry.sol\":12432:12437  vault */\n      dup3\n        /* \"Delegate(copy)(copy)//contracts/DelegationRegistry.sol\":12455:12493  IDelegationRegistry.DelegationType.ALL */\n      0x01\n        /* \"Delegate(copy)(copy)//contracts/DelegationRegistry.sol\":12519:12520  0 */\n      0x00\n        /* \"Delegate(copy)(copy)//contracts/DelegationRegistry.sol\":12539:12540  0 */\n      0x00\n        /* \"Delegate(copy)(copy)//contracts/DelegationRegistry.sol\":12393:12414  _getDelegatesForLevel */\n      tag_99\n        /* \"Delegate(copy)(copy)//contracts/DelegationRegistry.sol\":12393:12554  _getDelegatesForLevel(... */\n      jump\t// in\n        /* \"Delegate(copy)(copy)//contracts/DelegationRegistry.sol\":9148:9252  function revokeSelf(address vault) external override {... */\n    tag_41:\n        /* \"Delegate(copy)(copy)//contracts/DelegationRegistry.sol\":9211:9245  _revokeDelegate(msg.sender, vault) */\n      tag_103\n        /* \"Delegate(copy)(copy)//contracts/DelegationRegistry.sol\":9227:9237  msg.sender */\n      caller\n        /* \"Delegate(copy)(copy)//contracts/DelegationRegistry.sol\":9239:9244  vault */\n      dup3\n        /* \"Delegate(copy)(copy)//contracts/DelegationRegistry.sol\":9211:9226  _revokeDelegate */\n      tag_104\n        /* \"Delegate(copy)(copy)//contracts/DelegationRegistry.sol\":9211:9245  _revokeDelegate(msg.sender, vault) */\n      jump\t// in\n    tag_103:\n        /* \"Delegate(copy)(copy)//contracts/DelegationRegistry.sol\":9148:9252  function revokeSelf(address vault) external override {... */\n      pop\n      jump\t// out\n        /* \"Delegate(copy)(copy)//contracts/DelegationRegistry.sol\":8756:8912  function revokeAllDelegates() external override {... */\n    tag_43:\n        /* \"Delegate(copy)(copy)//contracts/DelegationRegistry.sol\":8829:8839  msg.sender */\n      caller\n        /* \"Delegate(copy)(copy)//contracts/DelegationRegistry.sol\":8816:8840  vaultVersion[msg.sender] */\n      0x00\n      swap1\n      dup2\n      mstore\n        /* \"Delegate(copy)(copy)//contracts/DelegationRegistry.sol\":8816:8828  vaultVersion */\n      0x01\n        /* \"Delegate(copy)(copy)//contracts/DelegationRegistry.sol\":8816:8840  vaultVersion[msg.sender] */\n      0x20\n      mstore\n      0x40\n      dup2\n      keccak256\n        /* \"Delegate(copy)(copy)//contracts/DelegationRegistry.sol\":8814:8840  ++vaultVersion[msg.sender] */\n      dup1\n      sload\n        /* \"Delegate(copy)(copy)//contracts/DelegationRegistry.sol\":8816:8840  vaultVersion[msg.sender] */\n      swap1\n      swap2\n      swap1\n        /* \"Delegate(copy)(copy)//contracts/DelegationRegistry.sol\":8814:8840  ++vaultVersion[msg.sender] */\n      tag_106\n      swap1\n      tag_107\n      jump\t// in\n    tag_106:\n      swap1\n      swap2\n      sstore\n      pop\n        /* \"Delegate(copy)(copy)//contracts/DelegationRegistry.sol\":8855:8905  IDelegationRegistry.RevokeAllDelegates(msg.sender) */\n      mload(0x40)\n        /* \"Delegate(copy)(copy)//contracts/DelegationRegistry.sol\":8894:8904  msg.sender */\n      caller\n        /* \"#utility.yul\":7609:7660   */\n      dup2\n      mstore\n        /* \"Delegate(copy)(copy)//contracts/DelegationRegistry.sol\":8855:8905  IDelegationRegistry.RevokeAllDelegates(msg.sender) */\n      0x32d74befd0b842e19694e3e3af46263e18bcce41352c8b600ff0002b49edf662\n      swap1\n        /* \"#utility.yul\":7597:7599   */\n      0x20\n        /* \"#utility.yul\":7582:7600   */\n      add\n        /* \"Delegate(copy)(copy)//contracts/DelegationRegistry.sol\":8855:8905  IDelegationRegistry.RevokeAllDelegates(msg.sender) */\n      mload(0x40)\n      dup1\n      swap2\n      sub\n      swap1\n      log1\n        /* \"Delegate(copy)(copy)//contracts/DelegationRegistry.sol\":8756:8912  function revokeAllDelegates() external override {... */\n      jump\t// out\n        /* \"Delegate(copy)(copy)//contracts/DelegationRegistry.sol\":4488:5145  function delegateForContract(... */\n    tag_47:\n        /* \"Delegate(copy)(copy)//contracts/DelegationRegistry.sol\":4624:4646  bytes32 delegationHash */\n      0x00\n        /* \"Delegate(copy)(copy)//contracts/DelegationRegistry.sol\":4649:4758  _computeContractDelegationHash(... */\n      tag_111\n        /* \"Delegate(copy)(copy)//contracts/DelegationRegistry.sol\":4693:4703  msg.sender */\n      caller\n        /* \"Delegate(copy)(copy)//contracts/DelegationRegistry.sol\":4717:4725  delegate */\n      dup6\n        /* \"Delegate(copy)(copy)//contracts/DelegationRegistry.sol\":4739:4748  contract_ */\n      dup6\n        /* \"Delegate(copy)(copy)//contracts/DelegationRegistry.sol\":4649:4679  _computeContractDelegationHash */\n      tag_112\n        /* \"Delegate(copy)(copy)//contracts/DelegationRegistry.sol\":4649:4758  _computeContractDelegationHash(... */\n      jump\t// in\n    tag_111:\n        /* \"Delegate(copy)(copy)//contracts/DelegationRegistry.sol\":4624:4758  bytes32 delegationHash = _computeContractDelegationHash(... */\n      swap1\n      pop\n        /* \"Delegate(copy)(copy)//contracts/DelegationRegistry.sol\":4768:4986  _setDelegationValues(... */\n      tag_113\n        /* \"Delegate(copy)(copy)//contracts/DelegationRegistry.sol\":4802:4810  delegate */\n      dup5\n        /* \"Delegate(copy)(copy)//contracts/DelegationRegistry.sol\":4824:4838  delegationHash */\n      dup3\n        /* \"Delegate(copy)(copy)//contracts/DelegationRegistry.sol\":4852:4857  value */\n      dup5\n        /* \"Delegate(copy)(copy)//contracts/DelegationRegistry.sol\":4871:4914  IDelegationRegistry.DelegationType.CONTRACT */\n      0x02\n        /* \"Delegate(copy)(copy)//contracts/DelegationRegistry.sol\":4928:4938  msg.sender */\n      caller\n        /* \"Delegate(copy)(copy)//contracts/DelegationRegistry.sol\":4952:4961  contract_ */\n      dup9\n        /* \"Delegate(copy)(copy)//contracts/DelegationRegistry.sol\":4975:4976  0 */\n      0x00\n        /* \"Delegate(copy)(copy)//contracts/DelegationRegistry.sol\":4768:4788  _setDelegationValues */\n      tag_114\n        /* \"Delegate(copy)(copy)//contracts/DelegationRegistry.sol\":4768:4986  _setDelegationValues(... */\n      jump\t// in\n    tag_113:\n        /* \"Delegate(copy)(copy)//contracts/DelegationRegistry.sol\":5001:5138  IDelegationRegistry.DelegateForContract(... */\n      0x40\n      dup1\n      mload\n        /* \"Delegate(copy)(copy)//contracts/DelegationRegistry.sol\":5054:5064  msg.sender */\n      caller\n        /* \"#utility.yul\":7896:7947   */\n      dup2\n      mstore\n      sub(shl(0xa0, 0x01), 0x01)\n        /* \"#utility.yul\":7983:8015   */\n      dup7\n      dup2\n      and\n        /* \"#utility.yul\":7978:7980   */\n      0x20\n        /* \"#utility.yul\":7963:7981   */\n      dup4\n      add\n        /* \"#utility.yul\":7956:8016   */\n      mstore\n        /* \"#utility.yul\":8052:8084   */\n      dup6\n      and\n        /* \"#utility.yul\":8032:8050   */\n      dup2\n      dup4\n      add\n        /* \"#utility.yul\":8025:8085   */\n      mstore\n        /* \"#utility.yul\":8128:8142   */\n      dup4\n      iszero\n        /* \"#utility.yul\":8121:8143   */\n      iszero\n        /* \"#utility.yul\":8116:8118   */\n      0x60\n        /* \"#utility.yul\":8101:8119   */\n      dup3\n      add\n        /* \"#utility.yul\":8094:8144   */\n      mstore\n        /* \"Delegate(copy)(copy)//contracts/DelegationRegistry.sol\":5001:5138  IDelegationRegistry.DelegateForContract(... */\n      swap1\n      mload\n      0x8d6b2f5255b8d815cc368855b2251146e003bf4e2fcccaec66145fff5c174b4f\n      swap2\n      dup2\n      swap1\n      sub\n        /* \"#utility.yul\":7883:7886   */\n      0x80\n        /* \"Delegate(copy)(copy)//contracts/DelegationRegistry.sol\":5001:5138  IDelegationRegistry.DelegateForContract(... */\n      add\n      swap1\n      log1\n        /* \"Delegate(copy)(copy)//contracts/DelegationRegistry.sol\":4614:5145  {... */\n      pop\n        /* \"Delegate(copy)(copy)//contracts/DelegationRegistry.sol\":4488:5145  function delegateForContract(... */\n      pop\n      pop\n      pop\n      jump\t// out\n        /* \"Delegate(copy)(copy)//contracts/DelegationRegistry.sol\":9706:12195  function getDelegationsByDelegate(... */\n    tag_50:\n      sub(shl(0xa0, 0x01), 0x01)\n        /* \"Delegate(copy)(copy)//contracts/DelegationRegistry.sol\":9928:9954  delegationHashes[delegate] */\n      dup2\n      and\n        /* \"Delegate(copy)(copy)//contracts/DelegationRegistry.sol\":9855:9925  EnumerableSet.Bytes32Set... */\n      0x00\n        /* \"Delegate(copy)(copy)//contracts/DelegationRegistry.sol\":9928:9954  delegationHashes[delegate] */\n      swap1\n      dup2\n      mstore\n        /* \"Delegate(copy)(copy)//contracts/DelegationRegistry.sol\":9928:9944  delegationHashes */\n      0x03\n        /* \"Delegate(copy)(copy)//contracts/DelegationRegistry.sol\":9928:9954  delegationHashes[delegate] */\n      0x20\n      mstore\n      0x40\n      dup2\n      keccak256\n        /* \"Delegate(copy)(copy)//contracts/DelegationRegistry.sol\":9795:9843  IDelegationRegistry.DelegationInfo[] memory info */\n      0x60\n      swap2\n        /* \"Delegate(copy)(copy)//contracts/DelegationRegistry.sol\":10006:10053  potentialDelegationHashes... */\n      tag_118\n        /* \"Delegate(copy)(copy)//contracts/DelegationRegistry.sol\":9928:9954  delegationHashes[delegate] */\n      dup3\n        /* \"Delegate(copy)(copy)//contracts/DelegationRegistry.sol\":10006:10051  potentialDelegationHashes... */\n      tag_119\n        /* \"Delegate(copy)(copy)//contracts/DelegationRegistry.sol\":10006:10053  potentialDelegationHashes... */\n      jump\t// in\n    tag_118:\n        /* \"Delegate(copy)(copy)//contracts/DelegationRegistry.sol\":9964:10053  uint256 potentialDelegationHashesLength = potentialDelegationHashes... */\n      swap1\n      pop\n        /* \"Delegate(copy)(copy)//contracts/DelegationRegistry.sol\":10063:10086  uint256 delegationCount */\n      0x00\n        /* \"Delegate(copy)(copy)//contracts/DelegationRegistry.sol\":9964:10053  uint256 potentialDelegationHashesLength = potentialDelegationHashes... */\n      dup2\n        /* \"Delegate(copy)(copy)//contracts/DelegationRegistry.sol\":10107:10202  new IDelegationRegistry.DelegationInfo[](... */\n      0xffffffffffffffff\n      dup2\n      gt\n      iszero\n      tag_121\n      jumpi\n      tag_121\n      tag_122\n      jump\t// in\n    tag_121:\n      mload(0x40)\n      swap1\n      dup1\n      dup3\n      mstore\n      dup1\n      0x20\n      mul\n      0x20\n      add\n      dup3\n      add\n      0x40\n      mstore\n      dup1\n      iszero\n      tag_123\n      jumpi\n      dup2\n      0x20\n      add\n    tag_124:\n      0x40\n      dup1\n      mload\n      0xa0\n      dup2\n      add\n      dup3\n      mstore\n      0x00\n      dup1\n      dup3\n      mstore\n      0x20\n      dup1\n      dup4\n      add\n      dup3\n      swap1\n      mstore\n      swap3\n      dup3\n      add\n      dup2\n      swap1\n      mstore\n      0x60\n      dup3\n      add\n      dup2\n      swap1\n      mstore\n      0x80\n      dup3\n      add\n      mstore\n      dup3\n      mstore\n      not(0x00)\n      swap1\n      swap3\n      add\n      swap2\n      add\n      dup2\n      tag_124\n      jumpi\n      swap1\n      pop\n    tag_123:\n      pop\n        /* \"Delegate(copy)(copy)//contracts/DelegationRegistry.sol\":10100:10202  info = new IDelegationRegistry.DelegationInfo[](... */\n      swap4\n      pop\n        /* \"Delegate(copy)(copy)//contracts/DelegationRegistry.sol\":10217:10226  uint256 i */\n      0x00\n        /* \"Delegate(copy)(copy)//contracts/DelegationRegistry.sol\":10212:11876  for (uint256 i = 0; i < potentialDelegationHashesLength; ) {... */\n    tag_127:\n        /* \"Delegate(copy)(copy)//contracts/DelegationRegistry.sol\":10236:10267  potentialDelegationHashesLength */\n      dup3\n        /* \"Delegate(copy)(copy)//contracts/DelegationRegistry.sol\":10232:10233  i */\n      dup2\n        /* \"Delegate(copy)(copy)//contracts/DelegationRegistry.sol\":10232:10267  i < potentialDelegationHashesLength */\n      lt\n        /* \"Delegate(copy)(copy)//contracts/DelegationRegistry.sol\":10212:11876  for (uint256 i = 0; i < potentialDelegationHashesLength; ) {... */\n      iszero\n      tag_128\n      jumpi\n        /* \"Delegate(copy)(copy)//contracts/DelegationRegistry.sol\":10285:10305  bytes32 delegateHash */\n      0x00\n        /* \"Delegate(copy)(copy)//contracts/DelegationRegistry.sol\":10308:10339  potentialDelegationHashes.at(i) */\n      tag_130\n        /* \"Delegate(copy)(copy)//contracts/DelegationRegistry.sol\":10308:10333  potentialDelegationHashes */\n      dup6\n        /* \"Delegate(copy)(copy)//contracts/DelegationRegistry.sol\":10337:10338  i */\n      dup4\n        /* \"Delegate(copy)(copy)//contracts/DelegationRegistry.sol\":10308:10336  potentialDelegationHashes.at */\n      tag_131\n        /* \"Delegate(copy)(copy)//contracts/DelegationRegistry.sol\":10308:10339  potentialDelegationHashes.at(i) */\n      jump\t// in\n    tag_130:\n        /* \"Delegate(copy)(copy)//contracts/DelegationRegistry.sol\":10353:10426  IDelegationRegistry.DelegationInfo... */\n      0x00\n        /* \"Delegate(copy)(copy)//contracts/DelegationRegistry.sol\":10429:10457  delegationInfo[delegateHash] */\n      dup2\n      dup2\n      mstore\n        /* \"Delegate(copy)(copy)//contracts/DelegationRegistry.sol\":10429:10443  delegationInfo */\n      0x04\n        /* \"Delegate(copy)(copy)//contracts/DelegationRegistry.sol\":10429:10457  delegationInfo[delegateHash] */\n      0x20\n      mstore\n      0x40\n      dup1\n      dup3\n      keccak256\n        /* \"Delegate(copy)(copy)//contracts/DelegationRegistry.sol\":10353:10457  IDelegationRegistry.DelegationInfo... */\n      dup2\n      mload\n      0xa0\n      dup2\n      add\n      swap1\n      swap3\n      mstore\n      dup1\n      sload\n        /* \"Delegate(copy)(copy)//contracts/DelegationRegistry.sol\":10285:10339  bytes32 delegateHash = potentialDelegationHashes.at(i) */\n      swap4\n      swap5\n      pop\n        /* \"Delegate(copy)(copy)//contracts/DelegationRegistry.sol\":10353:10426  IDelegationRegistry.DelegationInfo... */\n      swap2\n      swap3\n        /* \"Delegate(copy)(copy)//contracts/DelegationRegistry.sol\":10353:10457  IDelegationRegistry.DelegationInfo... */\n      swap1\n      swap2\n        /* \"Delegate(copy)(copy)//contracts/DelegationRegistry.sol\":10429:10457  delegationInfo[delegateHash] */\n      swap1\n        /* \"Delegate(copy)(copy)//contracts/DelegationRegistry.sol\":10353:10457  IDelegationRegistry.DelegationInfo... */\n      dup3\n      swap1\n      0xff\n      and\n      0x03\n      dup2\n      gt\n      iszero\n      tag_133\n      jumpi\n      tag_133\n      tag_134\n      jump\t// in\n    tag_133:\n      0x03\n      dup2\n      gt\n      iszero\n      tag_136\n      jumpi\n      tag_136\n      tag_134\n      jump\t// in\n    tag_136:\n      dup2\n      mstore\n      dup2\n      sload\n      sub(shl(0xa0, 0x01), 0x01)\n      0x0100\n      swap1\n      swap2\n      div\n      dup2\n      and\n      0x20\n      dup1\n      dup5\n      add\n      swap2\n      swap1\n      swap2\n      mstore\n      0x01\n      dup1\n      dup6\n      add\n      sload\n      dup4\n      and\n      0x40\n      dup6\n      add\n      mstore\n      0x02\n      dup6\n      add\n      sload\n      swap1\n      swap3\n      and\n      0x60\n      dup5\n      add\n      mstore\n      0x03\n      swap1\n      swap4\n      add\n      sload\n      0x80\n      swap1\n      swap3\n      add\n      swap2\n      swap1\n      swap2\n      mstore\n        /* \"Delegate(copy)(copy)//contracts/DelegationRegistry.sol\":10487:10508  delegationInfo_.vault */\n      swap1\n      dup3\n      add\n      mload\n        /* \"Delegate(copy)(copy)//contracts/DelegationRegistry.sol\":10565:10586  delegationInfo_.type_ */\n      dup3\n      mload\n        /* \"Delegate(copy)(copy)//contracts/DelegationRegistry.sol\":10353:10457  IDelegationRegistry.DelegationInfo... */\n      swap3\n      swap4\n      pop\n        /* \"Delegate(copy)(copy)//contracts/DelegationRegistry.sol\":10487:10508  delegationInfo_.vault */\n      swap2\n        /* \"Delegate(copy)(copy)//contracts/DelegationRegistry.sol\":10565:10586  delegationInfo_.type_ */\n      swap1\n        /* \"Delegate(copy)(copy)//contracts/DelegationRegistry.sol\":10353:10457  IDelegationRegistry.DelegationInfo... */\n      0x00\n      swap1\n        /* \"Delegate(copy)(copy)//contracts/DelegationRegistry.sol\":10636:10641  type_ */\n      dup3\n        /* \"Delegate(copy)(copy)//contracts/DelegationRegistry.sol\":10636:10683  type_ == IDelegationRegistry.DelegationType.ALL */\n      0x03\n      dup2\n      gt\n      iszero\n      tag_140\n      jumpi\n      tag_140\n      tag_134\n      jump\t// in\n    tag_140:\n      sub\n        /* \"Delegate(copy)(copy)//contracts/DelegationRegistry.sol\":10632:11709  if (type_ == IDelegationRegistry.DelegationType.ALL) {... */\n      tag_141\n      jumpi\n        /* \"Delegate(copy)(copy)//contracts/DelegationRegistry.sol\":10744:10786  _computeAllDelegationHash(vault, delegate) */\n      tag_142\n        /* \"Delegate(copy)(copy)//contracts/DelegationRegistry.sol\":10770:10775  vault */\n      dup4\n        /* \"Delegate(copy)(copy)//contracts/DelegationRegistry.sol\":10777:10785  delegate */\n      dup13\n        /* \"Delegate(copy)(copy)//contracts/DelegationRegistry.sol\":10744:10769  _computeAllDelegationHash */\n      tag_143\n        /* \"Delegate(copy)(copy)//contracts/DelegationRegistry.sol\":10744:10786  _computeAllDelegationHash(vault, delegate) */\n      jump\t// in\n    tag_142:\n        /* \"Delegate(copy)(copy)//contracts/DelegationRegistry.sol\":10728:10740  delegateHash */\n      dup6\n        /* \"Delegate(copy)(copy)//contracts/DelegationRegistry.sol\":10728:10786  delegateHash == _computeAllDelegationHash(vault, delegate) */\n      sub\n        /* \"Delegate(copy)(copy)//contracts/DelegationRegistry.sol\":10703:10858  if (... */\n      tag_144\n      jumpi\n      pop\n        /* \"Delegate(copy)(copy)//contracts/DelegationRegistry.sol\":10835:10839  true */\n      0x01\n        /* \"Delegate(copy)(copy)//contracts/DelegationRegistry.sol\":10703:10858  if (... */\n    tag_144:\n        /* \"Delegate(copy)(copy)//contracts/DelegationRegistry.sol\":10632:11709  if (type_ == IDelegationRegistry.DelegationType.ALL) {... */\n      jump(tag_161)\n    tag_141:\n        /* \"Delegate(copy)(copy)//contracts/DelegationRegistry.sol\":10891:10934  IDelegationRegistry.DelegationType.CONTRACT */\n      0x02\n        /* \"Delegate(copy)(copy)//contracts/DelegationRegistry.sol\":10882:10887  type_ */\n      dup3\n        /* \"Delegate(copy)(copy)//contracts/DelegationRegistry.sol\":10882:10934  type_ == IDelegationRegistry.DelegationType.CONTRACT */\n      0x03\n      dup2\n      gt\n      iszero\n      tag_149\n      jumpi\n      tag_149\n      tag_134\n      jump\t// in\n    tag_149:\n      sub\n        /* \"Delegate(copy)(copy)//contracts/DelegationRegistry.sol\":10878:11709  if (type_ == IDelegationRegistry.DelegationType.CONTRACT) {... */\n      tag_150\n      jumpi\n        /* \"Delegate(copy)(copy)//contracts/DelegationRegistry.sol\":11015:11183  _computeContractDelegationHash(... */\n      tag_142\n        /* \"Delegate(copy)(copy)//contracts/DelegationRegistry.sol\":11071:11076  vault */\n      dup4\n        /* \"Delegate(copy)(copy)//contracts/DelegationRegistry.sol\":11102:11110  delegate */\n      dup13\n        /* \"Delegate(copy)(copy)//contracts/DelegationRegistry.sol\":11136:11151  delegationInfo_ */\n      dup7\n        /* \"Delegate(copy)(copy)//contracts/DelegationRegistry.sol\":11136:11161  delegationInfo_.contract_ */\n      0x60\n      add\n      mload\n        /* \"Delegate(copy)(copy)//contracts/DelegationRegistry.sol\":11015:11045  _computeContractDelegationHash */\n      tag_112\n        /* \"Delegate(copy)(copy)//contracts/DelegationRegistry.sol\":11015:11183  _computeContractDelegationHash(... */\n      jump\t// in\n        /* \"Delegate(copy)(copy)//contracts/DelegationRegistry.sol\":10878:11709  if (type_ == IDelegationRegistry.DelegationType.CONTRACT) {... */\n    tag_150:\n        /* \"Delegate(copy)(copy)//contracts/DelegationRegistry.sol\":11288:11328  IDelegationRegistry.DelegationType.TOKEN */\n      0x03\n        /* \"Delegate(copy)(copy)//contracts/DelegationRegistry.sol\":11279:11284  type_ */\n      dup3\n        /* \"Delegate(copy)(copy)//contracts/DelegationRegistry.sol\":11279:11328  type_ == IDelegationRegistry.DelegationType.TOKEN */\n      0x03\n      dup2\n      gt\n      iszero\n      tag_157\n      jumpi\n      tag_157\n      tag_134\n      jump\t// in\n    tag_157:\n      sub\n        /* \"Delegate(copy)(copy)//contracts/DelegationRegistry.sol\":11275:11709  if (type_ == IDelegationRegistry.DelegationType.TOKEN) {... */\n      tag_161\n      jumpi\n        /* \"Delegate(copy)(copy)//contracts/DelegationRegistry.sol\":11409:11623  _computeTokenDelegationHash(... */\n      tag_159\n        /* \"Delegate(copy)(copy)//contracts/DelegationRegistry.sol\":11462:11467  vault */\n      dup4\n        /* \"Delegate(copy)(copy)//contracts/DelegationRegistry.sol\":11493:11501  delegate */\n      dup13\n        /* \"Delegate(copy)(copy)//contracts/DelegationRegistry.sol\":11527:11542  delegationInfo_ */\n      dup7\n        /* \"Delegate(copy)(copy)//contracts/DelegationRegistry.sol\":11527:11552  delegationInfo_.contract_ */\n      0x60\n      add\n      mload\n        /* \"Delegate(copy)(copy)//contracts/DelegationRegistry.sol\":11578:11593  delegationInfo_ */\n      dup8\n        /* \"Delegate(copy)(copy)//contracts/DelegationRegistry.sol\":11578:11601  delegationInfo_.tokenId */\n      0x80\n      add\n      mload\n        /* \"Delegate(copy)(copy)//contracts/DelegationRegistry.sol\":11409:11436  _computeTokenDelegationHash */\n      tag_160\n        /* \"Delegate(copy)(copy)//contracts/DelegationRegistry.sol\":11409:11623  _computeTokenDelegationHash(... */\n      jump\t// in\n    tag_159:\n        /* \"Delegate(copy)(copy)//contracts/DelegationRegistry.sol\":11373:11385  delegateHash */\n      dup6\n        /* \"Delegate(copy)(copy)//contracts/DelegationRegistry.sol\":11373:11623  delegateHash ==... */\n      sub\n        /* \"Delegate(copy)(copy)//contracts/DelegationRegistry.sol\":11348:11695  if (... */\n      tag_161\n      jumpi\n      pop\n        /* \"Delegate(copy)(copy)//contracts/DelegationRegistry.sol\":11672:11676  true */\n      0x01\n        /* \"Delegate(copy)(copy)//contracts/DelegationRegistry.sol\":11348:11695  if (... */\n    tag_161:\n        /* \"Delegate(copy)(copy)//contracts/DelegationRegistry.sol\":11726:11731  valid */\n      dup1\n        /* \"Delegate(copy)(copy)//contracts/DelegationRegistry.sol\":11722:11807  if (valid) {... */\n      iszero\n      tag_162\n      jumpi\n        /* \"Delegate(copy)(copy)//contracts/DelegationRegistry.sol\":11777:11792  delegationInfo_ */\n      dup4\n        /* \"Delegate(copy)(copy)//contracts/DelegationRegistry.sol\":11751:11755  info */\n      dup11\n        /* \"Delegate(copy)(copy)//contracts/DelegationRegistry.sol\":11756:11773  delegationCount++ */\n      dup9\n      tag_163\n      dup2\n      tag_107\n      jump\t// in\n    tag_163:\n      swap10\n      pop\n        /* \"Delegate(copy)(copy)//contracts/DelegationRegistry.sol\":11751:11774  info[delegationCount++] */\n      dup2\n      mload\n      dup2\n      lt\n      tag_165\n      jumpi\n      tag_165\n      tag_166\n      jump\t// in\n    tag_165:\n      0x20\n      mul\n      0x20\n      add\n      add\n        /* \"Delegate(copy)(copy)//contracts/DelegationRegistry.sol\":11751:11792  info[delegationCount++] = delegationInfo_ */\n      dup2\n      swap1\n      mstore\n      pop\n        /* \"Delegate(copy)(copy)//contracts/DelegationRegistry.sol\":11722:11807  if (valid) {... */\n    tag_162:\n        /* \"Delegate(copy)(copy)//contracts/DelegationRegistry.sol\":11848:11851  ++i */\n      dup6\n      0x01\n      add\n      swap6\n      pop\n        /* \"Delegate(copy)(copy)//contracts/DelegationRegistry.sol\":10271:11876  {... */\n      pop\n      pop\n      pop\n      pop\n      pop\n        /* \"Delegate(copy)(copy)//contracts/DelegationRegistry.sol\":10212:11876  for (uint256 i = 0; i < potentialDelegationHashesLength; ) {... */\n      jump(tag_127)\n    tag_128:\n      pop\n        /* \"Delegate(copy)(copy)//contracts/DelegationRegistry.sol\":11923:11938  delegationCount */\n      dup1\n        /* \"Delegate(copy)(copy)//contracts/DelegationRegistry.sol\":11889:11920  potentialDelegationHashesLength */\n      dup3\n        /* \"Delegate(copy)(copy)//contracts/DelegationRegistry.sol\":11889:11938  potentialDelegationHashesLength > delegationCount */\n      gt\n        /* \"Delegate(copy)(copy)//contracts/DelegationRegistry.sol\":11885:12189  if (potentialDelegationHashesLength > delegationCount) {... */\n      iszero\n      tag_167\n      jumpi\n        /* \"Delegate(copy)(copy)//contracts/DelegationRegistry.sol\":12142:12153  mload(info) */\n      dup4\n      mload\n        /* \"Delegate(copy)(copy)//contracts/DelegationRegistry.sol\":11997:12108  sub(... */\n      dup2\n      dup4\n      sub\n        /* \"Delegate(copy)(copy)//contracts/DelegationRegistry.sol\":12138:12164  sub(mload(info), decrease) */\n      swap1\n      sub\n        /* \"Delegate(copy)(copy)//contracts/DelegationRegistry.sol\":12125:12165  mstore(info, sub(mload(info), decrease)) */\n      dup5\n      mstore\n        /* \"Delegate(copy)(copy)//contracts/DelegationRegistry.sol\":11885:12189  if (potentialDelegationHashesLength > delegationCount) {... */\n    tag_167:\n        /* \"Delegate(copy)(copy)//contracts/DelegationRegistry.sol\":9845:12195  {... */\n      pop\n      pop\n      pop\n        /* \"Delegate(copy)(copy)//contracts/DelegationRegistry.sol\":9706:12195  function getDelegationsByDelegate(... */\n      swap2\n      swap1\n      pop\n      jump\t// out\n        /* \"Delegate(copy)(copy)//contracts/DelegationRegistry.sol\":5206:5924  function delegateForToken(... */\n    tag_56:\n        /* \"Delegate(copy)(copy)//contracts/DelegationRegistry.sol\":5364:5386  bytes32 delegationHash */\n      0x00\n        /* \"Delegate(copy)(copy)//contracts/DelegationRegistry.sol\":5389:5516  _computeTokenDelegationHash(... */\n      tag_169\n        /* \"Delegate(copy)(copy)//contracts/DelegationRegistry.sol\":5430:5440  msg.sender */\n      caller\n        /* \"Delegate(copy)(copy)//contracts/DelegationRegistry.sol\":5454:5462  delegate */\n      dup7\n        /* \"Delegate(copy)(copy)//contracts/DelegationRegistry.sol\":5476:5485  contract_ */\n      dup7\n        /* \"Delegate(copy)(copy)//contracts/DelegationRegistry.sol\":5499:5506  tokenId */\n      dup7\n        /* \"Delegate(copy)(copy)//contracts/DelegationRegistry.sol\":5389:5416  _computeTokenDelegationHash */\n      tag_160\n        /* \"Delegate(copy)(copy)//contracts/DelegationRegistry.sol\":5389:5516  _computeTokenDelegationHash(... */\n      jump\t// in\n    tag_169:\n        /* \"Delegate(copy)(copy)//contracts/DelegationRegistry.sol\":5364:5516  bytes32 delegationHash = _computeTokenDelegationHash(... */\n      swap1\n      pop\n        /* \"Delegate(copy)(copy)//contracts/DelegationRegistry.sol\":5526:5747  _setDelegationValues(... */\n      tag_170\n        /* \"Delegate(copy)(copy)//contracts/DelegationRegistry.sol\":5560:5568  delegate */\n      dup6\n        /* \"Delegate(copy)(copy)//contracts/DelegationRegistry.sol\":5582:5596  delegationHash */\n      dup3\n        /* \"Delegate(copy)(copy)//contracts/DelegationRegistry.sol\":5610:5615  value */\n      dup5\n        /* \"Delegate(copy)(copy)//contracts/DelegationRegistry.sol\":5629:5669  IDelegationRegistry.DelegationType.TOKEN */\n      0x03\n        /* \"Delegate(copy)(copy)//contracts/DelegationRegistry.sol\":5683:5693  msg.sender */\n      caller\n        /* \"Delegate(copy)(copy)//contracts/DelegationRegistry.sol\":5707:5716  contract_ */\n      dup10\n        /* \"Delegate(copy)(copy)//contracts/DelegationRegistry.sol\":5730:5737  tokenId */\n      dup10\n        /* \"Delegate(copy)(copy)//contracts/DelegationRegistry.sol\":5526:5546  _setDelegationValues */\n      tag_114\n        /* \"Delegate(copy)(copy)//contracts/DelegationRegistry.sol\":5526:5747  _setDelegationValues(... */\n      jump\t// in\n    tag_170:\n        /* \"Delegate(copy)(copy)//contracts/DelegationRegistry.sol\":5762:5917  IDelegationRegistry.DelegateForToken(... */\n      0x40\n      dup1\n      mload\n        /* \"Delegate(copy)(copy)//contracts/DelegationRegistry.sol\":5812:5822  msg.sender */\n      caller\n        /* \"#utility.yul\":8672:8723   */\n      dup2\n      mstore\n      sub(shl(0xa0, 0x01), 0x01)\n        /* \"#utility.yul\":8759:8791   */\n      dup8\n      dup2\n      and\n        /* \"#utility.yul\":8754:8756   */\n      0x20\n        /* \"#utility.yul\":8739:8757   */\n      dup4\n      add\n        /* \"#utility.yul\":8732:8792   */\n      mstore\n        /* \"#utility.yul\":8828:8860   */\n      dup7\n      and\n        /* \"#utility.yul\":8808:8826   */\n      dup2\n      dup4\n      add\n        /* \"#utility.yul\":8801:8861   */\n      mstore\n        /* \"#utility.yul\":8892:8894   */\n      0x60\n        /* \"#utility.yul\":8877:8895   */\n      dup2\n      add\n        /* \"#utility.yul\":8870:8904   */\n      dup6\n      swap1\n      mstore\n        /* \"#utility.yul\":8948:8962   */\n      dup4\n      iszero\n        /* \"#utility.yul\":8941:8963   */\n      iszero\n        /* \"#utility.yul\":8935:8938   */\n      0x80\n        /* \"#utility.yul\":8920:8939   */\n      dup3\n      add\n        /* \"#utility.yul\":8913:8964   */\n      mstore\n        /* \"Delegate(copy)(copy)//contracts/DelegationRegistry.sol\":5762:5917  IDelegationRegistry.DelegateForToken(... */\n      swap1\n      mload\n      0xe89c6ba1e8957285aed22618f52aa1dcb9d5bb64e1533d8b55136c72fcf5aa5d\n      swap2\n      dup2\n      swap1\n      sub\n        /* \"#utility.yul\":8659:8662   */\n      0xa0\n        /* \"Delegate(copy)(copy)//contracts/DelegationRegistry.sol\":5762:5917  IDelegationRegistry.DelegateForToken(... */\n      add\n      swap1\n      log1\n        /* \"Delegate(copy)(copy)//contracts/DelegationRegistry.sol\":5354:5924  {... */\n      pop\n        /* \"Delegate(copy)(copy)//contracts/DelegationRegistry.sol\":5206:5924  function delegateForToken(... */\n      pop\n      pop\n      pop\n      pop\n      jump\t// out\n        /* \"Delegate(copy)(copy)//contracts/DelegationRegistry.sol\":3930:4427  function delegateForAll(address delegate, bool value) external override {... */\n    tag_60:\n        /* \"Delegate(copy)(copy)//contracts/DelegationRegistry.sol\":4012:4034  bytes32 delegationHash */\n      0x00\n        /* \"Delegate(copy)(copy)//contracts/DelegationRegistry.sol\":4037:4118  _computeAllDelegationHash(... */\n      tag_174\n        /* \"Delegate(copy)(copy)//contracts/DelegationRegistry.sol\":4076:4086  msg.sender */\n      caller\n        /* \"Delegate(copy)(copy)//contracts/DelegationRegistry.sol\":4100:4108  delegate */\n      dup5\n        /* \"Delegate(copy)(copy)//contracts/DelegationRegistry.sol\":4037:4062  _computeAllDelegationHash */\n      tag_143\n        /* \"Delegate(copy)(copy)//contracts/DelegationRegistry.sol\":4037:4118  _computeAllDelegationHash(... */\n      jump\t// in\n    tag_174:\n        /* \"Delegate(copy)(copy)//contracts/DelegationRegistry.sol\":4012:4118  bytes32 delegationHash = _computeAllDelegationHash(... */\n      swap1\n      pop\n        /* \"Delegate(copy)(copy)//contracts/DelegationRegistry.sol\":4128:4342  _setDelegationValues(... */\n      tag_175\n        /* \"Delegate(copy)(copy)//contracts/DelegationRegistry.sol\":4162:4170  delegate */\n      dup4\n        /* \"Delegate(copy)(copy)//contracts/DelegationRegistry.sol\":4184:4198  delegationHash */\n      dup3\n        /* \"Delegate(copy)(copy)//contracts/DelegationRegistry.sol\":4212:4217  value */\n      dup5\n        /* \"Delegate(copy)(copy)//contracts/DelegationRegistry.sol\":4231:4269  IDelegationRegistry.DelegationType.ALL */\n      0x01\n        /* \"Delegate(copy)(copy)//contracts/DelegationRegistry.sol\":4283:4293  msg.sender */\n      caller\n        /* \"Delegate(copy)(copy)//contracts/DelegationRegistry.sol\":4315:4316  0 */\n      0x00\n        /* \"Delegate(copy)(copy)//contracts/DelegationRegistry.sol\":4331:4332  0 */\n      0x00\n        /* \"Delegate(copy)(copy)//contracts/DelegationRegistry.sol\":4128:4148  _setDelegationValues */\n      tag_114\n        /* \"Delegate(copy)(copy)//contracts/DelegationRegistry.sol\":4128:4342  _setDelegationValues(... */\n      jump\t// in\n    tag_175:\n        /* \"Delegate(copy)(copy)//contracts/DelegationRegistry.sol\":4357:4420  IDelegationRegistry.DelegateForAll(msg.sender, delegate, value) */\n      0x40\n      dup1\n      mload\n        /* \"Delegate(copy)(copy)//contracts/DelegationRegistry.sol\":4392:4402  msg.sender */\n      caller\n        /* \"#utility.yul\":9171:9222   */\n      dup2\n      mstore\n      sub(shl(0xa0, 0x01), 0x01)\n        /* \"#utility.yul\":9258:9290   */\n      dup6\n      and\n        /* \"#utility.yul\":9253:9255   */\n      0x20\n        /* \"#utility.yul\":9238:9256   */\n      dup3\n      add\n        /* \"#utility.yul\":9231:9291   */\n      mstore\n        /* \"#utility.yul\":9334:9348   */\n      dup4\n      iszero\n        /* \"#utility.yul\":9327:9349   */\n      iszero\n        /* \"#utility.yul\":9307:9325   */\n      dup2\n      dup4\n      add\n        /* \"#utility.yul\":9300:9350   */\n      mstore\n        /* \"Delegate(copy)(copy)//contracts/DelegationRegistry.sol\":4357:4420  IDelegationRegistry.DelegateForAll(msg.sender, delegate, value) */\n      swap1\n      mload\n      0x58781eab4a0743ab1c285a238be846a235f06cdb5b968030573a635e5f8c92fa\n      swap2\n      dup2\n      swap1\n      sub\n        /* \"#utility.yul\":9159:9161   */\n      0x60\n        /* \"Delegate(copy)(copy)//contracts/DelegationRegistry.sol\":4357:4420  IDelegationRegistry.DelegateForAll(msg.sender, delegate, value) */\n      add\n      swap1\n      log1\n        /* \"Delegate(copy)(copy)//contracts/DelegationRegistry.sol\":4002:4427  {... */\n      pop\n        /* \"Delegate(copy)(copy)//contracts/DelegationRegistry.sol\":3930:4427  function delegateForAll(address delegate, bool value) external override {... */\n      pop\n      pop\n      jump\t// out\n        /* \"Delegate(copy)(copy)//contracts/DelegationRegistry.sol\":18869:20829  function getTokenLevelDelegations(... */\n    tag_63:\n      sub(shl(0xa0, 0x01), 0x01)\n        /* \"Delegate(copy)(copy)//contracts/DelegationRegistry.sol\":19109:19127  delegations[vault] */\n      dup2\n      and\n        /* \"Delegate(copy)(copy)//contracts/DelegationRegistry.sol\":19056:19106  EnumerableSet.Bytes32Set storage delegationHashes_ */\n      0x00\n        /* \"Delegate(copy)(copy)//contracts/DelegationRegistry.sol\":19109:19127  delegations[vault] */\n      swap1\n      dup2\n      mstore\n      0x20\n      dup2\n      dup2\n      mstore\n      0x40\n      dup1\n      dup4\n      keccak256\n        /* \"Delegate(copy)(copy)//contracts/DelegationRegistry.sol\":19141:19153  vaultVersion */\n      0x01\n        /* \"Delegate(copy)(copy)//contracts/DelegationRegistry.sol\":19141:19160  vaultVersion[vault] */\n      dup4\n      mstore\n      dup2\n      dup5\n      keccak256\n      sload\n        /* \"Delegate(copy)(copy)//contracts/DelegationRegistry.sol\":19109:19170  delegations[vault][... */\n      dup5\n      mstore\n      swap1\n      swap2\n      mstore\n      dup2\n      keccak256\n        /* \"Delegate(copy)(copy)//contracts/DelegationRegistry.sol\":18979:19040  IDelegationRegistry.TokenDelegation[] memory tokenDelegations */\n      0x60\n      swap2\n        /* \"Delegate(copy)(copy)//contracts/DelegationRegistry.sol\":19206:19232  delegationHashes_.length() */\n      tag_179\n        /* \"Delegate(copy)(copy)//contracts/DelegationRegistry.sol\":19109:19170  delegations[vault][... */\n      dup3\n        /* \"Delegate(copy)(copy)//contracts/DelegationRegistry.sol\":19206:19230  delegationHashes_.length */\n      tag_119\n        /* \"Delegate(copy)(copy)//contracts/DelegationRegistry.sol\":19206:19232  delegationHashes_.length() */\n      jump\t// in\n    tag_179:\n        /* \"Delegate(copy)(copy)//contracts/DelegationRegistry.sol\":19180:19232  uint256 potentialLength = delegationHashes_.length() */\n      swap1\n      pop\n        /* \"Delegate(copy)(copy)//contracts/DelegationRegistry.sol\":19242:19265  uint256 delegationCount */\n      0x00\n        /* \"Delegate(copy)(copy)//contracts/DelegationRegistry.sol\":19180:19232  uint256 potentialLength = delegationHashes_.length() */\n      dup2\n        /* \"Delegate(copy)(copy)//contracts/DelegationRegistry.sol\":19298:19378  new IDelegationRegistry.TokenDelegation[](... */\n      0xffffffffffffffff\n      dup2\n      gt\n      iszero\n      tag_181\n      jumpi\n      tag_181\n      tag_122\n      jump\t// in\n    tag_181:\n      mload(0x40)\n      swap1\n      dup1\n      dup3\n      mstore\n      dup1\n      0x20\n      mul\n      0x20\n      add\n      dup3\n      add\n      0x40\n      mstore\n      dup1\n      iszero\n      tag_182\n      jumpi\n      dup2\n      0x20\n      add\n    tag_183:\n      0x40\n      dup1\n      mload\n      0x60\n      dup2\n      add\n      dup3\n      mstore\n      0x00\n      dup1\n      dup3\n      mstore\n      0x20\n      dup1\n      dup4\n      add\n      dup3\n      swap1\n      mstore\n      swap3\n      dup3\n      add\n      mstore\n      dup3\n      mstore\n      not(0x00)\n      swap1\n      swap3\n      add\n      swap2\n      add\n      dup2\n      tag_183\n      jumpi\n      swap1\n      pop\n    tag_182:\n      pop\n        /* \"Delegate(copy)(copy)//contracts/DelegationRegistry.sol\":19279:19378  tokenDelegations = new IDelegationRegistry.TokenDelegation[](... */\n      swap4\n      pop\n        /* \"Delegate(copy)(copy)//contracts/DelegationRegistry.sol\":19393:19402  uint256 i */\n      0x00\n        /* \"Delegate(copy)(copy)//contracts/DelegationRegistry.sol\":19388:20576  for (uint256 i = 0; i < potentialLength; ) {... */\n    tag_186:\n        /* \"Delegate(copy)(copy)//contracts/DelegationRegistry.sol\":19412:19427  potentialLength */\n      dup3\n        /* \"Delegate(copy)(copy)//contracts/DelegationRegistry.sol\":19408:19409  i */\n      dup2\n        /* \"Delegate(copy)(copy)//contracts/DelegationRegistry.sol\":19408:19427  i < potentialLength */\n      lt\n        /* \"Delegate(copy)(copy)//contracts/DelegationRegistry.sol\":19388:20576  for (uint256 i = 0; i < potentialLength; ) {... */\n      iszero\n      tag_128\n      jumpi\n        /* \"Delegate(copy)(copy)//contracts/DelegationRegistry.sol\":19445:19467  bytes32 delegationHash */\n      0x00\n        /* \"Delegate(copy)(copy)//contracts/DelegationRegistry.sol\":19470:19493  delegationHashes_.at(i) */\n      tag_189\n        /* \"Delegate(copy)(copy)//contracts/DelegationRegistry.sol\":19470:19487  delegationHashes_ */\n      dup6\n        /* \"Delegate(copy)(copy)//contracts/DelegationRegistry.sol\":19491:19492  i */\n      dup4\n        /* \"Delegate(copy)(copy)//contracts/DelegationRegistry.sol\":19470:19490  delegationHashes_.at */\n      tag_131\n        /* \"Delegate(copy)(copy)//contracts/DelegationRegistry.sol\":19470:19493  delegationHashes_.at(i) */\n      jump\t// in\n    tag_189:\n        /* \"Delegate(copy)(copy)//contracts/DelegationRegistry.sol\":19507:19545  DelegationInfo storage delegationInfo_ */\n      0x00\n        /* \"Delegate(copy)(copy)//contracts/DelegationRegistry.sol\":19548:19608  delegationInfo[... */\n      dup2\n      dup2\n      mstore\n        /* \"Delegate(copy)(copy)//contracts/DelegationRegistry.sol\":19548:19562  delegationInfo */\n      0x04\n        /* \"Delegate(copy)(copy)//contracts/DelegationRegistry.sol\":19548:19608  delegationInfo[... */\n      0x20\n      mstore\n      0x40\n      swap1\n      keccak256\n        /* \"Delegate(copy)(copy)//contracts/DelegationRegistry.sol\":19445:19493  bytes32 delegationHash = delegationHashes_.at(i) */\n      swap1\n      swap2\n      pop\n        /* \"Delegate(copy)(copy)//contracts/DelegationRegistry.sol\":19684:19724  IDelegationRegistry.DelegationType.TOKEN */\n      0x03\n        /* \"Delegate(copy)(copy)//contracts/DelegationRegistry.sol\":19643:19664  delegationInfo_.type_ */\n      dup2\n      sload\n      0xff\n      and\n        /* \"Delegate(copy)(copy)//contracts/DelegationRegistry.sol\":19643:19724  delegationInfo_.type_ ==... */\n      0x03\n      dup2\n      gt\n      iszero\n      tag_193\n      jumpi\n      tag_193\n      tag_134\n      jump\t// in\n    tag_193:\n      sub\n        /* \"Delegate(copy)(copy)//contracts/DelegationRegistry.sol\":19622:20507  if (... */\n      tag_196\n      jumpi\n        /* \"Delegate(copy)(copy)//contracts/DelegationRegistry.sol\":19969:19993  delegationInfo_.delegate */\n      0x01\n      dup2\n      add\n      sload\n        /* \"Delegate(copy)(copy)//contracts/DelegationRegistry.sol\":20019:20044  delegationInfo_.contract_ */\n      0x02\n      dup3\n      add\n      sload\n        /* \"Delegate(copy)(copy)//contracts/DelegationRegistry.sol\":20070:20093  delegationInfo_.tokenId */\n      0x03\n      dup4\n      add\n      sload\n        /* \"Delegate(copy)(copy)//contracts/DelegationRegistry.sol\":19885:20115  _computeTokenDelegationHash(... */\n      tag_195\n      swap3\n        /* \"Delegate(copy)(copy)//contracts/DelegationRegistry.sol\":19938:19943  vault */\n      dup12\n      swap3\n      sub(shl(0xa0, 0x01), 0x01)\n        /* \"Delegate(copy)(copy)//contracts/DelegationRegistry.sol\":19969:19993  delegationInfo_.delegate */\n      swap2\n      dup3\n      and\n      swap3\n        /* \"Delegate(copy)(copy)//contracts/DelegationRegistry.sol\":20019:20044  delegationInfo_.contract_ */\n      swap2\n      and\n      swap1\n        /* \"Delegate(copy)(copy)//contracts/DelegationRegistry.sol\":19885:19912  _computeTokenDelegationHash */\n      tag_160\n        /* \"Delegate(copy)(copy)//contracts/DelegationRegistry.sol\":19885:20115  _computeTokenDelegationHash(... */\n      jump\t// in\n    tag_195:\n        /* \"Delegate(copy)(copy)//contracts/DelegationRegistry.sol\":19847:19861  delegationHash */\n      dup3\n        /* \"Delegate(copy)(copy)//contracts/DelegationRegistry.sol\":19847:20115  delegationHash ==... */\n      sub\n        /* \"Delegate(copy)(copy)//contracts/DelegationRegistry.sol\":19822:20493  if (... */\n      tag_196\n      jumpi\n        /* \"Delegate(copy)(copy)//contracts/DelegationRegistry.sol\":20194:20474  IDelegationRegistry... */\n      0x40\n      dup1\n      mload\n      0x60\n      dup2\n      add\n      dup3\n      mstore\n        /* \"Delegate(copy)(copy)//contracts/DelegationRegistry.sol\":20296:20321  delegationInfo_.contract_ */\n      0x02\n      dup4\n      add\n      sload\n      sub(shl(0xa0, 0x01), 0x01)\n      swap1\n      dup2\n      and\n        /* \"Delegate(copy)(copy)//contracts/DelegationRegistry.sol\":20194:20474  IDelegationRegistry... */\n      dup3\n      mstore\n        /* \"Delegate(copy)(copy)//contracts/DelegationRegistry.sol\":20360:20383  delegationInfo_.tokenId */\n      0x03\n      dup5\n      add\n      sload\n        /* \"Delegate(copy)(copy)//contracts/DelegationRegistry.sol\":20194:20474  IDelegationRegistry... */\n      0x20\n      dup4\n      add\n      mstore\n        /* \"Delegate(copy)(copy)//contracts/DelegationRegistry.sol\":20296:20321  delegationInfo_.contract_ */\n      0x01\n        /* \"Delegate(copy)(copy)//contracts/DelegationRegistry.sol\":20423:20447  delegationInfo_.delegate */\n      dup5\n      add\n      sload\n      and\n        /* \"Delegate(copy)(copy)//contracts/DelegationRegistry.sol\":20194:20474  IDelegationRegistry... */\n      swap2\n      dup2\n      add\n      swap2\n      swap1\n      swap2\n      mstore\n        /* \"Delegate(copy)(copy)//contracts/DelegationRegistry.sol\":20156:20172  tokenDelegations */\n      dup8\n        /* \"Delegate(copy)(copy)//contracts/DelegationRegistry.sol\":20173:20190  delegationCount++ */\n      dup6\n      tag_197\n      dup2\n      tag_107\n      jump\t// in\n    tag_197:\n      swap7\n      pop\n        /* \"Delegate(copy)(copy)//contracts/DelegationRegistry.sol\":20156:20191  tokenDelegations[delegationCount++] */\n      dup2\n      mload\n      dup2\n      lt\n      tag_199\n      jumpi\n      tag_199\n      tag_166\n      jump\t// in\n    tag_199:\n      0x20\n      mul\n      0x20\n      add\n      add\n        /* \"Delegate(copy)(copy)//contracts/DelegationRegistry.sol\":20156:20474  tokenDelegations[delegationCount++] = IDelegationRegistry... */\n      dup2\n      swap1\n      mstore\n      pop\n        /* \"Delegate(copy)(copy)//contracts/DelegationRegistry.sol\":19822:20493  if (... */\n    tag_196:\n      pop\n      pop\n        /* \"Delegate(copy)(copy)//contracts/DelegationRegistry.sol\":20548:20551  ++i */\n      0x01\n      add\n        /* \"Delegate(copy)(copy)//contracts/DelegationRegistry.sol\":19388:20576  for (uint256 i = 0; i < potentialLength; ) {... */\n      jump(tag_186)\n        /* \"Delegate(copy)(copy)//contracts/DelegationRegistry.sol\":21383:21964  function checkDelegateForContract(... */\n    tag_69:\n      sub(shl(0xa0, 0x01), 0x01)\n        /* \"Delegate(copy)(copy)//contracts/DelegationRegistry.sol\":21695:21714  vaultVersion[vault] */\n      dup3\n      dup2\n      and\n        /* \"Delegate(copy)(copy)//contracts/DelegationRegistry.sol\":21529:21533  bool */\n      0x00\n        /* \"Delegate(copy)(copy)//contracts/DelegationRegistry.sol\":21695:21714  vaultVersion[vault] */\n      dup2\n      dup2\n      mstore\n        /* \"Delegate(copy)(copy)//contracts/DelegationRegistry.sol\":21695:21707  vaultVersion */\n      0x01\n        /* \"Delegate(copy)(copy)//contracts/DelegationRegistry.sol\":21695:21714  vaultVersion[vault] */\n      0x20\n      swap1\n      dup2\n      mstore\n      0x40\n      dup1\n      dup4\n      keccak256\n      sload\n        /* \"Delegate(copy)(copy)//contracts/DelegationRegistry.sol\":21732:21747  delegateVersion */\n      0x02\n        /* \"Delegate(copy)(copy)//contracts/DelegationRegistry.sol\":21732:21754  delegateVersion[vault] */\n      dup4\n      mstore\n      dup2\n      dup5\n      keccak256\n        /* \"Delegate(copy)(copy)//contracts/DelegationRegistry.sol\":21732:21764  delegateVersion[vault][delegate] */\n      dup10\n      dup8\n      and\n      dup1\n      dup7\n      mstore\n      swap1\n      dup5\n      mstore\n      dup3\n      dup6\n      keccak256\n      sload\n        /* \"Delegate(copy)(copy)//contracts/DelegationRegistry.sol\":21591:21778  abi.encode(... */\n      dup4\n      mload\n      dup1\n      dup7\n      add\n        /* \"#utility.yul\":9620:9671   */\n      swap3\n      swap1\n      swap3\n      mstore\n        /* \"#utility.yul\":9687:9705   */\n      dup2\n      dup5\n      add\n        /* \"#utility.yul\":9680:9740   */\n      dup8\n      swap1\n      mstore\n        /* \"#utility.yul\":9776:9808   */\n      swap7\n      dup9\n      and\n        /* \"#utility.yul\":9756:9774   */\n      0x60\n      dup3\n      add\n        /* \"#utility.yul\":9749:9809   */\n      mstore\n        /* \"#utility.yul\":9825:9843   */\n      0x80\n      dup2\n      add\n        /* \"#utility.yul\":9818:9852   */\n      dup3\n      swap1\n      mstore\n        /* \"#utility.yul\":9868:9887   */\n      0xa0\n      dup1\n      dup3\n      add\n        /* \"#utility.yul\":9861:9896   */\n      swap8\n      swap1\n      swap8\n      mstore\n        /* \"Delegate(copy)(copy)//contracts/DelegationRegistry.sol\":21591:21778  abi.encode(... */\n      dup3\n      mload\n      dup1\n      dup3\n      sub\n      swap1\n      swap8\n      add\n      dup8\n      mstore\n        /* \"#utility.yul\":9592:9611   */\n      0xc0\n      add\n        /* \"Delegate(copy)(copy)//contracts/DelegationRegistry.sol\":21591:21778  abi.encode(... */\n      dup3\n      mstore\n        /* \"Delegate(copy)(copy)//contracts/DelegationRegistry.sol\":21568:21788  keccak256(... */\n      dup6\n      mload\n      swap6\n      dup4\n      add\n      swap6\n      swap1\n      swap6\n      keccak256\n        /* \"Delegate(copy)(copy)//contracts/DelegationRegistry.sol\":21817:21835  delegations[vault] */\n      swap4\n      dup4\n      mstore\n      dup3\n      dup3\n      mstore\n      dup1\n      dup4\n      keccak256\n        /* \"Delegate(copy)(copy)//contracts/DelegationRegistry.sol\":21817:21856  delegations[vault][vaultVersion[vault]] */\n      swap5\n      dup4\n      mstore\n      swap4\n      swap1\n      mstore\n      swap2\n      dup3\n      keccak256\n        /* \"Delegate(copy)(copy)//contracts/DelegationRegistry.sol\":21817:21879  delegations[vault][vaultVersion[vault]].contains(delegateHash) */\n      tag_204\n      swap1\n        /* \"Delegate(copy)(copy)//contracts/DelegationRegistry.sol\":21568:21788  keccak256(... */\n      dup3\n        /* \"Delegate(copy)(copy)//contracts/DelegationRegistry.sol\":21817:21865  delegations[vault][vaultVersion[vault]].contains */\n      tag_205\n        /* \"Delegate(copy)(copy)//contracts/DelegationRegistry.sol\":21817:21879  delegations[vault][vaultVersion[vault]].contains(delegateHash) */\n      jump\t// in\n    tag_204:\n        /* \"Delegate(copy)(copy)//contracts/DelegationRegistry.sol\":21817:21957  delegations[vault][vaultVersion[vault]].contains(delegateHash)... */\n      tag_206\n      jumpi\n        /* \"Delegate(copy)(copy)//contracts/DelegationRegistry.sol\":21921:21957  checkDelegateForAll(delegate, vault) */\n      tag_207\n        /* \"Delegate(copy)(copy)//contracts/DelegationRegistry.sol\":21941:21949  delegate */\n      dup6\n        /* \"Delegate(copy)(copy)//contracts/DelegationRegistry.sol\":21951:21956  vault */\n      dup6\n        /* \"Delegate(copy)(copy)//contracts/DelegationRegistry.sol\":21921:21940  checkDelegateForAll */\n      tag_74\n        /* \"Delegate(copy)(copy)//contracts/DelegationRegistry.sol\":21921:21957  checkDelegateForAll(delegate, vault) */\n      jump\t// in\n    tag_207:\n        /* \"Delegate(copy)(copy)//contracts/DelegationRegistry.sol\":21817:21957  delegations[vault][vaultVersion[vault]].contains(delegateHash)... */\n      jump(tag_208)\n    tag_206:\n        /* \"Delegate(copy)(copy)//contracts/DelegationRegistry.sol\":21898:21902  true */\n      0x01\n        /* \"Delegate(copy)(copy)//contracts/DelegationRegistry.sol\":21817:21957  delegations[vault][vaultVersion[vault]].contains(delegateHash)... */\n    tag_208:\n        /* \"Delegate(copy)(copy)//contracts/DelegationRegistry.sol\":21798:21957  return... */\n      swap6\n        /* \"Delegate(copy)(copy)//contracts/DelegationRegistry.sol\":21383:21964  function checkDelegateForContract(... */\n      swap5\n      pop\n      pop\n      pop\n      pop\n      pop\n      jump\t// out\n        /* \"Delegate(copy)(copy)//contracts/DelegationRegistry.sol\":20890:21322  function checkDelegateForAll(... */\n    tag_74:\n      sub(shl(0xa0, 0x01), 0x01)\n        /* \"Delegate(copy)(copy)//contracts/DelegationRegistry.sol\":21143:21162  vaultVersion[vault] */\n      dup2\n      dup2\n      and\n        /* \"Delegate(copy)(copy)//contracts/DelegationRegistry.sol\":21004:21008  bool */\n      0x00\n        /* \"Delegate(copy)(copy)//contracts/DelegationRegistry.sol\":21143:21162  vaultVersion[vault] */\n      dup2\n      dup2\n      mstore\n        /* \"Delegate(copy)(copy)//contracts/DelegationRegistry.sol\":21143:21155  vaultVersion */\n      0x01\n        /* \"Delegate(copy)(copy)//contracts/DelegationRegistry.sol\":21143:21162  vaultVersion[vault] */\n      0x20\n      swap1\n      dup2\n      mstore\n      0x40\n      dup1\n      dup4\n      keccak256\n      sload\n        /* \"Delegate(copy)(copy)//contracts/DelegationRegistry.sol\":21180:21195  delegateVersion */\n      0x02\n        /* \"Delegate(copy)(copy)//contracts/DelegationRegistry.sol\":21180:21202  delegateVersion[vault] */\n      dup4\n      mstore\n      dup2\n      dup5\n      keccak256\n        /* \"Delegate(copy)(copy)//contracts/DelegationRegistry.sol\":21180:21212  delegateVersion[vault][delegate] */\n      swap6\n      dup9\n      and\n      dup1\n      dup6\n      mstore\n      swap6\n      dup4\n      mstore\n      dup2\n      dup5\n      keccak256\n      sload\n        /* \"Delegate(copy)(copy)//contracts/DelegationRegistry.sol\":21066:21226  abi.encode(... */\n      dup3\n      mload\n      dup1\n      dup6\n      add\n        /* \"#utility.yul\":10138:10189   */\n      swap8\n      swap1\n      swap8\n      mstore\n        /* \"#utility.yul\":10205:10223   */\n      dup7\n      dup4\n      add\n        /* \"#utility.yul\":10198:10258   */\n      dup7\n      swap1\n      mstore\n        /* \"#utility.yul\":10274:10292   */\n      0x60\n      dup8\n      add\n        /* \"#utility.yul\":10267:10301   */\n      dup3\n      swap1\n      mstore\n        /* \"#utility.yul\":10317:10335   */\n      0x80\n      dup1\n      dup9\n      add\n        /* \"#utility.yul\":10310:10344   */\n      swap2\n      swap1\n      swap2\n      mstore\n        /* \"Delegate(copy)(copy)//contracts/DelegationRegistry.sol\":21066:21226  abi.encode(... */\n      dup3\n      mload\n      dup1\n      dup9\n      sub\n      swap1\n      swap2\n      add\n      dup2\n      mstore\n        /* \"#utility.yul\":10110:10129   */\n      0xa0\n      swap1\n      swap7\n      add\n        /* \"Delegate(copy)(copy)//contracts/DelegationRegistry.sol\":21066:21226  abi.encode(... */\n      dup3\n      mstore\n        /* \"Delegate(copy)(copy)//contracts/DelegationRegistry.sol\":21043:21236  keccak256(... */\n      dup6\n      mload\n      swap6\n      dup4\n      add\n      swap6\n      swap1\n      swap6\n      keccak256\n        /* \"Delegate(copy)(copy)//contracts/DelegationRegistry.sol\":21253:21271  delegations[vault] */\n      swap4\n      dup4\n      mstore\n      dup3\n      dup3\n      mstore\n      dup1\n      dup4\n      keccak256\n        /* \"Delegate(copy)(copy)//contracts/DelegationRegistry.sol\":21253:21292  delegations[vault][vaultVersion[vault]] */\n      swap5\n      dup4\n      mstore\n      swap4\n      swap1\n      mstore\n      swap2\n      dup3\n      keccak256\n        /* \"Delegate(copy)(copy)//contracts/DelegationRegistry.sol\":21253:21315  delegations[vault][vaultVersion[vault]].contains(delegateHash) */\n      tag_98\n      swap1\n        /* \"Delegate(copy)(copy)//contracts/DelegationRegistry.sol\":21043:21236  keccak256(... */\n      dup3\n        /* \"Delegate(copy)(copy)//contracts/DelegationRegistry.sol\":21253:21301  delegations[vault][vaultVersion[vault]].contains */\n      tag_205\n        /* \"Delegate(copy)(copy)//contracts/DelegationRegistry.sol\":21253:21315  delegations[vault][vaultVersion[vault]].contains(delegateHash) */\n      jump\t// in\n        /* \"Delegate(copy)(copy)//contracts/DelegationRegistry.sol\":22025:22669  function checkDelegateForToken(... */\n    tag_79:\n      sub(shl(0xa0, 0x01), 0x01)\n        /* \"Delegate(copy)(copy)//contracts/DelegationRegistry.sol\":22384:22403  vaultVersion[vault] */\n      dup1\n      dup5\n      and\n        /* \"Delegate(copy)(copy)//contracts/DelegationRegistry.sol\":22193:22197  bool */\n      0x00\n        /* \"Delegate(copy)(copy)//contracts/DelegationRegistry.sol\":22384:22403  vaultVersion[vault] */\n      swap1\n      dup2\n      mstore\n        /* \"Delegate(copy)(copy)//contracts/DelegationRegistry.sol\":22384:22396  vaultVersion */\n      0x01\n        /* \"Delegate(copy)(copy)//contracts/DelegationRegistry.sol\":22384:22403  vaultVersion[vault] */\n      0x20\n      swap1\n      dup2\n      mstore\n      0x40\n      dup1\n      dup4\n      keccak256\n      sload\n        /* \"Delegate(copy)(copy)//contracts/DelegationRegistry.sol\":22421:22436  delegateVersion */\n      0x02\n        /* \"Delegate(copy)(copy)//contracts/DelegationRegistry.sol\":22421:22443  delegateVersion[vault] */\n      dup4\n      mstore\n      dup2\n      dup5\n      keccak256\n        /* \"Delegate(copy)(copy)//contracts/DelegationRegistry.sol\":22421:22453  delegateVersion[vault][delegate] */\n      swap5\n      dup10\n      and\n      dup5\n      mstore\n      swap4\n      dup3\n      mstore\n      dup1\n      dup4\n      keccak256\n      sload\n        /* \"Delegate(copy)(copy)//contracts/DelegationRegistry.sol\":22255:22467  abi.encode(... */\n      swap1\n      mload\n        /* \"Delegate(copy)(copy)//contracts/DelegationRegistry.sol\":22193:22197  bool */\n      swap3\n      swap4\n      dup5\n      swap4\n        /* \"Delegate(copy)(copy)//contracts/DelegationRegistry.sol\":22255:22467  abi.encode(... */\n      tag_214\n      swap4\n        /* \"Delegate(copy)(copy)//contracts/DelegationRegistry.sol\":22283:22291  delegate */\n      dup11\n      swap4\n        /* \"Delegate(copy)(copy)//contracts/DelegationRegistry.sol\":22309:22314  vault */\n      dup11\n      swap4\n        /* \"Delegate(copy)(copy)//contracts/DelegationRegistry.sol\":22332:22341  contract_ */\n      dup11\n      swap4\n        /* \"Delegate(copy)(copy)//contracts/DelegationRegistry.sol\":22359:22366  tokenId */\n      dup11\n      swap4\n        /* \"Delegate(copy)(copy)//contracts/DelegationRegistry.sol\":22384:22403  vaultVersion[vault] */\n      swap2\n      swap3\n        /* \"Delegate(copy)(copy)//contracts/DelegationRegistry.sol\":22421:22453  delegateVersion[vault][delegate] */\n      swap2\n        /* \"Delegate(copy)(copy)//contracts/DelegationRegistry.sol\":22255:22467  abi.encode(... */\n      add\n      tag_215\n      jump\t// in\n    tag_214:\n      0x40\n      dup1\n      mload\n      not(0x1f)\n      dup2\n      dup5\n      sub\n      add\n      dup2\n      mstore\n      swap2\n      dup2\n      mstore\n        /* \"Delegate(copy)(copy)//contracts/DelegationRegistry.sol\":22232:22477  keccak256(... */\n      dup2\n      mload\n        /* \"Delegate(copy)(copy)//contracts/DelegationRegistry.sol\":22255:22467  abi.encode(... */\n      0x20\n        /* \"Delegate(copy)(copy)//contracts/DelegationRegistry.sol\":22232:22477  keccak256(... */\n      swap3\n      dup4\n      add\n      keccak256\n      sub(shl(0xa0, 0x01), 0x01)\n        /* \"Delegate(copy)(copy)//contracts/DelegationRegistry.sol\":22506:22524  delegations[vault] */\n      dup9\n      and\n        /* \"Delegate(copy)(copy)//contracts/DelegationRegistry.sol\":22506:22517  delegations */\n      0x00\n        /* \"Delegate(copy)(copy)//contracts/DelegationRegistry.sol\":22506:22524  delegations[vault] */\n      swap1\n      dup2\n      mstore\n      dup1\n      dup5\n      mstore\n      dup3\n      dup2\n      keccak256\n        /* \"Delegate(copy)(copy)//contracts/DelegationRegistry.sol\":22525:22537  vaultVersion */\n      0x01\n        /* \"Delegate(copy)(copy)//contracts/DelegationRegistry.sol\":22525:22544  vaultVersion[vault] */\n      dup6\n      mstore\n      dup4\n      dup3\n      keccak256\n      sload\n        /* \"Delegate(copy)(copy)//contracts/DelegationRegistry.sol\":22506:22545  delegations[vault][vaultVersion[vault]] */\n      dup3\n      mstore\n      swap1\n      swap4\n      mstore\n      swap2\n      keccak256\n        /* \"Delegate(copy)(copy)//contracts/DelegationRegistry.sol\":22232:22477  keccak256(... */\n      swap1\n      swap2\n      pop\n        /* \"Delegate(copy)(copy)//contracts/DelegationRegistry.sol\":22506:22568  delegations[vault][vaultVersion[vault]].contains(delegateHash) */\n      tag_216\n      swap1\n        /* \"Delegate(copy)(copy)//contracts/DelegationRegistry.sol\":22232:22477  keccak256(... */\n      dup3\n        /* \"Delegate(copy)(copy)//contracts/DelegationRegistry.sol\":22506:22554  delegations[vault][vaultVersion[vault]].contains */\n      tag_205\n        /* \"Delegate(copy)(copy)//contracts/DelegationRegistry.sol\":22506:22568  delegations[vault][vaultVersion[vault]].contains(delegateHash) */\n      jump\t// in\n    tag_216:\n        /* \"Delegate(copy)(copy)//contracts/DelegationRegistry.sol\":22506:22662  delegations[vault][vaultVersion[vault]].contains(delegateHash)... */\n      tag_217\n      jumpi\n        /* \"Delegate(copy)(copy)//contracts/DelegationRegistry.sol\":22610:22662  checkDelegateForContract(delegate, vault, contract_) */\n      tag_218\n        /* \"Delegate(copy)(copy)//contracts/DelegationRegistry.sol\":22635:22643  delegate */\n      dup7\n        /* \"Delegate(copy)(copy)//contracts/DelegationRegistry.sol\":22645:22650  vault */\n      dup7\n        /* \"Delegate(copy)(copy)//contracts/DelegationRegistry.sol\":22652:22661  contract_ */\n      dup7\n        /* \"Delegate(copy)(copy)//contracts/DelegationRegistry.sol\":22610:22634  checkDelegateForContract */\n      tag_69\n        /* \"Delegate(copy)(copy)//contracts/DelegationRegistry.sol\":22610:22662  checkDelegateForContract(delegate, vault, contract_) */\n      jump\t// in\n    tag_218:\n        /* \"Delegate(copy)(copy)//contracts/DelegationRegistry.sol\":22506:22662  delegations[vault][vaultVersion[vault]].contains(delegateHash)... */\n      jump(tag_219)\n    tag_217:\n        /* \"Delegate(copy)(copy)//contracts/DelegationRegistry.sol\":22587:22591  true */\n      0x01\n        /* \"Delegate(copy)(copy)//contracts/DelegationRegistry.sol\":22506:22662  delegations[vault][vaultVersion[vault]].contains(delegateHash)... */\n    tag_219:\n        /* \"Delegate(copy)(copy)//contracts/DelegationRegistry.sol\":22487:22662  return... */\n      swap7\n        /* \"Delegate(copy)(copy)//contracts/DelegationRegistry.sol\":22025:22669  function checkDelegateForToken(... */\n      swap6\n      pop\n      pop\n      pop\n      pop\n      pop\n      pop\n      jump\t// out\n        /* \"Delegate(copy)(copy)//contracts/DelegationRegistry.sol\":12622:12972  function getDelegatesForContract(... */\n    tag_83:\n        /* \"Delegate(copy)(copy)//contracts/DelegationRegistry.sol\":12743:12769  address[] memory delegates */\n      0x60\n        /* \"Delegate(copy)(copy)//contracts/DelegationRegistry.sol\":12800:12965  _getDelegatesForLevel(... */\n      tag_221\n        /* \"Delegate(copy)(copy)//contracts/DelegationRegistry.sol\":12839:12844  vault */\n      dup4\n        /* \"Delegate(copy)(copy)//contracts/DelegationRegistry.sol\":12862:12905  IDelegationRegistry.DelegationType.CONTRACT */\n      0x02\n        /* \"Delegate(copy)(copy)//contracts/DelegationRegistry.sol\":12923:12932  contract_ */\n      dup5\n        /* \"Delegate(copy)(copy)//contracts/DelegationRegistry.sol\":12950:12951  0 */\n      0x00\n        /* \"Delegate(copy)(copy)//contracts/DelegationRegistry.sol\":12800:12821  _getDelegatesForLevel */\n      tag_99\n        /* \"Delegate(copy)(copy)//contracts/DelegationRegistry.sol\":12800:12965  _getDelegatesForLevel(... */\n      jump\t// in\n    tag_221:\n        /* \"Delegate(copy)(copy)//contracts/DelegationRegistry.sol\":12781:12965  return... */\n      swap4\n        /* \"Delegate(copy)(copy)//contracts/DelegationRegistry.sol\":12622:12972  function getDelegatesForContract(... */\n      swap3\n      pop\n      pop\n      pop\n      jump\t// out\n        /* \"Delegate(copy)(copy)//contracts/DelegationRegistry.sol\":16846:18808  function getContractLevelDelegations(... */\n    tag_87:\n      sub(shl(0xa0, 0x01), 0x01)\n        /* \"Delegate(copy)(copy)//contracts/DelegationRegistry.sol\":17117:17135  delegations[vault] */\n      dup2\n      and\n        /* \"Delegate(copy)(copy)//contracts/DelegationRegistry.sol\":17064:17114  EnumerableSet.Bytes32Set storage delegationHashes_ */\n      0x00\n        /* \"Delegate(copy)(copy)//contracts/DelegationRegistry.sol\":17117:17135  delegations[vault] */\n      swap1\n      dup2\n      mstore\n      0x20\n      dup2\n      dup2\n      mstore\n      0x40\n      dup1\n      dup4\n      keccak256\n        /* \"Delegate(copy)(copy)//contracts/DelegationRegistry.sol\":17149:17161  vaultVersion */\n      0x01\n        /* \"Delegate(copy)(copy)//contracts/DelegationRegistry.sol\":17149:17168  vaultVersion[vault] */\n      dup4\n      mstore\n      dup2\n      dup5\n      keccak256\n      sload\n        /* \"Delegate(copy)(copy)//contracts/DelegationRegistry.sol\":17117:17178  delegations[vault][... */\n      dup5\n      mstore\n      swap1\n      swap2\n      mstore\n      dup2\n      keccak256\n        /* \"Delegate(copy)(copy)//contracts/DelegationRegistry.sol\":16972:17039  IDelegationRegistry.ContractDelegation[] memory contractDelegations */\n      0x60\n      swap2\n        /* \"Delegate(copy)(copy)//contracts/DelegationRegistry.sol\":17214:17240  delegationHashes_.length() */\n      tag_223\n        /* \"Delegate(copy)(copy)//contracts/DelegationRegistry.sol\":17117:17178  delegations[vault][... */\n      dup3\n        /* \"Delegate(copy)(copy)//contracts/DelegationRegistry.sol\":17214:17238  delegationHashes_.length */\n      tag_119\n        /* \"Delegate(copy)(copy)//contracts/DelegationRegistry.sol\":17214:17240  delegationHashes_.length() */\n      jump\t// in\n    tag_223:\n        /* \"Delegate(copy)(copy)//contracts/DelegationRegistry.sol\":17188:17240  uint256 potentialLength = delegationHashes_.length() */\n      swap1\n      pop\n        /* \"Delegate(copy)(copy)//contracts/DelegationRegistry.sol\":17250:17273  uint256 delegationCount */\n      0x00\n        /* \"Delegate(copy)(copy)//contracts/DelegationRegistry.sol\":17188:17240  uint256 potentialLength = delegationHashes_.length() */\n      dup2\n        /* \"Delegate(copy)(copy)//contracts/DelegationRegistry.sol\":17309:17392  new IDelegationRegistry.ContractDelegation[](... */\n      0xffffffffffffffff\n      dup2\n      gt\n      iszero\n      tag_225\n      jumpi\n      tag_225\n      tag_122\n      jump\t// in\n    tag_225:\n      mload(0x40)\n      swap1\n      dup1\n      dup3\n      mstore\n      dup1\n      0x20\n      mul\n      0x20\n      add\n      dup3\n      add\n      0x40\n      mstore\n      dup1\n      iszero\n      tag_226\n      jumpi\n      dup2\n      0x20\n      add\n    tag_227:\n      0x40\n      dup1\n      mload\n      dup1\n      dup3\n      add\n      swap1\n      swap2\n      mstore\n      0x00\n      dup1\n      dup3\n      mstore\n      0x20\n      dup3\n      add\n      mstore\n      dup2\n      mstore\n      0x20\n      add\n      swap1\n      0x01\n      swap1\n      sub\n      swap1\n      dup2\n      tag_227\n      jumpi\n      swap1\n      pop\n    tag_226:\n      pop\n        /* \"Delegate(copy)(copy)//contracts/DelegationRegistry.sol\":17287:17392  contractDelegations = new IDelegationRegistry.ContractDelegation[](... */\n      swap4\n      pop\n        /* \"Delegate(copy)(copy)//contracts/DelegationRegistry.sol\":17407:17416  uint256 i */\n      0x00\n        /* \"Delegate(copy)(copy)//contracts/DelegationRegistry.sol\":17402:18491  for (uint256 i = 0; i < potentialLength; ) {... */\n    tag_230:\n        /* \"Delegate(copy)(copy)//contracts/DelegationRegistry.sol\":17426:17441  potentialLength */\n      dup3\n        /* \"Delegate(copy)(copy)//contracts/DelegationRegistry.sol\":17422:17423  i */\n      dup2\n        /* \"Delegate(copy)(copy)//contracts/DelegationRegistry.sol\":17422:17441  i < potentialLength */\n      lt\n        /* \"Delegate(copy)(copy)//contracts/DelegationRegistry.sol\":17402:18491  for (uint256 i = 0; i < potentialLength; ) {... */\n      iszero\n      tag_128\n      jumpi\n        /* \"Delegate(copy)(copy)//contracts/DelegationRegistry.sol\":17459:17481  bytes32 delegationHash */\n      0x00\n        /* \"Delegate(copy)(copy)//contracts/DelegationRegistry.sol\":17484:17507  delegationHashes_.at(i) */\n      tag_233\n        /* \"Delegate(copy)(copy)//contracts/DelegationRegistry.sol\":17484:17501  delegationHashes_ */\n      dup6\n        /* \"Delegate(copy)(copy)//contracts/DelegationRegistry.sol\":17505:17506  i */\n      dup4\n        /* \"Delegate(copy)(copy)//contracts/DelegationRegistry.sol\":17484:17504  delegationHashes_.at */\n      tag_131\n        /* \"Delegate(copy)(copy)//contracts/DelegationRegistry.sol\":17484:17507  delegationHashes_.at(i) */\n      jump\t// in\n    tag_233:\n        /* \"Delegate(copy)(copy)//contracts/DelegationRegistry.sol\":17521:17559  DelegationInfo storage delegationInfo_ */\n      0x00\n        /* \"Delegate(copy)(copy)//contracts/DelegationRegistry.sol\":17562:17622  delegationInfo[... */\n      dup2\n      dup2\n      mstore\n        /* \"Delegate(copy)(copy)//contracts/DelegationRegistry.sol\":17562:17576  delegationInfo */\n      0x04\n        /* \"Delegate(copy)(copy)//contracts/DelegationRegistry.sol\":17562:17622  delegationInfo[... */\n      0x20\n      mstore\n      0x40\n      swap1\n      keccak256\n        /* \"Delegate(copy)(copy)//contracts/DelegationRegistry.sol\":17459:17507  bytes32 delegationHash = delegationHashes_.at(i) */\n      swap1\n      swap2\n      pop\n        /* \"Delegate(copy)(copy)//contracts/DelegationRegistry.sol\":17698:17741  IDelegationRegistry.DelegationType.CONTRACT */\n      0x02\n        /* \"Delegate(copy)(copy)//contracts/DelegationRegistry.sol\":17657:17678  delegationInfo_.type_ */\n      dup2\n      sload\n      0xff\n      and\n        /* \"Delegate(copy)(copy)//contracts/DelegationRegistry.sol\":17657:17741  delegationInfo_.type_ ==... */\n      0x03\n      dup2\n      gt\n      iszero\n      tag_237\n      jumpi\n      tag_237\n      tag_134\n      jump\t// in\n    tag_237:\n      sub\n        /* \"Delegate(copy)(copy)//contracts/DelegationRegistry.sol\":17636:18422  if (... */\n      tag_240\n      jumpi\n        /* \"Delegate(copy)(copy)//contracts/DelegationRegistry.sol\":17989:18013  delegationInfo_.delegate */\n      0x01\n      dup2\n      add\n      sload\n        /* \"Delegate(copy)(copy)//contracts/DelegationRegistry.sol\":18039:18064  delegationInfo_.contract_ */\n      0x02\n      dup3\n      add\n      sload\n        /* \"Delegate(copy)(copy)//contracts/DelegationRegistry.sol\":17902:18086  _computeContractDelegationHash(... */\n      tag_239\n      swap2\n        /* \"Delegate(copy)(copy)//contracts/DelegationRegistry.sol\":17958:17963  vault */\n      dup11\n      swap2\n      sub(shl(0xa0, 0x01), 0x01)\n        /* \"Delegate(copy)(copy)//contracts/DelegationRegistry.sol\":17989:18013  delegationInfo_.delegate */\n      swap2\n      dup3\n      and\n      swap2\n        /* \"Delegate(copy)(copy)//contracts/DelegationRegistry.sol\":18039:18064  delegationInfo_.contract_ */\n      and\n        /* \"Delegate(copy)(copy)//contracts/DelegationRegistry.sol\":17902:17932  _computeContractDelegationHash */\n      tag_112\n        /* \"Delegate(copy)(copy)//contracts/DelegationRegistry.sol\":17902:18086  _computeContractDelegationHash(... */\n      jump\t// in\n    tag_239:\n        /* \"Delegate(copy)(copy)//contracts/DelegationRegistry.sol\":17864:17878  delegationHash */\n      dup3\n        /* \"Delegate(copy)(copy)//contracts/DelegationRegistry.sol\":17864:18086  delegationHash ==... */\n      sub\n        /* \"Delegate(copy)(copy)//contracts/DelegationRegistry.sol\":17839:18408  if (... */\n      tag_240\n      jumpi\n        /* \"Delegate(copy)(copy)//contracts/DelegationRegistry.sol\":18168:18389  IDelegationRegistry... */\n      0x40\n      dup1\n      mload\n      dup1\n      dup3\n      add\n      swap1\n      swap2\n      mstore\n        /* \"Delegate(copy)(copy)//contracts/DelegationRegistry.sol\":18273:18298  delegationInfo_.contract_ */\n      0x02\n      dup3\n      add\n      sload\n      sub(shl(0xa0, 0x01), 0x01)\n      swap1\n      dup2\n      and\n        /* \"Delegate(copy)(copy)//contracts/DelegationRegistry.sol\":18168:18389  IDelegationRegistry... */\n      dup3\n      mstore\n        /* \"Delegate(copy)(copy)//contracts/DelegationRegistry.sol\":18273:18298  delegationInfo_.contract_ */\n      0x01\n        /* \"Delegate(copy)(copy)//contracts/DelegationRegistry.sol\":18338:18362  delegationInfo_.delegate */\n      dup4\n      add\n      sload\n      and\n        /* \"Delegate(copy)(copy)//contracts/DelegationRegistry.sol\":18168:18389  IDelegationRegistry... */\n      0x20\n      dup3\n      add\n      mstore\n        /* \"Delegate(copy)(copy)//contracts/DelegationRegistry.sol\":18127:18146  contractDelegations */\n      dup8\n        /* \"Delegate(copy)(copy)//contracts/DelegationRegistry.sol\":18147:18164  delegationCount++ */\n      dup6\n      tag_241\n      dup2\n      tag_107\n      jump\t// in\n    tag_241:\n      swap7\n      pop\n        /* \"Delegate(copy)(copy)//contracts/DelegationRegistry.sol\":18127:18165  contractDelegations[delegationCount++] */\n      dup2\n      mload\n      dup2\n      lt\n      tag_243\n      jumpi\n      tag_243\n      tag_166\n      jump\t// in\n    tag_243:\n      0x20\n      mul\n      0x20\n      add\n      add\n        /* \"Delegate(copy)(copy)//contracts/DelegationRegistry.sol\":18127:18389  contractDelegations[delegationCount++] = IDelegationRegistry... */\n      dup2\n      swap1\n      mstore\n      pop\n        /* \"Delegate(copy)(copy)//contracts/DelegationRegistry.sol\":17839:18408  if (... */\n    tag_240:\n      pop\n      pop\n        /* \"Delegate(copy)(copy)//contracts/DelegationRegistry.sol\":18463:18466  ++i */\n      0x01\n      add\n        /* \"Delegate(copy)(copy)//contracts/DelegationRegistry.sol\":17402:18491  for (uint256 i = 0; i < potentialLength; ) {... */\n      jump(tag_230)\n        /* \"Delegate(copy)(copy)//contracts/DelegationRegistry.sol\":8973:9087  function revokeDelegate(address delegate) external override {... */\n    tag_92:\n        /* \"Delegate(copy)(copy)//contracts/DelegationRegistry.sol\":9043:9080  _revokeDelegate(delegate, msg.sender) */\n      tag_103\n        /* \"Delegate(copy)(copy)//contracts/DelegationRegistry.sol\":9059:9067  delegate */\n      dup2\n        /* \"Delegate(copy)(copy)//contracts/DelegationRegistry.sol\":9069:9079  msg.sender */\n      caller\n        /* \"Delegate(copy)(copy)//contracts/DelegationRegistry.sol\":9043:9058  _revokeDelegate */\n      tag_104\n        /* \"Delegate(copy)(copy)//contracts/DelegationRegistry.sol\":9043:9080  _revokeDelegate(delegate, msg.sender) */\n      jump\t// in\n        /* \"Delegate(copy)(copy)//contracts/DelegationRegistry.sol\":13414:16785  function _getDelegatesForLevel(... */\n    tag_99:\n      sub(shl(0xa0, 0x01), 0x01)\n        /* \"Delegate(copy)(copy)//contracts/DelegationRegistry.sol\":13699:13717  delegations[vault] */\n      dup5\n      and\n        /* \"Delegate(copy)(copy)//contracts/DelegationRegistry.sol\":13646:13696  EnumerableSet.Bytes32Set storage delegationHashes_ */\n      0x00\n        /* \"Delegate(copy)(copy)//contracts/DelegationRegistry.sol\":13699:13717  delegations[vault] */\n      swap1\n      dup2\n      mstore\n      0x20\n      dup2\n      dup2\n      mstore\n      0x40\n      dup1\n      dup4\n      keccak256\n        /* \"Delegate(copy)(copy)//contracts/DelegationRegistry.sol\":13731:13743  vaultVersion */\n      0x01\n        /* \"Delegate(copy)(copy)//contracts/DelegationRegistry.sol\":13731:13750  vaultVersion[vault] */\n      dup4\n      mstore\n      dup2\n      dup5\n      keccak256\n      sload\n        /* \"Delegate(copy)(copy)//contracts/DelegationRegistry.sol\":13699:13760  delegations[vault][... */\n      dup5\n      mstore\n      swap1\n      swap2\n      mstore\n      dup2\n      keccak256\n        /* \"Delegate(copy)(copy)//contracts/DelegationRegistry.sol\":13608:13634  address[] memory delegates */\n      0x60\n      swap2\n        /* \"Delegate(copy)(copy)//contracts/DelegationRegistry.sol\":13805:13831  delegationHashes_.length() */\n      tag_249\n        /* \"Delegate(copy)(copy)//contracts/DelegationRegistry.sol\":13699:13760  delegations[vault][... */\n      dup3\n        /* \"Delegate(copy)(copy)//contracts/DelegationRegistry.sol\":13805:13829  delegationHashes_.length */\n      tag_119\n        /* \"Delegate(copy)(copy)//contracts/DelegationRegistry.sol\":13805:13831  delegationHashes_.length() */\n      jump\t// in\n    tag_249:\n        /* \"Delegate(copy)(copy)//contracts/DelegationRegistry.sol\":13770:13831  uint256 potentialDelegatesLength = delegationHashes_.length() */\n      swap1\n      pop\n        /* \"Delegate(copy)(copy)//contracts/DelegationRegistry.sol\":13841:13863  uint256 delegatesCount */\n      0x00\n        /* \"Delegate(copy)(copy)//contracts/DelegationRegistry.sol\":13770:13831  uint256 potentialDelegatesLength = delegationHashes_.length() */\n      dup2\n        /* \"Delegate(copy)(copy)//contracts/DelegationRegistry.sol\":13889:13928  new address[](potentialDelegatesLength) */\n      0xffffffffffffffff\n      dup2\n      gt\n      iszero\n      tag_251\n      jumpi\n      tag_251\n      tag_122\n      jump\t// in\n    tag_251:\n      mload(0x40)\n      swap1\n      dup1\n      dup3\n      mstore\n      dup1\n      0x20\n      mul\n      0x20\n      add\n      dup3\n      add\n      0x40\n      mstore\n      dup1\n      iszero\n      tag_252\n      jumpi\n      dup2\n      0x20\n      add\n      0x20\n      dup3\n      mul\n      dup1\n      calldatasize\n      dup4\n      calldatacopy\n      add\n      swap1\n      pop\n    tag_252:\n      pop\n        /* \"Delegate(copy)(copy)//contracts/DelegationRegistry.sol\":13877:13928  delegates = new address[](potentialDelegatesLength) */\n      swap4\n      pop\n        /* \"Delegate(copy)(copy)//contracts/DelegationRegistry.sol\":13943:13952  uint256 i */\n      0x00\n        /* \"Delegate(copy)(copy)//contracts/DelegationRegistry.sol\":13938:16530  for (uint256 i = 0; i < potentialDelegatesLength; ) {... */\n    tag_253:\n        /* \"Delegate(copy)(copy)//contracts/DelegationRegistry.sol\":13962:13986  potentialDelegatesLength */\n      dup3\n        /* \"Delegate(copy)(copy)//contracts/DelegationRegistry.sol\":13958:13959  i */\n      dup2\n        /* \"Delegate(copy)(copy)//contracts/DelegationRegistry.sol\":13958:13986  i < potentialDelegatesLength */\n      lt\n        /* \"Delegate(copy)(copy)//contracts/DelegationRegistry.sol\":13938:16530  for (uint256 i = 0; i < potentialDelegatesLength; ) {... */\n      iszero\n      tag_254\n      jumpi\n        /* \"Delegate(copy)(copy)//contracts/DelegationRegistry.sol\":14004:14026  bytes32 delegationHash */\n      0x00\n        /* \"Delegate(copy)(copy)//contracts/DelegationRegistry.sol\":14029:14052  delegationHashes_.at(i) */\n      tag_256\n        /* \"Delegate(copy)(copy)//contracts/DelegationRegistry.sol\":14029:14046  delegationHashes_ */\n      dup6\n        /* \"Delegate(copy)(copy)//contracts/DelegationRegistry.sol\":14050:14051  i */\n      dup4\n        /* \"Delegate(copy)(copy)//contracts/DelegationRegistry.sol\":14029:14049  delegationHashes_.at */\n      tag_131\n        /* \"Delegate(copy)(copy)//contracts/DelegationRegistry.sol\":14029:14052  delegationHashes_.at(i) */\n      jump\t// in\n    tag_256:\n        /* \"Delegate(copy)(copy)//contracts/DelegationRegistry.sol\":14066:14104  DelegationInfo storage delegationInfo_ */\n      0x00\n        /* \"Delegate(copy)(copy)//contracts/DelegationRegistry.sol\":14107:14167  delegationInfo[... */\n      dup2\n      dup2\n      mstore\n        /* \"Delegate(copy)(copy)//contracts/DelegationRegistry.sol\":14107:14121  delegationInfo */\n      0x04\n        /* \"Delegate(copy)(copy)//contracts/DelegationRegistry.sol\":14107:14167  delegationInfo[... */\n      0x20\n      mstore\n      0x40\n      swap1\n      keccak256\n        /* \"Delegate(copy)(copy)//contracts/DelegationRegistry.sol\":14004:14052  bytes32 delegationHash = delegationHashes_.at(i) */\n      swap1\n      swap2\n      pop\n        /* \"Delegate(copy)(copy)//contracts/DelegationRegistry.sol\":14210:14224  delegationType */\n      dup10\n        /* \"Delegate(copy)(copy)//contracts/DelegationRegistry.sol\":14185:14224  delegationInfo_.type_ == delegationType */\n      0x03\n      dup2\n      gt\n      iszero\n      tag_258\n      jumpi\n      tag_258\n      tag_134\n      jump\t// in\n    tag_258:\n        /* \"Delegate(copy)(copy)//contracts/DelegationRegistry.sol\":14185:14206  delegationInfo_.type_ */\n      dup2\n      sload\n      0xff\n      and\n        /* \"Delegate(copy)(copy)//contracts/DelegationRegistry.sol\":14185:14224  delegationInfo_.type_ == delegationType */\n      0x03\n      dup2\n      gt\n      iszero\n      tag_260\n      jumpi\n      tag_260\n      tag_134\n      jump\t// in\n    tag_260:\n      sub\n        /* \"Delegate(copy)(copy)//contracts/DelegationRegistry.sol\":14181:16461  if (delegationInfo_.type_ == delegationType) {... */\n      tag_293\n      jumpi\n        /* \"Delegate(copy)(copy)//contracts/DelegationRegistry.sol\":14266:14304  IDelegationRegistry.DelegationType.ALL */\n      0x01\n        /* \"Delegate(copy)(copy)//contracts/DelegationRegistry.sol\":14248:14262  delegationType */\n      dup11\n        /* \"Delegate(copy)(copy)//contracts/DelegationRegistry.sol\":14248:14304  delegationType == IDelegationRegistry.DelegationType.ALL */\n      0x03\n      dup2\n      gt\n      iszero\n      tag_265\n      jumpi\n      tag_265\n      tag_134\n      jump\t// in\n    tag_265:\n      sub\n        /* \"Delegate(copy)(copy)//contracts/DelegationRegistry.sol\":14244:16447  if (delegationType == IDelegationRegistry.DelegationType.ALL) {... */\n      tag_266\n      jumpi\n        /* \"Delegate(copy)(copy)//contracts/DelegationRegistry.sol\":14558:14582  delegationInfo_.delegate */\n      0x01\n      dup2\n      add\n      sload\n        /* \"Delegate(copy)(copy)//contracts/DelegationRegistry.sol\":14468:14608  _computeAllDelegationHash(... */\n      tag_267\n      swap1\n        /* \"Delegate(copy)(copy)//contracts/DelegationRegistry.sol\":14523:14528  vault */\n      dup13\n      swap1\n      sub(shl(0xa0, 0x01), 0x01)\n        /* \"Delegate(copy)(copy)//contracts/DelegationRegistry.sol\":14558:14582  delegationInfo_.delegate */\n      and\n        /* \"Delegate(copy)(copy)//contracts/DelegationRegistry.sol\":14468:14493  _computeAllDelegationHash */\n      tag_143\n        /* \"Delegate(copy)(copy)//contracts/DelegationRegistry.sol\":14468:14608  _computeAllDelegationHash(... */\n      jump\t// in\n    tag_267:\n        /* \"Delegate(copy)(copy)//contracts/DelegationRegistry.sol\":14426:14440  delegationHash */\n      dup3\n        /* \"Delegate(copy)(copy)//contracts/DelegationRegistry.sol\":14426:14608  delegationHash ==... */\n      sub\n        /* \"Delegate(copy)(copy)//contracts/DelegationRegistry.sol\":14397:14734  if (... */\n      tag_268\n      jumpi\n        /* \"Delegate(copy)(copy)//contracts/DelegationRegistry.sol\":14687:14711  delegationInfo_.delegate */\n      0x01\n      dup2\n      add\n      sload\n      sub(shl(0xa0, 0x01), 0x01)\n      and\n        /* \"Delegate(copy)(copy)//contracts/DelegationRegistry.sol\":14657:14666  delegates */\n      dup8\n        /* \"Delegate(copy)(copy)//contracts/DelegationRegistry.sol\":14667:14683  delegatesCount++ */\n      dup6\n      tag_269\n      dup2\n      tag_107\n      jump\t// in\n    tag_269:\n      swap7\n      pop\n        /* \"Delegate(copy)(copy)//contracts/DelegationRegistry.sol\":14657:14684  delegates[delegatesCount++] */\n      dup2\n      mload\n      dup2\n      lt\n      tag_271\n      jumpi\n      tag_271\n      tag_166\n      jump\t// in\n    tag_271:\n      0x20\n      mul\n      0x20\n      add\n      add\n        /* \"Delegate(copy)(copy)//contracts/DelegationRegistry.sol\":14657:14711  delegates[delegatesCount++] = delegationInfo_.delegate */\n      swap1\n      sub(shl(0xa0, 0x01), 0x01)\n      and\n      swap1\n      dup2\n      sub(shl(0xa0, 0x01), 0x01)\n      and\n      dup2\n      mstore\n      pop\n      pop\n        /* \"Delegate(copy)(copy)//contracts/DelegationRegistry.sol\":14397:14734  if (... */\n    tag_268:\n        /* \"Delegate(copy)(copy)//contracts/DelegationRegistry.sol\":14244:16447  if (delegationType == IDelegationRegistry.DelegationType.ALL) {... */\n      jump(tag_293)\n    tag_266:\n        /* \"Delegate(copy)(copy)//contracts/DelegationRegistry.sol\":14821:14864  IDelegationRegistry.DelegationType.CONTRACT */\n      0x02\n        /* \"Delegate(copy)(copy)//contracts/DelegationRegistry.sol\":14783:14797  delegationType */\n      dup11\n        /* \"Delegate(copy)(copy)//contracts/DelegationRegistry.sol\":14783:14864  delegationType ==... */\n      0x03\n      dup2\n      gt\n      iszero\n      tag_276\n      jumpi\n      tag_276\n      tag_134\n      jump\t// in\n    tag_276:\n      sub\n        /* \"Delegate(copy)(copy)//contracts/DelegationRegistry.sol\":14758:16447  if (... */\n      tag_277\n      jumpi\n        /* \"Delegate(copy)(copy)//contracts/DelegationRegistry.sol\":14909:14934  delegationInfo_.contract_ */\n      0x02\n      dup2\n      add\n      sload\n      sub(shl(0xa0, 0x01), 0x01)\n        /* \"Delegate(copy)(copy)//contracts/DelegationRegistry.sol\":14909:14947  delegationInfo_.contract_ == contract_ */\n      dup1\n      dup12\n      and\n        /* \"Delegate(copy)(copy)//contracts/DelegationRegistry.sol\":14909:14934  delegationInfo_.contract_ */\n      swap2\n      and\n        /* \"Delegate(copy)(copy)//contracts/DelegationRegistry.sol\":14909:14947  delegationInfo_.contract_ == contract_ */\n      sub\n        /* \"Delegate(copy)(copy)//contracts/DelegationRegistry.sol\":14905:15520  if (delegationInfo_.contract_ == contract_) {... */\n      tag_268\n      jumpi\n        /* \"Delegate(copy)(copy)//contracts/DelegationRegistry.sol\":15230:15254  delegationInfo_.delegate */\n      0x01\n      dup2\n      add\n      sload\n        /* \"Delegate(copy)(copy)//contracts/DelegationRegistry.sol\":15127:15327  _computeContractDelegationHash(... */\n      tag_267\n      swap1\n        /* \"Delegate(copy)(copy)//contracts/DelegationRegistry.sol\":15191:15196  vault */\n      dup13\n      swap1\n      sub(shl(0xa0, 0x01), 0x01)\n        /* \"Delegate(copy)(copy)//contracts/DelegationRegistry.sol\":15230:15254  delegationInfo_.delegate */\n      and\n        /* \"Delegate(copy)(copy)//contracts/DelegationRegistry.sol\":15288:15297  contract_ */\n      dup12\n        /* \"Delegate(copy)(copy)//contracts/DelegationRegistry.sol\":15127:15157  _computeContractDelegationHash */\n      tag_112\n        /* \"Delegate(copy)(copy)//contracts/DelegationRegistry.sol\":15127:15327  _computeContractDelegationHash(... */\n      jump\t// in\n        /* \"Delegate(copy)(copy)//contracts/DelegationRegistry.sol\":14758:16447  if (... */\n    tag_277:\n        /* \"Delegate(copy)(copy)//contracts/DelegationRegistry.sol\":15587:15627  IDelegationRegistry.DelegationType.TOKEN */\n      0x03\n        /* \"Delegate(copy)(copy)//contracts/DelegationRegistry.sol\":15569:15583  delegationType */\n      dup11\n        /* \"Delegate(copy)(copy)//contracts/DelegationRegistry.sol\":15569:15627  delegationType == IDelegationRegistry.DelegationType.TOKEN */\n      0x03\n      dup2\n      gt\n      iszero\n      tag_288\n      jumpi\n      tag_288\n      tag_134\n      jump\t// in\n    tag_288:\n      sub\n        /* \"Delegate(copy)(copy)//contracts/DelegationRegistry.sol\":15544:16447  if (... */\n      tag_293\n      jumpi\n        /* \"Delegate(copy)(copy)//contracts/DelegationRegistry.sol\":15697:15722  delegationInfo_.contract_ */\n      0x02\n      dup2\n      add\n      sload\n      sub(shl(0xa0, 0x01), 0x01)\n        /* \"Delegate(copy)(copy)//contracts/DelegationRegistry.sol\":15697:15735  delegationInfo_.contract_ == contract_ */\n      dup11\n      dup2\n      and\n        /* \"Delegate(copy)(copy)//contracts/DelegationRegistry.sol\":15697:15722  delegationInfo_.contract_ */\n      swap2\n      and\n        /* \"Delegate(copy)(copy)//contracts/DelegationRegistry.sol\":15697:15735  delegationInfo_.contract_ == contract_ */\n      eq\n        /* \"Delegate(copy)(copy)//contracts/DelegationRegistry.sol\":15697:15797  delegationInfo_.contract_ == contract_ &&... */\n      dup1\n      iszero\n      tag_290\n      jumpi\n      pop\n        /* \"Delegate(copy)(copy)//contracts/DelegationRegistry.sol\":15790:15797  tokenId */\n      dup8\n        /* \"Delegate(copy)(copy)//contracts/DelegationRegistry.sol\":15763:15778  delegationInfo_ */\n      dup2\n        /* \"Delegate(copy)(copy)//contracts/DelegationRegistry.sol\":15763:15786  delegationInfo_.tokenId */\n      0x03\n      add\n      sload\n        /* \"Delegate(copy)(copy)//contracts/DelegationRegistry.sol\":15763:15797  delegationInfo_.tokenId == tokenId */\n      eq\n        /* \"Delegate(copy)(copy)//contracts/DelegationRegistry.sol\":15697:15797  delegationInfo_.contract_ == contract_ &&... */\n    tag_290:\n        /* \"Delegate(copy)(copy)//contracts/DelegationRegistry.sol\":15668:16429  if (... */\n      iszero\n      tag_293\n      jumpi\n        /* \"Delegate(copy)(copy)//contracts/DelegationRegistry.sol\":16098:16122  delegationInfo_.delegate */\n      0x01\n      dup2\n      add\n      sload\n        /* \"Delegate(copy)(copy)//contracts/DelegationRegistry.sol\":15998:16236  _computeTokenDelegationHash(... */\n      tag_292\n      swap1\n        /* \"Delegate(copy)(copy)//contracts/DelegationRegistry.sol\":16059:16064  vault */\n      dup13\n      swap1\n      sub(shl(0xa0, 0x01), 0x01)\n        /* \"Delegate(copy)(copy)//contracts/DelegationRegistry.sol\":16098:16122  delegationInfo_.delegate */\n      and\n        /* \"Delegate(copy)(copy)//contracts/DelegationRegistry.sol\":16156:16165  contract_ */\n      dup12\n        /* \"Delegate(copy)(copy)//contracts/DelegationRegistry.sol\":16199:16206  tokenId */\n      dup12\n        /* \"Delegate(copy)(copy)//contracts/DelegationRegistry.sol\":15998:16025  _computeTokenDelegationHash */\n      tag_160\n        /* \"Delegate(copy)(copy)//contracts/DelegationRegistry.sol\":15998:16236  _computeTokenDelegationHash(... */\n      jump\t// in\n    tag_292:\n        /* \"Delegate(copy)(copy)//contracts/DelegationRegistry.sol\":15952:15966  delegationHash */\n      dup3\n        /* \"Delegate(copy)(copy)//contracts/DelegationRegistry.sol\":15952:16236  delegationHash ==... */\n      sub\n        /* \"Delegate(copy)(copy)//contracts/DelegationRegistry.sol\":15919:16407  if (... */\n      tag_293\n      jumpi\n        /* \"Delegate(copy)(copy)//contracts/DelegationRegistry.sol\":16323:16380  delegationInfo_... */\n      0x01\n      dup2\n      add\n      sload\n      sub(shl(0xa0, 0x01), 0x01)\n      and\n        /* \"Delegate(copy)(copy)//contracts/DelegationRegistry.sol\":16293:16302  delegates */\n      dup8\n        /* \"Delegate(copy)(copy)//contracts/DelegationRegistry.sol\":16303:16319  delegatesCount++ */\n      dup6\n      tag_294\n      dup2\n      tag_107\n      jump\t// in\n    tag_294:\n      swap7\n      pop\n        /* \"Delegate(copy)(copy)//contracts/DelegationRegistry.sol\":16293:16320  delegates[delegatesCount++] */\n      dup2\n      mload\n      dup2\n      lt\n      tag_296\n      jumpi\n      tag_296\n      tag_166\n      jump\t// in\n    tag_296:\n      0x20\n      mul\n      0x20\n      add\n      add\n        /* \"Delegate(copy)(copy)//contracts/DelegationRegistry.sol\":16293:16380  delegates[delegatesCount++] = delegationInfo_... */\n      swap1\n      sub(shl(0xa0, 0x01), 0x01)\n      and\n      swap1\n      dup2\n      sub(shl(0xa0, 0x01), 0x01)\n      and\n      dup2\n      mstore\n      pop\n      pop\n        /* \"Delegate(copy)(copy)//contracts/DelegationRegistry.sol\":15919:16407  if (... */\n    tag_293:\n      pop\n      pop\n        /* \"Delegate(copy)(copy)//contracts/DelegationRegistry.sol\":16502:16505  ++i */\n      0x01\n      add\n        /* \"Delegate(copy)(copy)//contracts/DelegationRegistry.sol\":13938:16530  for (uint256 i = 0; i < potentialDelegatesLength; ) {... */\n      jump(tag_253)\n    tag_254:\n      pop\n        /* \"Delegate(copy)(copy)//contracts/DelegationRegistry.sol\":16570:16584  delegatesCount */\n      dup1\n        /* \"Delegate(copy)(copy)//contracts/DelegationRegistry.sol\":16543:16567  potentialDelegatesLength */\n      dup3\n        /* \"Delegate(copy)(copy)//contracts/DelegationRegistry.sol\":16543:16584  potentialDelegatesLength > delegatesCount */\n      gt\n        /* \"Delegate(copy)(copy)//contracts/DelegationRegistry.sol\":16539:16779  if (potentialDelegatesLength > delegatesCount) {... */\n      iszero\n      tag_297\n      jumpi\n        /* \"Delegate(copy)(copy)//contracts/DelegationRegistry.sol\":16727:16743  mload(delegates) */\n      dup4\n      mload\n        /* \"Delegate(copy)(copy)//contracts/DelegationRegistry.sol\":16643:16688  sub(potentialDelegatesLength, delegatesCount) */\n      dup2\n      dup4\n      sub\n        /* \"Delegate(copy)(copy)//contracts/DelegationRegistry.sol\":16723:16754  sub(mload(delegates), decrease) */\n      swap1\n      sub\n        /* \"Delegate(copy)(copy)//contracts/DelegationRegistry.sol\":16705:16755  mstore(delegates, sub(mload(delegates), decrease)) */\n      dup5\n      mstore\n        /* \"Delegate(copy)(copy)//contracts/DelegationRegistry.sol\":16539:16779  if (potentialDelegatesLength > delegatesCount) {... */\n    tag_297:\n        /* \"Delegate(copy)(copy)//contracts/DelegationRegistry.sol\":13636:16785  {... */\n      pop\n      pop\n      pop\n        /* \"Delegate(copy)(copy)//contracts/DelegationRegistry.sol\":13414:16785  function _getDelegatesForLevel(... */\n      swap5\n      swap4\n      pop\n      pop\n      pop\n      pop\n      jump\t// out\n        /* \"Delegate(copy)(copy)//contracts/DelegationRegistry.sol\":9347:9591  function _revokeDelegate(address delegate, address vault) internal {... */\n    tag_104:\n      sub(shl(0xa0, 0x01), 0x01)\n        /* \"Delegate(copy)(copy)//contracts/DelegationRegistry.sol\":9426:9448  delegateVersion[vault] */\n      dup1\n      dup3\n      and\n      0x00\n      swap1\n      dup2\n      mstore\n        /* \"Delegate(copy)(copy)//contracts/DelegationRegistry.sol\":9426:9441  delegateVersion */\n      0x02\n        /* \"Delegate(copy)(copy)//contracts/DelegationRegistry.sol\":9426:9448  delegateVersion[vault] */\n      0x20\n      swap1\n      dup2\n      mstore\n      0x40\n      dup1\n      dup4\n      keccak256\n        /* \"Delegate(copy)(copy)//contracts/DelegationRegistry.sol\":9426:9458  delegateVersion[vault][delegate] */\n      swap4\n      dup7\n      and\n      dup4\n      mstore\n      swap3\n      swap1\n      mstore\n      swap1\n      dup2\n      keccak256\n        /* \"Delegate(copy)(copy)//contracts/DelegationRegistry.sol\":9424:9458  ++delegateVersion[vault][delegate] */\n      dup1\n      sload\n        /* \"Delegate(copy)(copy)//contracts/DelegationRegistry.sol\":9426:9458  delegateVersion[vault][delegate] */\n      swap1\n      swap2\n        /* \"Delegate(copy)(copy)//contracts/DelegationRegistry.sol\":9426:9448  delegateVersion[vault] */\n      swap1\n        /* \"Delegate(copy)(copy)//contracts/DelegationRegistry.sol\":9424:9458  ++delegateVersion[vault][delegate] */\n      tag_299\n      swap1\n      tag_107\n      jump\t// in\n    tag_299:\n      swap1\n      swap2\n      sstore\n      pop\n        /* \"Delegate(copy)(copy)//contracts/DelegationRegistry.sol\":9531:9584  IDelegationRegistry.RevokeDelegate(vault, msg.sender) */\n      0x40\n      dup1\n      mload\n      sub(shl(0xa0, 0x01), 0x01)\n        /* \"#utility.yul\":11165:11197   */\n      dup4\n      and\n        /* \"#utility.yul\":11147:11198   */\n      dup2\n      mstore\n        /* \"Delegate(copy)(copy)//contracts/DelegationRegistry.sol\":9573:9583  msg.sender */\n      caller\n        /* \"#utility.yul\":11229:11231   */\n      0x20\n        /* \"#utility.yul\":11214:11232   */\n      dup3\n      add\n        /* \"#utility.yul\":11207:11267   */\n      mstore\n        /* \"Delegate(copy)(copy)//contracts/DelegationRegistry.sol\":9531:9584  IDelegationRegistry.RevokeDelegate(vault, msg.sender) */\n      0x3e34a3ee53064fb79c0ee57448f03774a627a9270b0c41286efb7d8e32dcde93\n      swap2\n        /* \"#utility.yul\":11120:11138   */\n      add\n        /* \"Delegate(copy)(copy)//contracts/DelegationRegistry.sol\":9531:9584  IDelegationRegistry.RevokeDelegate(vault, msg.sender) */\n      mload(0x40)\n      dup1\n      swap2\n      sub\n      swap1\n      log1\n        /* \"Delegate(copy)(copy)//contracts/DelegationRegistry.sol\":9347:9591  function _revokeDelegate(address delegate, address vault) internal {... */\n      pop\n      pop\n      jump\t// out\n        /* \"Delegate(copy)(copy)//contracts/DelegationRegistry.sol\":7462:8004  function _computeContractDelegationHash(... */\n    tag_112:\n      sub(shl(0xa0, 0x01), 0x01)\n        /* \"Delegate(copy)(copy)//contracts/DelegationRegistry.sol\":7650:7669  vaultVersion[vault] */\n      swap3\n      dup4\n      and\n        /* \"Delegate(copy)(copy)//contracts/DelegationRegistry.sol\":7607:7614  bytes32 */\n      0x00\n        /* \"Delegate(copy)(copy)//contracts/DelegationRegistry.sol\":7650:7669  vaultVersion[vault] */\n      dup2\n      dup2\n      mstore\n        /* \"Delegate(copy)(copy)//contracts/DelegationRegistry.sol\":7650:7662  vaultVersion */\n      0x01\n        /* \"Delegate(copy)(copy)//contracts/DelegationRegistry.sol\":7650:7669  vaultVersion[vault] */\n      0x20\n      swap1\n      dup2\n      mstore\n      0x40\n      dup1\n      dup4\n      keccak256\n      sload\n        /* \"Delegate(copy)(copy)//contracts/DelegationRegistry.sol\":7706:7721  delegateVersion */\n      0x02\n        /* \"Delegate(copy)(copy)//contracts/DelegationRegistry.sol\":7706:7728  delegateVersion[vault] */\n      dup4\n      mstore\n      dup2\n      dup5\n      keccak256\n        /* \"Delegate(copy)(copy)//contracts/DelegationRegistry.sol\":7706:7738  delegateVersion[vault][delegate] */\n      swap7\n      dup9\n      and\n      dup1\n      dup6\n      mstore\n      swap7\n      dup4\n      mstore\n      swap3\n      dup2\n      swap1\n      keccak256\n      sload\n        /* \"Delegate(copy)(copy)//contracts/DelegationRegistry.sol\":7794:7983  abi.encode(... */\n      dup2\n      mload\n      dup1\n      dup5\n      add\n        /* \"#utility.yul\":9620:9671   */\n      swap8\n      swap1\n      swap8\n      mstore\n        /* \"#utility.yul\":9687:9705   */\n      dup7\n      dup3\n      add\n        /* \"#utility.yul\":9680:9740   */\n      swap5\n      swap1\n      swap5\n      mstore\n        /* \"#utility.yul\":9776:9808   */\n      swap4\n      swap1\n      swap6\n      and\n        /* \"#utility.yul\":9756:9774   */\n      0x60\n      dup6\n      add\n        /* \"#utility.yul\":9749:9809   */\n      mstore\n        /* \"#utility.yul\":9825:9843   */\n      0x80\n      dup5\n      add\n        /* \"#utility.yul\":9818:9852   */\n      mstore\n        /* \"#utility.yul\":9868:9887   */\n      0xa0\n      dup1\n      dup5\n      add\n        /* \"#utility.yul\":9861:9896   */\n      swap2\n      swap1\n      swap2\n      mstore\n        /* \"Delegate(copy)(copy)//contracts/DelegationRegistry.sol\":7794:7983  abi.encode(... */\n      dup2\n      mload\n      dup1\n      dup5\n      sub\n      swap1\n      swap2\n      add\n      dup2\n      mstore\n        /* \"#utility.yul\":9592:9611   */\n      0xc0\n      swap1\n      swap3\n      add\n        /* \"Delegate(copy)(copy)//contracts/DelegationRegistry.sol\":7794:7983  abi.encode(... */\n      swap1\n      mstore\n        /* \"Delegate(copy)(copy)//contracts/DelegationRegistry.sol\":7767:7997  keccak256(... */\n      dup1\n      mload\n      swap2\n      add\n      keccak256\n      swap1\n        /* \"Delegate(copy)(copy)//contracts/DelegationRegistry.sol\":7462:8004  function _computeContractDelegationHash(... */\n      jump\t// out\n        /* \"Delegate(copy)(copy)//contracts/DelegationRegistry.sol\":6024:6881  function _setDelegationValues(... */\n    tag_114:\n        /* \"Delegate(copy)(copy)//contracts/DelegationRegistry.sol\":6284:6289  value */\n      dup5\n        /* \"Delegate(copy)(copy)//contracts/DelegationRegistry.sol\":6280:6875  if (value) {... */\n      iszero\n      tag_305\n      jumpi\n      sub(shl(0xa0, 0x01), 0x01)\n        /* \"Delegate(copy)(copy)//contracts/DelegationRegistry.sol\":6305:6323  delegations[vault] */\n      dup4\n      and\n        /* \"Delegate(copy)(copy)//contracts/DelegationRegistry.sol\":6305:6316  delegations */\n      0x00\n        /* \"Delegate(copy)(copy)//contracts/DelegationRegistry.sol\":6305:6323  delegations[vault] */\n      swap1\n      dup2\n      mstore\n      0x20\n      dup2\n      dup2\n      mstore\n      0x40\n      dup1\n      dup4\n      keccak256\n        /* \"Delegate(copy)(copy)//contracts/DelegationRegistry.sol\":6324:6336  vaultVersion */\n      0x01\n        /* \"Delegate(copy)(copy)//contracts/DelegationRegistry.sol\":6324:6343  vaultVersion[vault] */\n      dup4\n      mstore\n      dup2\n      dup5\n      keccak256\n      sload\n        /* \"Delegate(copy)(copy)//contracts/DelegationRegistry.sol\":6305:6344  delegations[vault][vaultVersion[vault]] */\n      dup5\n      mstore\n      swap1\n      swap2\n      mstore\n      swap1\n      keccak256\n        /* \"Delegate(copy)(copy)//contracts/DelegationRegistry.sol\":6305:6362  delegations[vault][vaultVersion[vault]].add(delegateHash) */\n      tag_306\n      swap1\n        /* \"Delegate(copy)(copy)//contracts/DelegationRegistry.sol\":6349:6361  delegateHash */\n      dup8\n        /* \"Delegate(copy)(copy)//contracts/DelegationRegistry.sol\":6305:6348  delegations[vault][vaultVersion[vault]].add */\n      tag_307\n        /* \"Delegate(copy)(copy)//contracts/DelegationRegistry.sol\":6305:6362  delegations[vault][vaultVersion[vault]].add(delegateHash) */\n      jump\t// in\n    tag_306:\n      pop\n      sub(shl(0xa0, 0x01), 0x01)\n        /* \"Delegate(copy)(copy)//contracts/DelegationRegistry.sol\":6376:6402  delegationHashes[delegate] */\n      dup8\n      and\n      0x00\n      swap1\n      dup2\n      mstore\n        /* \"Delegate(copy)(copy)//contracts/DelegationRegistry.sol\":6376:6392  delegationHashes */\n      0x03\n        /* \"Delegate(copy)(copy)//contracts/DelegationRegistry.sol\":6376:6402  delegationHashes[delegate] */\n      0x20\n      mstore\n      0x40\n      swap1\n      keccak256\n        /* \"Delegate(copy)(copy)//contracts/DelegationRegistry.sol\":6376:6420  delegationHashes[delegate].add(delegateHash) */\n      tag_308\n      swap1\n        /* \"Delegate(copy)(copy)//contracts/DelegationRegistry.sol\":6407:6419  delegateHash */\n      dup8\n        /* \"Delegate(copy)(copy)//contracts/DelegationRegistry.sol\":6376:6406  delegationHashes[delegate].add */\n      tag_307\n        /* \"Delegate(copy)(copy)//contracts/DelegationRegistry.sol\":6376:6420  delegationHashes[delegate].add(delegateHash) */\n      jump\t// in\n    tag_308:\n      pop\n        /* \"Delegate(copy)(copy)//contracts/DelegationRegistry.sol\":6465:6663  DelegationInfo({... */\n      mload(0x40)\n      dup1\n      0xa0\n      add\n      0x40\n      mstore\n      dup1\n        /* \"Delegate(copy)(copy)//contracts/DelegationRegistry.sol\":6571:6576  type_ */\n      dup6\n        /* \"Delegate(copy)(copy)//contracts/DelegationRegistry.sol\":6465:6663  DelegationInfo({... */\n      0x03\n      dup2\n      gt\n      iszero\n      tag_310\n      jumpi\n      tag_310\n      tag_134\n      jump\t// in\n    tag_310:\n      dup2\n      mstore\n      sub(shl(0xa0, 0x01), 0x01)\n      dup1\n      dup7\n      and\n      0x20\n      dup1\n      dup5\n      add\n      swap2\n      swap1\n      swap2\n      mstore\n      dup11\n      dup3\n      and\n      0x40\n      dup1\n      dup6\n      add\n      swap2\n      swap1\n      swap2\n      mstore\n      swap2\n      dup7\n      and\n      0x60\n      dup5\n      add\n      mstore\n      0x80\n      swap1\n      swap3\n      add\n      dup5\n      swap1\n      mstore\n      0x00\n        /* \"Delegate(copy)(copy)//contracts/DelegationRegistry.sol\":6434:6462  delegationInfo[delegateHash] */\n      dup10\n      dup2\n      mstore\n        /* \"Delegate(copy)(copy)//contracts/DelegationRegistry.sol\":6434:6448  delegationInfo */\n      0x04\n        /* \"Delegate(copy)(copy)//contracts/DelegationRegistry.sol\":6434:6462  delegationInfo[delegateHash] */\n      swap1\n      swap3\n      mstore\n      swap1\n      keccak256\n        /* \"Delegate(copy)(copy)//contracts/DelegationRegistry.sol\":6434:6663  delegationInfo[delegateHash] = DelegationInfo({... */\n      dup2\n      mload\n      dup2\n      sload\n        /* \"Delegate(copy)(copy)//contracts/DelegationRegistry.sol\":6434:6462  delegationInfo[delegateHash] */\n      dup3\n      swap1\n      not(0xff)\n        /* \"Delegate(copy)(copy)//contracts/DelegationRegistry.sol\":6434:6663  delegationInfo[delegateHash] = DelegationInfo({... */\n      and\n      0x01\n      dup4\n      0x03\n      dup2\n      gt\n      iszero\n      tag_312\n      jumpi\n      tag_312\n      tag_134\n      jump\t// in\n    tag_312:\n      mul\n      or\n      swap1\n      sstore\n      pop\n      0x20\n      dup3\n      add\n      mload\n      dup2\n      sload\n      sub(shl(0xa0, 0x01), 0x01)\n      swap2\n      dup3\n      and\n      0x0100\n      mul\n      not(sub(shl(0xa8, 0x01), 0x0100))\n      swap1\n      swap2\n      and\n      or\n      dup3\n      sstore\n      0x40\n      dup4\n      add\n      mload\n      0x01\n      dup4\n      add\n      dup1\n      sload\n      swap2\n      dup4\n      and\n      not(sub(shl(0xa0, 0x01), 0x01))\n      swap3\n      dup4\n      and\n      or\n      swap1\n      sstore\n      0x60\n      dup5\n      add\n      mload\n      0x02\n      dup5\n      add\n      dup1\n      sload\n      swap2\n      swap1\n      swap4\n      and\n      swap2\n      and\n      or\n      swap1\n      sstore\n      0x80\n      swap1\n      swap2\n      add\n      mload\n      0x03\n      swap1\n      swap2\n      add\n      sstore\n        /* \"Delegate(copy)(copy)//contracts/DelegationRegistry.sol\":6280:6875  if (value) {... */\n      jump(tag_313)\n    tag_305:\n      sub(shl(0xa0, 0x01), 0x01)\n        /* \"Delegate(copy)(copy)//contracts/DelegationRegistry.sol\":6694:6712  delegations[vault] */\n      dup4\n      and\n        /* \"Delegate(copy)(copy)//contracts/DelegationRegistry.sol\":6694:6705  delegations */\n      0x00\n        /* \"Delegate(copy)(copy)//contracts/DelegationRegistry.sol\":6694:6712  delegations[vault] */\n      swap1\n      dup2\n      mstore\n      0x20\n      dup2\n      dup2\n      mstore\n      0x40\n      dup1\n      dup4\n      keccak256\n        /* \"Delegate(copy)(copy)//contracts/DelegationRegistry.sol\":6713:6725  vaultVersion */\n      0x01\n        /* \"Delegate(copy)(copy)//contracts/DelegationRegistry.sol\":6713:6732  vaultVersion[vault] */\n      dup4\n      mstore\n      dup2\n      dup5\n      keccak256\n      sload\n        /* \"Delegate(copy)(copy)//contracts/DelegationRegistry.sol\":6694:6733  delegations[vault][vaultVersion[vault]] */\n      dup5\n      mstore\n      swap1\n      swap2\n      mstore\n      swap1\n      keccak256\n        /* \"Delegate(copy)(copy)//contracts/DelegationRegistry.sol\":6694:6754  delegations[vault][vaultVersion[vault]].remove(delegateHash) */\n      tag_314\n      swap1\n        /* \"Delegate(copy)(copy)//contracts/DelegationRegistry.sol\":6741:6753  delegateHash */\n      dup8\n        /* \"Delegate(copy)(copy)//contracts/DelegationRegistry.sol\":6694:6740  delegations[vault][vaultVersion[vault]].remove */\n      tag_315\n        /* \"Delegate(copy)(copy)//contracts/DelegationRegistry.sol\":6694:6754  delegations[vault][vaultVersion[vault]].remove(delegateHash) */\n      jump\t// in\n    tag_314:\n      pop\n      sub(shl(0xa0, 0x01), 0x01)\n        /* \"Delegate(copy)(copy)//contracts/DelegationRegistry.sol\":6768:6794  delegationHashes[delegate] */\n      dup8\n      and\n      0x00\n      swap1\n      dup2\n      mstore\n        /* \"Delegate(copy)(copy)//contracts/DelegationRegistry.sol\":6768:6784  delegationHashes */\n      0x03\n        /* \"Delegate(copy)(copy)//contracts/DelegationRegistry.sol\":6768:6794  delegationHashes[delegate] */\n      0x20\n      mstore\n      0x40\n      swap1\n      keccak256\n        /* \"Delegate(copy)(copy)//contracts/DelegationRegistry.sol\":6768:6815  delegationHashes[delegate].remove(delegateHash) */\n      tag_316\n      swap1\n        /* \"Delegate(copy)(copy)//contracts/DelegationRegistry.sol\":6802:6814  delegateHash */\n      dup8\n        /* \"Delegate(copy)(copy)//contracts/DelegationRegistry.sol\":6768:6801  delegationHashes[delegate].remove */\n      tag_315\n        /* \"Delegate(copy)(copy)//contracts/DelegationRegistry.sol\":6768:6815  delegationHashes[delegate].remove(delegateHash) */\n      jump\t// in\n    tag_316:\n      pop\n        /* \"Delegate(copy)(copy)//contracts/DelegationRegistry.sol\":6836:6864  delegationInfo[delegateHash] */\n      0x00\n      dup7\n      dup2\n      mstore\n        /* \"Delegate(copy)(copy)//contracts/DelegationRegistry.sol\":6836:6850  delegationInfo */\n      0x04\n        /* \"Delegate(copy)(copy)//contracts/DelegationRegistry.sol\":6836:6864  delegationInfo[delegateHash] */\n      0x20\n      mstore\n      0x40\n      dup2\n      keccak256\n        /* \"Delegate(copy)(copy)//contracts/DelegationRegistry.sol\":6829:6864  delete delegationInfo[delegateHash] */\n      dup1\n      sload\n      not(sub(shl(0xa8, 0x01), 0x01))\n      and\n      dup2\n      sstore\n      0x01\n      dup2\n      add\n      dup1\n      sload\n      not(sub(shl(0xa0, 0x01), 0x01))\n      swap1\n      dup2\n      and\n      swap1\n      swap2\n      sstore\n      0x02\n      dup3\n      add\n      dup1\n      sload\n      swap1\n      swap2\n      and\n      swap1\n      sstore\n      0x03\n      add\n      sstore\n        /* \"Delegate(copy)(copy)//contracts/DelegationRegistry.sol\":6280:6875  if (value) {... */\n    tag_313:\n        /* \"Delegate(copy)(copy)//contracts/DelegationRegistry.sol\":6024:6881  function _setDelegationValues(... */\n      pop\n      pop\n      pop\n      pop\n      pop\n      pop\n      pop\n      jump\t// out\n        /* \"Delegate/@openzeppelin/contracts/utils/structs/EnumerableSet.sol\":7908:8023  function length(Bytes32Set storage set) internal view returns (uint256) {... */\n    tag_119:\n        /* \"Delegate/@openzeppelin/contracts/utils/structs/EnumerableSet.sol\":7971:7978  uint256 */\n      0x00\n        /* \"Delegate/@openzeppelin/contracts/utils/structs/EnumerableSet.sol\":7997:8016  _length(set._inner) */\n      tag_95\n        /* \"Delegate/@openzeppelin/contracts/utils/structs/EnumerableSet.sol\":8005:8008  set */\n      dup3\n        /* \"Delegate/@openzeppelin/contracts/utils/structs/EnumerableSet.sol\":5814:5832  set._values.length */\n      sload\n      swap1\n        /* \"Delegate/@openzeppelin/contracts/utils/structs/EnumerableSet.sol\":5732:5839  function _length(Set storage set) private view returns (uint256) {... */\n      jump\n        /* \"Delegate/@openzeppelin/contracts/utils/structs/EnumerableSet.sol\":8365:8494  function at(Bytes32Set storage set, uint256 index) internal view returns (bytes32) {... */\n    tag_131:\n        /* \"Delegate/@openzeppelin/contracts/utils/structs/EnumerableSet.sol\":8439:8446  bytes32 */\n      0x00\n        /* \"Delegate/@openzeppelin/contracts/utils/structs/EnumerableSet.sol\":8465:8487  _at(set._inner, index) */\n      tag_221\n        /* \"Delegate/@openzeppelin/contracts/utils/structs/EnumerableSet.sol\":8469:8472  set */\n      dup4\n        /* \"Delegate/@openzeppelin/contracts/utils/structs/EnumerableSet.sol\":8481:8486  index */\n      dup4\n        /* \"Delegate/@openzeppelin/contracts/utils/structs/EnumerableSet.sol\":8465:8468  _at */\n      tag_322\n        /* \"Delegate/@openzeppelin/contracts/utils/structs/EnumerableSet.sol\":8465:8487  _at(set._inner, index) */\n      jump\t// in\n        /* \"Delegate(copy)(copy)//contracts/DelegationRegistry.sol\":6980:7361  function _computeAllDelegationHash(... */\n    tag_143:\n      sub(shl(0xa0, 0x01), 0x01)\n        /* \"Delegate(copy)(copy)//contracts/DelegationRegistry.sol\":7136:7155  vaultVersion[vault] */\n      swap2\n      dup3\n      and\n        /* \"Delegate(copy)(copy)//contracts/DelegationRegistry.sol\":7093:7100  bytes32 */\n      0x00\n        /* \"Delegate(copy)(copy)//contracts/DelegationRegistry.sol\":7136:7155  vaultVersion[vault] */\n      dup2\n      dup2\n      mstore\n        /* \"Delegate(copy)(copy)//contracts/DelegationRegistry.sol\":7136:7148  vaultVersion */\n      0x01\n        /* \"Delegate(copy)(copy)//contracts/DelegationRegistry.sol\":7136:7155  vaultVersion[vault] */\n      0x20\n      swap1\n      dup2\n      mstore\n      0x40\n      dup1\n      dup4\n      keccak256\n      sload\n        /* \"Delegate(copy)(copy)//contracts/DelegationRegistry.sol\":7192:7207  delegateVersion */\n      0x02\n        /* \"Delegate(copy)(copy)//contracts/DelegationRegistry.sol\":7192:7214  delegateVersion[vault] */\n      dup4\n      mstore\n      dup2\n      dup5\n      keccak256\n        /* \"Delegate(copy)(copy)//contracts/DelegationRegistry.sol\":7192:7224  delegateVersion[vault][delegate] */\n      swap6\n      swap1\n      swap7\n      and\n      dup1\n      dup5\n      mstore\n      swap5\n      dup3\n      mstore\n      swap2\n      dup3\n      swap1\n      keccak256\n      sload\n        /* \"Delegate(copy)(copy)//contracts/DelegationRegistry.sol\":7280:7340  abi.encode(delegate, vault, vaultVersion_, delegateVersion_) */\n      dup3\n      mload\n      dup1\n      dup4\n      add\n        /* \"#utility.yul\":10138:10189   */\n      swap6\n      swap1\n      swap6\n      mstore\n        /* \"#utility.yul\":10205:10223   */\n      dup5\n      dup4\n      add\n        /* \"#utility.yul\":10198:10258   */\n      swap4\n      swap1\n      swap4\n      mstore\n        /* \"#utility.yul\":10274:10292   */\n      0x60\n      dup5\n      add\n        /* \"#utility.yul\":10267:10301   */\n      swap5\n      swap1\n      swap5\n      mstore\n        /* \"#utility.yul\":10317:10335   */\n      0x80\n      dup1\n      dup5\n      add\n        /* \"#utility.yul\":10310:10344   */\n      swap3\n      swap1\n      swap3\n      mstore\n        /* \"Delegate(copy)(copy)//contracts/DelegationRegistry.sol\":7280:7340  abi.encode(delegate, vault, vaultVersion_, delegateVersion_) */\n      dup1\n      mload\n      dup1\n      dup5\n      sub\n      swap1\n      swap3\n      add\n      dup3\n      mstore\n        /* \"#utility.yul\":10110:10129   */\n      0xa0\n      swap1\n      swap3\n      add\n        /* \"Delegate(copy)(copy)//contracts/DelegationRegistry.sol\":7280:7340  abi.encode(delegate, vault, vaultVersion_, delegateVersion_) */\n      swap1\n      swap2\n      mstore\n        /* \"Delegate(copy)(copy)//contracts/DelegationRegistry.sol\":7253:7354  keccak256(... */\n      dup1\n      mload\n      swap2\n      add\n      keccak256\n      swap1\n        /* \"Delegate(copy)(copy)//contracts/DelegationRegistry.sol\":6980:7361  function _computeAllDelegationHash(... */\n      jump\t// out\n        /* \"Delegate(copy)(copy)//contracts/DelegationRegistry.sol\":8102:8695  function _computeTokenDelegationHash(... */\n    tag_160:\n      sub(shl(0xa0, 0x01), 0x01)\n        /* \"Delegate(copy)(copy)//contracts/DelegationRegistry.sol\":8312:8331  vaultVersion[vault] */\n      dup1\n      dup6\n      and\n        /* \"Delegate(copy)(copy)//contracts/DelegationRegistry.sol\":8269:8276  bytes32 */\n      0x00\n        /* \"Delegate(copy)(copy)//contracts/DelegationRegistry.sol\":8312:8331  vaultVersion[vault] */\n      swap1\n      dup2\n      mstore\n        /* \"Delegate(copy)(copy)//contracts/DelegationRegistry.sol\":8312:8324  vaultVersion */\n      0x01\n        /* \"Delegate(copy)(copy)//contracts/DelegationRegistry.sol\":8312:8331  vaultVersion[vault] */\n      0x20\n      swap1\n      dup2\n      mstore\n      0x40\n      dup1\n      dup4\n      keccak256\n      sload\n        /* \"Delegate(copy)(copy)//contracts/DelegationRegistry.sol\":8368:8383  delegateVersion */\n      0x02\n        /* \"Delegate(copy)(copy)//contracts/DelegationRegistry.sol\":8368:8390  delegateVersion[vault] */\n      dup4\n      mstore\n      dup2\n      dup5\n      keccak256\n        /* \"Delegate(copy)(copy)//contracts/DelegationRegistry.sol\":8368:8400  delegateVersion[vault][delegate] */\n      swap5\n      dup9\n      and\n      dup5\n      mstore\n      swap4\n      dup3\n      mstore\n      dup1\n      dup4\n      keccak256\n      sload\n        /* \"Delegate(copy)(copy)//contracts/DelegationRegistry.sol\":8456:8674  abi.encode(... */\n      swap1\n      mload\n        /* \"Delegate(copy)(copy)//contracts/DelegationRegistry.sol\":8269:8276  bytes32 */\n      swap3\n      swap4\n        /* \"Delegate(copy)(copy)//contracts/DelegationRegistry.sol\":8312:8331  vaultVersion[vault] */\n      swap3\n        /* \"Delegate(copy)(copy)//contracts/DelegationRegistry.sol\":8368:8400  delegateVersion[vault][delegate] */\n      swap1\n      swap2\n        /* \"Delegate(copy)(copy)//contracts/DelegationRegistry.sol\":8456:8674  abi.encode(... */\n      tag_326\n      swap2\n        /* \"Delegate(copy)(copy)//contracts/DelegationRegistry.sol\":8391:8399  delegate */\n      dup9\n      swap2\n        /* \"Delegate(copy)(copy)//contracts/DelegationRegistry.sol\":8325:8330  vault */\n      dup11\n      swap2\n        /* \"Delegate(copy)(copy)//contracts/DelegationRegistry.sol\":8545:8554  contract_ */\n      dup10\n      swap2\n        /* \"Delegate(copy)(copy)//contracts/DelegationRegistry.sol\":8576:8583  tokenId */\n      dup10\n      swap2\n        /* \"Delegate(copy)(copy)//contracts/DelegationRegistry.sol\":8312:8331  vaultVersion[vault] */\n      dup9\n      swap2\n        /* \"Delegate(copy)(copy)//contracts/DelegationRegistry.sol\":8368:8400  delegateVersion[vault][delegate] */\n      dup9\n      swap2\n        /* \"Delegate(copy)(copy)//contracts/DelegationRegistry.sol\":8456:8674  abi.encode(... */\n      add\n      tag_215\n      jump\t// in\n    tag_326:\n      mload(0x40)\n      0x20\n      dup2\n      dup4\n      sub\n      sub\n      dup2\n      mstore\n      swap1\n      0x40\n      mstore\n        /* \"Delegate(copy)(copy)//contracts/DelegationRegistry.sol\":8429:8688  keccak256(... */\n      dup1\n      mload\n      swap1\n      0x20\n      add\n      keccak256\n        /* \"Delegate(copy)(copy)//contracts/DelegationRegistry.sol\":8410:8688  return... */\n      swap3\n      pop\n      pop\n      pop\n        /* \"Delegate(copy)(copy)//contracts/DelegationRegistry.sol\":8102:8695  function _computeTokenDelegationHash(... */\n      swap5\n      swap4\n      pop\n      pop\n      pop\n      pop\n      jump\t// out\n        /* \"Delegate/@openzeppelin/contracts/utils/structs/EnumerableSet.sol\":7689:7827  function contains(Bytes32Set storage set, bytes32 value) internal view returns (bool) {... */\n    tag_205:\n        /* \"Delegate/@openzeppelin/contracts/utils/structs/EnumerableSet.sol\":7769:7773  bool */\n      0x00\n        /* \"Delegate/@openzeppelin/contracts/utils/structs/EnumerableSet.sol\":5620:5639  set._indexes[value] */\n      dup2\n      dup2\n      mstore\n        /* \"Delegate/@openzeppelin/contracts/utils/structs/EnumerableSet.sol\":5620:5632  set._indexes */\n      0x01\n      dup4\n      add\n        /* \"Delegate/@openzeppelin/contracts/utils/structs/EnumerableSet.sol\":5620:5639  set._indexes[value] */\n      0x20\n      mstore\n      0x40\n      dup2\n      keccak256\n      sload\n        /* \"Delegate/@openzeppelin/contracts/utils/structs/EnumerableSet.sol\":5620:5644  set._indexes[value] != 0 */\n      iszero\n      iszero\n        /* \"Delegate/@openzeppelin/contracts/utils/structs/EnumerableSet.sol\":7792:7820  _contains(set._inner, value) */\n      tag_221\n        /* \"Delegate/@openzeppelin/contracts/utils/structs/EnumerableSet.sol\":5524:5651  function _contains(Set storage set, bytes32 value) private view returns (bool) {... */\n      jump\n        /* \"Delegate/@openzeppelin/contracts/utils/structs/EnumerableSet.sol\":7188:7311  function add(Bytes32Set storage set, bytes32 value) internal returns (bool) {... */\n    tag_307:\n        /* \"Delegate/@openzeppelin/contracts/utils/structs/EnumerableSet.sol\":7258:7262  bool */\n      0x00\n        /* \"Delegate/@openzeppelin/contracts/utils/structs/EnumerableSet.sol\":7281:7304  _add(set._inner, value) */\n      tag_221\n        /* \"Delegate/@openzeppelin/contracts/utils/structs/EnumerableSet.sol\":7286:7289  set */\n      dup4\n        /* \"Delegate/@openzeppelin/contracts/utils/structs/EnumerableSet.sol\":7298:7303  value */\n      dup4\n        /* \"Delegate/@openzeppelin/contracts/utils/structs/EnumerableSet.sol\":7281:7285  _add */\n      tag_332\n        /* \"Delegate/@openzeppelin/contracts/utils/structs/EnumerableSet.sol\":7281:7304  _add(set._inner, value) */\n      jump\t// in\n        /* \"Delegate/@openzeppelin/contracts/utils/structs/EnumerableSet.sol\":7479:7608  function remove(Bytes32Set storage set, bytes32 value) internal returns (bool) {... */\n    tag_315:\n        /* \"Delegate/@openzeppelin/contracts/utils/structs/EnumerableSet.sol\":7552:7556  bool */\n      0x00\n        /* \"Delegate/@openzeppelin/contracts/utils/structs/EnumerableSet.sol\":7575:7601  _remove(set._inner, value) */\n      tag_221\n        /* \"Delegate/@openzeppelin/contracts/utils/structs/EnumerableSet.sol\":7583:7586  set */\n      dup4\n        /* \"Delegate/@openzeppelin/contracts/utils/structs/EnumerableSet.sol\":7595:7600  value */\n      dup4\n        /* \"Delegate/@openzeppelin/contracts/utils/structs/EnumerableSet.sol\":7575:7582  _remove */\n      tag_335\n        /* \"Delegate/@openzeppelin/contracts/utils/structs/EnumerableSet.sol\":7575:7601  _remove(set._inner, value) */\n      jump\t// in\n        /* \"Delegate/@openzeppelin/contracts/utils/structs/EnumerableSet.sol\":6181:6299  function _at(Set storage set, uint256 index) private view returns (bytes32) {... */\n    tag_322:\n        /* \"Delegate/@openzeppelin/contracts/utils/structs/EnumerableSet.sol\":6248:6255  bytes32 */\n      0x00\n        /* \"Delegate/@openzeppelin/contracts/utils/structs/EnumerableSet.sol\":6274:6277  set */\n      dup3\n        /* \"Delegate/@openzeppelin/contracts/utils/structs/EnumerableSet.sol\":6274:6285  set._values */\n      0x00\n      add\n        /* \"Delegate/@openzeppelin/contracts/utils/structs/EnumerableSet.sol\":6286:6291  index */\n      dup3\n        /* \"Delegate/@openzeppelin/contracts/utils/structs/EnumerableSet.sol\":6274:6292  set._values[index] */\n      dup2\n      sload\n      dup2\n      lt\n      tag_339\n      jumpi\n      tag_339\n      tag_166\n      jump\t// in\n    tag_339:\n      swap1\n      0x00\n      mstore\n      keccak256(0x00, 0x20)\n      add\n      sload\n        /* \"Delegate/@openzeppelin/contracts/utils/structs/EnumerableSet.sol\":6267:6292  return set._values[index] */\n      swap1\n      pop\n        /* \"Delegate/@openzeppelin/contracts/utils/structs/EnumerableSet.sol\":6181:6299  function _at(Set storage set, uint256 index) private view returns (bytes32) {... */\n      swap3\n      swap2\n      pop\n      pop\n      jump\t// out\n        /* \"Delegate/@openzeppelin/contracts/utils/structs/EnumerableSet.sol\":3483:3887  function _add(Set storage set, bytes32 value) private returns (bool) {... */\n    tag_332:\n        /* \"Delegate/@openzeppelin/contracts/utils/structs/EnumerableSet.sol\":3546:3550  bool */\n      0x00\n        /* \"Delegate/@openzeppelin/contracts/utils/structs/EnumerableSet.sol\":5620:5639  set._indexes[value] */\n      dup2\n      dup2\n      mstore\n        /* \"Delegate/@openzeppelin/contracts/utils/structs/EnumerableSet.sol\":5620:5632  set._indexes */\n      0x01\n      dup4\n      add\n        /* \"Delegate/@openzeppelin/contracts/utils/structs/EnumerableSet.sol\":5620:5639  set._indexes[value] */\n      0x20\n      mstore\n      0x40\n      dup2\n      keccak256\n      sload\n        /* \"Delegate/@openzeppelin/contracts/utils/structs/EnumerableSet.sol\":3562:3881  if (!_contains(set, value)) {... */\n      tag_344\n      jumpi\n      pop\n        /* \"Delegate/@openzeppelin/contracts/utils/structs/EnumerableSet.sol\":3604:3627  set._values.push(value) */\n      dup2\n      sload\n      0x01\n      dup2\n      dup2\n      add\n      dup5\n      sstore\n        /* \"Delegate/@openzeppelin/contracts/utils/structs/EnumerableSet.sol\":3604:3615  set._values */\n      0x00\n        /* \"Delegate/@openzeppelin/contracts/utils/structs/EnumerableSet.sol\":3604:3627  set._values.push(value) */\n      dup5\n      dup2\n      mstore\n      0x20\n      dup1\n      dup3\n      keccak256\n      swap1\n      swap4\n      add\n      dup5\n      swap1\n      sstore\n        /* \"Delegate/@openzeppelin/contracts/utils/structs/EnumerableSet.sol\":3784:3802  set._values.length */\n      dup5\n      sload\n        /* \"Delegate/@openzeppelin/contracts/utils/structs/EnumerableSet.sol\":3762:3781  set._indexes[value] */\n      dup5\n      dup3\n      mstore\n        /* \"Delegate/@openzeppelin/contracts/utils/structs/EnumerableSet.sol\":3762:3774  set._indexes */\n      dup3\n      dup7\n      add\n        /* \"Delegate/@openzeppelin/contracts/utils/structs/EnumerableSet.sol\":3762:3781  set._indexes[value] */\n      swap1\n      swap4\n      mstore\n      0x40\n      swap1\n      keccak256\n        /* \"Delegate/@openzeppelin/contracts/utils/structs/EnumerableSet.sol\":3762:3802  set._indexes[value] = set._values.length */\n      swap2\n      swap1\n      swap2\n      sstore\n        /* \"Delegate/@openzeppelin/contracts/utils/structs/EnumerableSet.sol\":3816:3827  return true */\n      jump(tag_95)\n        /* \"Delegate/@openzeppelin/contracts/utils/structs/EnumerableSet.sol\":3562:3881  if (!_contains(set, value)) {... */\n    tag_344:\n      pop\n        /* \"Delegate/@openzeppelin/contracts/utils/structs/EnumerableSet.sol\":3865:3870  false */\n      0x00\n        /* \"Delegate/@openzeppelin/contracts/utils/structs/EnumerableSet.sol\":3858:3870  return false */\n      jump(tag_95)\n        /* \"Delegate/@openzeppelin/contracts/utils/structs/EnumerableSet.sol\":4055:5443  function _remove(Set storage set, bytes32 value) private returns (bool) {... */\n    tag_335:\n        /* \"Delegate/@openzeppelin/contracts/utils/structs/EnumerableSet.sol\":4121:4125  bool */\n      0x00\n        /* \"Delegate/@openzeppelin/contracts/utils/structs/EnumerableSet.sol\":4258:4277  set._indexes[value] */\n      dup2\n      dup2\n      mstore\n        /* \"Delegate/@openzeppelin/contracts/utils/structs/EnumerableSet.sol\":4258:4270  set._indexes */\n      0x01\n      dup4\n      add\n        /* \"Delegate/@openzeppelin/contracts/utils/structs/EnumerableSet.sol\":4258:4277  set._indexes[value] */\n      0x20\n      mstore\n      0x40\n      dup2\n      keccak256\n      sload\n        /* \"Delegate/@openzeppelin/contracts/utils/structs/EnumerableSet.sol\":4292:4307  valueIndex != 0 */\n      dup1\n      iszero\n        /* \"Delegate/@openzeppelin/contracts/utils/structs/EnumerableSet.sol\":4288:5437  if (valueIndex != 0) {... */\n      tag_348\n      jumpi\n        /* \"Delegate/@openzeppelin/contracts/utils/structs/EnumerableSet.sol\":4661:4682  uint256 toDeleteIndex */\n      0x00\n        /* \"Delegate/@openzeppelin/contracts/utils/structs/EnumerableSet.sol\":4685:4699  valueIndex - 1 */\n      tag_349\n        /* \"Delegate/@openzeppelin/contracts/utils/structs/EnumerableSet.sol\":4698:4699  1 */\n      0x01\n        /* \"Delegate/@openzeppelin/contracts/utils/structs/EnumerableSet.sol\":4685:4695  valueIndex */\n      dup4\n        /* \"Delegate/@openzeppelin/contracts/utils/structs/EnumerableSet.sol\":4685:4699  valueIndex - 1 */\n      tag_350\n      jump\t// in\n    tag_349:\n        /* \"Delegate/@openzeppelin/contracts/utils/structs/EnumerableSet.sol\":4733:4751  set._values.length */\n      dup6\n      sload\n        /* \"Delegate/@openzeppelin/contracts/utils/structs/EnumerableSet.sol\":4661:4699  uint256 toDeleteIndex = valueIndex - 1 */\n      swap1\n      swap2\n      pop\n        /* \"Delegate/@openzeppelin/contracts/utils/structs/EnumerableSet.sol\":4713:4730  uint256 lastIndex */\n      0x00\n      swap1\n        /* \"Delegate/@openzeppelin/contracts/utils/structs/EnumerableSet.sol\":4733:4755  set._values.length - 1 */\n      tag_351\n      swap1\n        /* \"Delegate/@openzeppelin/contracts/utils/structs/EnumerableSet.sol\":4754:4755  1 */\n      0x01\n      swap1\n        /* \"Delegate/@openzeppelin/contracts/utils/structs/EnumerableSet.sol\":4733:4755  set._values.length - 1 */\n      tag_350\n      jump\t// in\n    tag_351:\n        /* \"Delegate/@openzeppelin/contracts/utils/structs/EnumerableSet.sol\":4713:4755  uint256 lastIndex = set._values.length - 1 */\n      swap1\n      pop\n        /* \"Delegate/@openzeppelin/contracts/utils/structs/EnumerableSet.sol\":4787:4800  toDeleteIndex */\n      dup2\n        /* \"Delegate/@openzeppelin/contracts/utils/structs/EnumerableSet.sol\":4774:4783  lastIndex */\n      dup2\n        /* \"Delegate/@openzeppelin/contracts/utils/structs/EnumerableSet.sol\":4774:4800  lastIndex != toDeleteIndex */\n      eq\n        /* \"Delegate/@openzeppelin/contracts/utils/structs/EnumerableSet.sol\":4770:5168  if (lastIndex != toDeleteIndex) {... */\n      tag_352\n      jumpi\n        /* \"Delegate/@openzeppelin/contracts/utils/structs/EnumerableSet.sol\":4820:4837  bytes32 lastValue */\n      0x00\n        /* \"Delegate/@openzeppelin/contracts/utils/structs/EnumerableSet.sol\":4840:4843  set */\n      dup7\n        /* \"Delegate/@openzeppelin/contracts/utils/structs/EnumerableSet.sol\":4840:4851  set._values */\n      0x00\n      add\n        /* \"Delegate/@openzeppelin/contracts/utils/structs/EnumerableSet.sol\":4852:4861  lastIndex */\n      dup3\n        /* \"Delegate/@openzeppelin/contracts/utils/structs/EnumerableSet.sol\":4840:4862  set._values[lastIndex] */\n      dup2\n      sload\n      dup2\n      lt\n      tag_354\n      jumpi\n      tag_354\n      tag_166\n      jump\t// in\n    tag_354:\n      swap1\n      0x00\n      mstore\n      keccak256(0x00, 0x20)\n      add\n      sload\n        /* \"Delegate/@openzeppelin/contracts/utils/structs/EnumerableSet.sol\":4820:4862  bytes32 lastValue = set._values[lastIndex] */\n      swap1\n      pop\n        /* \"Delegate/@openzeppelin/contracts/utils/structs/EnumerableSet.sol\":4991:5000  lastValue */\n      dup1\n        /* \"Delegate/@openzeppelin/contracts/utils/structs/EnumerableSet.sol\":4962:4965  set */\n      dup8\n        /* \"Delegate/@openzeppelin/contracts/utils/structs/EnumerableSet.sol\":4962:4973  set._values */\n      0x00\n      add\n        /* \"Delegate/@openzeppelin/contracts/utils/structs/EnumerableSet.sol\":4974:4987  toDeleteIndex */\n      dup5\n        /* \"Delegate/@openzeppelin/contracts/utils/structs/EnumerableSet.sol\":4962:4988  set._values[toDeleteIndex] */\n      dup2\n      sload\n      dup2\n      lt\n      tag_357\n      jumpi\n      tag_357\n      tag_166\n      jump\t// in\n    tag_357:\n      0x00\n      swap2\n      dup3\n      mstore\n      0x20\n      dup1\n      dup4\n      keccak256\n      swap1\n      swap2\n      add\n        /* \"Delegate/@openzeppelin/contracts/utils/structs/EnumerableSet.sol\":4962:5000  set._values[toDeleteIndex] = lastValue */\n      swap3\n      swap1\n      swap3\n      sstore\n        /* \"Delegate/@openzeppelin/contracts/utils/structs/EnumerableSet.sol\":5074:5097  set._indexes[lastValue] */\n      swap2\n      dup3\n      mstore\n        /* \"Delegate/@openzeppelin/contracts/utils/structs/EnumerableSet.sol\":5074:5086  set._indexes */\n      0x01\n      dup9\n      add\n        /* \"Delegate/@openzeppelin/contracts/utils/structs/EnumerableSet.sol\":5074:5097  set._indexes[lastValue] */\n      swap1\n      mstore\n      0x40\n      swap1\n      keccak256\n        /* \"Delegate/@openzeppelin/contracts/utils/structs/EnumerableSet.sol\":5074:5110  set._indexes[lastValue] = valueIndex */\n      dup4\n      swap1\n      sstore\n        /* \"Delegate/@openzeppelin/contracts/utils/structs/EnumerableSet.sol\":4770:5168  if (lastIndex != toDeleteIndex) {... */\n    tag_352:\n        /* \"Delegate/@openzeppelin/contracts/utils/structs/EnumerableSet.sol\":5246:5263  set._values.pop() */\n      dup6\n      sload\n        /* \"Delegate/@openzeppelin/contracts/utils/structs/EnumerableSet.sol\":5246:5249  set */\n      dup7\n      swap1\n        /* \"Delegate/@openzeppelin/contracts/utils/structs/EnumerableSet.sol\":5246:5263  set._values.pop() */\n      dup1\n      tag_360\n      jumpi\n      tag_360\n      tag_361\n      jump\t// in\n    tag_360:\n      0x01\n      swap1\n      sub\n      dup2\n      dup2\n      swap1\n      0x00\n      mstore\n      keccak256(0x00, 0x20)\n      add\n      0x00\n      swap1\n      sstore\n      swap1\n      sstore\n        /* \"Delegate/@openzeppelin/contracts/utils/structs/EnumerableSet.sol\":5338:5341  set */\n      dup6\n        /* \"Delegate/@openzeppelin/contracts/utils/structs/EnumerableSet.sol\":5338:5350  set._indexes */\n      0x01\n      add\n        /* \"Delegate/@openzeppelin/contracts/utils/structs/EnumerableSet.sol\":5338:5357  set._indexes[value] */\n      0x00\n        /* \"Delegate/@openzeppelin/contracts/utils/structs/EnumerableSet.sol\":5351:5356  value */\n      dup7\n        /* \"Delegate/@openzeppelin/contracts/utils/structs/EnumerableSet.sol\":5338:5357  set._indexes[value] */\n      dup2\n      mstore\n      0x20\n      add\n      swap1\n      dup2\n      mstore\n      0x20\n      add\n      0x00\n      keccak256\n        /* \"Delegate/@openzeppelin/contracts/utils/structs/EnumerableSet.sol\":5331:5357  delete set._indexes[value] */\n      0x00\n      swap1\n      sstore\n        /* \"Delegate/@openzeppelin/contracts/utils/structs/EnumerableSet.sol\":5379:5383  true */\n      0x01\n        /* \"Delegate/@openzeppelin/contracts/utils/structs/EnumerableSet.sol\":5372:5383  return true */\n      swap4\n      pop\n      pop\n      pop\n      pop\n      jump(tag_95)\n        /* \"Delegate/@openzeppelin/contracts/utils/structs/EnumerableSet.sol\":4288:5437  if (valueIndex != 0) {... */\n    tag_348:\n        /* \"Delegate/@openzeppelin/contracts/utils/structs/EnumerableSet.sol\":5421:5426  false */\n      0x00\n        /* \"Delegate/@openzeppelin/contracts/utils/structs/EnumerableSet.sol\":5414:5426  return false */\n      swap2\n      pop\n      pop\n      jump(tag_95)\n        /* \"#utility.yul\":14:300   */\n    tag_24:\n        /* \"#utility.yul\":72:78   */\n      0x00\n        /* \"#utility.yul\":125:127   */\n      0x20\n        /* \"#utility.yul\":113:122   */\n      dup3\n        /* \"#utility.yul\":104:111   */\n      dup5\n        /* \"#utility.yul\":100:123   */\n      sub\n        /* \"#utility.yul\":96:128   */\n      slt\n        /* \"#utility.yul\":93:145   */\n      iszero\n      tag_371\n      jumpi\n        /* \"#utility.yul\":141:142   */\n      0x00\n        /* \"#utility.yul\":138:139   */\n      0x00\n        /* \"#utility.yul\":131:143   */\n      revert\n        /* \"#utility.yul\":93:145   */\n    tag_371:\n        /* \"#utility.yul\":167:190   */\n      dup2\n      calldataload\n      not(sub(shl(0xe0, 0x01), 0x01))\n        /* \"#utility.yul\":219:251   */\n      dup2\n      and\n        /* \"#utility.yul\":209:252   */\n      dup2\n      eq\n        /* \"#utility.yul\":199:270   */\n      tag_221\n      jumpi\n        /* \"#utility.yul\":266:267   */\n      0x00\n        /* \"#utility.yul\":263:264   */\n      0x00\n        /* \"#utility.yul\":256:268   */\n      revert\n        /* \"#utility.yul\":497:670   */\n    tag_366:\n        /* \"#utility.yul\":565:585   */\n      dup1\n      calldataload\n      sub(shl(0xa0, 0x01), 0x01)\n        /* \"#utility.yul\":614:645   */\n      dup2\n      and\n        /* \"#utility.yul\":604:646   */\n      dup2\n      eq\n        /* \"#utility.yul\":594:664   */\n      tag_375\n      jumpi\n        /* \"#utility.yul\":660:661   */\n      0x00\n        /* \"#utility.yul\":657:658   */\n      0x00\n        /* \"#utility.yul\":650:662   */\n      revert\n        /* \"#utility.yul\":594:664   */\n    tag_375:\n        /* \"#utility.yul\":497:670   */\n      swap2\n      swap1\n      pop\n      jump\t// out\n        /* \"#utility.yul\":675:1049   */\n    tag_30:\n        /* \"#utility.yul\":752:758   */\n      0x00\n        /* \"#utility.yul\":760:766   */\n      0x00\n        /* \"#utility.yul\":768:774   */\n      0x00\n        /* \"#utility.yul\":821:823   */\n      0x60\n        /* \"#utility.yul\":809:818   */\n      dup5\n        /* \"#utility.yul\":800:807   */\n      dup7\n        /* \"#utility.yul\":796:819   */\n      sub\n        /* \"#utility.yul\":792:824   */\n      slt\n        /* \"#utility.yul\":789:841   */\n      iszero\n      tag_377\n      jumpi\n        /* \"#utility.yul\":837:838   */\n      0x00\n        /* \"#utility.yul\":834:835   */\n      0x00\n        /* \"#utility.yul\":827:839   */\n      revert\n        /* \"#utility.yul\":789:841   */\n    tag_377:\n        /* \"#utility.yul\":860:889   */\n      tag_378\n        /* \"#utility.yul\":879:888   */\n      dup5\n        /* \"#utility.yul\":860:889   */\n      tag_366\n      jump\t// in\n    tag_378:\n        /* \"#utility.yul\":850:889   */\n      swap3\n      pop\n        /* \"#utility.yul\":908:946   */\n      tag_379\n        /* \"#utility.yul\":942:944   */\n      0x20\n        /* \"#utility.yul\":931:940   */\n      dup6\n        /* \"#utility.yul\":927:945   */\n      add\n        /* \"#utility.yul\":908:946   */\n      tag_366\n      jump\t// in\n    tag_379:\n        /* \"#utility.yul\":675:1049   */\n      swap3\n      swap6\n        /* \"#utility.yul\":898:946   */\n      swap3\n      swap5\n      pop\n      pop\n      pop\n        /* \"#utility.yul\":1015:1017   */\n      0x40\n        /* \"#utility.yul\":1000:1018   */\n      swap2\n      swap1\n      swap2\n      add\n        /* \"#utility.yul\":987:1019   */\n      calldataload\n      swap1\n        /* \"#utility.yul\":675:1049   */\n      jump\t// out\n        /* \"#utility.yul\":1054:1691   */\n    tag_33:\n        /* \"#utility.yul\":1244:1246   */\n      0x20\n        /* \"#utility.yul\":1256:1277   */\n      dup1\n      dup3\n      mstore\n        /* \"#utility.yul\":1326:1339   */\n      dup3\n      mload\n        /* \"#utility.yul\":1229:1247   */\n      dup3\n      dup3\n      add\n        /* \"#utility.yul\":1348:1370   */\n      dup2\n      swap1\n      mstore\n        /* \"#utility.yul\":1196:1200   */\n      0x00\n      swap2\n        /* \"#utility.yul\":1427:1442   */\n      dup5\n      add\n      swap1\n        /* \"#utility.yul\":1401:1403   */\n      0x40\n        /* \"#utility.yul\":1386:1404   */\n      dup5\n      add\n      swap1\n        /* \"#utility.yul\":1196:1200   */\n      dup4\n        /* \"#utility.yul\":1470:1665   */\n    tag_381:\n        /* \"#utility.yul\":1484:1490   */\n      dup2\n        /* \"#utility.yul\":1481:1482   */\n      dup2\n        /* \"#utility.yul\":1478:1491   */\n      lt\n        /* \"#utility.yul\":1470:1665   */\n      iszero\n      tag_383\n      jumpi\n        /* \"#utility.yul\":1549:1562   */\n      dup4\n      mload\n      sub(shl(0xa0, 0x01), 0x01)\n        /* \"#utility.yul\":1545:1584   */\n      and\n        /* \"#utility.yul\":1533:1585   */\n      dup4\n      mstore\n        /* \"#utility.yul\":1614:1616   */\n      0x20\n        /* \"#utility.yul\":1640:1655   */\n      swap4\n      dup5\n      add\n      swap4\n        /* \"#utility.yul\":1605:1617   */\n      swap1\n      swap3\n      add\n      swap2\n        /* \"#utility.yul\":1581:1582   */\n      0x01\n        /* \"#utility.yul\":1499:1508   */\n      add\n        /* \"#utility.yul\":1470:1665   */\n      jump(tag_381)\n    tag_383:\n      pop\n        /* \"#utility.yul\":1682:1685   */\n      swap1\n      swap6\n        /* \"#utility.yul\":1054:1691   */\n      swap5\n      pop\n      pop\n      pop\n      pop\n      pop\n      jump\t// out\n        /* \"#utility.yul\":1696:1882   */\n    tag_36:\n        /* \"#utility.yul\":1755:1761   */\n      0x00\n        /* \"#utility.yul\":1808:1810   */\n      0x20\n        /* \"#utility.yul\":1796:1805   */\n      dup3\n        /* \"#utility.yul\":1787:1794   */\n      dup5\n        /* \"#utility.yul\":1783:1806   */\n      sub\n        /* \"#utility.yul\":1779:1811   */\n      slt\n        /* \"#utility.yul\":1776:1828   */\n      iszero\n      tag_385\n      jumpi\n        /* \"#utility.yul\":1824:1825   */\n      0x00\n        /* \"#utility.yul\":1821:1822   */\n      0x00\n        /* \"#utility.yul\":1814:1826   */\n      revert\n        /* \"#utility.yul\":1776:1828   */\n    tag_385:\n        /* \"#utility.yul\":1847:1876   */\n      tag_221\n        /* \"#utility.yul\":1866:1875   */\n      dup3\n        /* \"#utility.yul\":1847:1876   */\n      tag_366\n      jump\t// in\n        /* \"#utility.yul\":1887:2047   */\n    tag_367:\n        /* \"#utility.yul\":1952:1972   */\n      dup1\n      calldataload\n        /* \"#utility.yul\":2008:2021   */\n      dup1\n      iszero\n        /* \"#utility.yul\":2001:2022   */\n      iszero\n        /* \"#utility.yul\":1991:2023   */\n      dup2\n      eq\n        /* \"#utility.yul\":1981:2041   */\n      tag_375\n      jumpi\n        /* \"#utility.yul\":2037:2038   */\n      0x00\n        /* \"#utility.yul\":2034:2035   */\n      0x00\n        /* \"#utility.yul\":2027:2039   */\n      revert\n        /* \"#utility.yul\":2052:2380   */\n    tag_46:\n        /* \"#utility.yul\":2126:2132   */\n      0x00\n        /* \"#utility.yul\":2134:2140   */\n      0x00\n        /* \"#utility.yul\":2142:2148   */\n      0x00\n        /* \"#utility.yul\":2195:2197   */\n      0x60\n        /* \"#utility.yul\":2183:2192   */\n      dup5\n        /* \"#utility.yul\":2174:2181   */\n      dup7\n        /* \"#utility.yul\":2170:2193   */\n      sub\n        /* \"#utility.yul\":2166:2198   */\n      slt\n        /* \"#utility.yul\":2163:2215   */\n      iszero\n      tag_390\n      jumpi\n        /* \"#utility.yul\":2211:2212   */\n      0x00\n        /* \"#utility.yul\":2208:2209   */\n      0x00\n        /* \"#utility.yul\":2201:2213   */\n      revert\n        /* \"#utility.yul\":2163:2215   */\n    tag_390:\n        /* \"#utility.yul\":2234:2263   */\n      tag_391\n        /* \"#utility.yul\":2253:2262   */\n      dup5\n        /* \"#utility.yul\":2234:2263   */\n      tag_366\n      jump\t// in\n    tag_391:\n        /* \"#utility.yul\":2224:2263   */\n      swap3\n      pop\n        /* \"#utility.yul\":2282:2320   */\n      tag_392\n        /* \"#utility.yul\":2316:2318   */\n      0x20\n        /* \"#utility.yul\":2305:2314   */\n      dup6\n        /* \"#utility.yul\":2301:2319   */\n      add\n        /* \"#utility.yul\":2282:2320   */\n      tag_366\n      jump\t// in\n    tag_392:\n        /* \"#utility.yul\":2272:2320   */\n      swap2\n      pop\n        /* \"#utility.yul\":2339:2374   */\n      tag_393\n        /* \"#utility.yul\":2370:2372   */\n      0x40\n        /* \"#utility.yul\":2359:2368   */\n      dup6\n        /* \"#utility.yul\":2355:2373   */\n      add\n        /* \"#utility.yul\":2339:2374   */\n      tag_367\n      jump\t// in\n    tag_393:\n        /* \"#utility.yul\":2329:2374   */\n      swap1\n      pop\n        /* \"#utility.yul\":2052:2380   */\n      swap3\n      pop\n      swap3\n      pop\n      swap3\n      jump\t// out\n        /* \"#utility.yul\":2385:2512   */\n    tag_134:\n        /* \"#utility.yul\":2446:2456   */\n      0x4e487b71\n        /* \"#utility.yul\":2441:2444   */\n      0xe0\n        /* \"#utility.yul\":2437:2457   */\n      shl\n        /* \"#utility.yul\":2434:2435   */\n      0x00\n        /* \"#utility.yul\":2427:2458   */\n      mstore\n        /* \"#utility.yul\":2477:2481   */\n      0x21\n        /* \"#utility.yul\":2474:2475   */\n      0x04\n        /* \"#utility.yul\":2467:2482   */\n      mstore\n        /* \"#utility.yul\":2501:2505   */\n      0x24\n        /* \"#utility.yul\":2498:2499   */\n      0x00\n        /* \"#utility.yul\":2491:2506   */\n      revert\n        /* \"#utility.yul\":2517:3722   */\n    tag_52:\n        /* \"#utility.yul\":2771:2773   */\n      0x20\n        /* \"#utility.yul\":2783:2804   */\n      dup1\n      dup3\n      mstore\n        /* \"#utility.yul\":2853:2866   */\n      dup3\n      mload\n        /* \"#utility.yul\":2756:2774   */\n      dup3\n      dup3\n      add\n        /* \"#utility.yul\":2875:2897   */\n      dup2\n      swap1\n      mstore\n        /* \"#utility.yul\":2723:2727   */\n      0x00\n      swap2\n        /* \"#utility.yul\":2954:2969   */\n      dup5\n      add\n      swap1\n        /* \"#utility.yul\":2928:2930   */\n      0x40\n        /* \"#utility.yul\":2913:2931   */\n      dup5\n      add\n      swap1\n        /* \"#utility.yul\":2723:2727   */\n      dup4\n        /* \"#utility.yul\":2997:3696   */\n    tag_396:\n        /* \"#utility.yul\":3011:3017   */\n      dup2\n        /* \"#utility.yul\":3008:3009   */\n      dup2\n        /* \"#utility.yul\":3005:3018   */\n      lt\n        /* \"#utility.yul\":2997:3696   */\n      iszero\n      tag_383\n      jumpi\n        /* \"#utility.yul\":3076:3082   */\n      dup4\n        /* \"#utility.yul\":3070:3083   */\n      mload\n        /* \"#utility.yul\":3112:3114   */\n      dup1\n        /* \"#utility.yul\":3106:3115   */\n      mload\n        /* \"#utility.yul\":3145:3146   */\n      0x04\n        /* \"#utility.yul\":3141:3143   */\n      dup2\n        /* \"#utility.yul\":3138:3147   */\n      lt\n        /* \"#utility.yul\":3128:3288   */\n      tag_399\n      jumpi\n        /* \"#utility.yul\":3198:3208   */\n      0x4e487b71\n        /* \"#utility.yul\":3193:3196   */\n      0xe0\n        /* \"#utility.yul\":3189:3209   */\n      shl\n        /* \"#utility.yul\":3186:3187   */\n      0x00\n        /* \"#utility.yul\":3179:3210   */\n      mstore\n        /* \"#utility.yul\":3237:3241   */\n      0x21\n        /* \"#utility.yul\":3234:3235   */\n      0x04\n        /* \"#utility.yul\":3227:3242   */\n      mstore\n        /* \"#utility.yul\":3269:3273   */\n      0x24\n        /* \"#utility.yul\":3266:3267   */\n      0x00\n        /* \"#utility.yul\":3259:3274   */\n      revert\n        /* \"#utility.yul\":3128:3288   */\n    tag_399:\n        /* \"#utility.yul\":3301:3316   */\n      dup5\n      mstore\n        /* \"#utility.yul\":3368:3370   */\n      0x20\n        /* \"#utility.yul\":3360:3371   */\n      dup2\n      dup2\n      add\n        /* \"#utility.yul\":3354:3372   */\n      mload\n      sub(shl(0xa0, 0x01), 0x01)\n        /* \"#utility.yul\":3350:3394   */\n      swap1\n      dup2\n      and\n        /* \"#utility.yul\":3336:3348   */\n      dup3\n      dup8\n      add\n        /* \"#utility.yul\":3329:3395   */\n      mstore\n        /* \"#utility.yul\":3447:3449   */\n      0x40\n        /* \"#utility.yul\":3439:3450   */\n      dup1\n      dup5\n      add\n        /* \"#utility.yul\":3433:3451   */\n      mload\n        /* \"#utility.yul\":3429:3473   */\n      dup3\n      and\n        /* \"#utility.yul\":3415:3427   */\n      swap1\n      dup8\n      add\n        /* \"#utility.yul\":3408:3474   */\n      mstore\n        /* \"#utility.yul\":3528:3532   */\n      0x60\n        /* \"#utility.yul\":3520:3533   */\n      dup1\n      dup5\n      add\n        /* \"#utility.yul\":3514:3534   */\n      mload\n        /* \"#utility.yul\":3510:3556   */\n      swap1\n      swap2\n      and\n        /* \"#utility.yul\":3494:3508   */\n      swap1\n      dup7\n      add\n        /* \"#utility.yul\":3487:3557   */\n      mstore\n        /* \"#utility.yul\":3607:3611   */\n      0x80\n        /* \"#utility.yul\":3599:3612   */\n      swap2\n      dup3\n      add\n        /* \"#utility.yul\":3593:3613   */\n      mload\n        /* \"#utility.yul\":3577:3591   */\n      swap2\n      dup6\n      add\n        /* \"#utility.yul\":3570:3614   */\n      swap2\n      swap1\n      swap2\n      mstore\n        /* \"#utility.yul\":3671:3686   */\n      swap4\n      swap1\n      swap4\n      add\n      swap3\n        /* \"#utility.yul\":3382:3385   */\n      0xa0\n        /* \"#utility.yul\":3634:3648   */\n      swap1\n      swap3\n      add\n      swap2\n        /* \"#utility.yul\":3391:3392   */\n      0x01\n        /* \"#utility.yul\":3026:3035   */\n      add\n        /* \"#utility.yul\":2997:3696   */\n      jump(tag_396)\n        /* \"#utility.yul\":3727:4170   */\n    tag_55:\n        /* \"#utility.yul\":3810:3816   */\n      0x00\n        /* \"#utility.yul\":3818:3824   */\n      0x00\n        /* \"#utility.yul\":3826:3832   */\n      0x00\n        /* \"#utility.yul\":3834:3840   */\n      0x00\n        /* \"#utility.yul\":3887:3890   */\n      0x80\n        /* \"#utility.yul\":3875:3884   */\n      dup6\n        /* \"#utility.yul\":3866:3873   */\n      dup8\n        /* \"#utility.yul\":3862:3885   */\n      sub\n        /* \"#utility.yul\":3858:3891   */\n      slt\n        /* \"#utility.yul\":3855:3908   */\n      iszero\n      tag_401\n      jumpi\n        /* \"#utility.yul\":3904:3905   */\n      0x00\n        /* \"#utility.yul\":3901:3902   */\n      0x00\n        /* \"#utility.yul\":3894:3906   */\n      revert\n        /* \"#utility.yul\":3855:3908   */\n    tag_401:\n        /* \"#utility.yul\":3927:3956   */\n      tag_402\n        /* \"#utility.yul\":3946:3955   */\n      dup6\n        /* \"#utility.yul\":3927:3956   */\n      tag_366\n      jump\t// in\n    tag_402:\n        /* \"#utility.yul\":3917:3956   */\n      swap4\n      pop\n        /* \"#utility.yul\":3975:4013   */\n      tag_403\n        /* \"#utility.yul\":4009:4011   */\n      0x20\n        /* \"#utility.yul\":3998:4007   */\n      dup7\n        /* \"#utility.yul\":3994:4012   */\n      add\n        /* \"#utility.yul\":3975:4013   */\n      tag_366\n      jump\t// in\n    tag_403:\n        /* \"#utility.yul\":3965:4013   */\n      swap3\n      pop\n        /* \"#utility.yul\":4082:4084   */\n      0x40\n        /* \"#utility.yul\":4067:4085   */\n      dup6\n      add\n        /* \"#utility.yul\":4054:4086   */\n      calldataload\n      swap2\n      pop\n        /* \"#utility.yul\":4129:4164   */\n      tag_404\n        /* \"#utility.yul\":4160:4162   */\n      0x60\n        /* \"#utility.yul\":4145:4163   */\n      dup7\n      add\n        /* \"#utility.yul\":4129:4164   */\n      tag_367\n      jump\t// in\n    tag_404:\n        /* \"#utility.yul\":4119:4164   */\n      swap1\n      pop\n        /* \"#utility.yul\":3727:4170   */\n      swap3\n      swap6\n      swap2\n      swap5\n      pop\n      swap3\n      pop\n      jump\t// out\n        /* \"#utility.yul\":4175:4429   */\n    tag_59:\n        /* \"#utility.yul\":4240:4246   */\n      0x00\n        /* \"#utility.yul\":4248:4254   */\n      0x00\n        /* \"#utility.yul\":4301:4303   */\n      0x40\n        /* \"#utility.yul\":4289:4298   */\n      dup4\n        /* \"#utility.yul\":4280:4287   */\n      dup6\n        /* \"#utility.yul\":4276:4299   */\n      sub\n        /* \"#utility.yul\":4272:4304   */\n      slt\n        /* \"#utility.yul\":4269:4321   */\n      iszero\n      tag_406\n      jumpi\n        /* \"#utility.yul\":4317:4318   */\n      0x00\n        /* \"#utility.yul\":4314:4315   */\n      0x00\n        /* \"#utility.yul\":4307:4319   */\n      revert\n        /* \"#utility.yul\":4269:4321   */\n    tag_406:\n        /* \"#utility.yul\":4340:4369   */\n      tag_407\n        /* \"#utility.yul\":4359:4368   */\n      dup4\n        /* \"#utility.yul\":4340:4369   */\n      tag_366\n      jump\t// in\n    tag_407:\n        /* \"#utility.yul\":4330:4369   */\n      swap2\n      pop\n        /* \"#utility.yul\":4388:4423   */\n      tag_408\n        /* \"#utility.yul\":4419:4421   */\n      0x20\n        /* \"#utility.yul\":4408:4417   */\n      dup5\n        /* \"#utility.yul\":4404:4422   */\n      add\n        /* \"#utility.yul\":4388:4423   */\n      tag_367\n      jump\t// in\n    tag_408:\n        /* \"#utility.yul\":4378:4423   */\n      swap1\n      pop\n        /* \"#utility.yul\":4175:4429   */\n      swap3\n      pop\n      swap3\n      swap1\n      pop\n      jump\t// out\n        /* \"#utility.yul\":4434:5303   */\n    tag_65:\n        /* \"#utility.yul\":4690:4692   */\n      0x20\n        /* \"#utility.yul\":4702:4723   */\n      dup1\n      dup3\n      mstore\n        /* \"#utility.yul\":4772:4785   */\n      dup3\n      mload\n        /* \"#utility.yul\":4675:4693   */\n      dup3\n      dup3\n      add\n        /* \"#utility.yul\":4794:4816   */\n      dup2\n      swap1\n      mstore\n        /* \"#utility.yul\":4642:4646   */\n      0x00\n      swap2\n        /* \"#utility.yul\":4873:4888   */\n      dup5\n      add\n      swap1\n        /* \"#utility.yul\":4847:4849   */\n      0x40\n        /* \"#utility.yul\":4832:4850   */\n      dup5\n      add\n      swap1\n        /* \"#utility.yul\":4642:4646   */\n      dup4\n        /* \"#utility.yul\":4916:5277   */\n    tag_410:\n        /* \"#utility.yul\":4930:4936   */\n      dup2\n        /* \"#utility.yul\":4927:4928   */\n      dup2\n        /* \"#utility.yul\":4924:4937   */\n      lt\n        /* \"#utility.yul\":4916:5277   */\n      iszero\n      tag_383\n      jumpi\n        /* \"#utility.yul\":4989:5002   */\n      dup4\n      mload\n        /* \"#utility.yul\":5031:5040   */\n      dup1\n      mload\n      sub(shl(0xa0, 0x01), 0x01)\n        /* \"#utility.yul\":5027:5062   */\n      swap1\n      dup2\n      and\n        /* \"#utility.yul\":5015:5063   */\n      dup6\n      mstore\n        /* \"#utility.yul\":5111:5113   */\n      0x20\n        /* \"#utility.yul\":5103:5114   */\n      dup1\n      dup4\n      add\n        /* \"#utility.yul\":5097:5115   */\n      mload\n        /* \"#utility.yul\":5083:5095   */\n      dup2\n      dup8\n      add\n        /* \"#utility.yul\":5076:5116   */\n      mstore\n        /* \"#utility.yul\":5168:5170   */\n      0x40\n        /* \"#utility.yul\":5160:5171   */\n      swap3\n      dup4\n      add\n        /* \"#utility.yul\":5154:5172   */\n      mload\n        /* \"#utility.yul\":5150:5194   */\n      swap1\n      swap2\n      and\n        /* \"#utility.yul\":5136:5148   */\n      swap2\n      dup6\n      add\n        /* \"#utility.yul\":5129:5195   */\n      swap2\n      swap1\n      swap2\n      mstore\n        /* \"#utility.yul\":5252:5267   */\n      swap1\n      swap4\n      add\n      swap3\n        /* \"#utility.yul\":5224:5228   */\n      0x60\n        /* \"#utility.yul\":5215:5229   */\n      swap1\n      swap3\n      add\n      swap2\n        /* \"#utility.yul\":5059:5060   */\n      0x01\n        /* \"#utility.yul\":4945:4954   */\n      add\n        /* \"#utility.yul\":4916:5277   */\n      jump(tag_410)\n        /* \"#utility.yul\":5308:5642   */\n    tag_68:\n        /* \"#utility.yul\":5385:5391   */\n      0x00\n        /* \"#utility.yul\":5393:5399   */\n      0x00\n        /* \"#utility.yul\":5401:5407   */\n      0x00\n        /* \"#utility.yul\":5454:5456   */\n      0x60\n        /* \"#utility.yul\":5442:5451   */\n      dup5\n        /* \"#utility.yul\":5433:5440   */\n      dup7\n        /* \"#utility.yul\":5429:5452   */\n      sub\n        /* \"#utility.yul\":5425:5457   */\n      slt\n        /* \"#utility.yul\":5422:5474   */\n      iszero\n      tag_414\n      jumpi\n        /* \"#utility.yul\":5470:5471   */\n      0x00\n        /* \"#utility.yul\":5467:5468   */\n      0x00\n        /* \"#utility.yul\":5460:5472   */\n      revert\n        /* \"#utility.yul\":5422:5474   */\n    tag_414:\n        /* \"#utility.yul\":5493:5522   */\n      tag_415\n        /* \"#utility.yul\":5512:5521   */\n      dup5\n        /* \"#utility.yul\":5493:5522   */\n      tag_366\n      jump\t// in\n    tag_415:\n        /* \"#utility.yul\":5483:5522   */\n      swap3\n      pop\n        /* \"#utility.yul\":5541:5579   */\n      tag_416\n        /* \"#utility.yul\":5575:5577   */\n      0x20\n        /* \"#utility.yul\":5564:5573   */\n      dup6\n        /* \"#utility.yul\":5560:5578   */\n      add\n        /* \"#utility.yul\":5541:5579   */\n      tag_366\n      jump\t// in\n    tag_416:\n        /* \"#utility.yul\":5531:5579   */\n      swap2\n      pop\n        /* \"#utility.yul\":5598:5636   */\n      tag_393\n        /* \"#utility.yul\":5632:5634   */\n      0x40\n        /* \"#utility.yul\":5621:5630   */\n      dup6\n        /* \"#utility.yul\":5617:5635   */\n      add\n        /* \"#utility.yul\":5598:5636   */\n      tag_366\n      jump\t// in\n        /* \"#utility.yul\":5647:5907   */\n    tag_73:\n        /* \"#utility.yul\":5715:5721   */\n      0x00\n        /* \"#utility.yul\":5723:5729   */\n      0x00\n        /* \"#utility.yul\":5776:5778   */\n      0x40\n        /* \"#utility.yul\":5764:5773   */\n      dup4\n        /* \"#utility.yul\":5755:5762   */\n      dup6\n        /* \"#utility.yul\":5751:5774   */\n      sub\n        /* \"#utility.yul\":5747:5779   */\n      slt\n        /* \"#utility.yul\":5744:5796   */\n      iszero\n      tag_419\n      jumpi\n        /* \"#utility.yul\":5792:5793   */\n      0x00\n        /* \"#utility.yul\":5789:5790   */\n      0x00\n        /* \"#utility.yul\":5782:5794   */\n      revert\n        /* \"#utility.yul\":5744:5796   */\n    tag_419:\n        /* \"#utility.yul\":5815:5844   */\n      tag_420\n        /* \"#utility.yul\":5834:5843   */\n      dup4\n        /* \"#utility.yul\":5815:5844   */\n      tag_366\n      jump\t// in\n    tag_420:\n        /* \"#utility.yul\":5805:5844   */\n      swap2\n      pop\n        /* \"#utility.yul\":5863:5901   */\n      tag_408\n        /* \"#utility.yul\":5897:5899   */\n      0x20\n        /* \"#utility.yul\":5886:5895   */\n      dup5\n        /* \"#utility.yul\":5882:5900   */\n      add\n        /* \"#utility.yul\":5863:5901   */\n      tag_366\n      jump\t// in\n        /* \"#utility.yul\":5912:6361   */\n    tag_78:\n        /* \"#utility.yul\":5998:6004   */\n      0x00\n        /* \"#utility.yul\":6006:6012   */\n      0x00\n        /* \"#utility.yul\":6014:6020   */\n      0x00\n        /* \"#utility.yul\":6022:6028   */\n      0x00\n        /* \"#utility.yul\":6075:6078   */\n      0x80\n        /* \"#utility.yul\":6063:6072   */\n      dup6\n        /* \"#utility.yul\":6054:6061   */\n      dup8\n        /* \"#utility.yul\":6050:6073   */\n      sub\n        /* \"#utility.yul\":6046:6079   */\n      slt\n        /* \"#utility.yul\":6043:6096   */\n      iszero\n      tag_423\n      jumpi\n        /* \"#utility.yul\":6092:6093   */\n      0x00\n        /* \"#utility.yul\":6089:6090   */\n      0x00\n        /* \"#utility.yul\":6082:6094   */\n      revert\n        /* \"#utility.yul\":6043:6096   */\n    tag_423:\n        /* \"#utility.yul\":6115:6144   */\n      tag_424\n        /* \"#utility.yul\":6134:6143   */\n      dup6\n        /* \"#utility.yul\":6115:6144   */\n      tag_366\n      jump\t// in\n    tag_424:\n        /* \"#utility.yul\":6105:6144   */\n      swap4\n      pop\n        /* \"#utility.yul\":6163:6201   */\n      tag_425\n        /* \"#utility.yul\":6197:6199   */\n      0x20\n        /* \"#utility.yul\":6186:6195   */\n      dup7\n        /* \"#utility.yul\":6182:6200   */\n      add\n        /* \"#utility.yul\":6163:6201   */\n      tag_366\n      jump\t// in\n    tag_425:\n        /* \"#utility.yul\":6153:6201   */\n      swap3\n      pop\n        /* \"#utility.yul\":6220:6258   */\n      tag_426\n        /* \"#utility.yul\":6254:6256   */\n      0x40\n        /* \"#utility.yul\":6243:6252   */\n      dup7\n        /* \"#utility.yul\":6239:6257   */\n      add\n        /* \"#utility.yul\":6220:6258   */\n      tag_366\n      jump\t// in\n    tag_426:\n        /* \"#utility.yul\":5912:6361   */\n      swap4\n      swap7\n      swap3\n      swap6\n      pop\n        /* \"#utility.yul\":6210:6258   */\n      swap3\n      swap4\n        /* \"#utility.yul\":6327:6329   */\n      0x60\n        /* \"#utility.yul\":6312:6330   */\n      add\n        /* \"#utility.yul\":6299:6331   */\n      calldataload\n      swap3\n      pop\n      pop\n        /* \"#utility.yul\":5912:6361   */\n      jump\t// out\n        /* \"#utility.yul\":6366:7186   */\n    tag_89:\n        /* \"#utility.yul\":6628:6630   */\n      0x20\n        /* \"#utility.yul\":6640:6661   */\n      dup1\n      dup3\n      mstore\n        /* \"#utility.yul\":6710:6723   */\n      dup3\n      mload\n        /* \"#utility.yul\":6613:6631   */\n      dup3\n      dup3\n      add\n        /* \"#utility.yul\":6732:6754   */\n      dup2\n      swap1\n      mstore\n        /* \"#utility.yul\":6580:6584   */\n      0x00\n      swap2\n        /* \"#utility.yul\":6811:6826   */\n      dup5\n      add\n      swap1\n        /* \"#utility.yul\":6785:6787   */\n      0x40\n        /* \"#utility.yul\":6770:6788   */\n      dup5\n      add\n      swap1\n        /* \"#utility.yul\":6580:6584   */\n      dup4\n        /* \"#utility.yul\":6854:7160   */\n    tag_428:\n        /* \"#utility.yul\":6868:6874   */\n      dup2\n        /* \"#utility.yul\":6865:6866   */\n      dup2\n        /* \"#utility.yul\":6862:6875   */\n      lt\n        /* \"#utility.yul\":6854:7160   */\n      iszero\n      tag_383\n      jumpi\n        /* \"#utility.yul\":6927:6940   */\n      dup4\n      mload\n        /* \"#utility.yul\":6969:6978   */\n      dup1\n      mload\n      sub(shl(0xa0, 0x01), 0x01)\n        /* \"#utility.yul\":6965:7000   */\n      swap1\n      dup2\n      and\n        /* \"#utility.yul\":6953:7001   */\n      dup6\n      mstore\n        /* \"#utility.yul\":7053:7055   */\n      0x20\n        /* \"#utility.yul\":7045:7056   */\n      swap2\n      dup3\n      add\n        /* \"#utility.yul\":7039:7057   */\n      mload\n        /* \"#utility.yul\":7035:7079   */\n      and\n        /* \"#utility.yul\":7021:7033   */\n      dup2\n      dup6\n      add\n        /* \"#utility.yul\":7014:7080   */\n      mstore\n        /* \"#utility.yul\":7135:7150   */\n      swap1\n      swap4\n      add\n      swap3\n        /* \"#utility.yul\":7109:7111   */\n      0x40\n        /* \"#utility.yul\":7100:7112   */\n      swap1\n      swap3\n      add\n      swap2\n        /* \"#utility.yul\":6997:6998   */\n      0x01\n        /* \"#utility.yul\":6883:6892   */\n      add\n        /* \"#utility.yul\":6854:7160   */\n      jump(tag_428)\n        /* \"#utility.yul\":7191:7318   */\n    tag_368:\n        /* \"#utility.yul\":7252:7262   */\n      0x4e487b71\n        /* \"#utility.yul\":7247:7250   */\n      0xe0\n        /* \"#utility.yul\":7243:7263   */\n      shl\n        /* \"#utility.yul\":7240:7241   */\n      0x00\n        /* \"#utility.yul\":7233:7264   */\n      mstore\n        /* \"#utility.yul\":7283:7287   */\n      0x11\n        /* \"#utility.yul\":7280:7281   */\n      0x04\n        /* \"#utility.yul\":7273:7288   */\n      mstore\n        /* \"#utility.yul\":7307:7311   */\n      0x24\n        /* \"#utility.yul\":7304:7305   */\n      0x00\n        /* \"#utility.yul\":7297:7312   */\n      revert\n        /* \"#utility.yul\":7323:7458   */\n    tag_107:\n        /* \"#utility.yul\":7362:7365   */\n      0x00\n        /* \"#utility.yul\":7383:7400   */\n      0x01\n      dup3\n      add\n        /* \"#utility.yul\":7380:7423   */\n      tag_434\n      jumpi\n        /* \"#utility.yul\":7403:7421   */\n      tag_434\n      tag_368\n      jump\t// in\n    tag_434:\n      pop\n        /* \"#utility.yul\":7450:7451   */\n      0x01\n        /* \"#utility.yul\":7439:7452   */\n      add\n      swap1\n        /* \"#utility.yul\":7323:7458   */\n      jump\t// out\n        /* \"#utility.yul\":8155:8282   */\n    tag_122:\n        /* \"#utility.yul\":8216:8226   */\n      0x4e487b71\n        /* \"#utility.yul\":8211:8214   */\n      0xe0\n        /* \"#utility.yul\":8207:8227   */\n      shl\n        /* \"#utility.yul\":8204:8205   */\n      0x00\n        /* \"#utility.yul\":8197:8228   */\n      mstore\n        /* \"#utility.yul\":8247:8251   */\n      0x41\n        /* \"#utility.yul\":8244:8245   */\n      0x04\n        /* \"#utility.yul\":8237:8252   */\n      mstore\n        /* \"#utility.yul\":8271:8275   */\n      0x24\n        /* \"#utility.yul\":8268:8269   */\n      0x00\n        /* \"#utility.yul\":8261:8276   */\n      revert\n        /* \"#utility.yul\":8287:8414   */\n    tag_166:\n        /* \"#utility.yul\":8348:8358   */\n      0x4e487b71\n        /* \"#utility.yul\":8343:8346   */\n      0xe0\n        /* \"#utility.yul\":8339:8359   */\n      shl\n        /* \"#utility.yul\":8336:8337   */\n      0x00\n        /* \"#utility.yul\":8329:8360   */\n      mstore\n        /* \"#utility.yul\":8379:8383   */\n      0x32\n        /* \"#utility.yul\":8376:8377   */\n      0x04\n        /* \"#utility.yul\":8369:8384   */\n      mstore\n        /* \"#utility.yul\":8403:8407   */\n      0x24\n        /* \"#utility.yul\":8400:8401   */\n      0x00\n        /* \"#utility.yul\":8393:8408   */\n      revert\n        /* \"#utility.yul\":10355:10968   */\n    tag_215:\n      sub(shl(0xa0, 0x01), 0x01)\n        /* \"#utility.yul\":10660:10692   */\n      swap7\n      dup8\n      and\n        /* \"#utility.yul\":10642:10693   */\n      dup2\n      mstore\n        /* \"#utility.yul\":10729:10761   */\n      swap5\n      dup7\n      and\n        /* \"#utility.yul\":10724:10726   */\n      0x20\n        /* \"#utility.yul\":10709:10727   */\n      dup7\n      add\n        /* \"#utility.yul\":10702:10762   */\n      mstore\n        /* \"#utility.yul\":10798:10830   */\n      swap3\n      swap1\n      swap5\n      and\n        /* \"#utility.yul\":10793:10795   */\n      0x40\n        /* \"#utility.yul\":10778:10796   */\n      dup5\n      add\n        /* \"#utility.yul\":10771:10831   */\n      mstore\n        /* \"#utility.yul\":10862:10864   */\n      0x60\n        /* \"#utility.yul\":10847:10865   */\n      dup4\n      add\n        /* \"#utility.yul\":10840:10874   */\n      mstore\n        /* \"#utility.yul\":10905:10908   */\n      0x80\n        /* \"#utility.yul\":10890:10909   */\n      dup3\n      add\n        /* \"#utility.yul\":10883:10918   */\n      swap3\n      swap1\n      swap3\n      mstore\n        /* \"#utility.yul\":10680:10683   */\n      0xa0\n        /* \"#utility.yul\":10934:10953   */\n      dup2\n      add\n        /* \"#utility.yul\":10927:10962   */\n      swap2\n      swap1\n      swap2\n      mstore\n        /* \"#utility.yul\":10629:10632   */\n      0xc0\n        /* \"#utility.yul\":10614:10633   */\n      add\n      swap1\n        /* \"#utility.yul\":10355:10968   */\n      jump\t// out\n        /* \"#utility.yul\":11278:11406   */\n    tag_350:\n        /* \"#utility.yul\":11345:11354   */\n      dup2\n      dup2\n      sub\n        /* \"#utility.yul\":11366:11377   */\n      dup2\n      dup2\n      gt\n        /* \"#utility.yul\":11363:11400   */\n      iszero\n      tag_95\n      jumpi\n        /* \"#utility.yul\":11380:11398   */\n      tag_95\n      tag_368\n      jump\t// in\n        /* \"#utility.yul\":11411:11538   */\n    tag_361:\n        /* \"#utility.yul\":11472:11482   */\n      0x4e487b71\n        /* \"#utility.yul\":11467:11470   */\n      0xe0\n        /* \"#utility.yul\":11463:11483   */\n      shl\n        /* \"#utility.yul\":11460:11461   */\n      0x00\n        /* \"#utility.yul\":11453:11484   */\n      mstore\n        /* \"#utility.yul\":11503:11507   */\n      0x31\n        /* \"#utility.yul\":11500:11501   */\n      0x04\n        /* \"#utility.yul\":11493:11508   */\n      mstore\n        /* \"#utility.yul\":11527:11531   */\n      0x24\n        /* \"#utility.yul\":11524:11525   */\n      0x00\n        /* \"#utility.yul\":11517:11532   */\n      revert\n\n    auxdata: 0xa26469706673582212209e4b5ace470d3b3f81ccaa3d9a9597956cb043225ee95ebf65d5c3122dfd431c64736f6c634300081b0033\n}\n",
				"bytecode": {
					"linkReferences": {},
					"object": "6080604052348015600e575f5ffd5b506117c98061001c5f395ff3fe608060405234801561000f575f5ffd5b50600436106100fb575f3560e01c8063685ee3e811610093578063aba69cf811610063578063aba69cf814610216578063ed4b878e14610229578063f956cf941461023c578063fa352c001461025c575f5ffd5b8063685ee3e8146101bd5780636f007d87146101d057806390c9a2d0146101f05780639c395bc214610203575f5ffd5b806336137872116100ce578063361378721461016f57806349c95d29146101775780634fc692821461018a578063537a5c3d146101aa575f5ffd5b806301ffc9a7146100ff5780631221156b146101275780631b61f67514610147578063219044b01461015a575b5f5ffd5b61011261010d36600461133c565b61026f565b60405190151581526020015b60405180910390f35b61013a61013536600461137e565b6102a5565b60405161011e91906113b8565b61013a610155366004611403565b6102bc565b61016d610168366004611403565b6102cb565b005b61016d6102d8565b61016d61018536600461142b565b61032d565b61019d610198366004611403565b6103a2565b60405161011e919061147f565b61016d6101b8366004611510565b6105d5565b61016d6101cb36600461155a565b610653565b6101e36101de366004611403565b6106be565b60405161011e919061158b565b6101126101fe3660046115e9565b610830565b610112610211366004611620565b6108da565b610112610224366004611648565b61095f565b61013a610237366004611620565b610a12565b61024f61024a366004611403565b610a28565b60405161011e9190611690565b61016d61026a366004611403565b610b82565b5f6001600160e01b03198216630596d3d560e01b148061029f57506301ffc9a760e01b6001600160e01b03198316145b92915050565b60606102b48460038585610b8c565b949350505050565b606061029f8260015f5f610b8c565b6102d53382610e01565b50565b335f90815260016020526040812080549091906102f4906116f3565b909155506040513381527f32d74befd0b842e19694e3e3af46263e18bcce41352c8b600ff0002b49edf6629060200160405180910390a1565b5f610339338585610e7e565b905061034b848284600233885f610eef565b604080513381526001600160a01b038681166020830152851681830152831515606082015290517f8d6b2f5255b8d815cc368855b2251146e003bf4e2fcccaec66145fff5c174b4f9181900360800190a150505050565b6001600160a01b0381165f9081526003602052604081206060916103c5826110cb565b90505f8167ffffffffffffffff8111156103e1576103e161170b565b60405190808252806020026020018201604052801561043857816020015b6040805160a0810182525f808252602080830182905292820181905260608201819052608082015282525f199092019101816103ff5790505b5093505f5b828110156105ba575f61045085836110d4565b5f81815260046020526040808220815160a0810190925280549394509192909190829060ff1660038111156104875761048761146b565b60038111156104985761049861146b565b815281546001600160a01b036101009091048116602080840191909152600180850154831660408501526002850154909216606084015260039093015460809092019190915290820151825192935091905f908260038111156104fd576104fd61146b565b0361051b5761050c838c6110df565b8503610516575060015b61057a565b600282600381111561052f5761052f61146b565b036105435761050c838c8660600151610e7e565b60038260038111156105575761055761146b565b0361057a57610570838c8660600151876080015161114c565b850361057a575060015b80156105aa57838a8861058c816116f3565b99508151811061059e5761059e61171f565b60200260200101819052505b856001019550505050505061043d565b50808211156105cd578351818303900384525b505050919050565b5f6105e23386868661114c565b90506105f48582846003338989610eef565b604080513381526001600160a01b03878116602083015286168183015260608101859052831515608082015290517fe89c6ba1e8957285aed22618f52aa1dcb9d5bb64e1533d8b55136c72fcf5aa5d9181900360a00190a15050505050565b5f61065e33846110df565b90506106708382846001335f5f610eef565b604080513381526001600160a01b03851660208201528315158183015290517f58781eab4a0743ab1c285a238be846a235f06cdb5b968030573a635e5f8c92fa9181900360600190a1505050565b6001600160a01b0381165f908152602081815260408083206001835281842054845290915281206060916106f1826110cb565b90505f8167ffffffffffffffff81111561070d5761070d61170b565b60405190808252806020026020018201604052801561075657816020015b604080516060810182525f80825260208083018290529282015282525f1990920191018161072b5790505b5093505f5b828110156105ba575f61076e85836110d4565b5f8181526004602052604090209091506003815460ff1660038111156107965761079661146b565b03610826576001810154600282015460038301546107c4928b926001600160a01b039182169291169061114c565b8203610826576040805160608101825260028301546001600160a01b03908116825260038401546020830152600184015416918101919091528785610808816116f3565b96508151811061081a5761081a61171f565b60200260200101819052505b505060010161075b565b6001600160a01b038281165f81815260016020908152604080832054600283528184208987168086529084528285205483518086019290925281840187905296881660608201526080810182905260a0808201979097528251808203909701875260c00182528551958301959095209383528282528083209483529390529182206108bb90826111ba565b6108ce576108c985856108da565b6108d1565b60015b95945050505050565b6001600160a01b038181165f818152600160209081526040808320546002835281842095881680855295835281842054825180850197909752868301869052606087018290526080808801919091528251808803909101815260a090960182528551958301959095209383528282528083209483529390529182206102b490826111ba565b6001600160a01b038084165f90815260016020908152604080832054600283528184209489168452938252808320549051929384936109a9938a938a938a938a9391929101611733565b60408051601f1981840301815291815281516020928301206001600160a01b0388165f9081528084528281206001855283822054825290935291209091506109f190826111ba565b610a0557610a00868686610830565b610a08565b60015b9695505050505050565b6060610a21836002845f610b8c565b9392505050565b6001600160a01b0381165f90815260208181526040808320600183528184205484529091528120606091610a5b826110cb565b90505f8167ffffffffffffffff811115610a7757610a7761170b565b604051908082528060200260200182016040528015610abb57816020015b604080518082019091525f8082526020820152815260200190600190039081610a955790505b5093505f5b828110156105ba575f610ad385836110d4565b5f8181526004602052604090209091506002815460ff166003811115610afb57610afb61146b565b03610b785760018101546002820154610b22918a916001600160a01b039182169116610e7e565b8203610b78576040805180820190915260028201546001600160a01b03908116825260018301541660208201528785610b5a816116f3565b965081518110610b6c57610b6c61171f565b60200260200101819052505b5050600101610ac0565b6102d58133610e01565b6001600160a01b0384165f90815260208181526040808320600183528184205484529091528120606091610bbf826110cb565b90505f8167ffffffffffffffff811115610bdb57610bdb61170b565b604051908082528060200260200182016040528015610c04578160200160208202803683370190505b5093505f5b82811015610de3575f610c1c85836110d4565b5f818152600460205260409020909150896003811115610c3e57610c3e61146b565b815460ff166003811115610c5457610c5461146b565b03610dd95760018a6003811115610c6d57610c6d61146b565b03610ce2576001810154610c8b908c906001600160a01b03166110df565b8203610cdd5760018101546001600160a01b03168785610caa816116f3565b965081518110610cbc57610cbc61171f565b60200260200101906001600160a01b031690816001600160a01b0316815250505b610dd9565b60028a6003811115610cf657610cf661146b565b03610d2c5760028101546001600160a01b03808b16911603610cdd576001810154610c8b908c906001600160a01b03168b610e7e565b60038a6003811115610d4057610d4061146b565b03610dd95760028101546001600160a01b038a81169116148015610d675750878160030154145b15610dd9576001810154610d87908c906001600160a01b03168b8b61114c565b8203610dd95760018101546001600160a01b03168785610da6816116f3565b965081518110610db857610db861171f565b60200260200101906001600160a01b031690816001600160a01b0316815250505b5050600101610c09565b5080821115610df6578351818303900384525b505050949350505050565b6001600160a01b038082165f90815260026020908152604080832093861683529290529081208054909190610e35906116f3565b90915550604080516001600160a01b03831681523360208201527f3e34a3ee53064fb79c0ee57448f03774a627a9270b0c41286efb7d8e32dcde93910160405180910390a15050565b6001600160a01b039283165f8181526001602090815260408083205460028352818420968816808552968352928190205481518084019790975286820194909452939095166060850152608084015260a0808401919091528151808403909101815260c09092019052805191012090565b841561102e576001600160a01b0383165f90815260208181526040808320600183528184205484529091529020610f2690876111d1565b506001600160a01b0387165f908152600360205260409020610f4890876111d1565b506040518060a00160405280856003811115610f6657610f6661146b565b81526001600160a01b038086166020808401919091528a8216604080850191909152918616606084015260809092018490525f8981526004909252902081518154829060ff19166001836003811115610fc157610fc161146b565b0217905550602082015181546001600160a01b0391821661010002610100600160a81b031990911617825560408301516001830180549183166001600160a01b031992831617905560608401516002840180549190931691161790556080909101516003909101556110c2565b6001600160a01b0383165f9081526020818152604080832060018352818420548452909152902061105f90876111dc565b506001600160a01b0387165f90815260036020526040902061108190876111dc565b505f86815260046020526040812080546001600160a81b03191681556001810180546001600160a01b03199081169091556002820180549091169055600301555b50505050505050565b5f61029f825490565b5f610a2183836111e7565b6001600160a01b039182165f81815260016020908152604080832054600283528184209590961680845294825291829020548251808301959095528483019390935260608401949094526080808401929092528051808403909201825260a0909201909152805191012090565b6001600160a01b038085165f9081526001602090815260408083205460028352818420948816845293825280832054905192939290916111989188918a91899189918891889101611733565b6040516020818303038152906040528051906020012092505050949350505050565b5f8181526001830160205260408120541515610a21565b5f610a21838361120d565b5f610a218383611259565b5f825f0182815481106111fc576111fc61171f565b905f5260205f200154905092915050565b5f81815260018301602052604081205461125257508154600181810184555f84815260208082209093018490558454848252828601909352604090209190915561029f565b505f61029f565b5f8181526001830160205260408120548015611333575f61127b60018361176c565b85549091505f9061128e9060019061176c565b90508181146112ed575f865f0182815481106112ac576112ac61171f565b905f5260205f200154905080875f0184815481106112cc576112cc61171f565b5f918252602080832090910192909255918252600188019052604090208390555b85548690806112fe576112fe61177f565b600190038181905f5260205f20015f90559055856001015f8681526020019081526020015f205f90556001935050505061029f565b5f91505061029f565b5f6020828403121561134c575f5ffd5b81356001600160e01b031981168114610a21575f5ffd5b80356001600160a01b0381168114611379575f5ffd5b919050565b5f5f5f60608486031215611390575f5ffd5b61139984611363565b92506113a760208501611363565b929592945050506040919091013590565b602080825282518282018190525f918401906040840190835b818110156113f85783516001600160a01b03168352602093840193909201916001016113d1565b509095945050505050565b5f60208284031215611413575f5ffd5b610a2182611363565b80358015158114611379575f5ffd5b5f5f5f6060848603121561143d575f5ffd5b61144684611363565b925061145460208501611363565b91506114626040850161141c565b90509250925092565b634e487b7160e01b5f52602160045260245ffd5b602080825282518282018190525f918401906040840190835b818110156113f85783518051600481106114c057634e487b7160e01b5f52602160045260245ffd5b84526020818101516001600160a01b03908116828701526040808401518216908701526060808401519091169086015260809182015191850191909152939093019260a090920191600101611498565b5f5f5f5f60808587031215611523575f5ffd5b61152c85611363565b935061153a60208601611363565b92506040850135915061154f6060860161141c565b905092959194509250565b5f5f6040838503121561156b575f5ffd5b61157483611363565b91506115826020840161141c565b90509250929050565b602080825282518282018190525f918401906040840190835b818110156113f857835180516001600160a01b0390811685526020808301518187015260409283015190911691850191909152909301926060909201916001016115a4565b5f5f5f606084860312156115fb575f5ffd5b61160484611363565b925061161260208501611363565b915061146260408501611363565b5f5f60408385031215611631575f5ffd5b61163a83611363565b915061158260208401611363565b5f5f5f5f6080858703121561165b575f5ffd5b61166485611363565b935061167260208601611363565b925061168060408601611363565b9396929550929360600135925050565b602080825282518282018190525f918401906040840190835b818110156113f857835180516001600160a01b0390811685526020918201511681850152909301926040909201916001016116a9565b634e487b7160e01b5f52601160045260245ffd5b5f60018201611704576117046116df565b5060010190565b634e487b7160e01b5f52604160045260245ffd5b634e487b7160e01b5f52603260045260245ffd5b6001600160a01b03968716815294861660208601529290941660408401526060830152608082019290925260a081019190915260c00190565b8181038181111561029f5761029f6116df565b634e487b7160e01b5f52603160045260245ffdfea26469706673582212209e4b5ace470d3b3f81ccaa3d9a9597956cb043225ee95ebf65d5c3122dfd431c64736f6c634300081b0033",
					"opcodes": "PUSH1 0x80 PUSH1 0x40 MSTORE CALLVALUE DUP1 ISZERO PUSH1 0xE JUMPI PUSH0 PUSH0 REVERT JUMPDEST POP PUSH2 0x17C9 DUP1 PUSH2 0x1C PUSH0 CODECOPY PUSH0 RETURN INVALID PUSH1 0x80 PUSH1 0x40 MSTORE CALLVALUE DUP1 ISZERO PUSH2 0xF JUMPI PUSH0 PUSH0 REVERT JUMPDEST POP PUSH1 0x4 CALLDATASIZE LT PUSH2 0xFB JUMPI PUSH0 CALLDATALOAD PUSH1 0xE0 SHR DUP1 PUSH4 0x685EE3E8 GT PUSH2 0x93 JUMPI DUP1 PUSH4 0xABA69CF8 GT PUSH2 0x63 JUMPI DUP1 PUSH4 0xABA69CF8 EQ PUSH2 0x216 JUMPI DUP1 PUSH4 0xED4B878E EQ PUSH2 0x229 JUMPI DUP1 PUSH4 0xF956CF94 EQ PUSH2 0x23C JUMPI DUP1 PUSH4 0xFA352C00 EQ PUSH2 0x25C JUMPI PUSH0 PUSH0 REVERT JUMPDEST DUP1 PUSH4 0x685EE3E8 EQ PUSH2 0x1BD JUMPI DUP1 PUSH4 0x6F007D87 EQ PUSH2 0x1D0 JUMPI DUP1 PUSH4 0x90C9A2D0 EQ PUSH2 0x1F0 JUMPI DUP1 PUSH4 0x9C395BC2 EQ PUSH2 0x203 JUMPI PUSH0 PUSH0 REVERT JUMPDEST DUP1 PUSH4 0x36137872 GT PUSH2 0xCE JUMPI DUP1 PUSH4 0x36137872 EQ PUSH2 0x16F JUMPI DUP1 PUSH4 0x49C95D29 EQ PUSH2 0x177 JUMPI DUP1 PUSH4 0x4FC69282 EQ PUSH2 0x18A JUMPI DUP1 PUSH4 0x537A5C3D EQ PUSH2 0x1AA JUMPI PUSH0 PUSH0 REVERT JUMPDEST DUP1 PUSH4 0x1FFC9A7 EQ PUSH2 0xFF JUMPI DUP1 PUSH4 0x1221156B EQ PUSH2 0x127 JUMPI DUP1 PUSH4 0x1B61F675 EQ PUSH2 0x147 JUMPI DUP1 PUSH4 0x219044B0 EQ PUSH2 0x15A JUMPI JUMPDEST PUSH0 PUSH0 REVERT JUMPDEST PUSH2 0x112 PUSH2 0x10D CALLDATASIZE PUSH1 0x4 PUSH2 0x133C JUMP JUMPDEST PUSH2 0x26F JUMP JUMPDEST PUSH1 0x40 MLOAD SWAP1 ISZERO ISZERO DUP2 MSTORE PUSH1 0x20 ADD JUMPDEST PUSH1 0x40 MLOAD DUP1 SWAP2 SUB SWAP1 RETURN JUMPDEST PUSH2 0x13A PUSH2 0x135 CALLDATASIZE PUSH1 0x4 PUSH2 0x137E JUMP JUMPDEST PUSH2 0x2A5 JUMP JUMPDEST PUSH1 0x40 MLOAD PUSH2 0x11E SWAP2 SWAP1 PUSH2 0x13B8 JUMP JUMPDEST PUSH2 0x13A PUSH2 0x155 CALLDATASIZE PUSH1 0x4 PUSH2 0x1403 JUMP JUMPDEST PUSH2 0x2BC JUMP JUMPDEST PUSH2 0x16D PUSH2 0x168 CALLDATASIZE PUSH1 0x4 PUSH2 0x1403 JUMP JUMPDEST PUSH2 0x2CB JUMP JUMPDEST STOP JUMPDEST PUSH2 0x16D PUSH2 0x2D8 JUMP JUMPDEST PUSH2 0x16D PUSH2 0x185 CALLDATASIZE PUSH1 0x4 PUSH2 0x142B JUMP JUMPDEST PUSH2 0x32D JUMP JUMPDEST PUSH2 0x19D PUSH2 0x198 CALLDATASIZE PUSH1 0x4 PUSH2 0x1403 JUMP JUMPDEST PUSH2 0x3A2 JUMP JUMPDEST PUSH1 0x40 MLOAD PUSH2 0x11E SWAP2 SWAP1 PUSH2 0x147F JUMP JUMPDEST PUSH2 0x16D PUSH2 0x1B8 CALLDATASIZE PUSH1 0x4 PUSH2 0x1510 JUMP JUMPDEST PUSH2 0x5D5 JUMP JUMPDEST PUSH2 0x16D PUSH2 0x1CB CALLDATASIZE PUSH1 0x4 PUSH2 0x155A JUMP JUMPDEST PUSH2 0x653 JUMP JUMPDEST PUSH2 0x1E3 PUSH2 0x1DE CALLDATASIZE PUSH1 0x4 PUSH2 0x1403 JUMP JUMPDEST PUSH2 0x6BE JUMP JUMPDEST PUSH1 0x40 MLOAD PUSH2 0x11E SWAP2 SWAP1 PUSH2 0x158B JUMP JUMPDEST PUSH2 0x112 PUSH2 0x1FE CALLDATASIZE PUSH1 0x4 PUSH2 0x15E9 JUMP JUMPDEST PUSH2 0x830 JUMP JUMPDEST PUSH2 0x112 PUSH2 0x211 CALLDATASIZE PUSH1 0x4 PUSH2 0x1620 JUMP JUMPDEST PUSH2 0x8DA JUMP JUMPDEST PUSH2 0x112 PUSH2 0x224 CALLDATASIZE PUSH1 0x4 PUSH2 0x1648 JUMP JUMPDEST PUSH2 0x95F JUMP JUMPDEST PUSH2 0x13A PUSH2 0x237 CALLDATASIZE PUSH1 0x4 PUSH2 0x1620 JUMP JUMPDEST PUSH2 0xA12 JUMP JUMPDEST PUSH2 0x24F PUSH2 0x24A CALLDATASIZE PUSH1 0x4 PUSH2 0x1403 JUMP JUMPDEST PUSH2 0xA28 JUMP JUMPDEST PUSH1 0x40 MLOAD PUSH2 0x11E SWAP2 SWAP1 PUSH2 0x1690 JUMP JUMPDEST PUSH2 0x16D PUSH2 0x26A CALLDATASIZE PUSH1 0x4 PUSH2 0x1403 JUMP JUMPDEST PUSH2 0xB82 JUMP JUMPDEST PUSH0 PUSH1 0x1 PUSH1 0x1 PUSH1 0xE0 SHL SUB NOT DUP3 AND PUSH4 0x596D3D5 PUSH1 0xE0 SHL EQ DUP1 PUSH2 0x29F JUMPI POP PUSH4 0x1FFC9A7 PUSH1 0xE0 SHL PUSH1 0x1 PUSH1 0x1 PUSH1 0xE0 SHL SUB NOT DUP4 AND EQ JUMPDEST SWAP3 SWAP2 POP POP JUMP JUMPDEST PUSH1 0x60 PUSH2 0x2B4 DUP5 PUSH1 0x3 DUP6 DUP6 PUSH2 0xB8C JUMP JUMPDEST SWAP5 SWAP4 POP POP POP POP JUMP JUMPDEST PUSH1 0x60 PUSH2 0x29F DUP3 PUSH1 0x1 PUSH0 PUSH0 PUSH2 0xB8C JUMP JUMPDEST PUSH2 0x2D5 CALLER DUP3 PUSH2 0xE01 JUMP JUMPDEST POP JUMP JUMPDEST CALLER PUSH0 SWAP1 DUP2 MSTORE PUSH1 0x1 PUSH1 0x20 MSTORE PUSH1 0x40 DUP2 KECCAK256 DUP1 SLOAD SWAP1 SWAP2 SWAP1 PUSH2 0x2F4 SWAP1 PUSH2 0x16F3 JUMP JUMPDEST SWAP1 SWAP2 SSTORE POP PUSH1 0x40 MLOAD CALLER DUP2 MSTORE PUSH32 0x32D74BEFD0B842E19694E3E3AF46263E18BCCE41352C8B600FF0002B49EDF662 SWAP1 PUSH1 0x20 ADD PUSH1 0x40 MLOAD DUP1 SWAP2 SUB SWAP1 LOG1 JUMP JUMPDEST PUSH0 PUSH2 0x339 CALLER DUP6 DUP6 PUSH2 0xE7E JUMP JUMPDEST SWAP1 POP PUSH2 0x34B DUP5 DUP3 DUP5 PUSH1 0x2 CALLER DUP9 PUSH0 PUSH2 0xEEF JUMP JUMPDEST PUSH1 0x40 DUP1 MLOAD CALLER DUP2 MSTORE PUSH1 0x1 PUSH1 0x1 PUSH1 0xA0 SHL SUB DUP7 DUP2 AND PUSH1 0x20 DUP4 ADD MSTORE DUP6 AND DUP2 DUP4 ADD MSTORE DUP4 ISZERO ISZERO PUSH1 0x60 DUP3 ADD MSTORE SWAP1 MLOAD PUSH32 0x8D6B2F5255B8D815CC368855B2251146E003BF4E2FCCCAEC66145FFF5C174B4F SWAP2 DUP2 SWAP1 SUB PUSH1 0x80 ADD SWAP1 LOG1 POP POP POP POP JUMP JUMPDEST PUSH1 0x1 PUSH1 0x1 PUSH1 0xA0 SHL SUB DUP2 AND PUSH0 SWAP1 DUP2 MSTORE PUSH1 0x3 PUSH1 0x20 MSTORE PUSH1 0x40 DUP2 KECCAK256 PUSH1 0x60 SWAP2 PUSH2 0x3C5 DUP3 PUSH2 0x10CB JUMP JUMPDEST SWAP1 POP PUSH0 DUP2 PUSH8 0xFFFFFFFFFFFFFFFF DUP2 GT ISZERO PUSH2 0x3E1 JUMPI PUSH2 0x3E1 PUSH2 0x170B JUMP JUMPDEST PUSH1 0x40 MLOAD SWAP1 DUP1 DUP3 MSTORE DUP1 PUSH1 0x20 MUL PUSH1 0x20 ADD DUP3 ADD PUSH1 0x40 MSTORE DUP1 ISZERO PUSH2 0x438 JUMPI DUP2 PUSH1 0x20 ADD JUMPDEST PUSH1 0x40 DUP1 MLOAD PUSH1 0xA0 DUP2 ADD DUP3 MSTORE PUSH0 DUP1 DUP3 MSTORE PUSH1 0x20 DUP1 DUP4 ADD DUP3 SWAP1 MSTORE SWAP3 DUP3 ADD DUP2 SWAP1 MSTORE PUSH1 0x60 DUP3 ADD DUP2 SWAP1 MSTORE PUSH1 0x80 DUP3 ADD MSTORE DUP3 MSTORE PUSH0 NOT SWAP1 SWAP3 ADD SWAP2 ADD DUP2 PUSH2 0x3FF JUMPI SWAP1 POP JUMPDEST POP SWAP4 POP PUSH0 JUMPDEST DUP3 DUP2 LT ISZERO PUSH2 0x5BA JUMPI PUSH0 PUSH2 0x450 DUP6 DUP4 PUSH2 0x10D4 JUMP JUMPDEST PUSH0 DUP2 DUP2 MSTORE PUSH1 0x4 PUSH1 0x20 MSTORE PUSH1 0x40 DUP1 DUP3 KECCAK256 DUP2 MLOAD PUSH1 0xA0 DUP2 ADD SWAP1 SWAP3 MSTORE DUP1 SLOAD SWAP4 SWAP5 POP SWAP2 SWAP3 SWAP1 SWAP2 SWAP1 DUP3 SWAP1 PUSH1 0xFF AND PUSH1 0x3 DUP2 GT ISZERO PUSH2 0x487 JUMPI PUSH2 0x487 PUSH2 0x146B JUMP JUMPDEST PUSH1 0x3 DUP2 GT ISZERO PUSH2 0x498 JUMPI PUSH2 0x498 PUSH2 0x146B JUMP JUMPDEST DUP2 MSTORE DUP2 SLOAD PUSH1 0x1 PUSH1 0x1 PUSH1 0xA0 SHL SUB PUSH2 0x100 SWAP1 SWAP2 DIV DUP2 AND PUSH1 0x20 DUP1 DUP5 ADD SWAP2 SWAP1 SWAP2 MSTORE PUSH1 0x1 DUP1 DUP6 ADD SLOAD DUP4 AND PUSH1 0x40 DUP6 ADD MSTORE PUSH1 0x2 DUP6 ADD SLOAD SWAP1 SWAP3 AND PUSH1 0x60 DUP5 ADD MSTORE PUSH1 0x3 SWAP1 SWAP4 ADD SLOAD PUSH1 0x80 SWAP1 SWAP3 ADD SWAP2 SWAP1 SWAP2 MSTORE SWAP1 DUP3 ADD MLOAD DUP3 MLOAD SWAP3 SWAP4 POP SWAP2 SWAP1 PUSH0 SWAP1 DUP3 PUSH1 0x3 DUP2 GT ISZERO PUSH2 0x4FD JUMPI PUSH2 0x4FD PUSH2 0x146B JUMP JUMPDEST SUB PUSH2 0x51B JUMPI PUSH2 0x50C DUP4 DUP13 PUSH2 0x10DF JUMP JUMPDEST DUP6 SUB PUSH2 0x516 JUMPI POP PUSH1 0x1 JUMPDEST PUSH2 0x57A JUMP JUMPDEST PUSH1 0x2 DUP3 PUSH1 0x3 DUP2 GT ISZERO PUSH2 0x52F JUMPI PUSH2 0x52F PUSH2 0x146B JUMP JUMPDEST SUB PUSH2 0x543 JUMPI PUSH2 0x50C DUP4 DUP13 DUP7 PUSH1 0x60 ADD MLOAD PUSH2 0xE7E JUMP JUMPDEST PUSH1 0x3 DUP3 PUSH1 0x3 DUP2 GT ISZERO PUSH2 0x557 JUMPI PUSH2 0x557 PUSH2 0x146B JUMP JUMPDEST SUB PUSH2 0x57A JUMPI PUSH2 0x570 DUP4 DUP13 DUP7 PUSH1 0x60 ADD MLOAD DUP8 PUSH1 0x80 ADD MLOAD PUSH2 0x114C JUMP JUMPDEST DUP6 SUB PUSH2 0x57A JUMPI POP PUSH1 0x1 JUMPDEST DUP1 ISZERO PUSH2 0x5AA JUMPI DUP4 DUP11 DUP9 PUSH2 0x58C DUP2 PUSH2 0x16F3 JUMP JUMPDEST SWAP10 POP DUP2 MLOAD DUP2 LT PUSH2 0x59E JUMPI PUSH2 0x59E PUSH2 0x171F JUMP JUMPDEST PUSH1 0x20 MUL PUSH1 0x20 ADD ADD DUP2 SWAP1 MSTORE POP JUMPDEST DUP6 PUSH1 0x1 ADD SWAP6 POP POP POP POP POP POP PUSH2 0x43D JUMP JUMPDEST POP DUP1 DUP3 GT ISZERO PUSH2 0x5CD JUMPI DUP4 MLOAD DUP2 DUP4 SUB SWAP1 SUB DUP5 MSTORE JUMPDEST POP POP POP SWAP2 SWAP1 POP JUMP JUMPDEST PUSH0 PUSH2 0x5E2 CALLER DUP7 DUP7 DUP7 PUSH2 0x114C JUMP JUMPDEST SWAP1 POP PUSH2 0x5F4 DUP6 DUP3 DUP5 PUSH1 0x3 CALLER DUP10 DUP10 PUSH2 0xEEF JUMP JUMPDEST PUSH1 0x40 DUP1 MLOAD CALLER DUP2 MSTORE PUSH1 0x1 PUSH1 0x1 PUSH1 0xA0 SHL SUB DUP8 DUP2 AND PUSH1 0x20 DUP4 ADD MSTORE DUP7 AND DUP2 DUP4 ADD MSTORE PUSH1 0x60 DUP2 ADD DUP6 SWAP1 MSTORE DUP4 ISZERO ISZERO PUSH1 0x80 DUP3 ADD MSTORE SWAP1 MLOAD PUSH32 0xE89C6BA1E8957285AED22618F52AA1DCB9D5BB64E1533D8B55136C72FCF5AA5D SWAP2 DUP2 SWAP1 SUB PUSH1 0xA0 ADD SWAP1 LOG1 POP POP POP POP POP JUMP JUMPDEST PUSH0 PUSH2 0x65E CALLER DUP5 PUSH2 0x10DF JUMP JUMPDEST SWAP1 POP PUSH2 0x670 DUP4 DUP3 DUP5 PUSH1 0x1 CALLER PUSH0 PUSH0 PUSH2 0xEEF JUMP JUMPDEST PUSH1 0x40 DUP1 MLOAD CALLER DUP2 MSTORE PUSH1 0x1 PUSH1 0x1 PUSH1 0xA0 SHL SUB DUP6 AND PUSH1 0x20 DUP3 ADD MSTORE DUP4 ISZERO ISZERO DUP2 DUP4 ADD MSTORE SWAP1 MLOAD PUSH32 0x58781EAB4A0743AB1C285A238BE846A235F06CDB5B968030573A635E5F8C92FA SWAP2 DUP2 SWAP1 SUB PUSH1 0x60 ADD SWAP1 LOG1 POP POP POP JUMP JUMPDEST PUSH1 0x1 PUSH1 0x1 PUSH1 0xA0 SHL SUB DUP2 AND PUSH0 SWAP1 DUP2 MSTORE PUSH1 0x20 DUP2 DUP2 MSTORE PUSH1 0x40 DUP1 DUP4 KECCAK256 PUSH1 0x1 DUP4 MSTORE DUP2 DUP5 KECCAK256 SLOAD DUP5 MSTORE SWAP1 SWAP2 MSTORE DUP2 KECCAK256 PUSH1 0x60 SWAP2 PUSH2 0x6F1 DUP3 PUSH2 0x10CB JUMP JUMPDEST SWAP1 POP PUSH0 DUP2 PUSH8 0xFFFFFFFFFFFFFFFF DUP2 GT ISZERO PUSH2 0x70D JUMPI PUSH2 0x70D PUSH2 0x170B JUMP JUMPDEST PUSH1 0x40 MLOAD SWAP1 DUP1 DUP3 MSTORE DUP1 PUSH1 0x20 MUL PUSH1 0x20 ADD DUP3 ADD PUSH1 0x40 MSTORE DUP1 ISZERO PUSH2 0x756 JUMPI DUP2 PUSH1 0x20 ADD JUMPDEST PUSH1 0x40 DUP1 MLOAD PUSH1 0x60 DUP2 ADD DUP3 MSTORE PUSH0 DUP1 DUP3 MSTORE PUSH1 0x20 DUP1 DUP4 ADD DUP3 SWAP1 MSTORE SWAP3 DUP3 ADD MSTORE DUP3 MSTORE PUSH0 NOT SWAP1 SWAP3 ADD SWAP2 ADD DUP2 PUSH2 0x72B JUMPI SWAP1 POP JUMPDEST POP SWAP4 POP PUSH0 JUMPDEST DUP3 DUP2 LT ISZERO PUSH2 0x5BA JUMPI PUSH0 PUSH2 0x76E DUP6 DUP4 PUSH2 0x10D4 JUMP JUMPDEST PUSH0 DUP2 DUP2 MSTORE PUSH1 0x4 PUSH1 0x20 MSTORE PUSH1 0x40 SWAP1 KECCAK256 SWAP1 SWAP2 POP PUSH1 0x3 DUP2 SLOAD PUSH1 0xFF AND PUSH1 0x3 DUP2 GT ISZERO PUSH2 0x796 JUMPI PUSH2 0x796 PUSH2 0x146B JUMP JUMPDEST SUB PUSH2 0x826 JUMPI PUSH1 0x1 DUP2 ADD SLOAD PUSH1 0x2 DUP3 ADD SLOAD PUSH1 0x3 DUP4 ADD SLOAD PUSH2 0x7C4 SWAP3 DUP12 SWAP3 PUSH1 0x1 PUSH1 0x1 PUSH1 0xA0 SHL SUB SWAP2 DUP3 AND SWAP3 SWAP2 AND SWAP1 PUSH2 0x114C JUMP JUMPDEST DUP3 SUB PUSH2 0x826 JUMPI PUSH1 0x40 DUP1 MLOAD PUSH1 0x60 DUP2 ADD DUP3 MSTORE PUSH1 0x2 DUP4 ADD SLOAD PUSH1 0x1 PUSH1 0x1 PUSH1 0xA0 SHL SUB SWAP1 DUP2 AND DUP3 MSTORE PUSH1 0x3 DUP5 ADD SLOAD PUSH1 0x20 DUP4 ADD MSTORE PUSH1 0x1 DUP5 ADD SLOAD AND SWAP2 DUP2 ADD SWAP2 SWAP1 SWAP2 MSTORE DUP8 DUP6 PUSH2 0x808 DUP2 PUSH2 0x16F3 JUMP JUMPDEST SWAP7 POP DUP2 MLOAD DUP2 LT PUSH2 0x81A JUMPI PUSH2 0x81A PUSH2 0x171F JUMP JUMPDEST PUSH1 0x20 MUL PUSH1 0x20 ADD ADD DUP2 SWAP1 MSTORE POP JUMPDEST POP POP PUSH1 0x1 ADD PUSH2 0x75B JUMP JUMPDEST PUSH1 0x1 PUSH1 0x1 PUSH1 0xA0 SHL SUB DUP3 DUP2 AND PUSH0 DUP2 DUP2 MSTORE PUSH1 0x1 PUSH1 0x20 SWAP1 DUP2 MSTORE PUSH1 0x40 DUP1 DUP4 KECCAK256 SLOAD PUSH1 0x2 DUP4 MSTORE DUP2 DUP5 KECCAK256 DUP10 DUP8 AND DUP1 DUP7 MSTORE SWAP1 DUP5 MSTORE DUP3 DUP6 KECCAK256 SLOAD DUP4 MLOAD DUP1 DUP7 ADD SWAP3 SWAP1 SWAP3 MSTORE DUP2 DUP5 ADD DUP8 SWAP1 MSTORE SWAP7 DUP9 AND PUSH1 0x60 DUP3 ADD MSTORE PUSH1 0x80 DUP2 ADD DUP3 SWAP1 MSTORE PUSH1 0xA0 DUP1 DUP3 ADD SWAP8 SWAP1 SWAP8 MSTORE DUP3 MLOAD DUP1 DUP3 SUB SWAP1 SWAP8 ADD DUP8 MSTORE PUSH1 0xC0 ADD DUP3 MSTORE DUP6 MLOAD SWAP6 DUP4 ADD SWAP6 SWAP1 SWAP6 KECCAK256 SWAP4 DUP4 MSTORE DUP3 DUP3 MSTORE DUP1 DUP4 KECCAK256 SWAP5 DUP4 MSTORE SWAP4 SWAP1 MSTORE SWAP2 DUP3 KECCAK256 PUSH2 0x8BB SWAP1 DUP3 PUSH2 0x11BA JUMP JUMPDEST PUSH2 0x8CE JUMPI PUSH2 0x8C9 DUP6 DUP6 PUSH2 0x8DA JUMP JUMPDEST PUSH2 0x8D1 JUMP JUMPDEST PUSH1 0x1 JUMPDEST SWAP6 SWAP5 POP POP POP POP POP JUMP JUMPDEST PUSH1 0x1 PUSH1 0x1 PUSH1 0xA0 SHL SUB DUP2 DUP2 AND PUSH0 DUP2 DUP2 MSTORE PUSH1 0x1 PUSH1 0x20 SWAP1 DUP2 MSTORE PUSH1 0x40 DUP1 DUP4 KECCAK256 SLOAD PUSH1 0x2 DUP4 MSTORE DUP2 DUP5 KECCAK256 SWAP6 DUP9 AND DUP1 DUP6 MSTORE SWAP6 DUP4 MSTORE DUP2 DUP5 KECCAK256 SLOAD DUP3 MLOAD DUP1 DUP6 ADD SWAP8 SWAP1 SWAP8 MSTORE DUP7 DUP4 ADD DUP7 SWAP1 MSTORE PUSH1 0x60 DUP8 ADD DUP3 SWAP1 MSTORE PUSH1 0x80 DUP1 DUP9 ADD SWAP2 SWAP1 SWAP2 MSTORE DUP3 MLOAD DUP1 DUP9 SUB SWAP1 SWAP2 ADD DUP2 MSTORE PUSH1 0xA0 SWAP1 SWAP7 ADD DUP3 MSTORE DUP6 MLOAD SWAP6 DUP4 ADD SWAP6 SWAP1 SWAP6 KECCAK256 SWAP4 DUP4 MSTORE DUP3 DUP3 MSTORE DUP1 DUP4 KECCAK256 SWAP5 DUP4 MSTORE SWAP4 SWAP1 MSTORE SWAP2 DUP3 KECCAK256 PUSH2 0x2B4 SWAP1 DUP3 PUSH2 0x11BA JUMP JUMPDEST PUSH1 0x1 PUSH1 0x1 PUSH1 0xA0 SHL SUB DUP1 DUP5 AND PUSH0 SWAP1 DUP2 MSTORE PUSH1 0x1 PUSH1 0x20 SWAP1 DUP2 MSTORE PUSH1 0x40 DUP1 DUP4 KECCAK256 SLOAD PUSH1 0x2 DUP4 MSTORE DUP2 DUP5 KECCAK256 SWAP5 DUP10 AND DUP5 MSTORE SWAP4 DUP3 MSTORE DUP1 DUP4 KECCAK256 SLOAD SWAP1 MLOAD SWAP3 SWAP4 DUP5 SWAP4 PUSH2 0x9A9 SWAP4 DUP11 SWAP4 DUP11 SWAP4 DUP11 SWAP4 DUP11 SWAP4 SWAP2 SWAP3 SWAP2 ADD PUSH2 0x1733 JUMP JUMPDEST PUSH1 0x40 DUP1 MLOAD PUSH1 0x1F NOT DUP2 DUP5 SUB ADD DUP2 MSTORE SWAP2 DUP2 MSTORE DUP2 MLOAD PUSH1 0x20 SWAP3 DUP4 ADD KECCAK256 PUSH1 0x1 PUSH1 0x1 PUSH1 0xA0 SHL SUB DUP9 AND PUSH0 SWAP1 DUP2 MSTORE DUP1 DUP5 MSTORE DUP3 DUP2 KECCAK256 PUSH1 0x1 DUP6 MSTORE DUP4 DUP3 KECCAK256 SLOAD DUP3 MSTORE SWAP1 SWAP4 MSTORE SWAP2 KECCAK256 SWAP1 SWAP2 POP PUSH2 0x9F1 SWAP1 DUP3 PUSH2 0x11BA JUMP JUMPDEST PUSH2 0xA05 JUMPI PUSH2 0xA00 DUP7 DUP7 DUP7 PUSH2 0x830 JUMP JUMPDEST PUSH2 0xA08 JUMP JUMPDEST PUSH1 0x1 JUMPDEST SWAP7 SWAP6 POP POP POP POP POP POP JUMP JUMPDEST PUSH1 0x60 PUSH2 0xA21 DUP4 PUSH1 0x2 DUP5 PUSH0 PUSH2 0xB8C JUMP JUMPDEST SWAP4 SWAP3 POP POP POP JUMP JUMPDEST PUSH1 0x1 PUSH1 0x1 PUSH1 0xA0 SHL SUB DUP2 AND PUSH0 SWAP1 DUP2 MSTORE PUSH1 0x20 DUP2 DUP2 MSTORE PUSH1 0x40 DUP1 DUP4 KECCAK256 PUSH1 0x1 DUP4 MSTORE DUP2 DUP5 KECCAK256 SLOAD DUP5 MSTORE SWAP1 SWAP2 MSTORE DUP2 KECCAK256 PUSH1 0x60 SWAP2 PUSH2 0xA5B DUP3 PUSH2 0x10CB JUMP JUMPDEST SWAP1 POP PUSH0 DUP2 PUSH8 0xFFFFFFFFFFFFFFFF DUP2 GT ISZERO PUSH2 0xA77 JUMPI PUSH2 0xA77 PUSH2 0x170B JUMP JUMPDEST PUSH1 0x40 MLOAD SWAP1 DUP1 DUP3 MSTORE DUP1 PUSH1 0x20 MUL PUSH1 0x20 ADD DUP3 ADD PUSH1 0x40 MSTORE DUP1 ISZERO PUSH2 0xABB JUMPI DUP2 PUSH1 0x20 ADD JUMPDEST PUSH1 0x40 DUP1 MLOAD DUP1 DUP3 ADD SWAP1 SWAP2 MSTORE PUSH0 DUP1 DUP3 MSTORE PUSH1 0x20 DUP3 ADD MSTORE DUP2 MSTORE PUSH1 0x20 ADD SWAP1 PUSH1 0x1 SWAP1 SUB SWAP1 DUP2 PUSH2 0xA95 JUMPI SWAP1 POP JUMPDEST POP SWAP4 POP PUSH0 JUMPDEST DUP3 DUP2 LT ISZERO PUSH2 0x5BA JUMPI PUSH0 PUSH2 0xAD3 DUP6 DUP4 PUSH2 0x10D4 JUMP JUMPDEST PUSH0 DUP2 DUP2 MSTORE PUSH1 0x4 PUSH1 0x20 MSTORE PUSH1 0x40 SWAP1 KECCAK256 SWAP1 SWAP2 POP PUSH1 0x2 DUP2 SLOAD PUSH1 0xFF AND PUSH1 0x3 DUP2 GT ISZERO PUSH2 0xAFB JUMPI PUSH2 0xAFB PUSH2 0x146B JUMP JUMPDEST SUB PUSH2 0xB78 JUMPI PUSH1 0x1 DUP2 ADD SLOAD PUSH1 0x2 DUP3 ADD SLOAD PUSH2 0xB22 SWAP2 DUP11 SWAP2 PUSH1 0x1 PUSH1 0x1 PUSH1 0xA0 SHL SUB SWAP2 DUP3 AND SWAP2 AND PUSH2 0xE7E JUMP JUMPDEST DUP3 SUB PUSH2 0xB78 JUMPI PUSH1 0x40 DUP1 MLOAD DUP1 DUP3 ADD SWAP1 SWAP2 MSTORE PUSH1 0x2 DUP3 ADD SLOAD PUSH1 0x1 PUSH1 0x1 PUSH1 0xA0 SHL SUB SWAP1 DUP2 AND DUP3 MSTORE PUSH1 0x1 DUP4 ADD SLOAD AND PUSH1 0x20 DUP3 ADD MSTORE DUP8 DUP6 PUSH2 0xB5A DUP2 PUSH2 0x16F3 JUMP JUMPDEST SWAP7 POP DUP2 MLOAD DUP2 LT PUSH2 0xB6C JUMPI PUSH2 0xB6C PUSH2 0x171F JUMP JUMPDEST PUSH1 0x20 MUL PUSH1 0x20 ADD ADD DUP2 SWAP1 MSTORE POP JUMPDEST POP POP PUSH1 0x1 ADD PUSH2 0xAC0 JUMP JUMPDEST PUSH2 0x2D5 DUP2 CALLER PUSH2 0xE01 JUMP JUMPDEST PUSH1 0x1 PUSH1 0x1 PUSH1 0xA0 SHL SUB DUP5 AND PUSH0 SWAP1 DUP2 MSTORE PUSH1 0x20 DUP2 DUP2 MSTORE PUSH1 0x40 DUP1 DUP4 KECCAK256 PUSH1 0x1 DUP4 MSTORE DUP2 DUP5 KECCAK256 SLOAD DUP5 MSTORE SWAP1 SWAP2 MSTORE DUP2 KECCAK256 PUSH1 0x60 SWAP2 PUSH2 0xBBF DUP3 PUSH2 0x10CB JUMP JUMPDEST SWAP1 POP PUSH0 DUP2 PUSH8 0xFFFFFFFFFFFFFFFF DUP2 GT ISZERO PUSH2 0xBDB JUMPI PUSH2 0xBDB PUSH2 0x170B JUMP JUMPDEST PUSH1 0x40 MLOAD SWAP1 DUP1 DUP3 MSTORE DUP1 PUSH1 0x20 MUL PUSH1 0x20 ADD DUP3 ADD PUSH1 0x40 MSTORE DUP1 ISZERO PUSH2 0xC04 JUMPI DUP2 PUSH1 0x20 ADD PUSH1 0x20 DUP3 MUL DUP1 CALLDATASIZE DUP4 CALLDATACOPY ADD SWAP1 POP JUMPDEST POP SWAP4 POP PUSH0 JUMPDEST DUP3 DUP2 LT ISZERO PUSH2 0xDE3 JUMPI PUSH0 PUSH2 0xC1C DUP6 DUP4 PUSH2 0x10D4 JUMP JUMPDEST PUSH0 DUP2 DUP2 MSTORE PUSH1 0x4 PUSH1 0x20 MSTORE PUSH1 0x40 SWAP1 KECCAK256 SWAP1 SWAP2 POP DUP10 PUSH1 0x3 DUP2 GT ISZERO PUSH2 0xC3E JUMPI PUSH2 0xC3E PUSH2 0x146B JUMP JUMPDEST DUP2 SLOAD PUSH1 0xFF AND PUSH1 0x3 DUP2 GT ISZERO PUSH2 0xC54 JUMPI PUSH2 0xC54 PUSH2 0x146B JUMP JUMPDEST SUB PUSH2 0xDD9 JUMPI PUSH1 0x1 DUP11 PUSH1 0x3 DUP2 GT ISZERO PUSH2 0xC6D JUMPI PUSH2 0xC6D PUSH2 0x146B JUMP JUMPDEST SUB PUSH2 0xCE2 JUMPI PUSH1 0x1 DUP2 ADD SLOAD PUSH2 0xC8B SWAP1 DUP13 SWAP1 PUSH1 0x1 PUSH1 0x1 PUSH1 0xA0 SHL SUB AND PUSH2 0x10DF JUMP JUMPDEST DUP3 SUB PUSH2 0xCDD JUMPI PUSH1 0x1 DUP2 ADD SLOAD PUSH1 0x1 PUSH1 0x1 PUSH1 0xA0 SHL SUB AND DUP8 DUP6 PUSH2 0xCAA DUP2 PUSH2 0x16F3 JUMP JUMPDEST SWAP7 POP DUP2 MLOAD DUP2 LT PUSH2 0xCBC JUMPI PUSH2 0xCBC PUSH2 0x171F JUMP JUMPDEST PUSH1 0x20 MUL PUSH1 0x20 ADD ADD SWAP1 PUSH1 0x1 PUSH1 0x1 PUSH1 0xA0 SHL SUB AND SWAP1 DUP2 PUSH1 0x1 PUSH1 0x1 PUSH1 0xA0 SHL SUB AND DUP2 MSTORE POP POP JUMPDEST PUSH2 0xDD9 JUMP JUMPDEST PUSH1 0x2 DUP11 PUSH1 0x3 DUP2 GT ISZERO PUSH2 0xCF6 JUMPI PUSH2 0xCF6 PUSH2 0x146B JUMP JUMPDEST SUB PUSH2 0xD2C JUMPI PUSH1 0x2 DUP2 ADD SLOAD PUSH1 0x1 PUSH1 0x1 PUSH1 0xA0 SHL SUB DUP1 DUP12 AND SWAP2 AND SUB PUSH2 0xCDD JUMPI PUSH1 0x1 DUP2 ADD SLOAD PUSH2 0xC8B SWAP1 DUP13 SWAP1 PUSH1 0x1 PUSH1 0x1 PUSH1 0xA0 SHL SUB AND DUP12 PUSH2 0xE7E JUMP JUMPDEST PUSH1 0x3 DUP11 PUSH1 0x3 DUP2 GT ISZERO PUSH2 0xD40 JUMPI PUSH2 0xD40 PUSH2 0x146B JUMP JUMPDEST SUB PUSH2 0xDD9 JUMPI PUSH1 0x2 DUP2 ADD SLOAD PUSH1 0x1 PUSH1 0x1 PUSH1 0xA0 SHL SUB DUP11 DUP2 AND SWAP2 AND EQ DUP1 ISZERO PUSH2 0xD67 JUMPI POP DUP8 DUP2 PUSH1 0x3 ADD SLOAD EQ JUMPDEST ISZERO PUSH2 0xDD9 JUMPI PUSH1 0x1 DUP2 ADD SLOAD PUSH2 0xD87 SWAP1 DUP13 SWAP1 PUSH1 0x1 PUSH1 0x1 PUSH1 0xA0 SHL SUB AND DUP12 DUP12 PUSH2 0x114C JUMP JUMPDEST DUP3 SUB PUSH2 0xDD9 JUMPI PUSH1 0x1 DUP2 ADD SLOAD PUSH1 0x1 PUSH1 0x1 PUSH1 0xA0 SHL SUB AND DUP8 DUP6 PUSH2 0xDA6 DUP2 PUSH2 0x16F3 JUMP JUMPDEST SWAP7 POP DUP2 MLOAD DUP2 LT PUSH2 0xDB8 JUMPI PUSH2 0xDB8 PUSH2 0x171F JUMP JUMPDEST PUSH1 0x20 MUL PUSH1 0x20 ADD ADD SWAP1 PUSH1 0x1 PUSH1 0x1 PUSH1 0xA0 SHL SUB AND SWAP1 DUP2 PUSH1 0x1 PUSH1 0x1 PUSH1 0xA0 SHL SUB AND DUP2 MSTORE POP POP JUMPDEST POP POP PUSH1 0x1 ADD PUSH2 0xC09 JUMP JUMPDEST POP DUP1 DUP3 GT ISZERO PUSH2 0xDF6 JUMPI DUP4 MLOAD DUP2 DUP4 SUB SWAP1 SUB DUP5 MSTORE JUMPDEST POP POP POP SWAP5 SWAP4 POP POP POP POP JUMP JUMPDEST PUSH1 0x1 PUSH1 0x1 PUSH1 0xA0 SHL SUB DUP1 DUP3 AND PUSH0 SWAP1 DUP2 MSTORE PUSH1 0x2 PUSH1 0x20 SWAP1 DUP2 MSTORE PUSH1 0x40 DUP1 DUP4 KECCAK256 SWAP4 DUP7 AND DUP4 MSTORE SWAP3 SWAP1 MSTORE SWAP1 DUP2 KECCAK256 DUP1 SLOAD SWAP1 SWAP2 SWAP1 PUSH2 0xE35 SWAP1 PUSH2 0x16F3 JUMP JUMPDEST SWAP1 SWAP2 SSTORE POP PUSH1 0x40 DUP1 MLOAD PUSH1 0x1 PUSH1 0x1 PUSH1 0xA0 SHL SUB DUP4 AND DUP2 MSTORE CALLER PUSH1 0x20 DUP3 ADD MSTORE PUSH32 0x3E34A3EE53064FB79C0EE57448F03774A627A9270B0C41286EFB7D8E32DCDE93 SWAP2 ADD PUSH1 0x40 MLOAD DUP1 SWAP2 SUB SWAP1 LOG1 POP POP JUMP JUMPDEST PUSH1 0x1 PUSH1 0x1 PUSH1 0xA0 SHL SUB SWAP3 DUP4 AND PUSH0 DUP2 DUP2 MSTORE PUSH1 0x1 PUSH1 0x20 SWAP1 DUP2 MSTORE PUSH1 0x40 DUP1 DUP4 KECCAK256 SLOAD PUSH1 0x2 DUP4 MSTORE DUP2 DUP5 KECCAK256 SWAP7 DUP9 AND DUP1 DUP6 MSTORE SWAP7 DUP4 MSTORE SWAP3 DUP2 SWAP1 KECCAK256 SLOAD DUP2 MLOAD DUP1 DUP5 ADD SWAP8 SWAP1 SWAP8 MSTORE DUP7 DUP3 ADD SWAP5 SWAP1 SWAP5 MSTORE SWAP4 SWAP1 SWAP6 AND PUSH1 0x60 DUP6 ADD MSTORE PUSH1 0x80 DUP5 ADD MSTORE PUSH1 0xA0 DUP1 DUP5 ADD SWAP2 SWAP1 SWAP2 MSTORE DUP2 MLOAD DUP1 DUP5 SUB SWAP1 SWAP2 ADD DUP2 MSTORE PUSH1 0xC0 SWAP1 SWAP3 ADD SWAP1 MSTORE DUP1 MLOAD SWAP2 ADD KECCAK256 SWAP1 JUMP JUMPDEST DUP5 ISZERO PUSH2 0x102E JUMPI PUSH1 0x1 PUSH1 0x1 PUSH1 0xA0 SHL SUB DUP4 AND PUSH0 SWAP1 DUP2 MSTORE PUSH1 0x20 DUP2 DUP2 MSTORE PUSH1 0x40 DUP1 DUP4 KECCAK256 PUSH1 0x1 DUP4 MSTORE DUP2 DUP5 KECCAK256 SLOAD DUP5 MSTORE SWAP1 SWAP2 MSTORE SWAP1 KECCAK256 PUSH2 0xF26 SWAP1 DUP8 PUSH2 0x11D1 JUMP JUMPDEST POP PUSH1 0x1 PUSH1 0x1 PUSH1 0xA0 SHL SUB DUP8 AND PUSH0 SWAP1 DUP2 MSTORE PUSH1 0x3 PUSH1 0x20 MSTORE PUSH1 0x40 SWAP1 KECCAK256 PUSH2 0xF48 SWAP1 DUP8 PUSH2 0x11D1 JUMP JUMPDEST POP PUSH1 0x40 MLOAD DUP1 PUSH1 0xA0 ADD PUSH1 0x40 MSTORE DUP1 DUP6 PUSH1 0x3 DUP2 GT ISZERO PUSH2 0xF66 JUMPI PUSH2 0xF66 PUSH2 0x146B JUMP JUMPDEST DUP2 MSTORE PUSH1 0x1 PUSH1 0x1 PUSH1 0xA0 SHL SUB DUP1 DUP7 AND PUSH1 0x20 DUP1 DUP5 ADD SWAP2 SWAP1 SWAP2 MSTORE DUP11 DUP3 AND PUSH1 0x40 DUP1 DUP6 ADD SWAP2 SWAP1 SWAP2 MSTORE SWAP2 DUP7 AND PUSH1 0x60 DUP5 ADD MSTORE PUSH1 0x80 SWAP1 SWAP3 ADD DUP5 SWAP1 MSTORE PUSH0 DUP10 DUP2 MSTORE PUSH1 0x4 SWAP1 SWAP3 MSTORE SWAP1 KECCAK256 DUP2 MLOAD DUP2 SLOAD DUP3 SWAP1 PUSH1 0xFF NOT AND PUSH1 0x1 DUP4 PUSH1 0x3 DUP2 GT ISZERO PUSH2 0xFC1 JUMPI PUSH2 0xFC1 PUSH2 0x146B JUMP JUMPDEST MUL OR SWAP1 SSTORE POP PUSH1 0x20 DUP3 ADD MLOAD DUP2 SLOAD PUSH1 0x1 PUSH1 0x1 PUSH1 0xA0 SHL SUB SWAP2 DUP3 AND PUSH2 0x100 MUL PUSH2 0x100 PUSH1 0x1 PUSH1 0xA8 SHL SUB NOT SWAP1 SWAP2 AND OR DUP3 SSTORE PUSH1 0x40 DUP4 ADD MLOAD PUSH1 0x1 DUP4 ADD DUP1 SLOAD SWAP2 DUP4 AND PUSH1 0x1 PUSH1 0x1 PUSH1 0xA0 SHL SUB NOT SWAP3 DUP4 AND OR SWAP1 SSTORE PUSH1 0x60 DUP5 ADD MLOAD PUSH1 0x2 DUP5 ADD DUP1 SLOAD SWAP2 SWAP1 SWAP4 AND SWAP2 AND OR SWAP1 SSTORE PUSH1 0x80 SWAP1 SWAP2 ADD MLOAD PUSH1 0x3 SWAP1 SWAP2 ADD SSTORE PUSH2 0x10C2 JUMP JUMPDEST PUSH1 0x1 PUSH1 0x1 PUSH1 0xA0 SHL SUB DUP4 AND PUSH0 SWAP1 DUP2 MSTORE PUSH1 0x20 DUP2 DUP2 MSTORE PUSH1 0x40 DUP1 DUP4 KECCAK256 PUSH1 0x1 DUP4 MSTORE DUP2 DUP5 KECCAK256 SLOAD DUP5 MSTORE SWAP1 SWAP2 MSTORE SWAP1 KECCAK256 PUSH2 0x105F SWAP1 DUP8 PUSH2 0x11DC JUMP JUMPDEST POP PUSH1 0x1 PUSH1 0x1 PUSH1 0xA0 SHL SUB DUP8 AND PUSH0 SWAP1 DUP2 MSTORE PUSH1 0x3 PUSH1 0x20 MSTORE PUSH1 0x40 SWAP1 KECCAK256 PUSH2 0x1081 SWAP1 DUP8 PUSH2 0x11DC JUMP JUMPDEST POP PUSH0 DUP7 DUP2 MSTORE PUSH1 0x4 PUSH1 0x20 MSTORE PUSH1 0x40 DUP2 KECCAK256 DUP1 SLOAD PUSH1 0x1 PUSH1 0x1 PUSH1 0xA8 SHL SUB NOT AND DUP2 SSTORE PUSH1 0x1 DUP2 ADD DUP1 SLOAD PUSH1 0x1 PUSH1 0x1 PUSH1 0xA0 SHL SUB NOT SWAP1 DUP2 AND SWAP1 SWAP2 SSTORE PUSH1 0x2 DUP3 ADD DUP1 SLOAD SWAP1 SWAP2 AND SWAP1 SSTORE PUSH1 0x3 ADD SSTORE JUMPDEST POP POP POP POP POP POP POP JUMP JUMPDEST PUSH0 PUSH2 0x29F DUP3 SLOAD SWAP1 JUMP JUMPDEST PUSH0 PUSH2 0xA21 DUP4 DUP4 PUSH2 0x11E7 JUMP JUMPDEST PUSH1 0x1 PUSH1 0x1 PUSH1 0xA0 SHL SUB SWAP2 DUP3 AND PUSH0 DUP2 DUP2 MSTORE PUSH1 0x1 PUSH1 0x20 SWAP1 DUP2 MSTORE PUSH1 0x40 DUP1 DUP4 KECCAK256 SLOAD PUSH1 0x2 DUP4 MSTORE DUP2 DUP5 KECCAK256 SWAP6 SWAP1 SWAP7 AND DUP1 DUP5 MSTORE SWAP5 DUP3 MSTORE SWAP2 DUP3 SWAP1 KECCAK256 SLOAD DUP3 MLOAD DUP1 DUP4 ADD SWAP6 SWAP1 SWAP6 MSTORE DUP5 DUP4 ADD SWAP4 SWAP1 SWAP4 MSTORE PUSH1 0x60 DUP5 ADD SWAP5 SWAP1 SWAP5 MSTORE PUSH1 0x80 DUP1 DUP5 ADD SWAP3 SWAP1 SWAP3 MSTORE DUP1 MLOAD DUP1 DUP5 SUB SWAP1 SWAP3 ADD DUP3 MSTORE PUSH1 0xA0 SWAP1 SWAP3 ADD SWAP1 SWAP2 MSTORE DUP1 MLOAD SWAP2 ADD KECCAK256 SWAP1 JUMP JUMPDEST PUSH1 0x1 PUSH1 0x1 PUSH1 0xA0 SHL SUB DUP1 DUP6 AND PUSH0 SWAP1 DUP2 MSTORE PUSH1 0x1 PUSH1 0x20 SWAP1 DUP2 MSTORE PUSH1 0x40 DUP1 DUP4 KECCAK256 SLOAD PUSH1 0x2 DUP4 MSTORE DUP2 DUP5 KECCAK256 SWAP5 DUP9 AND DUP5 MSTORE SWAP4 DUP3 MSTORE DUP1 DUP4 KECCAK256 SLOAD SWAP1 MLOAD SWAP3 SWAP4 SWAP3 SWAP1 SWAP2 PUSH2 0x1198 SWAP2 DUP9 SWAP2 DUP11 SWAP2 DUP10 SWAP2 DUP10 SWAP2 DUP9 SWAP2 DUP9 SWAP2 ADD PUSH2 0x1733 JUMP JUMPDEST PUSH1 0x40 MLOAD PUSH1 0x20 DUP2 DUP4 SUB SUB DUP2 MSTORE SWAP1 PUSH1 0x40 MSTORE DUP1 MLOAD SWAP1 PUSH1 0x20 ADD KECCAK256 SWAP3 POP POP POP SWAP5 SWAP4 POP POP POP POP JUMP JUMPDEST PUSH0 DUP2 DUP2 MSTORE PUSH1 0x1 DUP4 ADD PUSH1 0x20 MSTORE PUSH1 0x40 DUP2 KECCAK256 SLOAD ISZERO ISZERO PUSH2 0xA21 JUMP JUMPDEST PUSH0 PUSH2 0xA21 DUP4 DUP4 PUSH2 0x120D JUMP JUMPDEST PUSH0 PUSH2 0xA21 DUP4 DUP4 PUSH2 0x1259 JUMP JUMPDEST PUSH0 DUP3 PUSH0 ADD DUP3 DUP2 SLOAD DUP2 LT PUSH2 0x11FC JUMPI PUSH2 0x11FC PUSH2 0x171F JUMP JUMPDEST SWAP1 PUSH0 MSTORE PUSH1 0x20 PUSH0 KECCAK256 ADD SLOAD SWAP1 POP SWAP3 SWAP2 POP POP JUMP JUMPDEST PUSH0 DUP2 DUP2 MSTORE PUSH1 0x1 DUP4 ADD PUSH1 0x20 MSTORE PUSH1 0x40 DUP2 KECCAK256 SLOAD PUSH2 0x1252 JUMPI POP DUP2 SLOAD PUSH1 0x1 DUP2 DUP2 ADD DUP5 SSTORE PUSH0 DUP5 DUP2 MSTORE PUSH1 0x20 DUP1 DUP3 KECCAK256 SWAP1 SWAP4 ADD DUP5 SWAP1 SSTORE DUP5 SLOAD DUP5 DUP3 MSTORE DUP3 DUP7 ADD SWAP1 SWAP4 MSTORE PUSH1 0x40 SWAP1 KECCAK256 SWAP2 SWAP1 SWAP2 SSTORE PUSH2 0x29F JUMP JUMPDEST POP PUSH0 PUSH2 0x29F JUMP JUMPDEST PUSH0 DUP2 DUP2 MSTORE PUSH1 0x1 DUP4 ADD PUSH1 0x20 MSTORE PUSH1 0x40 DUP2 KECCAK256 SLOAD DUP1 ISZERO PUSH2 0x1333 JUMPI PUSH0 PUSH2 0x127B PUSH1 0x1 DUP4 PUSH2 0x176C JUMP JUMPDEST DUP6 SLOAD SWAP1 SWAP2 POP PUSH0 SWAP1 PUSH2 0x128E SWAP1 PUSH1 0x1 SWAP1 PUSH2 0x176C JUMP JUMPDEST SWAP1 POP DUP2 DUP2 EQ PUSH2 0x12ED JUMPI PUSH0 DUP7 PUSH0 ADD DUP3 DUP2 SLOAD DUP2 LT PUSH2 0x12AC JUMPI PUSH2 0x12AC PUSH2 0x171F JUMP JUMPDEST SWAP1 PUSH0 MSTORE PUSH1 0x20 PUSH0 KECCAK256 ADD SLOAD SWAP1 POP DUP1 DUP8 PUSH0 ADD DUP5 DUP2 SLOAD DUP2 LT PUSH2 0x12CC JUMPI PUSH2 0x12CC PUSH2 0x171F JUMP JUMPDEST PUSH0 SWAP2 DUP3 MSTORE PUSH1 0x20 DUP1 DUP4 KECCAK256 SWAP1 SWAP2 ADD SWAP3 SWAP1 SWAP3 SSTORE SWAP2 DUP3 MSTORE PUSH1 0x1 DUP9 ADD SWAP1 MSTORE PUSH1 0x40 SWAP1 KECCAK256 DUP4 SWAP1 SSTORE JUMPDEST DUP6 SLOAD DUP7 SWAP1 DUP1 PUSH2 0x12FE JUMPI PUSH2 0x12FE PUSH2 0x177F JUMP JUMPDEST PUSH1 0x1 SWAP1 SUB DUP2 DUP2 SWAP1 PUSH0 MSTORE PUSH1 0x20 PUSH0 KECCAK256 ADD PUSH0 SWAP1 SSTORE SWAP1 SSTORE DUP6 PUSH1 0x1 ADD PUSH0 DUP7 DUP2 MSTORE PUSH1 0x20 ADD SWAP1 DUP2 MSTORE PUSH1 0x20 ADD PUSH0 KECCAK256 PUSH0 SWAP1 SSTORE PUSH1 0x1 SWAP4 POP POP POP POP PUSH2 0x29F JUMP JUMPDEST PUSH0 SWAP2 POP POP PUSH2 0x29F JUMP JUMPDEST PUSH0 PUSH1 0x20 DUP3 DUP5 SUB SLT ISZERO PUSH2 0x134C JUMPI PUSH0 PUSH0 REVERT JUMPDEST DUP2 CALLDATALOAD PUSH1 0x1 PUSH1 0x1 PUSH1 0xE0 SHL SUB NOT DUP2 AND DUP2 EQ PUSH2 0xA21 JUMPI PUSH0 PUSH0 REVERT JUMPDEST DUP1 CALLDATALOAD PUSH1 0x1 PUSH1 0x1 PUSH1 0xA0 SHL SUB DUP2 AND DUP2 EQ PUSH2 0x1379 JUMPI PUSH0 PUSH0 REVERT JUMPDEST SWAP2 SWAP1 POP JUMP JUMPDEST PUSH0 PUSH0 PUSH0 PUSH1 0x60 DUP5 DUP7 SUB SLT ISZERO PUSH2 0x1390 JUMPI PUSH0 PUSH0 REVERT JUMPDEST PUSH2 0x1399 DUP5 PUSH2 0x1363 JUMP JUMPDEST SWAP3 POP PUSH2 0x13A7 PUSH1 0x20 DUP6 ADD PUSH2 0x1363 JUMP JUMPDEST SWAP3 SWAP6 SWAP3 SWAP5 POP POP POP PUSH1 0x40 SWAP2 SWAP1 SWAP2 ADD CALLDATALOAD SWAP1 JUMP JUMPDEST PUSH1 0x20 DUP1 DUP3 MSTORE DUP3 MLOAD DUP3 DUP3 ADD DUP2 SWAP1 MSTORE PUSH0 SWAP2 DUP5 ADD SWAP1 PUSH1 0x40 DUP5 ADD SWAP1 DUP4 JUMPDEST DUP2 DUP2 LT ISZERO PUSH2 0x13F8 JUMPI DUP4 MLOAD PUSH1 0x1 PUSH1 0x1 PUSH1 0xA0 SHL SUB AND DUP4 MSTORE PUSH1 0x20 SWAP4 DUP5 ADD SWAP4 SWAP1 SWAP3 ADD SWAP2 PUSH1 0x1 ADD PUSH2 0x13D1 JUMP JUMPDEST POP SWAP1 SWAP6 SWAP5 POP POP POP POP POP JUMP JUMPDEST PUSH0 PUSH1 0x20 DUP3 DUP5 SUB SLT ISZERO PUSH2 0x1413 JUMPI PUSH0 PUSH0 REVERT JUMPDEST PUSH2 0xA21 DUP3 PUSH2 0x1363 JUMP JUMPDEST DUP1 CALLDATALOAD DUP1 ISZERO ISZERO DUP2 EQ PUSH2 0x1379 JUMPI PUSH0 PUSH0 REVERT JUMPDEST PUSH0 PUSH0 PUSH0 PUSH1 0x60 DUP5 DUP7 SUB SLT ISZERO PUSH2 0x143D JUMPI PUSH0 PUSH0 REVERT JUMPDEST PUSH2 0x1446 DUP5 PUSH2 0x1363 JUMP JUMPDEST SWAP3 POP PUSH2 0x1454 PUSH1 0x20 DUP6 ADD PUSH2 0x1363 JUMP JUMPDEST SWAP2 POP PUSH2 0x1462 PUSH1 0x40 DUP6 ADD PUSH2 0x141C JUMP JUMPDEST SWAP1 POP SWAP3 POP SWAP3 POP SWAP3 JUMP JUMPDEST PUSH4 0x4E487B71 PUSH1 0xE0 SHL PUSH0 MSTORE PUSH1 0x21 PUSH1 0x4 MSTORE PUSH1 0x24 PUSH0 REVERT JUMPDEST PUSH1 0x20 DUP1 DUP3 MSTORE DUP3 MLOAD DUP3 DUP3 ADD DUP2 SWAP1 MSTORE PUSH0 SWAP2 DUP5 ADD SWAP1 PUSH1 0x40 DUP5 ADD SWAP1 DUP4 JUMPDEST DUP2 DUP2 LT ISZERO PUSH2 0x13F8 JUMPI DUP4 MLOAD DUP1 MLOAD PUSH1 0x4 DUP2 LT PUSH2 0x14C0 JUMPI PUSH4 0x4E487B71 PUSH1 0xE0 SHL PUSH0 MSTORE PUSH1 0x21 PUSH1 0x4 MSTORE PUSH1 0x24 PUSH0 REVERT JUMPDEST DUP5 MSTORE PUSH1 0x20 DUP2 DUP2 ADD MLOAD PUSH1 0x1 PUSH1 0x1 PUSH1 0xA0 SHL SUB SWAP1 DUP2 AND DUP3 DUP8 ADD MSTORE PUSH1 0x40 DUP1 DUP5 ADD MLOAD DUP3 AND SWAP1 DUP8 ADD MSTORE PUSH1 0x60 DUP1 DUP5 ADD MLOAD SWAP1 SWAP2 AND SWAP1 DUP7 ADD MSTORE PUSH1 0x80 SWAP2 DUP3 ADD MLOAD SWAP2 DUP6 ADD SWAP2 SWAP1 SWAP2 MSTORE SWAP4 SWAP1 SWAP4 ADD SWAP3 PUSH1 0xA0 SWAP1 SWAP3 ADD SWAP2 PUSH1 0x1 ADD PUSH2 0x1498 JUMP JUMPDEST PUSH0 PUSH0 PUSH0 PUSH0 PUSH1 0x80 DUP6 DUP8 SUB SLT ISZERO PUSH2 0x1523 JUMPI PUSH0 PUSH0 REVERT JUMPDEST PUSH2 0x152C DUP6 PUSH2 0x1363 JUMP JUMPDEST SWAP4 POP PUSH2 0x153A PUSH1 0x20 DUP7 ADD PUSH2 0x1363 JUMP JUMPDEST SWAP3 POP PUSH1 0x40 DUP6 ADD CALLDATALOAD SWAP2 POP PUSH2 0x154F PUSH1 0x60 DUP7 ADD PUSH2 0x141C JUMP JUMPDEST SWAP1 POP SWAP3 SWAP6 SWAP2 SWAP5 POP SWAP3 POP JUMP JUMPDEST PUSH0 PUSH0 PUSH1 0x40 DUP4 DUP6 SUB SLT ISZERO PUSH2 0x156B JUMPI PUSH0 PUSH0 REVERT JUMPDEST PUSH2 0x1574 DUP4 PUSH2 0x1363 JUMP JUMPDEST SWAP2 POP PUSH2 0x1582 PUSH1 0x20 DUP5 ADD PUSH2 0x141C JUMP JUMPDEST SWAP1 POP SWAP3 POP SWAP3 SWAP1 POP JUMP JUMPDEST PUSH1 0x20 DUP1 DUP3 MSTORE DUP3 MLOAD DUP3 DUP3 ADD DUP2 SWAP1 MSTORE PUSH0 SWAP2 DUP5 ADD SWAP1 PUSH1 0x40 DUP5 ADD SWAP1 DUP4 JUMPDEST DUP2 DUP2 LT ISZERO PUSH2 0x13F8 JUMPI DUP4 MLOAD DUP1 MLOAD PUSH1 0x1 PUSH1 0x1 PUSH1 0xA0 SHL SUB SWAP1 DUP2 AND DUP6 MSTORE PUSH1 0x20 DUP1 DUP4 ADD MLOAD DUP2 DUP8 ADD MSTORE PUSH1 0x40 SWAP3 DUP4 ADD MLOAD SWAP1 SWAP2 AND SWAP2 DUP6 ADD SWAP2 SWAP1 SWAP2 MSTORE SWAP1 SWAP4 ADD SWAP3 PUSH1 0x60 SWAP1 SWAP3 ADD SWAP2 PUSH1 0x1 ADD PUSH2 0x15A4 JUMP JUMPDEST PUSH0 PUSH0 PUSH0 PUSH1 0x60 DUP5 DUP7 SUB SLT ISZERO PUSH2 0x15FB JUMPI PUSH0 PUSH0 REVERT JUMPDEST PUSH2 0x1604 DUP5 PUSH2 0x1363 JUMP JUMPDEST SWAP3 POP PUSH2 0x1612 PUSH1 0x20 DUP6 ADD PUSH2 0x1363 JUMP JUMPDEST SWAP2 POP PUSH2 0x1462 PUSH1 0x40 DUP6 ADD PUSH2 0x1363 JUMP JUMPDEST PUSH0 PUSH0 PUSH1 0x40 DUP4 DUP6 SUB SLT ISZERO PUSH2 0x1631 JUMPI PUSH0 PUSH0 REVERT JUMPDEST PUSH2 0x163A DUP4 PUSH2 0x1363 JUMP JUMPDEST SWAP2 POP PUSH2 0x1582 PUSH1 0x20 DUP5 ADD PUSH2 0x1363 JUMP JUMPDEST PUSH0 PUSH0 PUSH0 PUSH0 PUSH1 0x80 DUP6 DUP8 SUB SLT ISZERO PUSH2 0x165B JUMPI PUSH0 PUSH0 REVERT JUMPDEST PUSH2 0x1664 DUP6 PUSH2 0x1363 JUMP JUMPDEST SWAP4 POP PUSH2 0x1672 PUSH1 0x20 DUP7 ADD PUSH2 0x1363 JUMP JUMPDEST SWAP3 POP PUSH2 0x1680 PUSH1 0x40 DUP7 ADD PUSH2 0x1363 JUMP JUMPDEST SWAP4 SWAP7 SWAP3 SWAP6 POP SWAP3 SWAP4 PUSH1 0x60 ADD CALLDATALOAD SWAP3 POP POP JUMP JUMPDEST PUSH1 0x20 DUP1 DUP3 MSTORE DUP3 MLOAD DUP3 DUP3 ADD DUP2 SWAP1 MSTORE PUSH0 SWAP2 DUP5 ADD SWAP1 PUSH1 0x40 DUP5 ADD SWAP1 DUP4 JUMPDEST DUP2 DUP2 LT ISZERO PUSH2 0x13F8 JUMPI DUP4 MLOAD DUP1 MLOAD PUSH1 0x1 PUSH1 0x1 PUSH1 0xA0 SHL SUB SWAP1 DUP2 AND DUP6 MSTORE PUSH1 0x20 SWAP2 DUP3 ADD MLOAD AND DUP2 DUP6 ADD MSTORE SWAP1 SWAP4 ADD SWAP3 PUSH1 0x40 SWAP1 SWAP3 ADD SWAP2 PUSH1 0x1 ADD PUSH2 0x16A9 JUMP JUMPDEST PUSH4 0x4E487B71 PUSH1 0xE0 SHL PUSH0 MSTORE PUSH1 0x11 PUSH1 0x4 MSTORE PUSH1 0x24 PUSH0 REVERT JUMPDEST PUSH0 PUSH1 0x1 DUP3 ADD PUSH2 0x1704 JUMPI PUSH2 0x1704 PUSH2 0x16DF JUMP JUMPDEST POP PUSH1 0x1 ADD SWAP1 JUMP JUMPDEST PUSH4 0x4E487B71 PUSH1 0xE0 SHL PUSH0 MSTORE PUSH1 0x41 PUSH1 0x4 MSTORE PUSH1 0x24 PUSH0 REVERT JUMPDEST PUSH4 0x4E487B71 PUSH1 0xE0 SHL PUSH0 MSTORE PUSH1 0x32 PUSH1 0x4 MSTORE PUSH1 0x24 PUSH0 REVERT JUMPDEST PUSH1 0x1 PUSH1 0x1 PUSH1 0xA0 SHL SUB SWAP7 DUP8 AND DUP2 MSTORE SWAP5 DUP7 AND PUSH1 0x20 DUP7 ADD MSTORE SWAP3 SWAP1 SWAP5 AND PUSH1 0x40 DUP5 ADD MSTORE PUSH1 0x60 DUP4 ADD MSTORE PUSH1 0x80 DUP3 ADD SWAP3 SWAP1 SWAP3 MSTORE PUSH1 0xA0 DUP2 ADD SWAP2 SWAP1 SWAP2 MSTORE PUSH1 0xC0 ADD SWAP1 JUMP JUMPDEST DUP2 DUP2 SUB DUP2 DUP2 GT ISZERO PUSH2 0x29F JUMPI PUSH2 0x29F PUSH2 0x16DF JUMP JUMPDEST PUSH4 0x4E487B71 PUSH1 0xE0 SHL PUSH0 MSTORE PUSH1 0x31 PUSH1 0x4 MSTORE PUSH1 0x24 PUSH0 REVERT INVALID LOG2 PUSH5 0x6970667358 0x22 SLT KECCAK256 SWAP15 0x4B GAS 0xCE SELFBALANCE 0xD EXTCODESIZE EXTCODEHASH DUP2 0xCC 0xAA RETURNDATASIZE SWAP11 SWAP6 SWAP8 SWAP6 PUSH13 0xB043225EE95EBF65D5C3122DFD NUMBER SHR PUSH5 0x736F6C6343 STOP ADDMOD SHL STOP CALLER "
				},
				"gasEstimates": {
					"creation": {
						"codeDepositCost": "1217800",
						"executionCost": "1266",
						"totalCost": "1219066"
					},
					"external": {
						"checkDelegateForAll(address,address)": "infinite",
						"checkDelegateForContract(address,address,address)": "infinite",
						"checkDelegateForToken(address,address,address,uint256)": "infinite",
						"delegateForAll(address,bool)": "infinite",
						"delegateForContract(address,address,bool)": "infinite",
						"delegateForToken(address,address,uint256,bool)": "infinite",
						"getContractLevelDelegations(address)": "infinite",
						"getDelegatesForAll(address)": "infinite",
						"getDelegatesForContract(address,address)": "infinite",
						"getDelegatesForToken(address,address,uint256)": "infinite",
						"getDelegationsByDelegate(address)": "infinite",
						"getTokenLevelDelegations(address)": "infinite",
						"revokeAllDelegates()": "25575",
						"revokeDelegate(address)": "26227",
						"revokeSelf(address)": "26229",
						"supportsInterface(bytes4)": "447"
					},
					"internal": {
						"_computeAllDelegationHash(address,address)": "infinite",
						"_computeContractDelegationHash(address,address,address)": "infinite",
						"_computeTokenDelegationHash(address,address,address,uint256)": "infinite",
						"_getDelegatesForLevel(address,enum IDelegationRegistry.DelegationType,address,uint256)": "infinite",
						"_revokeDelegate(address,address)": "infinite",
						"_setDelegationValues(address,bytes32,bool,enum IDelegationRegistry.DelegationType,address,address,uint256)": "infinite"
					}
				},
				"methodIdentifiers": {
					"checkDelegateForAll(address,address)": "9c395bc2",
					"checkDelegateForContract(address,address,address)": "90c9a2d0",
					"checkDelegateForToken(address,address,address,uint256)": "aba69cf8",
					"delegateForAll(address,bool)": "685ee3e8",
					"delegateForContract(address,address,bool)": "49c95d29",
					"delegateForToken(address,address,uint256,bool)": "537a5c3d",
					"getContractLevelDelegations(address)": "f956cf94",
					"getDelegatesForAll(address)": "1b61f675",
					"getDelegatesForContract(address,address)": "ed4b878e",
					"getDelegatesForToken(address,address,uint256)": "1221156b",
					"getDelegationsByDelegate(address)": "4fc69282",
					"getTokenLevelDelegations(address)": "6f007d87",
					"revokeAllDelegates()": "36137872",
					"revokeDelegate(address)": "fa352c00",
					"revokeSelf(address)": "219044b0",
					"supportsInterface(bytes4)": "01ffc9a7"
				}
			},
			"storageLayout": {
				"storage": [
					{
						"astId": 28,
						"contract": "Delegate(copy)(copy)//contracts/DelegationRegistry.sol:DelegationRegistry",
						"label": "delegations",
						"offset": 0,
						"slot": "0",
						"type": "t_mapping(t_address,t_mapping(t_uint256,t_struct(Bytes32Set)1716_storage))"
					},
					{
						"astId": 33,
						"contract": "Delegate(copy)(copy)//contracts/DelegationRegistry.sol:DelegationRegistry",
						"label": "vaultVersion",
						"offset": 0,
						"slot": "1",
						"type": "t_mapping(t_address,t_uint256)"
					},
					{
						"astId": 40,
						"contract": "Delegate(copy)(copy)//contracts/DelegationRegistry.sol:DelegationRegistry",
						"label": "delegateVersion",
						"offset": 0,
						"slot": "2",
						"type": "t_mapping(t_address,t_mapping(t_address,t_uint256))"
					},
					{
						"astId": 46,
						"contract": "Delegate(copy)(copy)//contracts/DelegationRegistry.sol:DelegationRegistry",
						"label": "delegationHashes",
						"offset": 0,
						"slot": "3",
						"type": "t_mapping(t_address,t_struct(Bytes32Set)1716_storage)"
					},
					{
						"astId": 52,
						"contract": "Delegate(copy)(copy)//contracts/DelegationRegistry.sol:DelegationRegistry",
						"label": "delegationInfo",
						"offset": 0,
						"slot": "4",
						"type": "t_mapping(t_bytes32,t_struct(DelegationInfo)1270_storage)"
					}
				],
				"types": {
					"t_address": {
						"encoding": "inplace",
						"label": "address",
						"numberOfBytes": "20"
					},
					"t_array(t_bytes32)dyn_storage": {
						"base": "t_bytes32",
						"encoding": "dynamic_array",
						"label": "bytes32[]",
						"numberOfBytes": "32"
					},
					"t_bytes32": {
						"encoding": "inplace",
						"label": "bytes32",
						"numberOfBytes": "32"
					},
					"t_enum(DelegationType)1257": {
						"encoding": "inplace",
						"label": "enum IDelegationRegistry.DelegationType",
						"numberOfBytes": "1"
					},
					"t_mapping(t_address,t_mapping(t_address,t_uint256))": {
						"encoding": "mapping",
						"key": "t_address",
						"label": "mapping(address => mapping(address => uint256))",
						"numberOfBytes": "32",
						"value": "t_mapping(t_address,t_uint256)"
					},
					"t_mapping(t_address,t_mapping(t_uint256,t_struct(Bytes32Set)1716_storage))": {
						"encoding": "mapping",
						"key": "t_address",
						"label": "mapping(address => mapping(uint256 => struct EnumerableSet.Bytes32Set))",
						"numberOfBytes": "32",
						"value": "t_mapping(t_uint256,t_struct(Bytes32Set)1716_storage)"
					},
					"t_mapping(t_address,t_struct(Bytes32Set)1716_storage)": {
						"encoding": "mapping",
						"key": "t_address",
						"label": "mapping(address => struct EnumerableSet.Bytes32Set)",
						"numberOfBytes": "32",
						"value": "t_struct(Bytes32Set)1716_storage"
					},
					"t_mapping(t_address,t_uint256)": {
						"encoding": "mapping",
						"key": "t_address",
						"label": "mapping(address => uint256)",
						"numberOfBytes": "32",
						"value": "t_uint256"
					},
					"t_mapping(t_bytes32,t_struct(DelegationInfo)1270_storage)": {
						"encoding": "mapping",
						"key": "t_bytes32",
						"label": "mapping(bytes32 => struct IDelegationRegistry.DelegationInfo)",
						"numberOfBytes": "32",
						"value": "t_struct(DelegationInfo)1270_storage"
					},
					"t_mapping(t_bytes32,t_uint256)": {
						"encoding": "mapping",
						"key": "t_bytes32",
						"label": "mapping(bytes32 => uint256)",
						"numberOfBytes": "32",
						"value": "t_uint256"
					},
					"t_mapping(t_uint256,t_struct(Bytes32Set)1716_storage)": {
						"encoding": "mapping",
						"key": "t_uint256",
						"label": "mapping(uint256 => struct EnumerableSet.Bytes32Set)",
						"numberOfBytes": "32",
						"value": "t_struct(Bytes32Set)1716_storage"
					},
					"t_struct(Bytes32Set)1716_storage": {
						"encoding": "inplace",
						"label": "struct EnumerableSet.Bytes32Set",
						"members": [
							{
								"astId": 1715,
								"contract": "Delegate(copy)(copy)//contracts/DelegationRegistry.sol:DelegationRegistry",
								"label": "_inner",
								"offset": 0,
								"slot": "0",
								"type": "t_struct(Set)1522_storage"
							}
						],
						"numberOfBytes": "64"
					},
					"t_struct(DelegationInfo)1270_storage": {
						"encoding": "inplace",
						"label": "struct IDelegationRegistry.DelegationInfo",
						"members": [
							{
								"astId": 1261,
								"contract": "Delegate(copy)(copy)//contracts/DelegationRegistry.sol:DelegationRegistry",
								"label": "type_",
								"offset": 0,
								"slot": "0",
								"type": "t_enum(DelegationType)1257"
							},
							{
								"astId": 1263,
								"contract": "Delegate(copy)(copy)//contracts/DelegationRegistry.sol:DelegationRegistry",
								"label": "vault",
								"offset": 1,
								"slot": "0",
								"type": "t_address"
							},
							{
								"astId": 1265,
								"contract": "Delegate(copy)(copy)//contracts/DelegationRegistry.sol:DelegationRegistry",
								"label": "delegate",
								"offset": 0,
								"slot": "1",
								"type": "t_address"
							},
							{
								"astId": 1267,
								"contract": "Delegate(copy)(copy)//contracts/DelegationRegistry.sol:DelegationRegistry",
								"label": "contract_",
								"offset": 0,
								"slot": "2",
								"type": "t_address"
							},
							{
								"astId": 1269,
								"contract": "Delegate(copy)(copy)//contracts/DelegationRegistry.sol:DelegationRegistry",
								"label": "tokenId",
								"offset": 0,
								"slot": "3",
								"type": "t_uint256"
							}
						],
						"numberOfBytes": "128"
					},
					"t_struct(Set)1522_storage": {
						"encoding": "inplace",
						"label": "struct EnumerableSet.Set",
						"members": [
							{
								"astId": 1517,
								"contract": "Delegate(copy)(copy)//contracts/DelegationRegistry.sol:DelegationRegistry",
								"label": "_values",
								"offset": 0,
								"slot": "0",
								"type": "t_array(t_bytes32)dyn_storage"
							},
							{
								"astId": 1521,
								"contract": "Delegate(copy)(copy)//contracts/DelegationRegistry.sol:DelegationRegistry",
								"label": "_indexes",
								"offset": 0,
								"slot": "1",
								"type": "t_mapping(t_bytes32,t_uint256)"
							}
						],
						"numberOfBytes": "64"
					},
					"t_uint256": {
						"encoding": "inplace",
						"label": "uint256",
						"numberOfBytes": "32"
					}
				}
			},
			"userdoc": {
				"events": {
					"DelegateForAll(address,address,bool)": {
						"notice": "Emitted when a user delegates their entire wallet"
					},
					"DelegateForContract(address,address,address,bool)": {
						"notice": "Emitted when a user delegates a specific contract"
					},
					"DelegateForToken(address,address,address,uint256,bool)": {
						"notice": "Emitted when a user delegates a specific token"
					},
					"RevokeAllDelegates(address)": {
						"notice": "Emitted when a user revokes all delegations"
					},
					"RevokeDelegate(address,address)": {
						"notice": "Emitted when a user revoes all delegations for a given delegate"
					}
				},
				"kind": "user",
				"methods": {
					"checkDelegateForAll(address,address)": {
						"notice": "Returns true if the address is delegated to act on the entire vault"
					},
					"checkDelegateForContract(address,address,address)": {
						"notice": "Returns true if the address is delegated to act on your behalf for a token contract or an entire vault"
					},
					"checkDelegateForToken(address,address,address,uint256)": {
						"notice": "Returns true if the address is delegated to act on your behalf for a specific token, the token's contract or an entire vault"
					},
					"delegateForAll(address,bool)": {
						"notice": "Allow the delegate to act on your behalf for all contracts"
					},
					"delegateForContract(address,address,bool)": {
						"notice": "Allow the delegate to act on your behalf for a specific contract"
					},
					"delegateForToken(address,address,uint256,bool)": {
						"notice": "Allow the delegate to act on your behalf for a specific token"
					},
					"getContractLevelDelegations(address)": {
						"notice": "Returns all contract-level delegations for a given vault"
					},
					"getDelegatesForAll(address)": {
						"notice": "Returns an array of wallet-level delegates for a given vault"
					},
					"getDelegatesForContract(address,address)": {
						"notice": "Returns an array of contract-level delegates for a given vault and contract"
					},
					"getDelegatesForToken(address,address,uint256)": {
						"notice": "Returns an array of contract-level delegates for a given vault's token"
					},
					"getDelegationsByDelegate(address)": {
						"notice": "Returns all active delegations a given delegate is able to claim on behalf of"
					},
					"getTokenLevelDelegations(address)": {
						"notice": "Returns all token-level delegations for a given vault"
					},
					"revokeAllDelegates()": {
						"notice": "Revoke all delegates"
					},
					"revokeDelegate(address)": {
						"notice": "Revoke a specific delegate for all their permissions"
					},
					"revokeSelf(address)": {
						"notice": "Remove yourself as a delegate for a specific vault"
					}
				},
				"notice": "An immutable registry contract to be deployed as a standalone primitive.",
				"version": 1
			}
		}
	}
}